{
  "contractName": "XKeyRouter",
  "abi": [
    {
      "inputs": [
        {
          "internalType": "address",
          "name": "_factory",
          "type": "address"
        },
        {
          "internalType": "address",
          "name": "_WETH",
          "type": "address"
        }
      ],
      "stateMutability": "nonpayable",
      "type": "constructor"
    },
    {
      "inputs": [],
      "name": "WETH",
      "outputs": [
        {
          "internalType": "address",
          "name": "",
          "type": "address"
        }
      ],
      "stateMutability": "view",
      "type": "function",
      "constant": true
    },
    {
      "inputs": [
        {
          "internalType": "address",
          "name": "tokenA",
          "type": "address"
        },
        {
          "internalType": "address",
          "name": "tokenB",
          "type": "address"
        },
        {
          "internalType": "uint256",
          "name": "amountADesired",
          "type": "uint256"
        },
        {
          "internalType": "uint256",
          "name": "amountBDesired",
          "type": "uint256"
        },
        {
          "internalType": "uint256",
          "name": "amountAMin",
          "type": "uint256"
        },
        {
          "internalType": "uint256",
          "name": "amountBMin",
          "type": "uint256"
        },
        {
          "internalType": "uint256",
          "name": "deadline",
          "type": "uint256"
        },
        {
          "internalType": "uint256",
          "name": "tokenId",
          "type": "uint256"
        }
      ],
      "name": "addLiquidity",
      "outputs": [
        {
          "internalType": "uint256",
          "name": "amountA",
          "type": "uint256"
        },
        {
          "internalType": "uint256",
          "name": "amountB",
          "type": "uint256"
        },
        {
          "internalType": "uint256",
          "name": "liquidity",
          "type": "uint256"
        }
      ],
      "stateMutability": "nonpayable",
      "type": "function"
    },
    {
      "inputs": [
        {
          "internalType": "address",
          "name": "token",
          "type": "address"
        },
        {
          "internalType": "uint256",
          "name": "amountTokenDesired",
          "type": "uint256"
        },
        {
          "internalType": "uint256",
          "name": "amountTokenMin",
          "type": "uint256"
        },
        {
          "internalType": "uint256",
          "name": "amountETHMin",
          "type": "uint256"
        },
        {
          "internalType": "uint256",
          "name": "deadline",
          "type": "uint256"
        },
        {
          "internalType": "uint256",
          "name": "tokenId",
          "type": "uint256"
        }
      ],
      "name": "addLiquidityETH",
      "outputs": [
        {
          "internalType": "uint256",
          "name": "amountToken",
          "type": "uint256"
        },
        {
          "internalType": "uint256",
          "name": "amountETH",
          "type": "uint256"
        },
        {
          "internalType": "uint256",
          "name": "liquidity",
          "type": "uint256"
        }
      ],
      "stateMutability": "payable",
      "type": "function",
      "payable": true
    },
    {
      "inputs": [],
      "name": "factory",
      "outputs": [
        {
          "internalType": "address",
          "name": "",
          "type": "address"
        }
      ],
      "stateMutability": "view",
      "type": "function",
      "constant": true
    },
    {
      "inputs": [
        {
          "internalType": "uint256",
          "name": "amountOut",
          "type": "uint256"
        },
        {
          "internalType": "uint256",
          "name": "reserveIn",
          "type": "uint256"
        },
        {
          "internalType": "uint256",
          "name": "reserveOut",
          "type": "uint256"
        }
      ],
      "name": "getAmountIn",
      "outputs": [
        {
          "internalType": "uint256",
          "name": "amountIn",
          "type": "uint256"
        }
      ],
      "stateMutability": "pure",
      "type": "function",
      "constant": true
    },
    {
      "inputs": [
        {
          "internalType": "uint256",
          "name": "amountIn",
          "type": "uint256"
        },
        {
          "internalType": "uint256",
          "name": "reserveIn",
          "type": "uint256"
        },
        {
          "internalType": "uint256",
          "name": "reserveOut",
          "type": "uint256"
        }
      ],
      "name": "getAmountOut",
      "outputs": [
        {
          "internalType": "uint256",
          "name": "amountOut",
          "type": "uint256"
        }
      ],
      "stateMutability": "pure",
      "type": "function",
      "constant": true
    },
    {
      "inputs": [
        {
          "internalType": "uint256",
          "name": "amountOut",
          "type": "uint256"
        },
        {
          "internalType": "address[]",
          "name": "path",
          "type": "address[]"
        }
      ],
      "name": "getAmountsIn",
      "outputs": [
        {
          "internalType": "uint256[]",
          "name": "amounts",
          "type": "uint256[]"
        }
      ],
      "stateMutability": "view",
      "type": "function",
      "constant": true
    },
    {
      "inputs": [
        {
          "internalType": "uint256",
          "name": "amountIn",
          "type": "uint256"
        },
        {
          "internalType": "address[]",
          "name": "path",
          "type": "address[]"
        }
      ],
      "name": "getAmountsOut",
      "outputs": [
        {
          "internalType": "uint256[]",
          "name": "amounts",
          "type": "uint256[]"
        }
      ],
      "stateMutability": "view",
      "type": "function",
      "constant": true
    },
    {
      "inputs": [],
      "name": "owner",
      "outputs": [
        {
          "internalType": "address",
          "name": "",
          "type": "address"
        }
      ],
      "stateMutability": "view",
      "type": "function",
      "constant": true
    },
    {
      "inputs": [
        {
          "internalType": "uint256",
          "name": "amountA",
          "type": "uint256"
        },
        {
          "internalType": "uint256",
          "name": "reserveA",
          "type": "uint256"
        },
        {
          "internalType": "uint256",
          "name": "reserveB",
          "type": "uint256"
        }
      ],
      "name": "quote",
      "outputs": [
        {
          "internalType": "uint256",
          "name": "amountB",
          "type": "uint256"
        }
      ],
      "stateMutability": "pure",
      "type": "function",
      "constant": true
    },
    {
      "inputs": [
        {
          "internalType": "address",
          "name": "tokenA",
          "type": "address"
        },
        {
          "internalType": "address",
          "name": "tokenB",
          "type": "address"
        },
        {
          "internalType": "uint256",
          "name": "liquidity",
          "type": "uint256"
        },
        {
          "internalType": "uint256",
          "name": "amountAMin",
          "type": "uint256"
        },
        {
          "internalType": "uint256",
          "name": "amountBMin",
          "type": "uint256"
        },
        {
          "internalType": "address",
          "name": "to",
          "type": "address"
        },
        {
          "internalType": "uint256",
          "name": "deadline",
          "type": "uint256"
        },
        {
          "internalType": "uint256",
          "name": "tokenId",
          "type": "uint256"
        }
      ],
      "name": "removeLiquidity",
      "outputs": [
        {
          "internalType": "uint256",
          "name": "amountA",
          "type": "uint256"
        },
        {
          "internalType": "uint256",
          "name": "amountB",
          "type": "uint256"
        }
      ],
      "stateMutability": "nonpayable",
      "type": "function"
    },
    {
      "inputs": [
        {
          "internalType": "address",
          "name": "token",
          "type": "address"
        },
        {
          "internalType": "uint256",
          "name": "liquidity",
          "type": "uint256"
        },
        {
          "internalType": "uint256",
          "name": "amountTokenMin",
          "type": "uint256"
        },
        {
          "internalType": "uint256",
          "name": "amountETHMin",
          "type": "uint256"
        },
        {
          "internalType": "address",
          "name": "to",
          "type": "address"
        },
        {
          "internalType": "uint256",
          "name": "deadline",
          "type": "uint256"
        },
        {
          "internalType": "uint256",
          "name": "tokenId",
          "type": "uint256"
        }
      ],
      "name": "removeLiquidityETH",
      "outputs": [
        {
          "internalType": "uint256",
          "name": "amountToken",
          "type": "uint256"
        },
        {
          "internalType": "uint256",
          "name": "amountETH",
          "type": "uint256"
        }
      ],
      "stateMutability": "nonpayable",
      "type": "function"
    },
    {
      "inputs": [
        {
          "internalType": "uint256",
          "name": "amountOut",
          "type": "uint256"
        },
        {
          "internalType": "address[]",
          "name": "path",
          "type": "address[]"
        },
        {
          "internalType": "address",
          "name": "to",
          "type": "address"
        },
        {
          "internalType": "uint256",
          "name": "deadline",
          "type": "uint256"
        }
      ],
      "name": "swapETHForExactTokens",
      "outputs": [
        {
          "internalType": "uint256[]",
          "name": "amounts",
          "type": "uint256[]"
        }
      ],
      "stateMutability": "payable",
      "type": "function",
      "payable": true
    },
    {
      "inputs": [
        {
          "internalType": "uint256",
          "name": "amountOutMin",
          "type": "uint256"
        },
        {
          "internalType": "address[]",
          "name": "path",
          "type": "address[]"
        },
        {
          "internalType": "address",
          "name": "to",
          "type": "address"
        },
        {
          "internalType": "uint256",
          "name": "deadline",
          "type": "uint256"
        }
      ],
      "name": "swapExactETHForTokens",
      "outputs": [
        {
          "internalType": "uint256[]",
          "name": "amounts",
          "type": "uint256[]"
        }
      ],
      "stateMutability": "payable",
      "type": "function",
      "payable": true
    },
    {
      "inputs": [
        {
          "internalType": "uint256",
          "name": "amountIn",
          "type": "uint256"
        },
        {
          "internalType": "uint256",
          "name": "amountOutMin",
          "type": "uint256"
        },
        {
          "internalType": "address[]",
          "name": "path",
          "type": "address[]"
        },
        {
          "internalType": "address",
          "name": "to",
          "type": "address"
        },
        {
          "internalType": "uint256",
          "name": "deadline",
          "type": "uint256"
        }
      ],
      "name": "swapExactTokensForETH",
      "outputs": [
        {
          "internalType": "uint256[]",
          "name": "amounts",
          "type": "uint256[]"
        }
      ],
      "stateMutability": "nonpayable",
      "type": "function"
    },
    {
      "inputs": [
        {
          "internalType": "uint256",
          "name": "amountIn",
          "type": "uint256"
        },
        {
          "internalType": "uint256",
          "name": "amountOutMin",
          "type": "uint256"
        },
        {
          "internalType": "address[]",
          "name": "path",
          "type": "address[]"
        },
        {
          "internalType": "address",
          "name": "to",
          "type": "address"
        },
        {
          "internalType": "uint256",
          "name": "deadline",
          "type": "uint256"
        }
      ],
      "name": "swapExactTokensForTokens",
      "outputs": [
        {
          "internalType": "uint256[]",
          "name": "amounts",
          "type": "uint256[]"
        }
      ],
      "stateMutability": "nonpayable",
      "type": "function"
    },
    {
      "inputs": [
        {
          "internalType": "uint256",
          "name": "amountOut",
          "type": "uint256"
        },
        {
          "internalType": "uint256",
          "name": "amountInMax",
          "type": "uint256"
        },
        {
          "internalType": "address[]",
          "name": "path",
          "type": "address[]"
        },
        {
          "internalType": "address",
          "name": "to",
          "type": "address"
        },
        {
          "internalType": "uint256",
          "name": "deadline",
          "type": "uint256"
        }
      ],
      "name": "swapTokensForExactETH",
      "outputs": [
        {
          "internalType": "uint256[]",
          "name": "amounts",
          "type": "uint256[]"
        }
      ],
      "stateMutability": "nonpayable",
      "type": "function"
    },
    {
      "inputs": [
        {
          "internalType": "uint256",
          "name": "amountOut",
          "type": "uint256"
        },
        {
          "internalType": "uint256",
          "name": "amountInMax",
          "type": "uint256"
        },
        {
          "internalType": "address[]",
          "name": "path",
          "type": "address[]"
        },
        {
          "internalType": "address",
          "name": "to",
          "type": "address"
        },
        {
          "internalType": "uint256",
          "name": "deadline",
          "type": "uint256"
        }
      ],
      "name": "swapTokensForExactTokens",
      "outputs": [
        {
          "internalType": "uint256[]",
          "name": "amounts",
          "type": "uint256[]"
        }
      ],
      "stateMutability": "nonpayable",
      "type": "function"
    },
    {
      "inputs": [],
      "name": "swaplpNFT",
      "outputs": [
        {
          "internalType": "address",
          "name": "",
          "type": "address"
        }
      ],
      "stateMutability": "view",
      "type": "function",
      "constant": true
    },
    {
      "stateMutability": "payable",
      "type": "receive",
      "payable": true
    }
  ],
  "bytecode": "0x60c06040523480156200001157600080fd5b506040516200414938038062004149833981810160405260408110156200003757600080fd5b5080516020918201516001600160601b0319606083811b821660805282901b1660a05260408051633e1a6ac160e01b81529051929391926001600160a01b03851692633e1a6ac19260048082019391829003018186803b1580156200009b57600080fd5b505afa158015620000b0573d6000803e3d6000fd5b505050506040513d6020811015620000c757600080fd5b5051600080546001600160a01b039092166001600160a01b0319909216919091179055505060805160601c60a05160601c613f84620001c5600039806101655280610a985280610ad45280610bfd5280610ec052806111dc528061142652806115d9528061166e52806119df5280611a355280611a695280611aea52806120df52806124b3528061266352806126f8525080610cef5280610ded5280610f93528061103952806112ce528061150c52806116ad52806118805280611a135280611e5b528061219d52806123f052806124195280612599528061273752806131a052806131e35280613667528061374852806137c85250613f846000f3fe6080604052600436106101485760003560e01c80638803dbee116100c0578063ad615dec11610074578063c45a015511610059578063c45a0155146108ab578063d06ca61f146108c0578063fb3bdb41146109775761018e565b8063ad615dec14610806578063ba1ffd031461083c5761018e565b8063a242cd78116100a5578063a242cd7814610711578063a345913914610780578063ad5c4648146107f15761018e565b80638803dbee146106575780638da5cb5b146106fc5761018e565b806338ed1739116101175780635be85994116100fc5780635be85994146105505780637ff36ab51461058e57806385f8c259146106215761018e565b806338ed1739146104065780634a25d94a146104ab5761018e565b8063054d50d4146101935780630cdf2dea146101db57806318cbafe51461025a5780631f00ca741461034f5761018e565b3661018e573373ffffffffffffffffffffffffffffffffffffffff7f0000000000000000000000000000000000000000000000000000000000000000161461018c57fe5b005b600080fd5b34801561019f57600080fd5b506101c9600480360360608110156101b657600080fd5b5080359060208101359060400135610a0a565b60408051918252519081900360200190f35b3480156101e757600080fd5b50610241600480360360e08110156101fe57600080fd5b5073ffffffffffffffffffffffffffffffffffffffff81358116916020810135916040820135916060810135916080820135169060a08101359060c00135610a1f565b6040805192835260208301919091528051918290030190f35b34801561026657600080fd5b506102ff600480360360a081101561027d57600080fd5b8135916020810135918101906060810160408201356401000000008111156102a457600080fd5b8201836020820111156102b657600080fd5b803590602001918460208302840111640100000000831117156102d857600080fd5b919350915073ffffffffffffffffffffffffffffffffffffffff8135169060200135610b74565b60408051602080825283518183015283519192839290830191858101910280838360005b8381101561033b578181015183820152602001610323565b505050509050019250505060405180910390f35b34801561035b57600080fd5b506102ff6004803603604081101561037257600080fd5b8135919081019060408101602082013564010000000081111561039457600080fd5b8201836020820111156103a657600080fd5b803590602001918460208302840111640100000000831117156103c857600080fd5b919080806020026020016040519081016040528093929190818152602001838360200280828437600092019190915250929550610f8c945050505050565b34801561041257600080fd5b506102ff600480360360a081101561042957600080fd5b81359160208101359181019060608101604082013564010000000081111561045057600080fd5b82018360208201111561046257600080fd5b8035906020019184602083028401116401000000008311171561048457600080fd5b919350915073ffffffffffffffffffffffffffffffffffffffff8135169060200135610fc2565b3480156104b757600080fd5b506102ff600480360360a08110156104ce57600080fd5b8135916020810135918101906060810160408201356401000000008111156104f557600080fd5b82018360208201111561050757600080fd5b8035906020019184602083028401116401000000008311171561052957600080fd5b919350915073ffffffffffffffffffffffffffffffffffffffff8135169060200135611153565b34801561055c57600080fd5b50610565611396565b6040805173ffffffffffffffffffffffffffffffffffffffff9092168252519081900360200190f35b6102ff600480360360808110156105a457600080fd5b813591908101906040810160208201356401000000008111156105c657600080fd5b8201836020820111156105d857600080fd5b803590602001918460208302840111640100000000831117156105fa57600080fd5b919350915073ffffffffffffffffffffffffffffffffffffffff81351690602001356113b2565b34801561062d57600080fd5b506101c96004803603606081101561064457600080fd5b50803590602081013590604001356117fc565b34801561066357600080fd5b506102ff600480360360a081101561067a57600080fd5b8135916020810135918101906060810160408201356401000000008111156106a157600080fd5b8201836020820111156106b357600080fd5b803590602001918460208302840111640100000000831117156106d557600080fd5b919350915073ffffffffffffffffffffffffffffffffffffffff8135169060200135611809565b34801561070857600080fd5b50610565611948565b610762600480360360c081101561072757600080fd5b5073ffffffffffffffffffffffffffffffffffffffff8135169060208101359060408101359060608101359060808101359060a00135611964565b60408051938452602084019290925282820152519081900360600190f35b34801561078c57600080fd5b5061024160048036036101008110156107a457600080fd5b5073ffffffffffffffffffffffffffffffffffffffff8135811691602081013582169160408201359160608101359160808201359160a08101359091169060c08101359060e00135611de1565b3480156107fd57600080fd5b506105656120dd565b34801561081257600080fd5b506101c96004803603606081101561082957600080fd5b5080359060208101359060400135612101565b34801561084857600080fd5b50610762600480360361010081101561086057600080fd5b5073ffffffffffffffffffffffffffffffffffffffff813581169160208101359091169060408101359060608101359060808101359060a08101359060c08101359060e0013561210e565b3480156108b757600080fd5b506105656123ee565b3480156108cc57600080fd5b506102ff600480360360408110156108e357600080fd5b8135919081019060408101602082013564010000000081111561090557600080fd5b82018360208201111561091757600080fd5b8035906020019184602083028401116401000000008311171561093957600080fd5b919080806020026020016040519081016040528093929190818152602001838360200280828437600092019190915250929550612412945050505050565b6102ff6004803603608081101561098d57600080fd5b813591908101906040810160208201356401000000008111156109af57600080fd5b8201836020820111156109c157600080fd5b803590602001918460208302840111640100000000831117156109e357600080fd5b919350915073ffffffffffffffffffffffffffffffffffffffff813516906020013561243f565b6000610a1784848461288e565b949350505050565b6000808342811015610a9257604080517f08c379a000000000000000000000000000000000000000000000000000000000815260206004820152601360248201527f584b6579526f757465723a204558504952454400000000000000000000000000604482015290519081900360640190fd5b610ac28a7f00000000000000000000000000000000000000000000000000000000000000008b8b8b308b8b611de1565b9093509150610ad28a87856129b2565b7f000000000000000000000000000000000000000000000000000000000000000073ffffffffffffffffffffffffffffffffffffffff16632e1a7d4d836040518263ffffffff1660e01b815260040180828152602001915050600060405180830381600087803b158015610b4557600080fd5b505af1158015610b59573d6000803e3d6000fd5b50505050610b678683612b79565b5097509795505050505050565b60608142811015610be657604080517f08c379a000000000000000000000000000000000000000000000000000000000815260206004820152601360248201527f584b6579526f757465723a204558504952454400000000000000000000000000604482015290519081900360640190fd5b73ffffffffffffffffffffffffffffffffffffffff7f00000000000000000000000000000000000000000000000000000000000000001686867fffffffffffffffffffffffffffffffffffffffffffffffffffffffffffffffff8101818110610c4b57fe5b9050602002013573ffffffffffffffffffffffffffffffffffffffff1673ffffffffffffffffffffffffffffffffffffffff1614610cea57604080517f08c379a000000000000000000000000000000000000000000000000000000000815260206004820152601860248201527f584b6579526f757465723a20494e56414c49445f504154480000000000000000604482015290519081900360640190fd5b610d487f000000000000000000000000000000000000000000000000000000000000000089888880806020026020016040519081016040528093929190818152602001838360200280828437600092019190915250612cb692505050565b91508682600184510381518110610d5b57fe5b60200260200101511015610dba576040517f08c379a0000000000000000000000000000000000000000000000000000000008152600401808060200182810382526026815260200180613efc6026913960400191505060405180910390fd5b610e7f86866000818110610dca57fe5b9050602002013573ffffffffffffffffffffffffffffffffffffffff1633610e657f00000000000000000000000000000000000000000000000000000000000000008a8a6000818110610e1957fe5b9050602002013573ffffffffffffffffffffffffffffffffffffffff168b8b6001818110610e4357fe5b9050602002013573ffffffffffffffffffffffffffffffffffffffff16612e1c565b85600081518110610e7257fe5b6020026020010151612f07565b610ebe828787808060200260200160405190810160405280939291908181526020018383602002808284376000920191909152503092506130d7915050565b7f000000000000000000000000000000000000000000000000000000000000000073ffffffffffffffffffffffffffffffffffffffff16632e1a7d4d83600185510381518110610f0a57fe5b60200260200101516040518263ffffffff1660e01b815260040180828152602001915050600060405180830381600087803b158015610f4857600080fd5b505af1158015610f5c573d6000803e3d6000fd5b50505050610f818483600185510381518110610f7457fe5b6020026020010151612b79565b509695505050505050565b6060610fb97f0000000000000000000000000000000000000000000000000000000000000000848461335e565b90505b92915050565b6060814281101561103457604080517f08c379a000000000000000000000000000000000000000000000000000000000815260206004820152601360248201527f584b6579526f757465723a204558504952454400000000000000000000000000604482015290519081900360640190fd5b6110927f000000000000000000000000000000000000000000000000000000000000000089888880806020026020016040519081016040528093929190818152602001838360200280828437600092019190915250612cb692505050565b915086826001845103815181106110a557fe5b60200260200101511015611104576040517f08c379a0000000000000000000000000000000000000000000000000000000008152600401808060200182810382526026815260200180613efc6026913960400191505060405180910390fd5b61111486866000818110610dca57fe5b610f81828787808060200260200160405190810160405280939291908181526020018383602002808284376000920191909152508992506130d7915050565b606081428110156111c557604080517f08c379a000000000000000000000000000000000000000000000000000000000815260206004820152601360248201527f584b6579526f757465723a204558504952454400000000000000000000000000604482015290519081900360640190fd5b73ffffffffffffffffffffffffffffffffffffffff7f00000000000000000000000000000000000000000000000000000000000000001686867fffffffffffffffffffffffffffffffffffffffffffffffffffffffffffffffff810181811061122a57fe5b9050602002013573ffffffffffffffffffffffffffffffffffffffff1673ffffffffffffffffffffffffffffffffffffffff16146112c957604080517f08c379a000000000000000000000000000000000000000000000000000000000815260206004820152601860248201527f584b6579526f757465723a20494e56414c49445f504154480000000000000000604482015290519081900360640190fd5b6113277f00000000000000000000000000000000000000000000000000000000000000008988888080602002602001604051908101604052809392919081815260200183836020028082843760009201919091525061335e92505050565b9150868260008151811061133757fe5b60200260200101511115610dba576040517f08c379a0000000000000000000000000000000000000000000000000000000008152600401808060200182810382526022815260200180613dc36022913960400191505060405180910390fd5b60005473ffffffffffffffffffffffffffffffffffffffff1681565b6060814281101561142457604080517f08c379a000000000000000000000000000000000000000000000000000000000815260206004820152601360248201527f584b6579526f757465723a204558504952454400000000000000000000000000604482015290519081900360640190fd5b7f000000000000000000000000000000000000000000000000000000000000000073ffffffffffffffffffffffffffffffffffffffff168686600081811061146857fe5b9050602002013573ffffffffffffffffffffffffffffffffffffffff1673ffffffffffffffffffffffffffffffffffffffff161461150757604080517f08c379a000000000000000000000000000000000000000000000000000000000815260206004820152601860248201527f584b6579526f757465723a20494e56414c49445f504154480000000000000000604482015290519081900360640190fd5b6115657f000000000000000000000000000000000000000000000000000000000000000034888880806020026020016040519081016040528093929190818152602001838360200280828437600092019190915250612cb692505050565b9150868260018451038151811061157857fe5b602002602001015110156115d7576040517f08c379a0000000000000000000000000000000000000000000000000000000008152600401808060200182810382526026815260200180613efc6026913960400191505060405180910390fd5b7f000000000000000000000000000000000000000000000000000000000000000073ffffffffffffffffffffffffffffffffffffffff1663d0e30db08360008151811061162057fe5b60200260200101516040518263ffffffff1660e01b81526004016000604051808303818588803b15801561165357600080fd5b505af1158015611667573d6000803e3d6000fd5b50505050507f000000000000000000000000000000000000000000000000000000000000000073ffffffffffffffffffffffffffffffffffffffff1663a9059cbb6117037f0000000000000000000000000000000000000000000000000000000000000000898960008181106116d957fe5b9050602002013573ffffffffffffffffffffffffffffffffffffffff168a8a6001818110610e4357fe5b8460008151811061171057fe5b60200260200101516040518363ffffffff1660e01b8152600401808373ffffffffffffffffffffffffffffffffffffffff1673ffffffffffffffffffffffffffffffffffffffff16815260200182815260200192505050602060405180830381600087803b15801561178157600080fd5b505af1158015611795573d6000803e3d6000fd5b505050506040513d60208110156117ab57600080fd5b50516117b357fe5b6117f2828787808060200260200160405190810160405280939291908181526020018383602002808284376000920191909152508992506130d7915050565b5095945050505050565b6000610a178484846134ec565b6060814281101561187b57604080517f08c379a000000000000000000000000000000000000000000000000000000000815260206004820152601360248201527f584b6579526f757465723a204558504952454400000000000000000000000000604482015290519081900360640190fd5b6118d97f00000000000000000000000000000000000000000000000000000000000000008988888080602002602001604051908101604052809392919081815260200183836020028082843760009201919091525061335e92505050565b915086826000815181106118e957fe5b60200260200101511115611104576040517f08c379a0000000000000000000000000000000000000000000000000000000008152600401808060200182810382526022815260200180613dc36022913960400191505060405180910390fd5b60015473ffffffffffffffffffffffffffffffffffffffff1681565b600080600084428110156119d957604080517f08c379a000000000000000000000000000000000000000000000000000000000815260206004820152601360248201527f584b6579526f757465723a204558504952454400000000000000000000000000604482015290519081900360640190fd5b611a078a7f00000000000000000000000000000000000000000000000000000000000000008b348c8c613610565b90945092506000611a597f00000000000000000000000000000000000000000000000000000000000000008c7f0000000000000000000000000000000000000000000000000000000000000000612e1c565b9050611a678b338388612f07565b7f000000000000000000000000000000000000000000000000000000000000000073ffffffffffffffffffffffffffffffffffffffff1663d0e30db0856040518263ffffffff1660e01b81526004016000604051808303818588803b158015611acf57600080fd5b505af1158015611ae3573d6000803e3d6000fd5b50505050507f000000000000000000000000000000000000000000000000000000000000000073ffffffffffffffffffffffffffffffffffffffff1663a9059cbb82866040518363ffffffff1660e01b8152600401808373ffffffffffffffffffffffffffffffffffffffff1673ffffffffffffffffffffffffffffffffffffffff16815260200182815260200192505050602060405180830381600087803b158015611b8f57600080fd5b505af1158015611ba3573d6000803e3d6000fd5b505050506040513d6020811015611bb957600080fd5b5051611bc157fe5b8580611c785760008054604080517f18d9502900000000000000000000000000000000000000000000000000000000815273ffffffffffffffffffffffffffffffffffffffff8681166004830152336024830152915191909216926318d9502992604480820193602093909283900390910190829087803b158015611c4557600080fd5b505af1158015611c59573d6000803e3d6000fd5b505050506040513d6020811015611c6f57600080fd5b50519050611d3d565b60008054604080517f6352211e000000000000000000000000000000000000000000000000000000008152600481018b9052905173ffffffffffffffffffffffffffffffffffffffff90921691636352211e91602480820192602092909190829003018186803b158015611ceb57600080fd5b505afa158015611cff573d6000803e3d6000fd5b505050506040513d6020811015611d1557600080fd5b5051905073ffffffffffffffffffffffffffffffffffffffff81163314611d3b57600080fd5b505b8173ffffffffffffffffffffffffffffffffffffffff1663a0712d68826040518263ffffffff1660e01b815260040180828152602001915050602060405180830381600087803b158015611d9057600080fd5b505af1158015611da4573d6000803e3d6000fd5b505050506040513d6020811015611dba57600080fd5b5051935034851015611dd257611dd233863403612b79565b50505096509650969350505050565b6000808342811015611e5457604080517f08c379a000000000000000000000000000000000000000000000000000000000815260206004820152601360248201527f584b6579526f757465723a204558504952454400000000000000000000000000604482015290519081900360640190fd5b6000611e817f00000000000000000000000000000000000000000000000000000000000000008d8d612e1c565b604080517fffb91f6e00000000000000000000000000000000000000000000000000000000815233600482015260248101889052604481018d9052905191925073ffffffffffffffffffffffffffffffffffffffff83169163ffb91f6e9160648082019260009290919082900301818387803b158015611f0057600080fd5b505af1158015611f14573d6000803e3d6000fd5b5050604080517f9dc29fac00000000000000000000000000000000000000000000000000000000815273ffffffffffffffffffffffffffffffffffffffff8b81166004830152602482018a905282516000955085945090861692639dc29fac926044808201939182900301818787803b158015611f9057600080fd5b505af1158015611fa4573d6000803e3d6000fd5b505050506040513d6040811015611fba57600080fd5b50805160209091015190925090506000611fd48f8f613911565b5090508073ffffffffffffffffffffffffffffffffffffffff168f73ffffffffffffffffffffffffffffffffffffffff1614612011578183612014565b82825b90975095508b871015612072576040517f08c379a0000000000000000000000000000000000000000000000000000000008152600401808060200182810382526021815260200180613eb86021913960400191505060405180910390fd5b8a8610156120cb576040517f08c379a0000000000000000000000000000000000000000000000000000000008152600401808060200182810382526021815260200180613e716021913960400191505060405180910390fd5b50505050509850989650505050505050565b7f000000000000000000000000000000000000000000000000000000000000000081565b6000610a17848484613a7a565b6000806000844281101561218357604080517f08c379a000000000000000000000000000000000000000000000000000000000815260206004820152601360248201527f584b6579526f757465723a204558504952454400000000000000000000000000604482015290519081900360640190fd5b6121918c8c8c8c8c8c613610565b909450925060006121c37f00000000000000000000000000000000000000000000000000000000000000008e8e612e1c565b90506121d18d338388612f07565b6121dd8c338387612f07565b85806122945760008054604080517f18d9502900000000000000000000000000000000000000000000000000000000815273ffffffffffffffffffffffffffffffffffffffff8681166004830152336024830152915191909216926318d9502992604480820193602093909283900390910190829087803b15801561226157600080fd5b505af1158015612275573d6000803e3d6000fd5b505050506040513d602081101561228b57600080fd5b50519050612359565b60008054604080517f6352211e000000000000000000000000000000000000000000000000000000008152600481018b9052905173ffffffffffffffffffffffffffffffffffffffff90921691636352211e91602480820192602092909190829003018186803b15801561230757600080fd5b505afa15801561231b573d6000803e3d6000fd5b505050506040513d602081101561233157600080fd5b5051905073ffffffffffffffffffffffffffffffffffffffff8116331461235757600080fd5b505b8173ffffffffffffffffffffffffffffffffffffffff1663a0712d68826040518263ffffffff1660e01b815260040180828152602001915050602060405180830381600087803b1580156123ac57600080fd5b505af11580156123c0573d6000803e3d6000fd5b505050506040513d60208110156123d657600080fd5b5051959e949d50949b50929950505050505050505050565b7f000000000000000000000000000000000000000000000000000000000000000081565b6060610fb97f00000000000000000000000000000000000000000000000000000000000000008484612cb6565b606081428110156124b157604080517f08c379a000000000000000000000000000000000000000000000000000000000815260206004820152601360248201527f584b6579526f757465723a204558504952454400000000000000000000000000604482015290519081900360640190fd5b7f000000000000000000000000000000000000000000000000000000000000000073ffffffffffffffffffffffffffffffffffffffff16868660008181106124f557fe5b9050602002013573ffffffffffffffffffffffffffffffffffffffff1673ffffffffffffffffffffffffffffffffffffffff161461259457604080517f08c379a000000000000000000000000000000000000000000000000000000000815260206004820152601860248201527f584b6579526f757465723a20494e56414c49445f504154480000000000000000604482015290519081900360640190fd5b6125f27f00000000000000000000000000000000000000000000000000000000000000008888888080602002602001604051908101604052809392919081815260200183836020028082843760009201919091525061335e92505050565b9150348260008151811061260257fe5b60200260200101511115612661576040517f08c379a0000000000000000000000000000000000000000000000000000000008152600401808060200182810382526022815260200180613dc36022913960400191505060405180910390fd5b7f000000000000000000000000000000000000000000000000000000000000000073ffffffffffffffffffffffffffffffffffffffff1663d0e30db0836000815181106126aa57fe5b60200260200101516040518263ffffffff1660e01b81526004016000604051808303818588803b1580156126dd57600080fd5b505af11580156126f1573d6000803e3d6000fd5b50505050507f000000000000000000000000000000000000000000000000000000000000000073ffffffffffffffffffffffffffffffffffffffff1663a9059cbb6127637f0000000000000000000000000000000000000000000000000000000000000000898960008181106116d957fe5b8460008151811061277057fe5b60200260200101516040518363ffffffff1660e01b8152600401808373ffffffffffffffffffffffffffffffffffffffff1673ffffffffffffffffffffffffffffffffffffffff16815260200182815260200192505050602060405180830381600087803b1580156127e157600080fd5b505af11580156127f5573d6000803e3d6000fd5b505050506040513d602081101561280b57600080fd5b505161281357fe5b612852828787808060200260200160405190810160405280939291908181526020018383602002808284376000920191909152508992506130d7915050565b8160008151811061285f57fe5b60200260200101513411156117f2576117f2338360008151811061287f57fe5b60200260200101513403612b79565b60008084116128e8576040517f08c379a0000000000000000000000000000000000000000000000000000000008152600401808060200182810382526026815260200180613e926026913960400191505060405180910390fd5b6000831180156128f85750600082115b61294d576040517f08c379a0000000000000000000000000000000000000000000000000000000008152600401808060200182810382526023815260200180613ed96023913960400191505060405180910390fd5b6000612961856103e563ffffffff613b7016565b90506000612975828563ffffffff613b7016565b9050600061299b8361298f886103e863ffffffff613b7016565b9063ffffffff613bf616565b90508082816129a657fe5b04979650505050505050565b6040805173ffffffffffffffffffffffffffffffffffffffff8481166024830152604480830185905283518084039091018152606490920183526020820180517bffffffffffffffffffffffffffffffffffffffffffffffffffffffff167fa9059cbb00000000000000000000000000000000000000000000000000000000178152925182516000946060949389169392918291908083835b60208310612a8857805182527fffffffffffffffffffffffffffffffffffffffffffffffffffffffffffffffe09092019160209182019101612a4b565b6001836020036101000a0380198251168184511680821785525050505050509050019150506000604051808303816000865af19150503d8060008114612aea576040519150601f19603f3d011682016040523d82523d6000602084013e612aef565b606091505b5091509150818015612b1d575080511580612b1d5750808060200190516020811015612b1a57600080fd5b50515b612b72576040517f08c379a000000000000000000000000000000000000000000000000000000000815260040180806020018281038252602d815260200180613f22602d913960400191505060405180910390fd5b5050505050565b6040805160008082526020820190925273ffffffffffffffffffffffffffffffffffffffff84169083906040518082805190602001908083835b60208310612bf057805182527fffffffffffffffffffffffffffffffffffffffffffffffffffffffffffffffe09092019160209182019101612bb3565b6001836020036101000a03801982511681845116808217855250505050505090500191505060006040518083038185875af1925050503d8060008114612c52576040519150601f19603f3d011682016040523d82523d6000602084013e612c57565b606091505b5050905080612cb1576040517f08c379a0000000000000000000000000000000000000000000000000000000008152600401808060200182810382526034815260200180613e166034913960400191505060405180910390fd5b505050565b6060600282511015612d2957604080517f08c379a000000000000000000000000000000000000000000000000000000000815260206004820152601960248201527f584b65794c6962726172793a20494e56414c49445f5041544800000000000000604482015290519081900360640190fd5b815167ffffffffffffffff81118015612d4157600080fd5b50604051908082528060200260200182016040528015612d6b578160200160208202803683370190505b5090508281600081518110612d7c57fe5b60200260200101818152505060005b6001835103811015612e1457600080612dce87868581518110612daa57fe5b6020026020010151878660010181518110612dc157fe5b6020026020010151613c68565b91509150612df0848481518110612de157fe5b6020026020010151838361288e565b848460010181518110612dff57fe5b60209081029190910101525050600101612d8b565b509392505050565b6000806000612e2b8585613911565b604080517fffffffffffffffffffffffffffffffffffffffff000000000000000000000000606094851b811660208084019190915293851b81166034830152825160288184030181526048830184528051908501207fff0000000000000000000000000000000000000000000000000000000000000060688401529a90941b9093166069840152607d8301989098527f999166400106f530b7aa5a4c7160878495a12e0f831d3b89dd0e3a3b10f86eca609d808401919091528851808403909101815260bd909201909752805196019590952095945050505050565b6040805173ffffffffffffffffffffffffffffffffffffffff85811660248301528481166044830152606480830185905283518084039091018152608490920183526020820180517bffffffffffffffffffffffffffffffffffffffffffffffffffffffff167f23b872dd0000000000000000000000000000000000000000000000000000000017815292518251600094606094938a169392918291908083835b60208310612fe557805182527fffffffffffffffffffffffffffffffffffffffffffffffffffffffffffffffe09092019160209182019101612fa8565b6001836020036101000a0380198251168184511680821785525050505050509050019150506000604051808303816000865af19150503d8060008114613047576040519150601f19603f3d011682016040523d82523d6000602084013e61304c565b606091505b509150915081801561307a57508051158061307a575080806020019051602081101561307757600080fd5b50515b6130cf576040517f08c379a0000000000000000000000000000000000000000000000000000000008152600401808060200182810382526031815260200180613de56031913960400191505060405180910390fd5b505050505050565b60005b6001835103811015613358576000808483815181106130f557fe5b602002602001015185846001018151811061310c57fe5b60200260200101519150915060006131248383613911565b509050600087856001018151811061313857fe5b602002602001015190506000808373ffffffffffffffffffffffffffffffffffffffff168673ffffffffffffffffffffffffffffffffffffffff161461318057826000613184565b6000835b91509150600060028a5103881061319b57886131dc565b6131dc7f0000000000000000000000000000000000000000000000000000000000000000878c8b600201815181106131cf57fe5b6020026020010151612e1c565b90506132097f00000000000000000000000000000000000000000000000000000000000000008888612e1c565b73ffffffffffffffffffffffffffffffffffffffff1663022c0d9f84848460006040519080825280601f01601f191660200182016040528015613253576020820181803683370190505b506040518563ffffffff1660e01b8152600401808581526020018481526020018373ffffffffffffffffffffffffffffffffffffffff1673ffffffffffffffffffffffffffffffffffffffff16815260200180602001828103825283818151815260200191508051906020019080838360005b838110156132de5781810151838201526020016132c6565b50505050905090810190601f16801561330b5780820380516001836020036101000a031916815260200191505b5095505050505050600060405180830381600087803b15801561332d57600080fd5b505af1158015613341573d6000803e3d6000fd5b5050600190990198506130da975050505050505050565b50505050565b60606002825110156133d157604080517f08c379a000000000000000000000000000000000000000000000000000000000815260206004820152601960248201527f584b65794c6962726172793a20494e56414c49445f5041544800000000000000604482015290519081900360640190fd5b815167ffffffffffffffff811180156133e957600080fd5b50604051908082528060200260200182016040528015613413578160200160208202803683370190505b509050828160018351038151811061342757fe5b602090810291909101015281517fffffffffffffffffffffffffffffffffffffffffffffffffffffffffffffffff015b8015612e14576000806134878786600186038151811061347357fe5b6020026020010151878681518110612dc157fe5b915091506134a984848151811061349a57fe5b602002602001015183836134ec565b8460018503815181106134b857fe5b602090810291909101015250507fffffffffffffffffffffffffffffffffffffffffffffffffffffffffffffffff01613457565b6000808411613546576040517f08c379a0000000000000000000000000000000000000000000000000000000008152600401808060200182810382526027815260200180613e4a6027913960400191505060405180910390fd5b6000831180156135565750600082115b6135ab576040517f08c379a0000000000000000000000000000000000000000000000000000000008152600401808060200182810382526023815260200180613ed96023913960400191505060405180910390fd5b60006135cf6103e86135c3868863ffffffff613b7016565b9063ffffffff613b7016565b905060006135e96103e56135c3868963ffffffff613d5016565b905061360660018284816135f957fe5b049063ffffffff613bf616565b9695505050505050565b604080517fe6a4390500000000000000000000000000000000000000000000000000000000815273ffffffffffffffffffffffffffffffffffffffff888116600483015287811660248301529151600092839283927f00000000000000000000000000000000000000000000000000000000000000009092169163e6a4390591604480820192602092909190829003018186803b1580156136b057600080fd5b505afa1580156136c4573d6000803e3d6000fd5b505050506040513d60208110156136da57600080fd5b505173ffffffffffffffffffffffffffffffffffffffff1614156137c057604080517fc9c6539600000000000000000000000000000000000000000000000000000000815273ffffffffffffffffffffffffffffffffffffffff8a81166004830152898116602483015291517f00000000000000000000000000000000000000000000000000000000000000009092169163c9c65396916044808201926020929091908290030181600087803b15801561379357600080fd5b505af11580156137a7573d6000803e3d6000fd5b505050506040513d60208110156137bd57600080fd5b50505b6000806137ee7f00000000000000000000000000000000000000000000000000000000000000008b8b613c68565b91509150816000148015613800575080155b1561381057879350869250613904565b600061381d898484613a7a565b905087811161388a578581101561387f576040517f08c379a0000000000000000000000000000000000000000000000000000000008152600401808060200182810382526021815260200180613e716021913960400191505060405180910390fd5b889450925082613902565b6000613897898486613a7a565b9050898111156138a357fe5b878110156138fc576040517f08c379a0000000000000000000000000000000000000000000000000000000008152600401808060200182810382526021815260200180613eb86021913960400191505060405180910390fd5b94508793505b505b5050965096945050505050565b6000808273ffffffffffffffffffffffffffffffffffffffff168473ffffffffffffffffffffffffffffffffffffffff1614156139af57604080517f08c379a000000000000000000000000000000000000000000000000000000000815260206004820181905260248201527f584b65794c6962726172793a204944454e544943414c5f414444524553534553604482015290519081900360640190fd5b8273ffffffffffffffffffffffffffffffffffffffff168473ffffffffffffffffffffffffffffffffffffffff16106139e95782846139ec565b83835b909250905073ffffffffffffffffffffffffffffffffffffffff8216613a7357604080517f08c379a000000000000000000000000000000000000000000000000000000000815260206004820152601960248201527f584b65794c6962726172793a205a45524f5f4144445245535300000000000000604482015290519081900360640190fd5b9250929050565b6000808411613aea57604080517f08c379a000000000000000000000000000000000000000000000000000000000815260206004820181905260248201527f584b65794c6962726172793a20494e53554646494349454e545f414d4f554e54604482015290519081900360640190fd5b600083118015613afa5750600082115b613b4f576040517f08c379a0000000000000000000000000000000000000000000000000000000008152600401808060200182810382526023815260200180613ed96023913960400191505060405180910390fd5b82613b60858463ffffffff613b7016565b81613b6757fe5b04949350505050565b6000811580613b8b57505080820282828281613b8857fe5b04145b610fbc57604080517f08c379a000000000000000000000000000000000000000000000000000000000815260206004820152601460248201527f64732d6d6174682d6d756c2d6f766572666c6f77000000000000000000000000604482015290519081900360640190fd5b80820182811015610fbc57604080517f08c379a000000000000000000000000000000000000000000000000000000000815260206004820152601460248201527f64732d6d6174682d6164642d6f766572666c6f77000000000000000000000000604482015290519081900360640190fd5b6000806000613c778585613911565b509050600080613c88888888612e1c565b73ffffffffffffffffffffffffffffffffffffffff16630902f1ac6040518163ffffffff1660e01b815260040160606040518083038186803b158015613ccd57600080fd5b505afa158015613ce1573d6000803e3d6000fd5b505050506040513d6060811015613cf757600080fd5b5080516020909101516dffffffffffffffffffffffffffff918216935016905073ffffffffffffffffffffffffffffffffffffffff87811690841614613d3e578082613d41565b81815b90999098509650505050505050565b80820382811115610fbc57604080517f08c379a000000000000000000000000000000000000000000000000000000000815260206004820152601560248201527f64732d6d6174682d7375622d756e646572666c6f770000000000000000000000604482015290519081900360640190fdfe584b6579526f757465723a204558434553534956455f494e5055545f414d4f554e545472616e7366657248656c7065723a3a7472616e7366657246726f6d3a207472616e7366657246726f6d206661696c65645472616e7366657248656c7065723a3a736166655472616e736665724554483a20455448207472616e73666572206661696c6564584b65794c6962726172793a20494e53554646494349454e545f4f55545055545f414d4f554e54584b6579526f757465723a20494e53554646494349454e545f425f414d4f554e54584b65794c6962726172793a20494e53554646494349454e545f494e5055545f414d4f554e54584b6579526f757465723a20494e53554646494349454e545f415f414d4f554e54584b65794c6962726172793a20494e53554646494349454e545f4c4951554944495459584b6579526f757465723a20494e53554646494349454e545f4f55545055545f414d4f554e545472616e7366657248656c7065723a3a736166655472616e736665723a207472616e73666572206661696c6564a26469706673582212204928a9bcb8a7183784bbe7ba3a7abbe2ba69cf386fe1aeaacfa8629e2949692f64736f6c63430006060033",
  "schemaVersion": "3.4.0",
  "updatedAt": "2021-05-26T10:30:31.769Z",
  "networkType": "ethereum"
}