{
  "contractName": "XPokerPower",
  "abi": [
    {
      "inputs": [
        {
          "internalType": "contract ISwapLPNFT",
          "name": "_xpoker",
          "type": "address"
        }
      ],
      "payable": false,
      "stateMutability": "nonpayable",
      "type": "constructor"
    },
    {
      "anonymous": false,
      "inputs": [
        {
          "indexed": true,
          "internalType": "address",
          "name": "previousOwner",
          "type": "address"
        },
        {
          "indexed": true,
          "internalType": "address",
          "name": "newOwner",
          "type": "address"
        }
      ],
      "name": "OwnershipTransferred",
      "type": "event"
    },
    {
      "constant": true,
      "inputs": [
        {
          "internalType": "address",
          "name": "",
          "type": "address"
        }
      ],
      "name": "compositeLength",
      "outputs": [
        {
          "internalType": "uint256",
          "name": "",
          "type": "uint256"
        }
      ],
      "payable": false,
      "stateMutability": "view",
      "type": "function"
    },
    {
      "constant": true,
      "inputs": [
        {
          "internalType": "address",
          "name": "",
          "type": "address"
        },
        {
          "internalType": "uint256",
          "name": "",
          "type": "uint256"
        }
      ],
      "name": "compositePokers",
      "outputs": [
        {
          "internalType": "uint256",
          "name": "power",
          "type": "uint256"
        }
      ],
      "payable": false,
      "stateMutability": "view",
      "type": "function"
    },
    {
      "constant": true,
      "inputs": [],
      "name": "isOwner",
      "outputs": [
        {
          "internalType": "bool",
          "name": "",
          "type": "bool"
        }
      ],
      "payable": false,
      "stateMutability": "view",
      "type": "function"
    },
    {
      "constant": true,
      "inputs": [],
      "name": "owner",
      "outputs": [
        {
          "internalType": "address",
          "name": "",
          "type": "address"
        }
      ],
      "payable": false,
      "stateMutability": "view",
      "type": "function"
    },
    {
      "constant": false,
      "inputs": [],
      "name": "renounceOwnership",
      "outputs": [],
      "payable": false,
      "stateMutability": "nonpayable",
      "type": "function"
    },
    {
      "constant": true,
      "inputs": [
        {
          "internalType": "address",
          "name": "",
          "type": "address"
        }
      ],
      "name": "singleLength",
      "outputs": [
        {
          "internalType": "uint256",
          "name": "",
          "type": "uint256"
        }
      ],
      "payable": false,
      "stateMutability": "view",
      "type": "function"
    },
    {
      "constant": true,
      "inputs": [
        {
          "internalType": "address",
          "name": "",
          "type": "address"
        },
        {
          "internalType": "uint256",
          "name": "",
          "type": "uint256"
        }
      ],
      "name": "singlePokerPower",
      "outputs": [
        {
          "internalType": "uint256",
          "name": "tokenId",
          "type": "uint256"
        },
        {
          "internalType": "uint256",
          "name": "power",
          "type": "uint256"
        }
      ],
      "payable": false,
      "stateMutability": "view",
      "type": "function"
    },
    {
      "constant": false,
      "inputs": [
        {
          "internalType": "address",
          "name": "newOwner",
          "type": "address"
        }
      ],
      "name": "transferOwnership",
      "outputs": [],
      "payable": false,
      "stateMutability": "nonpayable",
      "type": "function"
    },
    {
      "constant": false,
      "inputs": [
        {
          "internalType": "address",
          "name": "user",
          "type": "address"
        },
        {
          "internalType": "contract IPairERC20",
          "name": "pair",
          "type": "address"
        },
        {
          "internalType": "uint256",
          "name": "tokenId",
          "type": "uint256"
        }
      ],
      "name": "stake",
      "outputs": [
        {
          "internalType": "uint256",
          "name": "",
          "type": "uint256"
        }
      ],
      "payable": false,
      "stateMutability": "nonpayable",
      "type": "function"
    },
    {
      "constant": false,
      "inputs": [
        {
          "internalType": "address",
          "name": "user",
          "type": "address"
        },
        {
          "internalType": "contract IPairERC20",
          "name": "pair",
          "type": "address"
        },
        {
          "internalType": "uint256[5]",
          "name": "tokenIds",
          "type": "uint256[5]"
        }
      ],
      "name": "stakeComposite",
      "outputs": [
        {
          "internalType": "uint256",
          "name": "",
          "type": "uint256"
        }
      ],
      "payable": false,
      "stateMutability": "nonpayable",
      "type": "function"
    },
    {
      "constant": true,
      "inputs": [
        {
          "internalType": "address",
          "name": "user",
          "type": "address"
        },
        {
          "internalType": "uint256",
          "name": "index",
          "type": "uint256"
        }
      ],
      "name": "getTokenIdsByIndex",
      "outputs": [
        {
          "internalType": "uint256[5]",
          "name": "",
          "type": "uint256[5]"
        }
      ],
      "payable": false,
      "stateMutability": "view",
      "type": "function"
    },
    {
      "constant": true,
      "inputs": [
        {
          "internalType": "address",
          "name": "user",
          "type": "address"
        },
        {
          "internalType": "uint256",
          "name": "index",
          "type": "uint256"
        }
      ],
      "name": "getTokenIdByIndex",
      "outputs": [
        {
          "internalType": "uint256",
          "name": "",
          "type": "uint256"
        }
      ],
      "payable": false,
      "stateMutability": "view",
      "type": "function"
    },
    {
      "constant": true,
      "inputs": [
        {
          "internalType": "address",
          "name": "user",
          "type": "address"
        },
        {
          "internalType": "uint256",
          "name": "index",
          "type": "uint256"
        }
      ],
      "name": "getSinglePowerdByIndex",
      "outputs": [
        {
          "internalType": "uint256",
          "name": "",
          "type": "uint256"
        }
      ],
      "payable": false,
      "stateMutability": "view",
      "type": "function"
    },
    {
      "constant": true,
      "inputs": [
        {
          "internalType": "address",
          "name": "user",
          "type": "address"
        },
        {
          "internalType": "uint256",
          "name": "index",
          "type": "uint256"
        }
      ],
      "name": "getCompositePowerdByIndex",
      "outputs": [
        {
          "internalType": "uint256",
          "name": "",
          "type": "uint256"
        }
      ],
      "payable": false,
      "stateMutability": "view",
      "type": "function"
    },
    {
      "constant": false,
      "inputs": [
        {
          "internalType": "address",
          "name": "user",
          "type": "address"
        },
        {
          "internalType": "uint256",
          "name": "tokenId",
          "type": "uint256"
        }
      ],
      "name": "unstake",
      "outputs": [
        {
          "internalType": "uint256",
          "name": "",
          "type": "uint256"
        }
      ],
      "payable": false,
      "stateMutability": "nonpayable",
      "type": "function"
    },
    {
      "constant": false,
      "inputs": [
        {
          "internalType": "address",
          "name": "user",
          "type": "address"
        },
        {
          "internalType": "uint256",
          "name": "index",
          "type": "uint256"
        }
      ],
      "name": "unstakeComposite",
      "outputs": [
        {
          "internalType": "uint256",
          "name": "",
          "type": "uint256"
        }
      ],
      "payable": false,
      "stateMutability": "nonpayable",
      "type": "function"
    }
  ],
  "bytecode": "0x608060405234801561001057600080fd5b5060405161269a38038061269a8339818101604052602081101561003357600080fd5b8101908080519060200190929190505050600061005461013960201b60201c565b9050806000806101000a81548173ffffffffffffffffffffffffffffffffffffffff021916908373ffffffffffffffffffffffffffffffffffffffff1602179055508073ffffffffffffffffffffffffffffffffffffffff16600073ffffffffffffffffffffffffffffffffffffffff167f8be0079c531659141344cd1fd0a4f28419497f9722a3daafe3b4186f6b6457e060405160405180910390a35080600160006101000a81548173ffffffffffffffffffffffffffffffffffffffff021916908373ffffffffffffffffffffffffffffffffffffffff16021790555050610141565b600033905090565b61254a806101506000396000f3fe608060405234801561001057600080fd5b50600436106101005760003560e01c80638f32d59b11610097578063d973a2ae11610066578063d973a2ae14610528578063deecf75c146105aa578063ebb741a81461060c578063f2fde38b1461066e57610100565b80638f32d59b146103c0578063b7a33108146103e2578063bf6eac2f14610444578063c2a672e0146104c657610100565b80635a6d16af116100d35780635a6d16af1461028a578063715018a6146102e25780637a110ca1146102ec5780638da5cb5b1461037657610100565b80630812abf7146101055780631bdff5a21461016e57806320341d01146101d05780633ffd050814610228575b600080fd5b6101516004803603604081101561011b57600080fd5b81019080803573ffffffffffffffffffffffffffffffffffffffff169060200190929190803590602001909291905050506106b2565b604051808381526020018281526020019250505060405180910390f35b6101ba6004803603604081101561018457600080fd5b81019080803573ffffffffffffffffffffffffffffffffffffffff169060200190929190803590602001909291905050506106f0565b6040518082815260200191505060405180910390f35b610212600480360360208110156101e657600080fd5b81019080803573ffffffffffffffffffffffffffffffffffffffff1690602001909291905050506107f2565b6040518082815260200191505060405180910390f35b6102746004803603604081101561023e57600080fd5b81019080803573ffffffffffffffffffffffffffffffffffffffff1690602001909291908035906020019092919050505061080a565b6040518082815260200191505060405180910390f35b6102cc600480360360208110156102a057600080fd5b81019080803573ffffffffffffffffffffffffffffffffffffffff169060200190929190505050610842565b6040518082815260200191505060405180910390f35b6102ea61085a565b005b6103386004803603604081101561030257600080fd5b81019080803573ffffffffffffffffffffffffffffffffffffffff16906020019092919080359060200190929190505050610993565b6040518082600560200280838360005b83811015610363578082015181840152602081019050610348565b5050505090500191505060405180910390f35b61037e610ad7565b604051808273ffffffffffffffffffffffffffffffffffffffff1673ffffffffffffffffffffffffffffffffffffffff16815260200191505060405180910390f35b6103c8610b00565b604051808215151515815260200191505060405180910390f35b61042e600480360360408110156103f857600080fd5b81019080803573ffffffffffffffffffffffffffffffffffffffff16906020019092919080359060200190929190505050610b5e565b6040518082815260200191505060405180910390f35b6104b06004803603606081101561045a57600080fd5b81019080803573ffffffffffffffffffffffffffffffffffffffff169060200190929190803573ffffffffffffffffffffffffffffffffffffffff16906020019092919080359060200190929190505050610c60565b6040518082815260200191505060405180910390f35b610512600480360360408110156104dc57600080fd5b81019080803573ffffffffffffffffffffffffffffffffffffffff16906020019092919080359060200190929190505050610feb565b6040518082815260200191505060405180910390f35b610594600480360360e081101561053e57600080fd5b81019080803573ffffffffffffffffffffffffffffffffffffffff169060200190929190803573ffffffffffffffffffffffffffffffffffffffff1690602001909291908060a001909192919290505050611389565b6040518082815260200191505060405180910390f35b6105f6600480360360408110156105c057600080fd5b81019080803573ffffffffffffffffffffffffffffffffffffffff16906020019092919080359060200190929190505050611c20565b6040518082815260200191505060405180910390f35b6106586004803603604081101561062257600080fd5b81019080803573ffffffffffffffffffffffffffffffffffffffff16906020019092919080359060200190929190505050611f31565b6040518082815260200191505060405180910390f35b6106b06004803603602081101561068457600080fd5b81019080803573ffffffffffffffffffffffffffffffffffffffff169060200190929190505050612033565b005b600260205281600052604060002081815481106106cb57fe5b9060005260206000209060020201600091509150508060000154908060010154905082565b600080600460008573ffffffffffffffffffffffffffffffffffffffff1673ffffffffffffffffffffffffffffffffffffffff16815260200190815260200160002054905080831061078d576040517f08c379a00000000000000000000000000000000000000000000000000000000081526004018080602001828103825260218152602001806124f56021913960400191505060405180910390fd5b600260008573ffffffffffffffffffffffffffffffffffffffff1673ffffffffffffffffffffffffffffffffffffffff16815260200190815260200160002083815481106107d757fe5b90600052602060002090600202016000015491505092915050565b60056020528060005260406000206000915090505481565b6003602052816000526040600020818154811061082357fe5b9060005260206000209060060201600091509150508060050154905081565b60046020528060005260406000206000915090505481565b610862610b00565b6108d4576040517f08c379a00000000000000000000000000000000000000000000000000000000081526004018080602001828103825260208152602001807f4f776e61626c653a2063616c6c6572206973206e6f7420746865206f776e657281525060200191505060405180910390fd5b600073ffffffffffffffffffffffffffffffffffffffff166000809054906101000a900473ffffffffffffffffffffffffffffffffffffffff1673ffffffffffffffffffffffffffffffffffffffff167f8be0079c531659141344cd1fd0a4f28419497f9722a3daafe3b4186f6b6457e060405160405180910390a360008060006101000a81548173ffffffffffffffffffffffffffffffffffffffff021916908373ffffffffffffffffffffffffffffffffffffffff160217905550565b61099b61228b565b6000600560008573ffffffffffffffffffffffffffffffffffffffff1673ffffffffffffffffffffffffffffffffffffffff168152602001908152602001600020549050808310610a37576040517f08c379a00000000000000000000000000000000000000000000000000000000081526004018080602001828103825260228152602001806123f66022913960400191505060405180910390fd5b600360008573ffffffffffffffffffffffffffffffffffffffff1673ffffffffffffffffffffffffffffffffffffffff1681526020019081526020016000208381548110610a8157fe5b9060005260206000209060060201600001600580602002604051908101604052809291908260058015610ac9576020028201915b815481526020019060010190808311610ab5575b505050505091505092915050565b60008060009054906101000a900473ffffffffffffffffffffffffffffffffffffffff16905090565b60008060009054906101000a900473ffffffffffffffffffffffffffffffffffffffff1673ffffffffffffffffffffffffffffffffffffffff16610b426120b9565b73ffffffffffffffffffffffffffffffffffffffff1614905090565b600080600460008573ffffffffffffffffffffffffffffffffffffffff1673ffffffffffffffffffffffffffffffffffffffff168152602001908152602001600020549050808310610bfb576040517f08c379a00000000000000000000000000000000000000000000000000000000081526004018080602001828103825260268152602001806124886026913960400191505060405180910390fd5b600260008573ffffffffffffffffffffffffffffffffffffffff1673ffffffffffffffffffffffffffffffffffffffff1681526020019081526020016000208381548110610c4557fe5b90600052602060002090600202016001015491505092915050565b6000610c6a610b00565b610cdc576040517f08c379a00000000000000000000000000000000000000000000000000000000081526004018080602001828103825260208152602001807f4f776e61626c653a2063616c6c6572206973206e6f7420746865206f776e657281525060200191505060405180910390fd5b610ce46122ad565b600080600160009054906101000a900473ffffffffffffffffffffffffffffffffffffffff1673ffffffffffffffffffffffffffffffffffffffff166314600ef7866040518263ffffffff1660e01b815260040180828152602001915050604080518083038186803b158015610d5957600080fd5b505afa158015610d6d573d6000803e3d6000fd5b505050506040513d6040811015610d8357600080fd5b81019080805190602001909291908051906020019092919050505080925081935050506000809050610e498773ffffffffffffffffffffffffffffffffffffffff16639cc7f708886040518263ffffffff1660e01b81526004018082815260200191505060206040518083038186803b158015610dff57600080fd5b505afa158015610e13573d6000803e3d6000fd5b505050506040513d6020811015610e2957600080fd5b8101908080519060200190929190505050836120c190919063ffffffff16565b905060008111610ec1576040517f08c379a00000000000000000000000000000000000000000000000000000000081526004018080602001828103825260128152602001807f7374616b653a207a65726f20706f7765722e000000000000000000000000000081525060200191505060405180910390fd5b8584600001818152505080846020018181525050600260008973ffffffffffffffffffffffffffffffffffffffff1673ffffffffffffffffffffffffffffffffffffffff168152602001908152602001600020849080600181540180825580915050906001820390600052602060002090600202016000909192909190915060008201518160000155602082015181600101555050506001600460008a73ffffffffffffffffffffffffffffffffffffffff1673ffffffffffffffffffffffffffffffffffffffff1681526020019081526020016000205401600460008a73ffffffffffffffffffffffffffffffffffffffff1673ffffffffffffffffffffffffffffffffffffffff16815260200190815260200160002081905550809450505050509392505050565b6000610ff5610b00565b611067576040517f08c379a00000000000000000000000000000000000000000000000000000000081526004018080602001828103825260208152602001807f4f776e61626c653a2063616c6c6572206973206e6f7420746865206f776e657281525060200191505060405180910390fd5b6060600260008573ffffffffffffffffffffffffffffffffffffffff1673ffffffffffffffffffffffffffffffffffffffff168152602001908152602001600020805480602002602001604051908101604052809291908181526020016000905b8282101561110e578382906000526020600020906002020160405180604001604052908160008201548152602001600182015481525050815260200190600101906110c8565b5050505090506000600460008673ffffffffffffffffffffffffffffffffffffffff1673ffffffffffffffffffffffffffffffffffffffff168152602001908152602001600020549050600080905060008090505b82811015611306578584828151811061117857fe5b60200260200101516000015114156112f95783818151811061119657fe5b6020026020010151602001519150600260008873ffffffffffffffffffffffffffffffffffffffff1673ffffffffffffffffffffffffffffffffffffffff16815260200190815260200160002060018403815481106111f157fe5b9060005260206000209060020201600260008973ffffffffffffffffffffffffffffffffffffffff1673ffffffffffffffffffffffffffffffffffffffff168152602001908152602001600020828154811061124957fe5b906000526020600020906002020160008201548160000155600182015481600101559050506001600460008973ffffffffffffffffffffffffffffffffffffffff1673ffffffffffffffffffffffffffffffffffffffff1681526020019081526020016000205403600460008973ffffffffffffffffffffffffffffffffffffffff1673ffffffffffffffffffffffffffffffffffffffff16815260200190815260200160002081905550611306565b8080600101915050611163565b506000811161137d576040517f08c379a00000000000000000000000000000000000000000000000000000000081526004018080602001828103825260178152602001807f756e7374616b653a20696e76616c696420706f7765722e00000000000000000081525060200191505060405180910390fd5b80935050505092915050565b6000611393610b00565b611405576040517f08c379a00000000000000000000000000000000000000000000000000000000081526004018080602001828103825260208152602001807f4f776e61626c653a2063616c6c6572206973206e6f7420746865206f776e657281525060200191505060405180910390fd5b600080905060008090506114176122c7565b600060019050600060019050600080905060008090505b600581101561188957600089826005811061144557fe5b6020020135116114a0576040517f08c379a00000000000000000000000000000000000000000000000000000000081526004018080602001828103825260218152602001806124676021913960400191505060405180910390fd5b600160009054906101000a900473ffffffffffffffffffffffffffffffffffffffff1673ffffffffffffffffffffffffffffffffffffffff166314600ef78a83600581106114ea57fe5b60200201356040518263ffffffff1660e01b815260040180828152602001915050604080518083038186803b15801561152257600080fd5b505afa158015611536573d6000803e3d6000fd5b505050506040513d604081101561154c57600080fd5b81019080805190602001909291908051906020019092919050505086836005811061157357fe5b602002015160000187846005811061158757fe5b6020020151602001828152508281525050508481600581106115a557fe5b6020020151602001518701965060008a73ffffffffffffffffffffffffffffffffffffffff16639cc7f7088b84600581106115dc57fe5b60200201356040518263ffffffff1660e01b81526004018082815260200191505060206040518083038186803b15801561161557600080fd5b505afa158015611629573d6000803e3d6000fd5b505050506040513d602081101561163f57600080fd5b810190808051906020019092919050505090508087019650600082118015611692575085600183036005811061167157fe5b60200201516000015186836005811061168657fe5b60200201516000015114155b801561169b5750845b156116a557600094505b60008290505b600081111561187a578660018203600581106116c357fe5b6020020151602001518782600581106116d857fe5b6020020151602001511161186c578660018203600581106116f557fe5b60200201516020015187826005811061170a57fe5b602002015160200151141561179e5786816005811061172557fe5b60200201516000015187600183036005811061173d57fe5b602002015160000151141561179d576040517f08c379a00000000000000000000000000000000000000000000000000000000081526004018080602001828103825260268152602001806124cf6026913960400191505060405180910390fd5b5b60008760018303600581106117af57fe5b60200201516020015190508782600581106117c657fe5b6020020151602001518860018403600581106117de57fe5b60200201516020018181525050808883600581106117f857fe5b6020020151602001818152505087600183036005811061181457fe5b602002015160000151905087826005811061182b57fe5b60200201516000015188600184036005811061184357fe5b602002015160000181815250508088836005811061185d57fe5b60200201516000018181525050505b8080600190039150506116ab565b5050808060010191505061142e565b506000600190505b60058110156119a4578460018203600581106118a957fe5b6020020151602001518582600581106118be57fe5b602002015160200151141561193b576000925060008214156118e35760019150611936565b60018214156118f55760039150611935565b60028214156119075760059150611934565b60038214156119195760079150611933565b60058214806119285750600482145b1561193257600691505b5b5b5b5b611997565b600185600183036005811061194c57fe5b6020020151602001510185826005811061196257fe5b6020020151602001511461197557600092505b60018214156119875760029150611996565b600382141561199557600491505b5b5b8080600101915050611891565b5082156119fb5781156119ec57600a846000600581106119c057fe5b60200201516020015114156119dd57846103e887010295506119e7565b846101c787010295505b6119f6565b8461011387010295505b611aa3565b6007811415611a12578461018b8701029550611aa2565b6001811480611a215750600281145b15611a33578460378701029550611aa1565b6003811480611a425750600481145b15611a54578460a58701029550611aa0565b6005811415611a6a5784606e8701029550611a9f565b6006811415611a81578461014f8701029550611a9e565b8115611a94578460d78701029550611a9d565b84600f87010295505b5b5b5b5b5b5b611aab6122f4565b60405180604001604052808a6005806020026040519081016040528092919082600560200280828437600081840152601f19601f8201169050808301925050505050508152602001888152509050600360008c73ffffffffffffffffffffffffffffffffffffffff1673ffffffffffffffffffffffffffffffffffffffff1681526020019081526020016000208190806001815401808255809150509060018203906000526020600020906006020160009091929091909150600082015181600001906005611b7b929190612314565b50602082015181600501555050506001600560008d73ffffffffffffffffffffffffffffffffffffffff1673ffffffffffffffffffffffffffffffffffffffff1681526020019081526020016000205401600560008d73ffffffffffffffffffffffffffffffffffffffff1673ffffffffffffffffffffffffffffffffffffffff16815260200190815260200160002081905550869750505050505050509392505050565b6000611c2a610b00565b611c9c576040517f08c379a00000000000000000000000000000000000000000000000000000000081526004018080602001828103825260208152602001807f4f776e61626c653a2063616c6c6572206973206e6f7420746865206f776e657281525060200191505060405180910390fd5b6000600560008573ffffffffffffffffffffffffffffffffffffffff1673ffffffffffffffffffffffffffffffffffffffff168152602001908152602001600020549050808310611d55576040517f08c379a00000000000000000000000000000000000000000000000000000000081526004018080602001828103825260208152602001807f756e7374616b65436f6d706f736974653a20696e76616c696420696e6465782e81525060200191505060405180910390fd5b6000600360008673ffffffffffffffffffffffffffffffffffffffff1673ffffffffffffffffffffffffffffffffffffffff1681526020019081526020016000208481548110611da157fe5b90600052602060002090600602019050611db96122f4565b600360008773ffffffffffffffffffffffffffffffffffffffff1673ffffffffffffffffffffffffffffffffffffffff1681526020019081526020016000206001840381548110611e0657fe5b906000526020600020906006020160405180604001604052908160008201600580602002604051908101604052809291908260058015611e5b576020028201915b815481526020019060010190808311611e47575b505050505081526020016005820154815250509050600082600501549050816000015183600001906005611e90929190612354565b50816020015183600501819055506001600560008973ffffffffffffffffffffffffffffffffffffffff1673ffffffffffffffffffffffffffffffffffffffff1681526020019081526020016000205403600560008973ffffffffffffffffffffffffffffffffffffffff1673ffffffffffffffffffffffffffffffffffffffff168152602001908152602001600020819055508094505050505092915050565b600080600560008573ffffffffffffffffffffffffffffffffffffffff1673ffffffffffffffffffffffffffffffffffffffff168152602001908152602001600020549050808310611fce576040517f08c379a000000000000000000000000000000000000000000000000000000000815260040180806020018281038252602981526020018061243e6029913960400191505060405180910390fd5b600360008573ffffffffffffffffffffffffffffffffffffffff1673ffffffffffffffffffffffffffffffffffffffff168152602001908152602001600020838154811061201857fe5b90600052602060002090600602016005015491505092915050565b61203b610b00565b6120ad576040517f08c379a00000000000000000000000000000000000000000000000000000000081526004018080602001828103825260208152602001807f4f776e61626c653a2063616c6c6572206973206e6f7420746865206f776e657281525060200191505060405180910390fd5b6120b681612147565b50565b600033905090565b6000808314156120d45760009050612141565b60008284029050828482816120e557fe5b041461213c576040517f08c379a00000000000000000000000000000000000000000000000000000000081526004018080602001828103825260218152602001806124ae6021913960400191505060405180910390fd5b809150505b92915050565b600073ffffffffffffffffffffffffffffffffffffffff168173ffffffffffffffffffffffffffffffffffffffff1614156121cd576040517f08c379a00000000000000000000000000000000000000000000000000000000081526004018080602001828103825260268152602001806124186026913960400191505060405180910390fd5b8073ffffffffffffffffffffffffffffffffffffffff166000809054906101000a900473ffffffffffffffffffffffffffffffffffffffff1673ffffffffffffffffffffffffffffffffffffffff167f8be0079c531659141344cd1fd0a4f28419497f9722a3daafe3b4186f6b6457e060405160405180910390a3806000806101000a81548173ffffffffffffffffffffffffffffffffffffffff021916908373ffffffffffffffffffffffffffffffffffffffff16021790555050565b6040518060a00160405280600590602082028038833980820191505090505090565b604051806040016040528060008152602001600081525090565b6040518060a001604052806005905b6122de612394565b8152602001906001900390816122d65790505090565b60405180604001604052806123076123ae565b8152602001600081525090565b8260058101928215612343579160200282015b82811115612342578251825591602001919060010190612327565b5b50905061235091906123d0565b5090565b8260058101928215612383579160200282015b82811115612382578251825591602001919060010190612367565b5b50905061239091906123d0565b5090565b604051806040016040528060008152602001600081525090565b6040518060a00160405280600590602082028038833980820191505090505090565b6123f291905b808211156123ee5760008160009055506001016123d6565b5090565b9056fe676574546f6b656e4964734279496e6465783a20696e76616c696420696e6465782e4f776e61626c653a206e6577206f776e657220697320746865207a65726f2061646472657373676574436f6d706f73697465506f776572644279496e6465783a20696e76616c696420696e6465782e7374616b65436f6d706f736974653a20496e76616c696420746f6b656e2069642e67657453696e676c65506f776572644279496e6465783a20696e76616c696420696e6465782e536166654d6174683a206d756c7469706c69636174696f6e206f766572666c6f777374616b65436f6d706f736974653a2043616e6e6f74206164642073616d6520706f6b65722e676574546f6b656e49644279496e6465783a20696e76616c696420696e6465782ea265627a7a72315820609d4cca1b8f13cd6d6679f7ff70e3eba50427f07e49a6b2c776443007f8337064736f6c63430005100032",
  "source": "pragma solidity ^0.5.0;\r\n\r\nimport \"openzeppelin-solidity/contracts/token/ERC721/IERC721.sol\";\r\nimport \"openzeppelin-solidity/contracts/ownership/Ownable.sol\";\r\nimport './libraries/SafeMath.sol';\r\nimport './libraries/SignedSafeMath.sol';\r\nimport './interfaces/ISwapLPNFT.sol';\r\nimport './interfaces/IPairERC20.sol';\r\nimport './interfaces/IXkeyPokerPower.sol';\r\n\r\ncontract XPokerPower is IXkeyPokerPower, Ownable {\r\n    using SafeMath for uint;\r\n    using SignedSafeMath for int256;\r\n\r\n    struct SinglePokerPower {\r\n        uint256 tokenId;\r\n        uint256 power;\r\n    }\r\n\r\n    struct CompositePokerPower {\r\n        uint256[5] tokenIds;\r\n        uint256 power;\r\n    }\r\n\r\n    struct Poker {\r\n        uint256 suit;\r\n        uint256 rank;\r\n    }\r\n\r\n    ISwapLPNFT XPOKER;\r\n    mapping(address => SinglePokerPower[]) public singlePokerPower;\r\n    mapping(address => CompositePokerPower[]) public compositePokers;\r\n    mapping(address => uint) public singleLength;\r\n    mapping(address => uint) public compositeLength;\r\n\r\n    constructor(ISwapLPNFT _xpoker) public {\r\n        XPOKER = _xpoker;\r\n    }\r\n\r\n    function stake(address user, IPairERC20 pair, uint256 tokenId) external onlyOwner returns (uint256) {\r\n        SinglePokerPower memory p;\r\n        uint suit;\r\n        uint rank;\r\n        (suit, rank) = XPOKER.getPokerProperty(tokenId);\r\n        uint256 power = 0;\r\n        power = rank.mul(pair.balanceOf(tokenId));\r\n        require(power>0, \"stake: zero power.\");\r\n        p.tokenId = tokenId;\r\n        p.power = power;\r\n        singlePokerPower[user].push(p);\r\n        singleLength[user] = singleLength[user] + 1;\r\n        return power;\r\n    }\r\n\r\n    function stakeComposite(address user, IPairERC20 pair, uint256[5] calldata tokenIds) external onlyOwner returns(uint256) {\r\n        uint totalNumber = 0;\r\n        uint totalLp = 0;\r\n        Poker[5] memory poker;\r\n        bool isFlush = true;\r\n        bool isStraight = true;\r\n        uint state = 0;  // 0 - High Card, 1 - One Pair, 2 - One Pair End, 3 - Three, 4 - Three End, 5 - Tow Pair, 6 - Full House, 7 - Four\r\n        for (uint i=0; i<5; i++) {\r\n            require(tokenIds[i] > 0, \"stakeComposite: Invalid token id.\");\r\n            (poker[i].suit, poker[i].rank) = XPOKER.getPokerProperty(tokenIds[i]);\r\n            totalNumber = totalNumber + poker[i].rank;\r\n            uint256 lp = pair.balanceOf(tokenIds[i]);\r\n            totalLp = totalLp + lp;\r\n            if(i>0 && poker[i].suit != poker[i-1].suit && isFlush) {\r\n                isFlush = false;\r\n            }\r\n            for (uint j=i; j>0; j--) {\r\n                if (poker[j].rank <= poker[j-1].rank) {\r\n                    if (poker[j].rank == poker[j-1].rank) {\r\n                        require(poker[j-1].suit!=poker[j].suit, \"stakeComposite: Cannot add same poker.\");\r\n                    }\r\n                    uint tmp = poker[j-1].rank;\r\n                    poker[j-1].rank = poker[j].rank;\r\n                    poker[j].rank = tmp;\r\n                    tmp = poker[j-1].suit;\r\n                    poker[j-1].suit = poker[j].suit;\r\n                    poker[j].suit = tmp;\r\n                }\r\n            }\r\n        }\r\n        for (uint x=1; x<5; x++) {\r\n            if (poker[x].rank == poker[x-1].rank) {\r\n                isStraight = false;\r\n                if (state == 0) {\r\n                    state = 1;\r\n                } else if (state == 1) {\r\n                    state = 3;\r\n                } else if (state == 2) {\r\n                    state = 5;\r\n                } else if (state == 3) {\r\n                    state = 7;\r\n                } else if (state == 5 || state == 4) {\r\n                    state = 6;\r\n                }\r\n            } else {\r\n                if (poker[x].rank != (poker[x-1].rank + 1)) {\r\n                    isStraight = false;\r\n                }\r\n                if (state == 1) {\r\n                    state = 2;\r\n                } else if (state == 3) {\r\n                    state = 4;\r\n                }\r\n            }\r\n        }\r\n        if (isFlush) {\r\n            if (isStraight) {\r\n                if (poker[0].rank == 10) {\r\n                    totalNumber = (totalNumber + 1000) * totalLp;\r\n                } else {\r\n                    totalNumber = (totalNumber + 455) * totalLp;\r\n                }\r\n            } else {\r\n                totalNumber = (totalNumber + 275) * totalLp;\r\n            }\r\n        } else {\r\n            if (state == 7) {\r\n                totalNumber = (totalNumber + 395) * totalLp;\r\n            } else if (state == 1 || state == 2) {\r\n                totalNumber = (totalNumber + 55) * totalLp;\r\n            } else if (state == 3 || state == 4) {\r\n                totalNumber = (totalNumber + 165) * totalLp;\r\n            } else if (state == 5) {\r\n                totalNumber = (totalNumber + 110) * totalLp;\r\n            } else if (state == 6) {\r\n                totalNumber = (totalNumber + 335) * totalLp;\r\n            } else {\r\n                if (isStraight) {\r\n                    totalNumber = (totalNumber + 215) * totalLp;\r\n                } else {\r\n                    totalNumber = (totalNumber + 15) * totalLp;\r\n                }\r\n            }\r\n        }\r\n        CompositePokerPower memory cPokers = CompositePokerPower(tokenIds, totalNumber);\r\n        compositePokers[user].push(cPokers);\r\n        compositeLength[user] = compositeLength[user] + 1;\r\n        return totalNumber;\r\n    }\r\n\r\n    function getTokenIdsByIndex(address user, uint256 index) external view returns(uint256[5] memory) {\r\n        uint256 length = compositeLength[user];\r\n        require(index<length, \"getTokenIdsByIndex: invalid index.\");\r\n        return compositePokers[user][index].tokenIds;\r\n    }\r\n\r\n    function getTokenIdByIndex(address user, uint256 index) external view returns(uint256) {\r\n        uint256 length = singleLength[user];\r\n        require(index<length, \"getTokenIdByIndex: invalid index.\");\r\n        return singlePokerPower[user][index].tokenId;\r\n    }\r\n\r\n    function getSinglePowerdByIndex(address user, uint256 index) external view returns(uint256) {\r\n        uint256 length = singleLength[user];\r\n        require(index<length, \"getSinglePowerdByIndex: invalid index.\");\r\n        return singlePokerPower[user][index].power;\r\n    }\r\n\r\n    function getCompositePowerdByIndex(address user, uint256 index) external view returns(uint256) {\r\n        uint256 length = compositeLength[user];\r\n        require(index<length, \"getCompositePowerdByIndex: invalid index.\");\r\n        return compositePokers[user][index].power;\r\n    }\r\n\r\n    function unstake(address user, uint256 tokenId) external onlyOwner returns (uint256) {\r\n        SinglePokerPower[] memory tokens = singlePokerPower[user];\r\n        uint256 length = singleLength[user];\r\n        uint256 power = 0;\r\n        for (uint i=0; i<length; i++) {\r\n            if (tokens[i].tokenId == tokenId) {\r\n                power = tokens[i].power;\r\n                singlePokerPower[user][i] = singlePokerPower[user][length-1];\r\n                singleLength[user] = singleLength[user] - 1;\r\n                break;\r\n            }\r\n        }\r\n        require(power>0, \"unstake: invalid power.\");\r\n        return power;\r\n    }\r\n\r\n    function unstakeComposite(address user, uint256 index) external onlyOwner returns (uint256) {\r\n        uint256 length = compositeLength[user];\r\n        require(index<length, \"unstakeComposite: invalid index.\");\r\n        CompositePokerPower storage cpp = compositePokers[user][index];\r\n        CompositePokerPower memory cpe = compositePokers[user][length-1];\r\n        uint256 power = cpp.power;\r\n        cpp.tokenIds = cpe.tokenIds;\r\n        cpp.power = cpe.power;\r\n        compositeLength[user] = compositeLength[user] - 1;\r\n        return power;\r\n    }\r\n\r\n}\r\n\r\n",
  "sourcePath": "E:/codingproject/xkey/contracts/XPokerPower.sol",
  "compiler": {
    "name": "solc",
    "version": "0.5.16+commit.9c3226ce.Emscripten.clang"
  },
  "schemaVersion": "3.4.0",
  "updatedAt": "2021-05-26T10:30:31.803Z",
  "networkType": "ethereum",
  "devdoc": {
    "methods": {
      "isOwner()": {
        "details": "Returns true if the caller is the current owner."
      },
      "owner()": {
        "details": "Returns the address of the current owner."
      },
      "renounceOwnership()": {
        "details": "Leaves the contract without owner. It will not be possible to call `onlyOwner` functions anymore. Can only be called by the current owner.     * NOTE: Renouncing ownership will leave the contract without an owner, thereby removing any functionality that is only available to the owner."
      },
      "transferOwnership(address)": {
        "details": "Transfers ownership of the contract to a new account (`newOwner`). Can only be called by the current owner."
      }
    }
  },
  "userdoc": {
    "methods": {}
  }
}