{
  "contractName": "ERC20",
  "abi": [
    {
      "inputs": [
        {
          "internalType": "uint256",
          "name": "_totalSupply",
          "type": "uint256"
        }
      ],
      "payable": false,
      "stateMutability": "nonpayable",
      "type": "constructor"
    },
    {
      "anonymous": false,
      "inputs": [
        {
          "indexed": true,
          "internalType": "address",
          "name": "owner",
          "type": "address"
        },
        {
          "indexed": true,
          "internalType": "address",
          "name": "spender",
          "type": "address"
        },
        {
          "indexed": false,
          "internalType": "uint256",
          "name": "value",
          "type": "uint256"
        }
      ],
      "name": "Approval",
      "type": "event"
    },
    {
      "anonymous": false,
      "inputs": [
        {
          "indexed": true,
          "internalType": "address",
          "name": "from",
          "type": "address"
        },
        {
          "indexed": true,
          "internalType": "address",
          "name": "to",
          "type": "address"
        },
        {
          "indexed": false,
          "internalType": "uint256",
          "name": "value",
          "type": "uint256"
        }
      ],
      "name": "Transfer",
      "type": "event"
    },
    {
      "constant": true,
      "inputs": [
        {
          "internalType": "address",
          "name": "",
          "type": "address"
        },
        {
          "internalType": "address",
          "name": "",
          "type": "address"
        }
      ],
      "name": "allowance",
      "outputs": [
        {
          "internalType": "uint256",
          "name": "",
          "type": "uint256"
        }
      ],
      "payable": false,
      "stateMutability": "view",
      "type": "function"
    },
    {
      "constant": false,
      "inputs": [
        {
          "internalType": "address",
          "name": "spender",
          "type": "address"
        },
        {
          "internalType": "uint256",
          "name": "value",
          "type": "uint256"
        }
      ],
      "name": "approve",
      "outputs": [
        {
          "internalType": "bool",
          "name": "",
          "type": "bool"
        }
      ],
      "payable": false,
      "stateMutability": "nonpayable",
      "type": "function"
    },
    {
      "constant": true,
      "inputs": [
        {
          "internalType": "address",
          "name": "",
          "type": "address"
        }
      ],
      "name": "balanceOf",
      "outputs": [
        {
          "internalType": "uint256",
          "name": "",
          "type": "uint256"
        }
      ],
      "payable": false,
      "stateMutability": "view",
      "type": "function"
    },
    {
      "constant": false,
      "inputs": [
        {
          "internalType": "address",
          "name": "new_owner",
          "type": "address"
        }
      ],
      "name": "changeOwner",
      "outputs": [],
      "payable": false,
      "stateMutability": "nonpayable",
      "type": "function"
    },
    {
      "constant": true,
      "inputs": [],
      "name": "decimals",
      "outputs": [
        {
          "internalType": "uint8",
          "name": "",
          "type": "uint8"
        }
      ],
      "payable": false,
      "stateMutability": "view",
      "type": "function"
    },
    {
      "constant": true,
      "inputs": [],
      "name": "max_mint_number",
      "outputs": [
        {
          "internalType": "uint256",
          "name": "",
          "type": "uint256"
        }
      ],
      "payable": false,
      "stateMutability": "view",
      "type": "function"
    },
    {
      "constant": true,
      "inputs": [],
      "name": "max_pre_number",
      "outputs": [
        {
          "internalType": "uint256",
          "name": "",
          "type": "uint256"
        }
      ],
      "payable": false,
      "stateMutability": "view",
      "type": "function"
    },
    {
      "constant": false,
      "inputs": [
        {
          "internalType": "address",
          "name": "to",
          "type": "address"
        },
        {
          "internalType": "uint256",
          "name": "value",
          "type": "uint256"
        }
      ],
      "name": "minerMint",
      "outputs": [],
      "payable": false,
      "stateMutability": "nonpayable",
      "type": "function"
    },
    {
      "constant": true,
      "inputs": [
        {
          "internalType": "address",
          "name": "",
          "type": "address"
        },
        {
          "internalType": "uint256",
          "name": "",
          "type": "uint256"
        }
      ],
      "name": "minter_address_number",
      "outputs": [
        {
          "internalType": "uint256",
          "name": "",
          "type": "uint256"
        }
      ],
      "payable": false,
      "stateMutability": "view",
      "type": "function"
    },
    {
      "constant": true,
      "inputs": [],
      "name": "name",
      "outputs": [
        {
          "internalType": "string",
          "name": "",
          "type": "string"
        }
      ],
      "payable": false,
      "stateMutability": "view",
      "type": "function"
    },
    {
      "constant": true,
      "inputs": [],
      "name": "owner",
      "outputs": [
        {
          "internalType": "address",
          "name": "",
          "type": "address"
        }
      ],
      "payable": false,
      "stateMutability": "view",
      "type": "function"
    },
    {
      "constant": false,
      "inputs": [
        {
          "internalType": "address",
          "name": "miner",
          "type": "address"
        },
        {
          "internalType": "uint256",
          "name": "total",
          "type": "uint256"
        }
      ],
      "name": "setMintContract",
      "outputs": [],
      "payable": false,
      "stateMutability": "nonpayable",
      "type": "function"
    },
    {
      "constant": true,
      "inputs": [],
      "name": "symbol",
      "outputs": [
        {
          "internalType": "string",
          "name": "",
          "type": "string"
        }
      ],
      "payable": false,
      "stateMutability": "view",
      "type": "function"
    },
    {
      "constant": true,
      "inputs": [],
      "name": "totalMinterNumber",
      "outputs": [
        {
          "internalType": "uint256",
          "name": "",
          "type": "uint256"
        }
      ],
      "payable": false,
      "stateMutability": "view",
      "type": "function"
    },
    {
      "constant": true,
      "inputs": [],
      "name": "totalReleaseNumber",
      "outputs": [
        {
          "internalType": "uint256",
          "name": "",
          "type": "uint256"
        }
      ],
      "payable": false,
      "stateMutability": "view",
      "type": "function"
    },
    {
      "constant": true,
      "inputs": [],
      "name": "totalSupply",
      "outputs": [
        {
          "internalType": "uint256",
          "name": "",
          "type": "uint256"
        }
      ],
      "payable": false,
      "stateMutability": "view",
      "type": "function"
    },
    {
      "constant": false,
      "inputs": [
        {
          "internalType": "address",
          "name": "to",
          "type": "address"
        },
        {
          "internalType": "uint256",
          "name": "value",
          "type": "uint256"
        }
      ],
      "name": "transfer",
      "outputs": [
        {
          "internalType": "bool",
          "name": "",
          "type": "bool"
        }
      ],
      "payable": false,
      "stateMutability": "nonpayable",
      "type": "function"
    },
    {
      "constant": false,
      "inputs": [
        {
          "internalType": "address",
          "name": "from",
          "type": "address"
        },
        {
          "internalType": "address",
          "name": "to",
          "type": "address"
        },
        {
          "internalType": "uint256",
          "name": "value",
          "type": "uint256"
        }
      ],
      "name": "transferFrom",
      "outputs": [
        {
          "internalType": "bool",
          "name": "",
          "type": "bool"
        }
      ],
      "payable": false,
      "stateMutability": "nonpayable",
      "type": "function"
    }
  ],
  "bytecode": "0x608060405234801561001057600080fd5b50604051610e79380380610e798339818101604052602081101561003357600080fd5b5051600680546001600160a01b0319163390811790915560008181526004602052604081206b014adf4b7320334b9000000090819055905561007e90826001600160e01b0361008416565b50610208565b6000546b033b2e3c9fd0803ce8000000906100aa90836101a7602090811b6109fa17901c565b11156100fd576040805162461bcd60e51b815260206004820152601b60248201527f43616e6e6f74206d696e7420636f696e206f766572206c696d69740000000000604482015290519081900360640190fd5b6001600160a01b03821660009081526004602090815260409091205461012c9183906109fa6101a7821b17901c565b6001600160a01b03831660009081526004602090815260408220929092555461015e9183906109fa6101a7821b17901c565b60009081556040805183815290516001600160a01b03851692917fddf252ad1be2c89b69c2b068fc378daa952ba7f163c4a11628f55a4df523b3ef919081900360200190a35050565b600082820183811015610201576040805162461bcd60e51b815260206004820152601b60248201527f536166654d6174683a206164646974696f6e206f766572666c6f770000000000604482015290519081900360640190fd5b9392505050565b610c62806102176000396000f3fe608060405234801561001057600080fd5b50600436106101365760003560e01c806395d89b41116100b2578063a9059cbb11610081578063e4eb688d11610066578063e4eb688d146103be578063e53050b7146103c6578063e818cb35146103ce57610136565b8063a9059cbb14610364578063dd62ed3e1461039057610136565b806395d89b411461013b5780639af9d266146102e65780639d85f4df14610312578063a6f9dae11461033e57610136565b8063313ce567116101095780636934d4ea116100ee5780636934d4ea1461029457806370a082311461029c5780638da5cb5b146102c257610136565b8063313ce567146102485780633b349de61461026657610136565b806306fdde031461013b578063095ea7b3146101b857806318160ddd146101f857806323b872dd14610212575b600080fd5b6101436103d6565b6040805160208082528351818301528351919283929083019185019080838360005b8381101561017d578181015183820152602001610165565b50505050905090810190601f1680156101aa5780820380516001836020036101000a031916815260200191505b509250505060405180910390f35b6101e4600480360360408110156101ce57600080fd5b506001600160a01b03813516906020013561040f565b604080519115158252519081900360200190f35b610200610425565b60408051918252519081900360200190f35b6101e46004803603606081101561022857600080fd5b506001600160a01b0381358116916020810135909116906040013561042b565b6102506104c5565b6040805160ff9092168252519081900360200190f35b6102926004803603604081101561027c57600080fd5b506001600160a01b0381351690602001356104ca565b005b6102006105e1565b610200600480360360208110156102b257600080fd5b50356001600160a01b03166105f1565b6102ca610603565b604080516001600160a01b039092168252519081900360200190f35b610200600480360360408110156102fc57600080fd5b506001600160a01b038135169060200135610612565b6102926004803603604081101561032857600080fd5b506001600160a01b038135169060200135610634565b6102926004803603602081101561035457600080fd5b50356001600160a01b03166107b6565b6101e46004803603604081101561037a57600080fd5b506001600160a01b03813516906020013561084f565b610200600480360360408110156103a657600080fd5b506001600160a01b038135811691602001351661085c565b610200610879565b61020061087f565b610200610885565b6040518060400160405280600481526020017f584b45590000000000000000000000000000000000000000000000000000000081525081565b600061041c338484610895565b50600192915050565b60005481565b6001600160a01b0383166000908152600560209081526040808320338452909152812054600019146104b0576001600160a01b038416600090815260056020908152604080832033845290915290205461048b908363ffffffff6108f716565b6001600160a01b03851660009081526005602090815260408083203384529091529020555b6104bb848484610940565b5060019392505050565b601281565b3360009081526003602052604090205461052b576040805162461bcd60e51b815260206004820152600e60248201527f696e76616c6964206d696e746572000000000000000000000000000000000000604482015290519081900360640190fd5b33600090815260036020526040902060018101549054038181111561054d5750805b600081116105a2576040805162461bcd60e51b815260206004820152600f60248201527f6e6f7468696e6720746f206d696e740000000000000000000000000000000000604482015290519081900360640190fd5b336000908152600360205260409020600101546105bf90826109fa565b336000908152600360205260409020600101556105dc8382610a54565b505050565b6b014adf4b7320334b9000000081565b60046020526000908152604090205481565b6006546001600160a01b031681565b6003602052816000526040600020816002811061062b57fe5b01549150829050565b6006546001600160a01b03163314610693576040805162461bcd60e51b815260206004820152601760248201527f666f7220636f6e7472616374206f776e6572206f6e6c79000000000000000000604482015290519081900360640190fd5b6001546b033b2e3c9fd0803ce8000000906106b4908363ffffffff6109fa16565b1115610707576040805162461bcd60e51b815260206004820152601860248201527f6d6178206d696e74206e756d6265722065786365656465640000000000000000604482015290519081900360640190fd5b6001600160a01b038216600090815260036020526040902054158061074857506001600160a01b038216600090815260036020526040902081906001015411155b1561077b576001600160a01b038216600090815260036020526040902081905560015461077590826109fa565b506107b2565b60405162461bcd60e51b815260040180806020018281038252602f815260200180610bff602f913960400191505060405180910390fd5b5050565b6006546001600160a01b03163314610815576040805162461bcd60e51b815260206004820152601760248201527f666f7220636f6e7472616374206f776e6572206f6e6c79000000000000000000604482015290519081900360640190fd5b600680547fffffffffffffffffffffffff0000000000000000000000000000000000000000166001600160a01b0392909216919091179055565b600061041c338484610940565b600560209081526000928352604080842090915290825290205481565b60015481565b60025481565b6b033b2e3c9fd0803ce800000081565b6001600160a01b03808416600081815260056020908152604080832094871680845294825291829020859055815185815291517f8c5be1e5ebec7d5bd14f71427d1e84f3dd0314c0f7b2291e5b200ac8c7c3b9259281900390910190a3505050565b600061093983836040518060400160405280601e81526020017f536166654d6174683a207375627472616374696f6e206f766572666c6f770000815250610b67565b9392505050565b6001600160a01b038316600090815260046020526040902054610969908263ffffffff6108f716565b6001600160a01b03808516600090815260046020526040808220939093559084168152205461099e908263ffffffff6109fa16565b6001600160a01b0380841660008181526004602090815260409182902094909455805185815290519193928716927fddf252ad1be2c89b69c2b068fc378daa952ba7f163c4a11628f55a4df523b3ef92918290030190a3505050565b600082820183811015610939576040805162461bcd60e51b815260206004820152601b60248201527f536166654d6174683a206164646974696f6e206f766572666c6f770000000000604482015290519081900360640190fd5b6000546b033b2e3c9fd0803ce800000090610a75908363ffffffff6109fa16565b1115610ac8576040805162461bcd60e51b815260206004820152601b60248201527f43616e6e6f74206d696e7420636f696e206f766572206c696d69740000000000604482015290519081900360640190fd5b6001600160a01b038216600090815260046020526040902054610af1908263ffffffff6109fa16565b6001600160a01b03831660009081526004602052604081209190915554610b1e908263ffffffff6109fa16565b60009081556040805183815290516001600160a01b03851692917fddf252ad1be2c89b69c2b068fc378daa952ba7f163c4a11628f55a4df523b3ef919081900360200190a35050565b60008184841115610bf65760405162461bcd60e51b81526004018080602001828103825283818151815260200191508051906020019080838360005b83811015610bbb578181015183820152602001610ba3565b50505050905090810190601f168015610be85780820380516001836020036101000a031916815260200191505b509250505060405180910390fd5b50505090039056fe63616e6e6f742073657420746f74616c206e756d626572206c657373207468616e206d696e746564206e756d626572a265627a7a72315820ec4fc1e7215c40965171bb04381dd57f85560cb42ef4ed867b4bbc1960e3092564736f6c63430005100032",
  "source": "pragma solidity >=0.5.16;\r\n\r\nimport '../XKeyToken.sol';\r\n\r\ncontract ERC20 is XKeyToken {\r\n    constructor(uint _totalSupply) public {\r\n        _mint(msg.sender, _totalSupply);\r\n    }\r\n}\r\n",
  "sourcePath": "E:/codingproject/xkey/contracts/test/ERC20.sol",
  "compiler": {
    "name": "solc",
    "version": "0.5.16+commit.9c3226ce.Emscripten.clang"
  },
  "schemaVersion": "3.4.0",
  "updatedAt": "2021-06-09T09:07:09.230Z",
  "devdoc": {
    "methods": {}
  },
  "userdoc": {
    "methods": {}
  }
}