{
  "contractName": "FundPool",
  "abi": [
    {
      "inputs": [
        {
          "internalType": "address",
          "name": "_token_contract_address",
          "type": "address"
        },
        {
          "internalType": "address",
          "name": "_token_investor_address",
          "type": "address"
        },
        {
          "internalType": "address",
          "name": "_token_team_address",
          "type": "address"
        },
        {
          "internalType": "int256",
          "name": "_balance_release_to_investor_per_block",
          "type": "int256"
        }
      ],
      "payable": false,
      "stateMutability": "nonpayable",
      "type": "constructor"
    },
    {
      "anonymous": false,
      "inputs": [
        {
          "indexed": false,
          "internalType": "address",
          "name": "",
          "type": "address"
        },
        {
          "indexed": false,
          "internalType": "uint256",
          "name": "",
          "type": "uint256"
        }
      ],
      "name": "ReleaseMintToInvestor",
      "type": "event"
    },
    {
      "anonymous": false,
      "inputs": [
        {
          "indexed": false,
          "internalType": "address",
          "name": "",
          "type": "address"
        },
        {
          "indexed": false,
          "internalType": "uint256",
          "name": "",
          "type": "uint256"
        }
      ],
      "name": "ReleaseMintToTeam",
      "type": "event"
    },
    {
      "constant": false,
      "inputs": [
        {
          "internalType": "address",
          "name": "admin_new",
          "type": "address"
        }
      ],
      "name": "setAdmin",
      "outputs": [],
      "payable": false,
      "stateMutability": "nonpayable",
      "type": "function"
    },
    {
      "constant": false,
      "inputs": [],
      "name": "turnOn",
      "outputs": [],
      "payable": false,
      "stateMutability": "nonpayable",
      "type": "function"
    },
    {
      "constant": false,
      "inputs": [],
      "name": "turnOff",
      "outputs": [],
      "payable": false,
      "stateMutability": "nonpayable",
      "type": "function"
    },
    {
      "constant": false,
      "inputs": [
        {
          "internalType": "int256",
          "name": "produce_per_block",
          "type": "int256"
        }
      ],
      "name": "modifyProductForInvestorPerBlock",
      "outputs": [],
      "payable": false,
      "stateMutability": "nonpayable",
      "type": "function"
    },
    {
      "constant": false,
      "inputs": [],
      "name": "releaseMint",
      "outputs": [],
      "payable": false,
      "stateMutability": "nonpayable",
      "type": "function"
    },
    {
      "constant": true,
      "inputs": [],
      "name": "getOwner",
      "outputs": [
        {
          "internalType": "address",
          "name": "",
          "type": "address"
        }
      ],
      "payable": false,
      "stateMutability": "view",
      "type": "function"
    },
    {
      "constant": true,
      "inputs": [],
      "name": "getAdmin",
      "outputs": [
        {
          "internalType": "address",
          "name": "",
          "type": "address"
        }
      ],
      "payable": false,
      "stateMutability": "view",
      "type": "function"
    },
    {
      "constant": true,
      "inputs": [],
      "name": "getTokenContractAddr",
      "outputs": [
        {
          "internalType": "address",
          "name": "",
          "type": "address"
        }
      ],
      "payable": false,
      "stateMutability": "view",
      "type": "function"
    },
    {
      "constant": true,
      "inputs": [],
      "name": "getTokenTeamAddr",
      "outputs": [
        {
          "internalType": "address",
          "name": "",
          "type": "address"
        }
      ],
      "payable": false,
      "stateMutability": "view",
      "type": "function"
    },
    {
      "constant": true,
      "inputs": [],
      "name": "getTokenInvestorAddr",
      "outputs": [
        {
          "internalType": "address",
          "name": "",
          "type": "address"
        }
      ],
      "payable": false,
      "stateMutability": "view",
      "type": "function"
    },
    {
      "constant": true,
      "inputs": [],
      "name": "getSwitchStatus",
      "outputs": [
        {
          "internalType": "bool",
          "name": "",
          "type": "bool"
        }
      ],
      "payable": false,
      "stateMutability": "view",
      "type": "function"
    },
    {
      "constant": true,
      "inputs": [],
      "name": "getTotalSupplyForInvestor",
      "outputs": [
        {
          "internalType": "int256",
          "name": "",
          "type": "int256"
        }
      ],
      "payable": false,
      "stateMutability": "pure",
      "type": "function"
    },
    {
      "constant": true,
      "inputs": [],
      "name": "getTotalSupplyForTeam",
      "outputs": [
        {
          "internalType": "int256",
          "name": "",
          "type": "int256"
        }
      ],
      "payable": false,
      "stateMutability": "pure",
      "type": "function"
    },
    {
      "constant": true,
      "inputs": [],
      "name": "getReleasedBalanceForInvestor",
      "outputs": [
        {
          "internalType": "int256",
          "name": "",
          "type": "int256"
        }
      ],
      "payable": false,
      "stateMutability": "view",
      "type": "function"
    },
    {
      "constant": true,
      "inputs": [],
      "name": "getReleasedBalanceForTeam",
      "outputs": [
        {
          "internalType": "int256",
          "name": "",
          "type": "int256"
        }
      ],
      "payable": false,
      "stateMutability": "view",
      "type": "function"
    },
    {
      "constant": true,
      "inputs": [],
      "name": "getProductForInvestorPerBlock",
      "outputs": [
        {
          "internalType": "int256",
          "name": "",
          "type": "int256"
        }
      ],
      "payable": false,
      "stateMutability": "view",
      "type": "function"
    },
    {
      "constant": true,
      "inputs": [],
      "name": "getProductForTeamPerBlock",
      "outputs": [
        {
          "internalType": "int256",
          "name": "",
          "type": "int256"
        }
      ],
      "payable": false,
      "stateMutability": "view",
      "type": "function"
    },
    {
      "constant": true,
      "inputs": [],
      "name": "getSupplyLeftForInvestor",
      "outputs": [
        {
          "internalType": "int256",
          "name": "",
          "type": "int256"
        }
      ],
      "payable": false,
      "stateMutability": "view",
      "type": "function"
    },
    {
      "constant": true,
      "inputs": [],
      "name": "getSupplyLeftForTeam",
      "outputs": [
        {
          "internalType": "int256",
          "name": "",
          "type": "int256"
        }
      ],
      "payable": false,
      "stateMutability": "view",
      "type": "function"
    },
    {
      "constant": true,
      "inputs": [],
      "name": "estimateCurrentProductForInvestor",
      "outputs": [
        {
          "internalType": "int256",
          "name": "",
          "type": "int256"
        }
      ],
      "payable": false,
      "stateMutability": "view",
      "type": "function"
    },
    {
      "constant": true,
      "inputs": [],
      "name": "estimateCurrentProductForTeam",
      "outputs": [
        {
          "internalType": "int256",
          "name": "",
          "type": "int256"
        }
      ],
      "payable": false,
      "stateMutability": "view",
      "type": "function"
    }
  ],
  "bytecode": "0x608060405234801561001057600080fd5b50604051610dac380380610dac8339818101604052608081101561003357600080fd5b5080516020820151604083015160609093015160008054336001600160a01b03199182168117835560018054831690911790556002805482166001600160a01b0396871617905560048054600380548416988816989098179097559516939092169290921760ff60a01b191690925560055560068190556007819055610ced9081906100bf90396000f3fe608060405234801561001057600080fd5b50600436106101775760003560e01c80637eb4d098116100d8578063a30418241161008c578063ba33ed7d11610066578063ba33ed7d14610283578063d09982241461028b578063db4c83ee1461029357610177565b8063a304182414610257578063a9a471551461025f578063af10c8101461027b57610177565b806389ff39fe116100bd57806389ff39fe1461023f5780638a12aeb51461024757806399294b791461024f57610177565b80637eb4d0981461022f578063893d20e81461023757610177565b8063497c8d4f1161012f578063704b6c0211610114578063704b6c02146101f95780637843b5ae1461021f578063789fe3551461022757610177565b8063497c8d4f146101e95780636e9960c3146101f157610177565b80632a53b2f5116101605780632a53b2f5146101a85780633e027378146101c257806342853eec146101ca57610177565b806312e909b01461017c5780632930a69f146101a0575b600080fd5b61018461029b565b604080516001600160a01b039092168252519081900360200190f35b6101846102ab565b6101b06102ba565b60408051918252519081900360200190f35b6101b06102c3565b6101e7600480360360208110156101e057600080fd5b50356102d2565b005b6101b06103cf565b6101846103d8565b6101e76004803603602081101561020f57600080fd5b50356001600160a01b03166103e7565b6101b0610480565b6101e7610486565b6101b06105b3565b610184610636565b610184610645565b6101b0610654565b6101b06106d4565b6101b06106ea565b6102676106f0565b604080519115158252519081900360200190f35b6101e7610700565b6101e761083f565b6101b0610977565b6101b061098a565b6004546001600160a01b03165b90565b6003546001600160a01b031690565b60055460020290565b6aa56fa5b99019a5c800000090565b6001546001600160a01b03163314610331576040805162461bcd60e51b815260206004820152601f60248201527f666f7220636f6e74726163742061646d696e6973747261746f72206f6e6c7900604482015290519081900360640190fd5b6007546a52b7d2dcc80cd2e400000013610392576040805162461bcd60e51b815260206004820152601b60248201527f746f74616c2062616c616e63652072656c656173656420646f6e650000000000604482015290519081900360640190fd5b6000811361039c57fe5b6a52b7d2dcc80cd2e400000081126103b057fe5b600454600160a01b900460ff16156103ca576103ca610999565b600555565b60075460020290565b6001546001600160a01b031690565b6001546001600160a01b03163314610446576040805162461bcd60e51b815260206004820152601f60248201527f666f7220636f6e74726163742061646d696e6973747261746f72206f6e6c7900604482015290519081900360640190fd5b600180547fffffffffffffffffffffffff0000000000000000000000000000000000000000166001600160a01b0392909216919091179055565b60075490565b6001546001600160a01b031633146104e5576040805162461bcd60e51b815260206004820152601f60248201527f666f7220636f6e74726163742061646d696e6973747261746f72206f6e6c7900604482015290519081900360640190fd5b6007546a52b7d2dcc80cd2e400000013610546576040805162461bcd60e51b815260206004820152601b60248201527f746f74616c2062616c616e63652072656c656173656420646f6e650000000000604482015290519081900360640190fd5b600454600160a01b900460ff1615156001146105a9576040805162461bcd60e51b815260206004820152601a60248201527f66756e642072656c6561736520737769746368206973206f6666000000000000604482015290519081900360640190fd5b6105b1610999565b565b600454600090600160a01b900460ff166105cf575060006102a8565b600654439081116105e45760009150506102a8565b60065460055490820302600081136105f857fe5b60075481016000811361060757fe5b6a52b7d2dcc80cd2e4000000811261062c576007546a52b7d2dcc80cd2e40000000391505b5060020291505090565b6000546001600160a01b031690565b6002546001600160a01b031690565b600454600090600160a01b900460ff16610670575060006102a8565b600654439081116106855760009150506102a8565b600654600554908203026000811361069957fe5b6007548101600081136106a857fe5b6a52b7d2dcc80cd2e400000081126106cd576007546a52b7d2dcc80cd2e40000000391505b5091505090565b6007546a52b7d2dcc80cd2e40000000360020290565b60055490565b600454600160a01b900460ff1690565b6001546001600160a01b0316331461075f576040805162461bcd60e51b815260206004820152601f60248201527f666f7220636f6e74726163742061646d696e6973747261746f72206f6e6c7900604482015290519081900360640190fd5b6007546a52b7d2dcc80cd2e4000000136107c0576040805162461bcd60e51b815260206004820152601b60248201527f746f74616c2062616c616e63652072656c656173656420646f6e650000000000604482015290519081900360640190fd5b600454600160a01b900460ff161515600114610823576040805162461bcd60e51b815260206004820152601a60248201527f66756e642072656c6561736520737769746368206973206f6666000000000000604482015290519081900360640190fd5b61082b610999565b6004805460ff60a01b191690556000600655565b6001546001600160a01b0316331461089e576040805162461bcd60e51b815260206004820152601f60248201527f666f7220636f6e74726163742061646d696e6973747261746f72206f6e6c7900604482015290519081900360640190fd5b6007546a52b7d2dcc80cd2e4000000136108ff576040805162461bcd60e51b815260206004820152601b60248201527f746f74616c2062616c616e63652072656c656173656420646f6e650000000000604482015290519081900360640190fd5b600454600160a01b900460ff161561095e576040805162461bcd60e51b815260206004820152601960248201527f66756e642072656c6561736520737769746368206973206f6e00000000000000604482015290519081900360640190fd5b6004805460ff60a01b1916600160a01b17905543600655565b6007546a52b7d2dcc80cd2e40000000390565b6a52b7d2dcc80cd2e400000090565b6001546001600160a01b031633146109f8576040805162461bcd60e51b815260206004820152601f60248201527f666f7220636f6e74726163742061646d696e6973747261746f72206f6e6c7900604482015290519081900360640190fd5b6007546a52b7d2dcc80cd2e400000013610a59576040805162461bcd60e51b815260206004820152601b60248201527f746f74616c2062616c616e63652072656c656173656420646f6e650000000000604482015290519081900360640190fd5b600454600160a01b900460ff161515600114610abc576040805162461bcd60e51b815260206004820152601a60248201527f66756e642072656c6561736520737769746368206973206f6666000000000000604482015290519081900360640190fd5b60065443908111610ac957fe5b6006546005549082030260008113610add57fe5b600754810160008113610aec57fe5b6a52b7d2dcc80cd2e40000008112610b2d57600780546a52b7d2dcc80cd2e4000000918290556004805460ff60a01b19169055600060065590039150610b37565b6007819055436006555b6002820260008113610b4557fe5b6002546004805460408051631d9a4ef360e11b81526001600160a01b03928316938101939093526024830187905251921691633b349de69160448082019260009290919082900301818387803b158015610b9e57600080fd5b505af1158015610bb2573d6000803e3d6000fd5b5050600454604080516001600160a01b0390921682526020820187905280517f50c5d37332f75e67487e4aeed93f6d9b111817941812e40084cde39826af3656945091829003019150a160025460035460408051631d9a4ef360e11b81526001600160a01b0392831660048201526024810185905290519190921691633b349de691604480830192600092919082900301818387803b158015610c5457600080fd5b505af1158015610c68573d6000803e3d6000fd5b5050600354604080516001600160a01b0390921682526020820185905280517fae0c13f85c6c38f73d824c61bb30ecd0aec7198ee67edeaf5b6b53d50c24f24e945091829003019150a15050505056fea265627a7a72315820aec52c057a520382f0442094d21aefc9342b4c288cc0dcea5aee9f1694c314ea64736f6c63430005100032",
  "source": "pragma solidity=0.5.16;\r\n\r\n\r\nimport './interfaces/IERCMint20.sol';\r\n\r\n\r\ncontract FundPool {\r\n    \r\n    event ReleaseMintToInvestor(address, uint);\r\n    event ReleaseMintToTeam(address, uint);\r\n    \r\n    // precision\r\n    int256 constant TOKEN_PRECISION = int256(1000000000000000000);\r\n    \r\n    // max release supply to investor\r\n    int256 constant BALANCE_RELEASED_TO_INVESTOR_MAX = int256(100000000) * TOKEN_PRECISION;\r\n    \r\n    address contract_owner;\r\n    address contract_admin;\r\n    address token_contract_address;\r\n    address token_team_address;\r\n    address token_investor_address;\r\n    bool contract_switch;\r\n    int256 balance_release_to_investor_per_block;\r\n    uint256 last_settle_block_height;\r\n    int256 total_balance_released_to_investor;\r\n    \r\n    \r\n    constructor(address _token_contract_address,\r\n        address _token_investor_address,\r\n        address _token_team_address,\r\n        int256 _balance_release_to_investor_per_block) public {\r\n        contract_owner = msg.sender;\r\n        contract_admin = msg.sender;\r\n        \r\n        // token contract address\r\n        token_contract_address = _token_contract_address;\r\n        \r\n        // investor address\r\n        token_investor_address = _token_investor_address;\r\n        \r\n        // team address\r\n        token_team_address = _token_team_address;\r\n        \r\n        // turn on / turn off\r\n        contract_switch = false;\r\n        \r\n        balance_release_to_investor_per_block = _balance_release_to_investor_per_block;\r\n        \r\n        last_settle_block_height = uint256(0);\r\n        \r\n        // supply has been released\r\n        total_balance_released_to_investor = int256(0);\r\n    }\r\n    \r\n    \r\n    modifier onlyOwner() {\r\n        require(msg.sender == contract_owner, \"for contract owner only\");\r\n        _;\r\n    }\r\n    \r\n    modifier onlyAdmin() {\r\n        require(msg.sender == contract_admin, \"for contract administrator only\");\r\n        _;\r\n    }\r\n    \r\n    modifier notReleaseDone() {\r\n        require(total_balance_released_to_investor < BALANCE_RELEASED_TO_INVESTOR_MAX, \"total balance released done\");\r\n        _;\r\n    }\r\n    \r\n    modifier needSwitchOn() {\r\n        require(contract_switch == true, \"fund release switch is off\");\r\n        _;\r\n    }\r\n    \r\n    modifier needSwitchOff() {\r\n        require(contract_switch == false, \"fund release switch is on\");\r\n        _;\r\n    }\r\n    \r\n    function _releaseBalance() internal \r\n    onlyAdmin() \r\n    notReleaseDone()\r\n    needSwitchOn() {\r\n        uint256 latest_block_num = block.number;\r\n        assert(latest_block_num > last_settle_block_height);\r\n        \r\n        int256 need_to_release_to_investor = balance_release_to_investor_per_block * int256(latest_block_num - last_settle_block_height);\r\n        assert(need_to_release_to_investor > 0);\r\n        int256 total = total_balance_released_to_investor + need_to_release_to_investor;\r\n        assert(total > 0);\r\n        \r\n        if (total >= BALANCE_RELEASED_TO_INVESTOR_MAX) {\r\n            need_to_release_to_investor = BALANCE_RELEASED_TO_INVESTOR_MAX - total_balance_released_to_investor;\r\n            \r\n            // reach the max supply\r\n            total_balance_released_to_investor = BALANCE_RELEASED_TO_INVESTOR_MAX;\r\n            // turn switch to off\r\n            contract_switch = false;\r\n            last_settle_block_height = uint256(0);\r\n        } else {\r\n            total_balance_released_to_investor = total;\r\n            // set latest settle block number\r\n            last_settle_block_height = block.number;\r\n        }\r\n        \r\n        int256 need_to_release_to_team = int256(2) * need_to_release_to_investor;\r\n        assert(need_to_release_to_team > 0);\r\n        \r\n        // mint for investor\r\n        IERCMint20(token_contract_address).minerMint(token_investor_address, uint(need_to_release_to_investor));\r\n        emit ReleaseMintToInvestor(token_investor_address, uint(need_to_release_to_investor));\r\n        \r\n        // mint for team\r\n        IERCMint20(token_contract_address).minerMint(token_team_address, uint(need_to_release_to_team));\r\n        emit ReleaseMintToTeam(token_team_address, uint(need_to_release_to_team));\r\n        \r\n    }\r\n    \r\n    function setAdmin(address admin_new) external \r\n    onlyAdmin() {\r\n        contract_admin = admin_new;\r\n    }\r\n    \r\n    function turnOn() external \r\n    onlyAdmin()\r\n    notReleaseDone()\r\n    needSwitchOff() {\r\n        contract_switch = true;\r\n        last_settle_block_height = block.number;\r\n    }\r\n    \r\n    function turnOff() external \r\n    onlyAdmin()\r\n    notReleaseDone()\r\n    needSwitchOn() {\r\n        \r\n        _releaseBalance();\r\n        \r\n        contract_switch = false;\r\n        last_settle_block_height = uint256(0);\r\n    }\r\n    \r\n    function modifyProductForInvestorPerBlock(int256 produce_per_block) external \r\n    onlyAdmin() \r\n    notReleaseDone() {\r\n        assert(produce_per_block > 0);\r\n        assert(produce_per_block < BALANCE_RELEASED_TO_INVESTOR_MAX);\r\n        \r\n        if (contract_switch) {\r\n            _releaseBalance();\r\n        }\r\n        \r\n        balance_release_to_investor_per_block = produce_per_block;\r\n    }\r\n    \r\n    function releaseMint() external \r\n    onlyAdmin() \r\n    notReleaseDone() \r\n    needSwitchOn() {\r\n        \r\n        _releaseBalance();\r\n    }\r\n    \r\n    function getOwner() external view returns (address) {\r\n        return contract_owner;\r\n    }\r\n    \r\n    function getAdmin() external view returns (address) {\r\n        return contract_admin;\r\n    }\r\n    \r\n    function getTokenContractAddr() external view returns (address) {\r\n        return token_contract_address;\r\n    }\r\n    \r\n    function getTokenTeamAddr() external view returns (address) {\r\n        return token_team_address;\r\n    }\r\n    \r\n    function getTokenInvestorAddr() external view returns (address) {\r\n        return token_investor_address;\r\n    }\r\n    \r\n    function getSwitchStatus() external view returns (bool) {\r\n        return contract_switch;\r\n    }\r\n    \r\n    function getTotalSupplyForInvestor() public pure returns (int256) {\r\n        return BALANCE_RELEASED_TO_INVESTOR_MAX;\r\n    }\r\n    \r\n    function getTotalSupplyForTeam() public pure returns (int256) {\r\n        return BALANCE_RELEASED_TO_INVESTOR_MAX * int256(2);\r\n    }\r\n    \r\n    function getReleasedBalanceForInvestor() external view returns (int256) {\r\n        return total_balance_released_to_investor;\r\n    }\r\n    \r\n    function getReleasedBalanceForTeam() external view returns (int256) {\r\n        return total_balance_released_to_investor * int256(2);\r\n    }\r\n    \r\n    function getProductForInvestorPerBlock() external view returns (int256) {\r\n        return balance_release_to_investor_per_block;\r\n    }\r\n    \r\n    function getProductForTeamPerBlock() external view returns (int256) {\r\n        return balance_release_to_investor_per_block * int256(2);\r\n    }\r\n    \r\n    function getSupplyLeftForInvestor() external view returns (int256) {\r\n        return BALANCE_RELEASED_TO_INVESTOR_MAX - total_balance_released_to_investor;\r\n    }\r\n    \r\n    function getSupplyLeftForTeam() external view returns (int256) {\r\n        return (BALANCE_RELEASED_TO_INVESTOR_MAX - total_balance_released_to_investor) * int256(2);\r\n    }\r\n    \r\n    function estimateCurrentProductForInvestor() external view returns (int256) {\r\n        if (contract_switch == false) {\r\n            return 0;\r\n        }\r\n        \r\n        uint256 latest_block_num = block.number;\r\n        if (latest_block_num <= last_settle_block_height) {\r\n            return 0;\r\n        }\r\n        \r\n        int256 need_to_release_to_investor = balance_release_to_investor_per_block * int256(latest_block_num - last_settle_block_height);\r\n        assert(need_to_release_to_investor > 0);\r\n        \r\n        int256 total = total_balance_released_to_investor + need_to_release_to_investor;\r\n        assert(total > 0);\r\n        \r\n        if (total >= BALANCE_RELEASED_TO_INVESTOR_MAX) {\r\n            need_to_release_to_investor = BALANCE_RELEASED_TO_INVESTOR_MAX - total_balance_released_to_investor;\r\n        } \r\n        \r\n        return need_to_release_to_investor;\r\n    }\r\n    \r\n    function estimateCurrentProductForTeam() external view returns (int256) {\r\n        if (contract_switch == false) {\r\n            return 0;\r\n        }\r\n        \r\n        uint256 latest_block_num = block.number;\r\n        if (latest_block_num <= last_settle_block_height) {\r\n            return 0;\r\n        }\r\n        \r\n        int256 need_to_release_to_investor = balance_release_to_investor_per_block * int256(latest_block_num - last_settle_block_height);\r\n        assert(need_to_release_to_investor > 0);\r\n        \r\n        int256 total = total_balance_released_to_investor + need_to_release_to_investor;\r\n        assert(total > 0);\r\n        \r\n        if (total >= BALANCE_RELEASED_TO_INVESTOR_MAX) {\r\n            need_to_release_to_investor = BALANCE_RELEASED_TO_INVESTOR_MAX - total_balance_released_to_investor;\r\n        } \r\n        \r\n        int256 need_to_release_to_team = need_to_release_to_investor * int256(2);\r\n        return need_to_release_to_team;\r\n    }\r\n}\r\n",
  "sourcePath": "E:/codingproject/xkey/contracts/FundPool.sol",
  "compiler": {
    "name": "solc",
    "version": "0.5.16+commit.9c3226ce.Emscripten.clang"
  },
  "schemaVersion": "3.4.0",
  "updatedAt": "2021-06-04T05:56:25.566Z",
  "devdoc": {
    "methods": {}
  },
  "userdoc": {
    "methods": {}
  }
}