{
  "contractName": "MyNFT",
  "abi": [
    {
      "inputs": [],
      "payable": false,
      "stateMutability": "nonpayable",
      "type": "constructor"
    },
    {
      "anonymous": false,
      "inputs": [
        {
          "indexed": true,
          "internalType": "address",
          "name": "_owner",
          "type": "address"
        },
        {
          "indexed": true,
          "internalType": "address",
          "name": "_approved",
          "type": "address"
        },
        {
          "indexed": true,
          "internalType": "uint256",
          "name": "_tokenId",
          "type": "uint256"
        }
      ],
      "name": "Approval",
      "type": "event"
    },
    {
      "anonymous": false,
      "inputs": [
        {
          "indexed": true,
          "internalType": "address",
          "name": "_owner",
          "type": "address"
        },
        {
          "indexed": true,
          "internalType": "address",
          "name": "_operator",
          "type": "address"
        },
        {
          "indexed": false,
          "internalType": "bool",
          "name": "_approved",
          "type": "bool"
        }
      ],
      "name": "ApprovalForAll",
      "type": "event"
    },
    {
      "anonymous": false,
      "inputs": [
        {
          "indexed": true,
          "internalType": "address",
          "name": "_from",
          "type": "address"
        },
        {
          "indexed": true,
          "internalType": "address",
          "name": "_to",
          "type": "address"
        },
        {
          "indexed": true,
          "internalType": "uint256",
          "name": "_tokenId",
          "type": "uint256"
        }
      ],
      "name": "Transfer",
      "type": "event"
    },
    {
      "constant": false,
      "inputs": [
        {
          "internalType": "address",
          "name": "_to",
          "type": "address"
        },
        {
          "internalType": "uint256",
          "name": "_tokenId",
          "type": "uint256"
        }
      ],
      "name": "mintUniqueTokenTo",
      "outputs": [],
      "payable": false,
      "stateMutability": "nonpayable",
      "type": "function"
    },
    {
      "constant": true,
      "inputs": [
        {
          "internalType": "address",
          "name": "_owner",
          "type": "address"
        }
      ],
      "name": "balanceOf",
      "outputs": [
        {
          "internalType": "uint256",
          "name": "",
          "type": "uint256"
        }
      ],
      "payable": false,
      "stateMutability": "view",
      "type": "function"
    },
    {
      "constant": true,
      "inputs": [
        {
          "internalType": "uint256",
          "name": "_tokenId",
          "type": "uint256"
        }
      ],
      "name": "ownerOf",
      "outputs": [
        {
          "internalType": "address",
          "name": "",
          "type": "address"
        }
      ],
      "payable": false,
      "stateMutability": "view",
      "type": "function"
    },
    {
      "constant": true,
      "inputs": [
        {
          "internalType": "uint256",
          "name": "_tokenId",
          "type": "uint256"
        }
      ],
      "name": "exists",
      "outputs": [
        {
          "internalType": "bool",
          "name": "",
          "type": "bool"
        }
      ],
      "payable": false,
      "stateMutability": "view",
      "type": "function"
    },
    {
      "constant": false,
      "inputs": [
        {
          "internalType": "address",
          "name": "_to",
          "type": "address"
        },
        {
          "internalType": "uint256",
          "name": "_tokenId",
          "type": "uint256"
        }
      ],
      "name": "approve",
      "outputs": [],
      "payable": false,
      "stateMutability": "nonpayable",
      "type": "function"
    },
    {
      "constant": true,
      "inputs": [
        {
          "internalType": "uint256",
          "name": "_tokenId",
          "type": "uint256"
        }
      ],
      "name": "getApproved",
      "outputs": [
        {
          "internalType": "address",
          "name": "",
          "type": "address"
        }
      ],
      "payable": false,
      "stateMutability": "view",
      "type": "function"
    },
    {
      "constant": false,
      "inputs": [
        {
          "internalType": "address",
          "name": "_to",
          "type": "address"
        },
        {
          "internalType": "bool",
          "name": "_approved",
          "type": "bool"
        }
      ],
      "name": "setApprovalForAll",
      "outputs": [],
      "payable": false,
      "stateMutability": "nonpayable",
      "type": "function"
    },
    {
      "constant": true,
      "inputs": [
        {
          "internalType": "address",
          "name": "_owner",
          "type": "address"
        },
        {
          "internalType": "address",
          "name": "_operator",
          "type": "address"
        }
      ],
      "name": "isApprovedForAll",
      "outputs": [
        {
          "internalType": "bool",
          "name": "",
          "type": "bool"
        }
      ],
      "payable": false,
      "stateMutability": "view",
      "type": "function"
    },
    {
      "constant": false,
      "inputs": [
        {
          "internalType": "address",
          "name": "_from",
          "type": "address"
        },
        {
          "internalType": "address",
          "name": "_to",
          "type": "address"
        },
        {
          "internalType": "uint256",
          "name": "_tokenId",
          "type": "uint256"
        }
      ],
      "name": "transferFrom",
      "outputs": [],
      "payable": false,
      "stateMutability": "nonpayable",
      "type": "function"
    },
    {
      "constant": false,
      "inputs": [
        {
          "internalType": "address",
          "name": "_from",
          "type": "address"
        },
        {
          "internalType": "address",
          "name": "_to",
          "type": "address"
        },
        {
          "internalType": "uint256",
          "name": "_tokenId",
          "type": "uint256"
        }
      ],
      "name": "safeTransferFrom",
      "outputs": [],
      "payable": false,
      "stateMutability": "nonpayable",
      "type": "function"
    },
    {
      "constant": false,
      "inputs": [
        {
          "internalType": "address",
          "name": "_from",
          "type": "address"
        },
        {
          "internalType": "address",
          "name": "_to",
          "type": "address"
        },
        {
          "internalType": "uint256",
          "name": "_tokenId",
          "type": "uint256"
        },
        {
          "internalType": "bytes",
          "name": "_data",
          "type": "bytes"
        }
      ],
      "name": "safeTransferFrom",
      "outputs": [],
      "payable": false,
      "stateMutability": "nonpayable",
      "type": "function"
    },
    {
      "constant": false,
      "inputs": [
        {
          "internalType": "address",
          "name": "_to",
          "type": "address"
        },
        {
          "internalType": "uint256",
          "name": "_tokenId",
          "type": "uint256"
        }
      ],
      "name": "_mint",
      "outputs": [],
      "payable": false,
      "stateMutability": "nonpayable",
      "type": "function"
    }
  ],
  "bytecode": "0x608060405234801561001057600080fd5b50611249806100206000396000f3fe608060405234801561001057600080fd5b50600436106100b45760003560e01c80636352211e116100715780636352211e146102e557806370a0823114610353578063a22cb465146103ab578063b6d5e8cd146103fb578063b88d4fde14610449578063e985e9c51461054e576100b4565b8063081812fc146100b9578063095ea7b31461012757806323b872dd1461017557806342842e0e146101e35780634e6ec247146102515780634f558e791461029f575b600080fd5b6100e5600480360360208110156100cf57600080fd5b81019080803590602001909291905050506105ca565b604051808273ffffffffffffffffffffffffffffffffffffffff1673ffffffffffffffffffffffffffffffffffffffff16815260200191505060405180910390f35b6101736004803603604081101561013d57600080fd5b81019080803573ffffffffffffffffffffffffffffffffffffffff16906020019092919080359060200190929190505050610607565b005b6101e16004803603606081101561018b57600080fd5b81019080803573ffffffffffffffffffffffffffffffffffffffff169060200190929190803573ffffffffffffffffffffffffffffffffffffffff16906020019092919080359060200190929190505050610748565b005b61024f600480360360608110156101f957600080fd5b81019080803573ffffffffffffffffffffffffffffffffffffffff169060200190929190803573ffffffffffffffffffffffffffffffffffffffff1690602001909291908035906020019092919050505061084d565b005b61029d6004803603604081101561026757600080fd5b81019080803573ffffffffffffffffffffffffffffffffffffffff1690602001909291908035906020019092919050505061086d565b005b6102cb600480360360208110156102b557600080fd5b8101908080359060200190929190505050610911565b604051808215151515815260200191505060405180910390f35b610311600480360360208110156102fb57600080fd5b8101908080359060200190929190505050610982565b604051808273ffffffffffffffffffffffffffffffffffffffff1673ffffffffffffffffffffffffffffffffffffffff16815260200191505060405180910390f35b6103956004803603602081101561036957600080fd5b81019080803573ffffffffffffffffffffffffffffffffffffffff1690602001909291905050506109fd565b6040518082815260200191505060405180910390f35b6103f9600480360360408110156103c157600080fd5b81019080803573ffffffffffffffffffffffffffffffffffffffff169060200190929190803515159060200190929190505050610a7f565b005b6104476004803603604081101561041157600080fd5b81019080803573ffffffffffffffffffffffffffffffffffffffff16906020019092919080359060200190929190505050610bb9565b005b61054c6004803603608081101561045f57600080fd5b81019080803573ffffffffffffffffffffffffffffffffffffffff169060200190929190803573ffffffffffffffffffffffffffffffffffffffff16906020019092919080359060200190929190803590602001906401000000008111156104c657600080fd5b8201836020820111156104d857600080fd5b803590602001918460018302840111640100000000831117156104fa57600080fd5b91908080601f016020809104026020016040519081016040528093929190818152602001838380828437600081840152601f19601f820116905080830192505050505050509192919290505050610bc7565b005b6105b06004803603604081101561056457600080fd5b81019080803573ffffffffffffffffffffffffffffffffffffffff169060200190929190803573ffffffffffffffffffffffffffffffffffffffff169060200190929190505050610bd8565b604051808215151515815260200191505060405180910390f35b60006001600083815260200190815260200160002060009054906101000a900473ffffffffffffffffffffffffffffffffffffffff169050919050565b600061061282610982565b90508073ffffffffffffffffffffffffffffffffffffffff168373ffffffffffffffffffffffffffffffffffffffff16141561064d57600080fd5b8073ffffffffffffffffffffffffffffffffffffffff163373ffffffffffffffffffffffffffffffffffffffff16148061068d575061068c8133610bd8565b5b61069657600080fd5b826001600084815260200190815260200160002060006101000a81548173ffffffffffffffffffffffffffffffffffffffff021916908373ffffffffffffffffffffffffffffffffffffffff160217905550818373ffffffffffffffffffffffffffffffffffffffff168273ffffffffffffffffffffffffffffffffffffffff167f8c5be1e5ebec7d5bd14f71427d1e84f3dd0314c0f7b2291e5b200ac8c7c3b92560405160405180910390a4505050565b6107523382610c6c565b61075b57600080fd5b600073ffffffffffffffffffffffffffffffffffffffff168373ffffffffffffffffffffffffffffffffffffffff16141561079557600080fd5b600073ffffffffffffffffffffffffffffffffffffffff168273ffffffffffffffffffffffffffffffffffffffff1614156107cf57600080fd5b6107d98382610d01565b6107e38382610e00565b6107ed8282610f2c565b808273ffffffffffffffffffffffffffffffffffffffff168473ffffffffffffffffffffffffffffffffffffffff167fddf252ad1be2c89b69c2b068fc378daa952ba7f163c4a11628f55a4df523b3ef60405160405180910390a4505050565b61086883838360405180602001604052806000815250610bc7565b505050565b600073ffffffffffffffffffffffffffffffffffffffff168273ffffffffffffffffffffffffffffffffffffffff1614156108a757600080fd5b6108b18282610f2c565b808273ffffffffffffffffffffffffffffffffffffffff16600073ffffffffffffffffffffffffffffffffffffffff167fddf252ad1be2c89b69c2b068fc378daa952ba7f163c4a11628f55a4df523b3ef60405160405180910390a45050565b60008060008084815260200190815260200160002060009054906101000a900473ffffffffffffffffffffffffffffffffffffffff169050600073ffffffffffffffffffffffffffffffffffffffff168173ffffffffffffffffffffffffffffffffffffffff161415915050919050565b60008060008084815260200190815260200160002060009054906101000a900473ffffffffffffffffffffffffffffffffffffffff169050600073ffffffffffffffffffffffffffffffffffffffff168173ffffffffffffffffffffffffffffffffffffffff1614156109f457600080fd5b80915050919050565b60008073ffffffffffffffffffffffffffffffffffffffff168273ffffffffffffffffffffffffffffffffffffffff161415610a3857600080fd5b600260008373ffffffffffffffffffffffffffffffffffffffff1673ffffffffffffffffffffffffffffffffffffffff168152602001908152602001600020549050919050565b3373ffffffffffffffffffffffffffffffffffffffff168273ffffffffffffffffffffffffffffffffffffffff161415610ab857600080fd5b80600360003373ffffffffffffffffffffffffffffffffffffffff1673ffffffffffffffffffffffffffffffffffffffff16815260200190815260200160002060008473ffffffffffffffffffffffffffffffffffffffff1673ffffffffffffffffffffffffffffffffffffffff16815260200190815260200160002060006101000a81548160ff0219169083151502179055508173ffffffffffffffffffffffffffffffffffffffff163373ffffffffffffffffffffffffffffffffffffffff167f17307eab39ab6107e8899845ad3d59bd9653f200f220920489ca2b5937696c3183604051808215151515815260200191505060405180910390a35050565b610bc3828261086d565b5050565b610bd2848484610748565b50505050565b6000600360008473ffffffffffffffffffffffffffffffffffffffff1673ffffffffffffffffffffffffffffffffffffffff16815260200190815260200160002060008373ffffffffffffffffffffffffffffffffffffffff1673ffffffffffffffffffffffffffffffffffffffff16815260200190815260200160002060009054906101000a900460ff16905092915050565b600080610c7883610982565b90508073ffffffffffffffffffffffffffffffffffffffff168473ffffffffffffffffffffffffffffffffffffffff161480610ce757508373ffffffffffffffffffffffffffffffffffffffff16610ccf846105ca565b73ffffffffffffffffffffffffffffffffffffffff16145b80610cf85750610cf78185610bd8565b5b91505092915050565b8173ffffffffffffffffffffffffffffffffffffffff16610d2182610982565b73ffffffffffffffffffffffffffffffffffffffff1614610d4157600080fd5b600073ffffffffffffffffffffffffffffffffffffffff166001600083815260200190815260200160002060009054906101000a900473ffffffffffffffffffffffffffffffffffffffff1673ffffffffffffffffffffffffffffffffffffffff1614610dfc5760006001600083815260200190815260200160002060006101000a81548173ffffffffffffffffffffffffffffffffffffffff021916908373ffffffffffffffffffffffffffffffffffffffff1602179055505b5050565b8173ffffffffffffffffffffffffffffffffffffffff16610e2082610982565b73ffffffffffffffffffffffffffffffffffffffff1614610e4057600080fd5b610e936001600260008573ffffffffffffffffffffffffffffffffffffffff1673ffffffffffffffffffffffffffffffffffffffff1681526020019081526020016000205461108290919063ffffffff16565b600260008473ffffffffffffffffffffffffffffffffffffffff1673ffffffffffffffffffffffffffffffffffffffff16815260200190815260200160002081905550600080600083815260200190815260200160002060006101000a81548173ffffffffffffffffffffffffffffffffffffffff021916908373ffffffffffffffffffffffffffffffffffffffff1602179055505050565b600073ffffffffffffffffffffffffffffffffffffffff1660008083815260200190815260200160002060009054906101000a900473ffffffffffffffffffffffffffffffffffffffff1673ffffffffffffffffffffffffffffffffffffffff1614610f9757600080fd5b8160008083815260200190815260200160002060006101000a81548173ffffffffffffffffffffffffffffffffffffffff021916908373ffffffffffffffffffffffffffffffffffffffff16021790555061103b6001600260008573ffffffffffffffffffffffffffffffffffffffff1673ffffffffffffffffffffffffffffffffffffffff168152602001908152602001600020546110cc90919063ffffffff16565b600260008473ffffffffffffffffffffffffffffffffffffffff1673ffffffffffffffffffffffffffffffffffffffff168152602001908152602001600020819055505050565b60006110c483836040518060400160405280601e81526020017f536166654d6174683a207375627472616374696f6e206f766572666c6f770000815250611154565b905092915050565b60008082840190508381101561114a576040517f08c379a000000000000000000000000000000000000000000000000000000000815260040180806020018281038252601b8152602001807f536166654d6174683a206164646974696f6e206f766572666c6f77000000000081525060200191505060405180910390fd5b8091505092915050565b6000838311158290611201576040517f08c379a00000000000000000000000000000000000000000000000000000000081526004018080602001828103825283818151815260200191508051906020019080838360005b838110156111c65780820151818401526020810190506111ab565b50505050905090810190601f1680156111f35780820380516001836020036101000a031916815260200191505b509250505060405180910390fd5b506000838503905080915050939250505056fea265627a7a723158205347d56cb06cc8d9831b87c30f69ee465d1d58248b2b35705fb532f47c598ad464736f6c63430005100032",
  "source": "pragma solidity>=0.5.16;\r\n\r\nimport './../libraries/SafeMath.sol';\r\nimport \"./../libraries/AddressUtils.sol\";\r\n\r\ncontract MyNFT {\r\n\r\n\r\n    using SafeMath for uint256;\r\n    using AddressUtils for address;\r\n\r\n    bytes4 internal constant InterfaceId_ERC721 = 0x80ac58cd;\r\n    /*\r\n     * 0x80ac58cd ===\r\n     *   bytes4(keccak256('balanceOf(address)')) ^\r\n     *   bytes4(keccak256('ownerOf(uint256)')) ^\r\n     *   bytes4(keccak256('approve(address,uint256)')) ^\r\n     *   bytes4(keccak256('getApproved(uint256)')) ^\r\n     *   bytes4(keccak256('setApprovalForAll(address,bool)')) ^\r\n     *   bytes4(keccak256('isApprovedForAll(address,address)')) ^\r\n     *   bytes4(keccak256('transferFrom(address,address,uint256)')) ^\r\n     *   bytes4(keccak256('safeTransferFrom(address,address,uint256)')) ^\r\n     *   bytes4(keccak256('safeTransferFrom(address,address,uint256,bytes)'))\r\n     */\r\n\r\n    bytes4 internal constant InterfaceId_ERC721Exists = 0x4f558e79;\r\n    /*\r\n     * 0x4f558e79 ===\r\n     *   bytes4(keccak256('exists(uint256)'))\r\n     */\r\n\r\n    bytes4 internal constant InterfaceId_ERC721Enumerable = 0x780e9d63;\r\n    /**\r\n     * 0x780e9d63 ===\r\n     *   bytes4(keccak256('totalSupply()')) ^\r\n     *   bytes4(keccak256('tokenOfOwnerByIndex(address,uint256)')) ^\r\n     *   bytes4(keccak256('tokenByIndex(uint256)'))\r\n     */\r\n\r\n    bytes4 internal constant InterfaceId_ERC721Metadata = 0x5b5e139f;\r\n    /**\r\n     * 0x5b5e139f ===\r\n     *   bytes4(keccak256('name()')) ^\r\n     *   bytes4(keccak256('symbol()')) ^\r\n     *   bytes4(keccak256('tokenURI(uint256)'))\r\n     */\r\n\r\n    event Transfer(\r\n        address indexed _from,\r\n        address indexed _to,\r\n        uint256 indexed _tokenId\r\n    );\r\n    event Approval(\r\n        address indexed _owner,\r\n        address indexed _approved,\r\n        uint256 indexed _tokenId\r\n    );\r\n    event ApprovalForAll(\r\n        address indexed _owner,\r\n        address indexed _operator,\r\n        bool _approved\r\n    );\r\n//    function onERC721Received(\r\n//        address _operator,\r\n//        address _from,\r\n//        uint256 _tokenId,\r\n//        bytes memory _data\r\n//    )\r\n//    public\r\n//    returns(bytes4);\r\n//    function balanceOf(address _owner) public view returns (uint256 _balance);\r\n//    function ownerOf(uint256 _tokenId) public view returns (address _owner);\r\n//    function exists(uint256 _tokenId) public view returns (bool _exists);\r\n\r\n//    function approve(address _to, uint256 _tokenId) public;\r\n//    function getApproved(uint256 _tokenId)    public view returns (address _operator);\r\n\r\n//    function setApprovalForAll(address _operator, bool _approved) public;\r\n//    function isApprovedForAll(address _owner, address _operator)    public view returns (bool);\r\n\r\n//    function transferFrom(address _from, address _to, uint256 _tokenId) public;\r\n//    function safeTransferFrom(address _from, address _to, uint256 _tokenId)    public;\r\n\r\n//    function safeTransferFrom(\r\n//        address _from,\r\n//        address _to,\r\n//        uint256 _tokenId,\r\n//        bytes memory _data\r\n//    )\r\n//    public;\r\n//    constructor (string memory _name, string memory _symbol) public\r\n//    ERC721Token(_name, _symbol)\r\n//    {\r\n//    }\r\n\r\n    /**\r\n    * Custom accessor to create a unique token\r\n    */\r\n    function mintUniqueTokenTo(\r\n        address _to,\r\n        uint256 _tokenId\r\n    ) public\r\n    {\r\n        _mint(_to, _tokenId);\r\n//        super._setTokenURI(_tokenId, _tokenURI);\r\n    }\r\n\r\n    // Equals to `bytes4(keccak256(\"onERC721Received(address,address,uint256,bytes)\"))`\r\n    // which can be also obtained as `ERC721Receiver(0).onERC721Received.selector`\r\n    bytes4 private constant ERC721_RECEIVED = 0x150b7a02;\r\n\r\n    // Mapping from token ID to owner\r\n    mapping (uint256 => address) internal tokenOwner;\r\n\r\n    // Mapping from token ID to approved address\r\n    mapping (uint256 => address) internal tokenApprovals;\r\n\r\n    // Mapping from owner to number of owned token\r\n    mapping (address => uint256) internal ownedTokensCount;\r\n\r\n    // Mapping from owner to operator approvals\r\n    mapping (address => mapping (address => bool)) internal operatorApprovals;\r\n\r\n    constructor()\r\n    public\r\n    {\r\n        // register the supported interfaces to conform to ERC721 via ERC165\r\n//        _registerInterface(InterfaceId_ERC721);\r\n//        _registerInterface(InterfaceId_ERC721Exists);\r\n    }\r\n\r\n    /**\r\n     * @dev Gets the balance of the specified address\r\n     * @param _owner address to query the balance of\r\n     * @return uint256 representing the amount owned by the passed address\r\n     */\r\n    function balanceOf(address _owner) public view returns (uint256) {\r\n        require(_owner != address(0));\r\n        return ownedTokensCount[_owner];\r\n    }\r\n\r\n    /**\r\n     * @dev Gets the owner of the specified token ID\r\n     * @param _tokenId uint256 ID of the token to query the owner of\r\n     * @return owner address currently marked as the owner of the given token ID\r\n     */\r\n    function ownerOf(uint256 _tokenId) public view returns (address) {\r\n        address owner = tokenOwner[_tokenId];\r\n        require(owner != address(0));\r\n        return owner;\r\n    }\r\n\r\n    /**\r\n     * @dev Returns whether the specified token exists\r\n     * @param _tokenId uint256 ID of the token to query the existence of\r\n     * @return whether the token exists\r\n     */\r\n    function exists(uint256 _tokenId) public view returns (bool) {\r\n        address owner = tokenOwner[_tokenId];\r\n        return owner != address(0);\r\n    }\r\n\r\n    /**\r\n     * @dev Approves another address to transfer the given token ID\r\n     * The zero address indicates there is no approved address.\r\n     * There can only be one approved address per token at a given time.\r\n     * Can only be called by the token owner or an approved operator.\r\n     * @param _to address to be approved for the given token ID\r\n     * @param _tokenId uint256 ID of the token to be approved\r\n     */\r\n    function approve(address _to, uint256 _tokenId) public {\r\n        address owner = ownerOf(_tokenId);\r\n        require(_to != owner);\r\n        require(msg.sender == owner || isApprovedForAll(owner, msg.sender));\r\n\r\n        tokenApprovals[_tokenId] = _to;\r\n        emit Approval(owner, _to, _tokenId);\r\n    }\r\n\r\n    /**\r\n     * @dev Gets the approved address for a token ID, or zero if no address set\r\n     * @param _tokenId uint256 ID of the token to query the approval of\r\n     * @return address currently approved for the given token ID\r\n     */\r\n    function getApproved(uint256 _tokenId) public view returns (address) {\r\n        return tokenApprovals[_tokenId];\r\n    }\r\n\r\n    /**\r\n     * @dev Sets or unsets the approval of a given operator\r\n     * An operator is allowed to transfer all tokens of the sender on their behalf\r\n     * @param _to operator address to set the approval\r\n     * @param _approved representing the status of the approval to be set\r\n     */\r\n    function setApprovalForAll(address _to, bool _approved) public {\r\n        require(_to != msg.sender);\r\n        operatorApprovals[msg.sender][_to] = _approved;\r\n        emit ApprovalForAll(msg.sender, _to, _approved);\r\n    }\r\n\r\n    /**\r\n     * @dev Tells whether an operator is approved by a given owner\r\n     * @param _owner owner address which you want to query the approval of\r\n     * @param _operator operator address which you want to query the approval of\r\n     * @return bool whether the given operator is approved by the given owner\r\n     */\r\n    function isApprovedForAll(\r\n        address _owner,\r\n        address _operator\r\n    )\r\n    public\r\n    view\r\n    returns (bool)\r\n    {\r\n        return operatorApprovals[_owner][_operator];\r\n    }\r\n\r\n    /**\r\n     * @dev Transfers the ownership of a given token ID to another address\r\n     * Usage of this method is discouraged, use `safeTransferFrom` whenever possible\r\n     * Requires the msg sender to be the owner, approved, or operator\r\n     * @param _from current owner of the token\r\n     * @param _to address to receive the ownership of the given token ID\r\n     * @param _tokenId uint256 ID of the token to be transferred\r\n    */\r\n    function transferFrom(\r\n        address _from,\r\n        address _to,\r\n        uint256 _tokenId\r\n    )\r\n    public\r\n    {\r\n        require(isApprovedOrOwner(msg.sender, _tokenId));\r\n        require(_from != address(0));\r\n        require(_to != address(0));\r\n\r\n        clearApproval(_from, _tokenId);\r\n        removeTokenFrom(_from, _tokenId);\r\n        addTokenTo(_to, _tokenId);\r\n\r\n        emit Transfer(_from, _to, _tokenId);\r\n    }\r\n\r\n    /**\r\n     * @dev Safely transfers the ownership of a given token ID to another address\r\n     * If the target address is a contract, it must implement `onERC721Received`,\r\n     * which is called upon a safe transfer, and return the magic value\r\n     * `bytes4(keccak256(\"onERC721Received(address,address,uint256,bytes)\"))`; otherwise,\r\n     * the transfer is reverted.\r\n     *\r\n     * Requires the msg sender to be the owner, approved, or operator\r\n     * @param _from current owner of the token\r\n     * @param _to address to receive the ownership of the given token ID\r\n     * @param _tokenId uint256 ID of the token to be transferred\r\n    */\r\n    function safeTransferFrom(\r\n        address _from,\r\n        address _to,\r\n        uint256 _tokenId\r\n    )\r\n    public\r\n    {\r\n        // solium-disable-next-line arg-overflow\r\n        safeTransferFrom(_from, _to, _tokenId, \"\");\r\n    }\r\n\r\n    /**\r\n     * @dev Safely transfers the ownership of a given token ID to another address\r\n     * If the target address is a contract, it must implement `onERC721Received`,\r\n     * which is called upon a safe transfer, and return the magic value\r\n     * `bytes4(keccak256(\"onERC721Received(address,address,uint256,bytes)\"))`; otherwise,\r\n     * the transfer is reverted.\r\n     * Requires the msg sender to be the owner, approved, or operator\r\n     * @param _from current owner of the token\r\n     * @param _to address to receive the ownership of the given token ID\r\n     * @param _tokenId uint256 ID of the token to be transferred\r\n     * @param _data bytes data to send along with a safe transfer check\r\n     */\r\n    function safeTransferFrom(\r\n        address _from,\r\n        address _to,\r\n        uint256 _tokenId,\r\n        bytes memory _data\r\n    )\r\n    public\r\n    {\r\n        transferFrom(_from, _to, _tokenId);\r\n        // solium-disable-next-line arg-overflow\r\n//        require(checkAndCallSafeTransfer(_from, _to, _tokenId, _data));\r\n    }\r\n\r\n    /**\r\n     * @dev Returns whether the given spender can transfer a given token ID\r\n     * @param _spender address of the spender to query\r\n     * @param _tokenId uint256 ID of the token to be transferred\r\n     * @return bool whether the msg.sender is approved for the given token ID,\r\n     *  is an operator of the owner, or is the owner of the token\r\n     */\r\n    function isApprovedOrOwner(\r\n        address _spender,\r\n        uint256 _tokenId\r\n    )\r\n    internal\r\n    view\r\n    returns (bool)\r\n    {\r\n        address owner = ownerOf(_tokenId);\r\n        // Disable solium check because of\r\n        // https://github.com/duaraghav8/Solium/issues/175\r\n        // solium-disable-next-line operator-whitespace\r\n        return (\r\n        _spender == owner ||\r\n        getApproved(_tokenId) == _spender ||\r\n        isApprovedForAll(owner, _spender)\r\n        );\r\n    }\r\n\r\n    /**\r\n     * @dev Internal function to mint a new token\r\n     * Reverts if the given token ID already exists\r\n     * @param _to The address that will own the minted token\r\n     * @param _tokenId uint256 ID of the token to be minted by the msg.sender\r\n     */\r\n    function _mint(address _to, uint256 _tokenId) public {\r\n        require(_to != address(0));\r\n        addTokenTo(_to, _tokenId);\r\n        emit Transfer(address(0), _to, _tokenId);\r\n    }\r\n\r\n    /**\r\n     * @dev Internal function to burn a specific token\r\n     * Reverts if the token does not exist\r\n     * @param _tokenId uint256 ID of the token being burned by the msg.sender\r\n     */\r\n    function _burn(address _owner, uint256 _tokenId) internal {\r\n        clearApproval(_owner, _tokenId);\r\n        removeTokenFrom(_owner, _tokenId);\r\n        emit Transfer(_owner, address(0), _tokenId);\r\n    }\r\n\r\n    /**\r\n     * @dev Internal function to clear current approval of a given token ID\r\n     * Reverts if the given address is not indeed the owner of the token\r\n     * @param _owner owner of the token\r\n     * @param _tokenId uint256 ID of the token to be transferred\r\n     */\r\n    function clearApproval(address _owner, uint256 _tokenId) internal {\r\n        require(ownerOf(_tokenId) == _owner);\r\n        if (tokenApprovals[_tokenId] != address(0)) {\r\n            tokenApprovals[_tokenId] = address(0);\r\n        }\r\n    }\r\n\r\n    /**\r\n     * @dev Internal function to add a token ID to the list of a given address\r\n     * @param _to address representing the new owner of the given token ID\r\n     * @param _tokenId uint256 ID of the token to be added to the tokens list of the given address\r\n     */\r\n    function addTokenTo(address _to, uint256 _tokenId) internal {\r\n        require(tokenOwner[_tokenId] == address(0));\r\n        tokenOwner[_tokenId] = _to;\r\n        ownedTokensCount[_to] = ownedTokensCount[_to].add(1);\r\n    }\r\n\r\n    /**\r\n     * @dev Internal function to remove a token ID from the list of a given address\r\n     * @param _from address representing the previous owner of the given token ID\r\n     * @param _tokenId uint256 ID of the token to be removed from the tokens list of the given address\r\n     */\r\n    function removeTokenFrom(address _from, uint256 _tokenId) internal {\r\n        require(ownerOf(_tokenId) == _from);\r\n        ownedTokensCount[_from] = ownedTokensCount[_from].sub(1);\r\n        tokenOwner[_tokenId] = address(0);\r\n    }\r\n\r\n    /**\r\n     * @dev Internal function to invoke `onERC721Received` on a target address\r\n     * The call is not executed if the target address is not a contract\r\n     * @param _from address representing the previous owner of the given token ID\r\n     * @param _to target address that will receive the tokens\r\n     * @param _tokenId uint256 ID of the token to be transferred\r\n     * @param _data bytes optional data to send along with the call\r\n     * @return whether the call correctly returned the expected magic value\r\n     */\r\n//    function checkAndCallSafeTransfer(\r\n//        address _from,\r\n//        address _to,\r\n//        uint256 _tokenId,\r\n//        bytes memory _data\r\n//    )\r\n//    internal\r\n//    returns (bool)\r\n//    {\r\n//        if (!_to.isContract()) {\r\n//            return true;\r\n//        }\r\n//        bytes4 retval = ERC721Receiver(_to).onERC721Received(\r\n//            msg.sender, _from, _tokenId, _data);\r\n//        return (retval == ERC721_RECEIVED);\r\n//    }\r\n}",
  "sourcePath": "E:/codingproject/xkey/contracts/test/MyNFT.sol",
  "compiler": {
    "name": "solc",
    "version": "0.5.16+commit.9c3226ce.Emscripten.clang"
  },
  "schemaVersion": "3.4.0",
  "updatedAt": "2021-05-28T05:15:25.636Z",
  "devdoc": {
    "methods": {
      "_mint(address,uint256)": {
        "details": "Internal function to mint a new token Reverts if the given token ID already exists",
        "params": {
          "_to": "The address that will own the minted token",
          "_tokenId": "uint256 ID of the token to be minted by the msg.sender"
        }
      },
      "approve(address,uint256)": {
        "details": "Approves another address to transfer the given token ID The zero address indicates there is no approved address. There can only be one approved address per token at a given time. Can only be called by the token owner or an approved operator.",
        "params": {
          "_to": "address to be approved for the given token ID",
          "_tokenId": "uint256 ID of the token to be approved"
        }
      },
      "balanceOf(address)": {
        "details": "Gets the balance of the specified address",
        "params": {
          "_owner": "address to query the balance of"
        },
        "return": "uint256 representing the amount owned by the passed address"
      },
      "exists(uint256)": {
        "details": "Returns whether the specified token exists",
        "params": {
          "_tokenId": "uint256 ID of the token to query the existence of"
        },
        "return": "whether the token exists"
      },
      "getApproved(uint256)": {
        "details": "Gets the approved address for a token ID, or zero if no address set",
        "params": {
          "_tokenId": "uint256 ID of the token to query the approval of"
        },
        "return": "address currently approved for the given token ID"
      },
      "isApprovedForAll(address,address)": {
        "details": "Tells whether an operator is approved by a given owner",
        "params": {
          "_operator": "operator address which you want to query the approval of",
          "_owner": "owner address which you want to query the approval of"
        },
        "return": "bool whether the given operator is approved by the given owner"
      },
      "ownerOf(uint256)": {
        "details": "Gets the owner of the specified token ID",
        "params": {
          "_tokenId": "uint256 ID of the token to query the owner of"
        },
        "return": "owner address currently marked as the owner of the given token ID"
      },
      "safeTransferFrom(address,address,uint256)": {
        "details": "Safely transfers the ownership of a given token ID to another address If the target address is a contract, it must implement `onERC721Received`, which is called upon a safe transfer, and return the magic value `bytes4(keccak256(\"onERC721Received(address,address,uint256,bytes)\"))`; otherwise, the transfer is reverted.      * Requires the msg sender to be the owner, approved, or operator",
        "params": {
          "_from": "current owner of the token",
          "_to": "address to receive the ownership of the given token ID",
          "_tokenId": "uint256 ID of the token to be transferred"
        }
      },
      "safeTransferFrom(address,address,uint256,bytes)": {
        "details": "Safely transfers the ownership of a given token ID to another address If the target address is a contract, it must implement `onERC721Received`, which is called upon a safe transfer, and return the magic value `bytes4(keccak256(\"onERC721Received(address,address,uint256,bytes)\"))`; otherwise, the transfer is reverted. Requires the msg sender to be the owner, approved, or operator",
        "params": {
          "_data": "bytes data to send along with a safe transfer check",
          "_from": "current owner of the token",
          "_to": "address to receive the ownership of the given token ID",
          "_tokenId": "uint256 ID of the token to be transferred"
        }
      },
      "setApprovalForAll(address,bool)": {
        "details": "Sets or unsets the approval of a given operator An operator is allowed to transfer all tokens of the sender on their behalf",
        "params": {
          "_approved": "representing the status of the approval to be set",
          "_to": "operator address to set the approval"
        }
      },
      "transferFrom(address,address,uint256)": {
        "details": "Transfers the ownership of a given token ID to another address Usage of this method is discouraged, use `safeTransferFrom` whenever possible Requires the msg sender to be the owner, approved, or operator",
        "params": {
          "_from": "current owner of the token",
          "_to": "address to receive the ownership of the given token ID",
          "_tokenId": "uint256 ID of the token to be transferred"
        }
      }
    }
  },
  "userdoc": {
    "methods": {
      "mintUniqueTokenTo(address,uint256)": {
        "notice": "Custom accessor to create a unique token"
      }
    }
  }
}