{
  "contractName": "MyNFT",
  "abi": [
    {
      "inputs": [],
      "payable": false,
      "stateMutability": "nonpayable",
      "type": "constructor"
    },
    {
      "anonymous": false,
      "inputs": [
        {
          "indexed": true,
          "internalType": "address",
          "name": "_owner",
          "type": "address"
        },
        {
          "indexed": true,
          "internalType": "address",
          "name": "_approved",
          "type": "address"
        },
        {
          "indexed": true,
          "internalType": "uint256",
          "name": "_tokenId",
          "type": "uint256"
        }
      ],
      "name": "Approval",
      "type": "event"
    },
    {
      "anonymous": false,
      "inputs": [
        {
          "indexed": true,
          "internalType": "address",
          "name": "_owner",
          "type": "address"
        },
        {
          "indexed": true,
          "internalType": "address",
          "name": "_operator",
          "type": "address"
        },
        {
          "indexed": false,
          "internalType": "bool",
          "name": "_approved",
          "type": "bool"
        }
      ],
      "name": "ApprovalForAll",
      "type": "event"
    },
    {
      "anonymous": false,
      "inputs": [
        {
          "indexed": true,
          "internalType": "address",
          "name": "_from",
          "type": "address"
        },
        {
          "indexed": true,
          "internalType": "address",
          "name": "_to",
          "type": "address"
        },
        {
          "indexed": true,
          "internalType": "uint256",
          "name": "_tokenId",
          "type": "uint256"
        }
      ],
      "name": "Transfer",
      "type": "event"
    },
    {
      "constant": false,
      "inputs": [
        {
          "internalType": "address",
          "name": "_to",
          "type": "address"
        },
        {
          "internalType": "uint256",
          "name": "_tokenId",
          "type": "uint256"
        }
      ],
      "name": "mintUniqueTokenTo",
      "outputs": [],
      "payable": false,
      "stateMutability": "nonpayable",
      "type": "function"
    },
    {
      "constant": true,
      "inputs": [
        {
          "internalType": "address",
          "name": "_owner",
          "type": "address"
        }
      ],
      "name": "balanceOf",
      "outputs": [
        {
          "internalType": "uint256",
          "name": "",
          "type": "uint256"
        }
      ],
      "payable": false,
      "stateMutability": "view",
      "type": "function"
    },
    {
      "constant": true,
      "inputs": [
        {
          "internalType": "uint256",
          "name": "_tokenId",
          "type": "uint256"
        }
      ],
      "name": "ownerOf",
      "outputs": [
        {
          "internalType": "address",
          "name": "",
          "type": "address"
        }
      ],
      "payable": false,
      "stateMutability": "view",
      "type": "function"
    },
    {
      "constant": true,
      "inputs": [
        {
          "internalType": "uint256",
          "name": "_tokenId",
          "type": "uint256"
        }
      ],
      "name": "exists",
      "outputs": [
        {
          "internalType": "bool",
          "name": "",
          "type": "bool"
        }
      ],
      "payable": false,
      "stateMutability": "view",
      "type": "function"
    },
    {
      "constant": false,
      "inputs": [
        {
          "internalType": "address",
          "name": "_to",
          "type": "address"
        },
        {
          "internalType": "uint256",
          "name": "_tokenId",
          "type": "uint256"
        }
      ],
      "name": "approve",
      "outputs": [],
      "payable": false,
      "stateMutability": "nonpayable",
      "type": "function"
    },
    {
      "constant": true,
      "inputs": [
        {
          "internalType": "uint256",
          "name": "_tokenId",
          "type": "uint256"
        }
      ],
      "name": "getApproved",
      "outputs": [
        {
          "internalType": "address",
          "name": "",
          "type": "address"
        }
      ],
      "payable": false,
      "stateMutability": "view",
      "type": "function"
    },
    {
      "constant": false,
      "inputs": [
        {
          "internalType": "address",
          "name": "_to",
          "type": "address"
        },
        {
          "internalType": "bool",
          "name": "_approved",
          "type": "bool"
        }
      ],
      "name": "setApprovalForAll",
      "outputs": [],
      "payable": false,
      "stateMutability": "nonpayable",
      "type": "function"
    },
    {
      "constant": true,
      "inputs": [
        {
          "internalType": "address",
          "name": "_owner",
          "type": "address"
        },
        {
          "internalType": "address",
          "name": "_operator",
          "type": "address"
        }
      ],
      "name": "isApprovedForAll",
      "outputs": [
        {
          "internalType": "bool",
          "name": "",
          "type": "bool"
        }
      ],
      "payable": false,
      "stateMutability": "view",
      "type": "function"
    },
    {
      "constant": false,
      "inputs": [
        {
          "internalType": "address",
          "name": "_from",
          "type": "address"
        },
        {
          "internalType": "address",
          "name": "_to",
          "type": "address"
        },
        {
          "internalType": "uint256",
          "name": "_tokenId",
          "type": "uint256"
        }
      ],
      "name": "transferFrom",
      "outputs": [],
      "payable": false,
      "stateMutability": "nonpayable",
      "type": "function"
    },
    {
      "constant": false,
      "inputs": [
        {
          "internalType": "address",
          "name": "_from",
          "type": "address"
        },
        {
          "internalType": "address",
          "name": "_to",
          "type": "address"
        },
        {
          "internalType": "uint256",
          "name": "_tokenId",
          "type": "uint256"
        }
      ],
      "name": "safeTransferFrom",
      "outputs": [],
      "payable": false,
      "stateMutability": "nonpayable",
      "type": "function"
    },
    {
      "constant": false,
      "inputs": [
        {
          "internalType": "address",
          "name": "_from",
          "type": "address"
        },
        {
          "internalType": "address",
          "name": "_to",
          "type": "address"
        },
        {
          "internalType": "uint256",
          "name": "_tokenId",
          "type": "uint256"
        },
        {
          "internalType": "bytes",
          "name": "_data",
          "type": "bytes"
        }
      ],
      "name": "safeTransferFrom",
      "outputs": [],
      "payable": false,
      "stateMutability": "nonpayable",
      "type": "function"
    },
    {
      "constant": false,
      "inputs": [
        {
          "internalType": "address",
          "name": "_to",
          "type": "address"
        },
        {
          "internalType": "uint256",
          "name": "_tokenId",
          "type": "uint256"
        }
      ],
      "name": "_mint",
      "outputs": [],
      "payable": false,
      "stateMutability": "nonpayable",
      "type": "function"
    }
  ],
  "bytecode": "0x608060405234801561001057600080fd5b50610a3f806100206000396000f3fe608060405234801561001057600080fd5b50600436106100d45760003560e01c80636352211e11610081578063b6d5e8cd1161005b578063b6d5e8cd1461028c578063b88d4fde146102b8578063e985e9c51461037e576100d4565b80636352211e1461020957806370a0823114610226578063a22cb4651461025e576100d4565b806342842e0e116100b257806342842e0e146101765780634e6ec247146101ac5780634f558e79146101d8576100d4565b8063081812fc146100d9578063095ea7b31461011257806323b872dd14610140575b600080fd5b6100f6600480360360208110156100ef57600080fd5b50356103ac565b604080516001600160a01b039092168252519081900360200190f35b61013e6004803603604081101561012857600080fd5b506001600160a01b0381351690602001356103c7565b005b61013e6004803603606081101561015657600080fd5b506001600160a01b03813581169160208101359091169060400135610481565b61013e6004803603606081101561018c57600080fd5b506001600160a01b0381358116916020810135909116906040013561051e565b61013e600480360360408110156101c257600080fd5b506001600160a01b03813516906020013561053e565b6101f5600480360360208110156101ee57600080fd5b5035610597565b604080519115158252519081900360200190f35b6100f66004803603602081101561021f57600080fd5b50356105b4565b61024c6004803603602081101561023c57600080fd5b50356001600160a01b03166105dc565b60408051918252519081900360200190f35b61013e6004803603604081101561027457600080fd5b506001600160a01b038135169060200135151561060d565b61013e600480360360408110156102a257600080fd5b506001600160a01b038135169060200135610691565b61013e600480360360808110156102ce57600080fd5b6001600160a01b0382358116926020810135909116916040820135919081019060808101606082013564010000000081111561030957600080fd5b82018360208201111561031b57600080fd5b8035906020019184600183028401116401000000008311171561033d57600080fd5b91908080601f01602080910402602001604051908101604052809392919081815260200183838082843760009201919091525092955061069f945050505050565b6101f56004803603604081101561039457600080fd5b506001600160a01b03813581169160200135166106b0565b6000908152600160205260409020546001600160a01b031690565b60006103d2826105b4565b9050806001600160a01b0316836001600160a01b031614156103f357600080fd5b336001600160a01b038216148061040f575061040f81336106b0565b61041857600080fd5b600082815260016020526040808220805473ffffffffffffffffffffffffffffffffffffffff19166001600160a01b0387811691821790925591518593918516917f8c5be1e5ebec7d5bd14f71427d1e84f3dd0314c0f7b2291e5b200ac8c7c3b92591a4505050565b61048b33826106de565b61049457600080fd5b6001600160a01b0383166104a757600080fd5b6001600160a01b0382166104ba57600080fd5b6104c4838261073d565b6104ce83826107ac565b6104d88282610841565b80826001600160a01b0316846001600160a01b03167fddf252ad1be2c89b69c2b068fc378daa952ba7f163c4a11628f55a4df523b3ef60405160405180910390a4505050565b6105398383836040518060200160405280600081525061069f565b505050565b6001600160a01b03821661055157600080fd5b61055b8282610841565b60405181906001600160a01b038416906000907fddf252ad1be2c89b69c2b068fc378daa952ba7f163c4a11628f55a4df523b3ef908290a45050565b6000908152602081905260409020546001600160a01b0316151590565b6000818152602081905260408120546001600160a01b0316806105d657600080fd5b92915050565b60006001600160a01b0382166105f157600080fd5b506001600160a01b031660009081526002602052604090205490565b6001600160a01b03821633141561062357600080fd5b3360008181526003602090815260408083206001600160a01b03871680855290835292819020805460ff1916861515908117909155815190815290519293927f17307eab39ab6107e8899845ad3d59bd9653f200f220920489ca2b5937696c31929181900390910190a35050565b61069b828261053e565b5050565b6106aa848484610481565b50505050565b6001600160a01b03918216600090815260036020908152604080832093909416825291909152205460ff1690565b6000806106ea836105b4565b9050806001600160a01b0316846001600160a01b031614806107255750836001600160a01b031661071a846103ac565b6001600160a01b0316145b80610735575061073581856106b0565b949350505050565b816001600160a01b0316610750826105b4565b6001600160a01b03161461076357600080fd5b6000818152600160205260409020546001600160a01b03161561069b576000908152600160205260409020805473ffffffffffffffffffffffffffffffffffffffff1916905550565b816001600160a01b03166107bf826105b4565b6001600160a01b0316146107d257600080fd5b6001600160a01b0382166000908152600260205260409020546107fc90600163ffffffff6108d016565b6001600160a01b039092166000908152600260209081526040808320949094559181529081905220805473ffffffffffffffffffffffffffffffffffffffff19169055565b6000818152602081905260409020546001600160a01b03161561086357600080fd5b600081815260208181526040808320805473ffffffffffffffffffffffffffffffffffffffff19166001600160a01b038716908117909155835260029091529020546108b0906001610919565b6001600160a01b0390921660009081526002602052604090209190915550565b600061091283836040518060400160405280601e81526020017f536166654d6174683a207375627472616374696f6e206f766572666c6f770000815250610973565b9392505050565b600082820183811015610912576040805162461bcd60e51b815260206004820152601b60248201527f536166654d6174683a206164646974696f6e206f766572666c6f770000000000604482015290519081900360640190fd5b60008184841115610a025760405162461bcd60e51b81526004018080602001828103825283818151815260200191508051906020019080838360005b838110156109c75781810151838201526020016109af565b50505050905090810190601f1680156109f45780820380516001836020036101000a031916815260200191505b509250505060405180910390fd5b50505090039056fea265627a7a72315820987407dd95eb7a1d842b8e16bd42139cebc945f9202c7a738299466881619ac064736f6c63430005100032",
  "source": "pragma solidity>=0.5.16;\r\n\r\nimport './../libraries/SafeMath.sol';\r\nimport \"./../libraries/AddressUtils.sol\";\r\n\r\ncontract MyNFT {\r\n\r\n\r\n    using SafeMath for uint256;\r\n    using AddressUtils for address;\r\n\r\n    bytes4 internal constant InterfaceId_ERC721 = 0x80ac58cd;\r\n    /*\r\n     * 0x80ac58cd ===\r\n     *   bytes4(keccak256('balanceOf(address)')) ^\r\n     *   bytes4(keccak256('ownerOf(uint256)')) ^\r\n     *   bytes4(keccak256('approve(address,uint256)')) ^\r\n     *   bytes4(keccak256('getApproved(uint256)')) ^\r\n     *   bytes4(keccak256('setApprovalForAll(address,bool)')) ^\r\n     *   bytes4(keccak256('isApprovedForAll(address,address)')) ^\r\n     *   bytes4(keccak256('transferFrom(address,address,uint256)')) ^\r\n     *   bytes4(keccak256('safeTransferFrom(address,address,uint256)')) ^\r\n     *   bytes4(keccak256('safeTransferFrom(address,address,uint256,bytes)'))\r\n     */\r\n\r\n    bytes4 internal constant InterfaceId_ERC721Exists = 0x4f558e79;\r\n    /*\r\n     * 0x4f558e79 ===\r\n     *   bytes4(keccak256('exists(uint256)'))\r\n     */\r\n\r\n    bytes4 internal constant InterfaceId_ERC721Enumerable = 0x780e9d63;\r\n    /**\r\n     * 0x780e9d63 ===\r\n     *   bytes4(keccak256('totalSupply()')) ^\r\n     *   bytes4(keccak256('tokenOfOwnerByIndex(address,uint256)')) ^\r\n     *   bytes4(keccak256('tokenByIndex(uint256)'))\r\n     */\r\n\r\n    bytes4 internal constant InterfaceId_ERC721Metadata = 0x5b5e139f;\r\n    /**\r\n     * 0x5b5e139f ===\r\n     *   bytes4(keccak256('name()')) ^\r\n     *   bytes4(keccak256('symbol()')) ^\r\n     *   bytes4(keccak256('tokenURI(uint256)'))\r\n     */\r\n\r\n    event Transfer(\r\n        address indexed _from,\r\n        address indexed _to,\r\n        uint256 indexed _tokenId\r\n    );\r\n    event Approval(\r\n        address indexed _owner,\r\n        address indexed _approved,\r\n        uint256 indexed _tokenId\r\n    );\r\n    event ApprovalForAll(\r\n        address indexed _owner,\r\n        address indexed _operator,\r\n        bool _approved\r\n    );\r\n//    function onERC721Received(\r\n//        address _operator,\r\n//        address _from,\r\n//        uint256 _tokenId,\r\n//        bytes memory _data\r\n//    )\r\n//    public\r\n//    returns(bytes4);\r\n//    function balanceOf(address _owner) public view returns (uint256 _balance);\r\n//    function ownerOf(uint256 _tokenId) public view returns (address _owner);\r\n//    function exists(uint256 _tokenId) public view returns (bool _exists);\r\n\r\n//    function approve(address _to, uint256 _tokenId) public;\r\n//    function getApproved(uint256 _tokenId)    public view returns (address _operator);\r\n\r\n//    function setApprovalForAll(address _operator, bool _approved) public;\r\n//    function isApprovedForAll(address _owner, address _operator)    public view returns (bool);\r\n\r\n//    function transferFrom(address _from, address _to, uint256 _tokenId) public;\r\n//    function safeTransferFrom(address _from, address _to, uint256 _tokenId)    public;\r\n\r\n//    function safeTransferFrom(\r\n//        address _from,\r\n//        address _to,\r\n//        uint256 _tokenId,\r\n//        bytes memory _data\r\n//    )\r\n//    public;\r\n//    constructor (string memory _name, string memory _symbol) public\r\n//    ERC721Token(_name, _symbol)\r\n//    {\r\n//    }\r\n\r\n    /**\r\n    * Custom accessor to create a unique token\r\n    */\r\n    function mintUniqueTokenTo(\r\n        address _to,\r\n        uint256 _tokenId\r\n    ) public\r\n    {\r\n        _mint(_to, _tokenId);\r\n//        super._setTokenURI(_tokenId, _tokenURI);\r\n    }\r\n\r\n    // Equals to `bytes4(keccak256(\"onERC721Received(address,address,uint256,bytes)\"))`\r\n    // which can be also obtained as `ERC721Receiver(0).onERC721Received.selector`\r\n    bytes4 private constant ERC721_RECEIVED = 0x150b7a02;\r\n\r\n    // Mapping from token ID to owner\r\n    mapping (uint256 => address) internal tokenOwner;\r\n\r\n    // Mapping from token ID to approved address\r\n    mapping (uint256 => address) internal tokenApprovals;\r\n\r\n    // Mapping from owner to number of owned token\r\n    mapping (address => uint256) internal ownedTokensCount;\r\n\r\n    // Mapping from owner to operator approvals\r\n    mapping (address => mapping (address => bool)) internal operatorApprovals;\r\n\r\n    constructor()\r\n    public\r\n    {\r\n        // register the supported interfaces to conform to ERC721 via ERC165\r\n//        _registerInterface(InterfaceId_ERC721);\r\n//        _registerInterface(InterfaceId_ERC721Exists);\r\n    }\r\n\r\n    /**\r\n     * @dev Gets the balance of the specified address\r\n     * @param _owner address to query the balance of\r\n     * @return uint256 representing the amount owned by the passed address\r\n     */\r\n    function balanceOf(address _owner) public view returns (uint256) {\r\n        require(_owner != address(0));\r\n        return ownedTokensCount[_owner];\r\n    }\r\n\r\n    /**\r\n     * @dev Gets the owner of the specified token ID\r\n     * @param _tokenId uint256 ID of the token to query the owner of\r\n     * @return owner address currently marked as the owner of the given token ID\r\n     */\r\n    function ownerOf(uint256 _tokenId) public view returns (address) {\r\n        address owner = tokenOwner[_tokenId];\r\n        require(owner != address(0));\r\n        return owner;\r\n    }\r\n\r\n    /**\r\n     * @dev Returns whether the specified token exists\r\n     * @param _tokenId uint256 ID of the token to query the existence of\r\n     * @return whether the token exists\r\n     */\r\n    function exists(uint256 _tokenId) public view returns (bool) {\r\n        address owner = tokenOwner[_tokenId];\r\n        return owner != address(0);\r\n    }\r\n\r\n    /**\r\n     * @dev Approves another address to transfer the given token ID\r\n     * The zero address indicates there is no approved address.\r\n     * There can only be one approved address per token at a given time.\r\n     * Can only be called by the token owner or an approved operator.\r\n     * @param _to address to be approved for the given token ID\r\n     * @param _tokenId uint256 ID of the token to be approved\r\n     */\r\n    function approve(address _to, uint256 _tokenId) public {\r\n        address owner = ownerOf(_tokenId);\r\n        require(_to != owner);\r\n        require(msg.sender == owner || isApprovedForAll(owner, msg.sender));\r\n\r\n        tokenApprovals[_tokenId] = _to;\r\n        emit Approval(owner, _to, _tokenId);\r\n    }\r\n\r\n    /**\r\n     * @dev Gets the approved address for a token ID, or zero if no address set\r\n     * @param _tokenId uint256 ID of the token to query the approval of\r\n     * @return address currently approved for the given token ID\r\n     */\r\n    function getApproved(uint256 _tokenId) public view returns (address) {\r\n        return tokenApprovals[_tokenId];\r\n    }\r\n\r\n    /**\r\n     * @dev Sets or unsets the approval of a given operator\r\n     * An operator is allowed to transfer all tokens of the sender on their behalf\r\n     * @param _to operator address to set the approval\r\n     * @param _approved representing the status of the approval to be set\r\n     */\r\n    function setApprovalForAll(address _to, bool _approved) public {\r\n        require(_to != msg.sender);\r\n        operatorApprovals[msg.sender][_to] = _approved;\r\n        emit ApprovalForAll(msg.sender, _to, _approved);\r\n    }\r\n\r\n    /**\r\n     * @dev Tells whether an operator is approved by a given owner\r\n     * @param _owner owner address which you want to query the approval of\r\n     * @param _operator operator address which you want to query the approval of\r\n     * @return bool whether the given operator is approved by the given owner\r\n     */\r\n    function isApprovedForAll(\r\n        address _owner,\r\n        address _operator\r\n    )\r\n    public\r\n    view\r\n    returns (bool)\r\n    {\r\n        return operatorApprovals[_owner][_operator];\r\n    }\r\n\r\n    /**\r\n     * @dev Transfers the ownership of a given token ID to another address\r\n     * Usage of this method is discouraged, use `safeTransferFrom` whenever possible\r\n     * Requires the msg sender to be the owner, approved, or operator\r\n     * @param _from current owner of the token\r\n     * @param _to address to receive the ownership of the given token ID\r\n     * @param _tokenId uint256 ID of the token to be transferred\r\n    */\r\n    function transferFrom(\r\n        address _from,\r\n        address _to,\r\n        uint256 _tokenId\r\n    )\r\n    public\r\n    {\r\n        require(isApprovedOrOwner(msg.sender, _tokenId));\r\n        require(_from != address(0));\r\n        require(_to != address(0));\r\n\r\n        clearApproval(_from, _tokenId);\r\n        removeTokenFrom(_from, _tokenId);\r\n        addTokenTo(_to, _tokenId);\r\n\r\n        emit Transfer(_from, _to, _tokenId);\r\n    }\r\n\r\n    /**\r\n     * @dev Safely transfers the ownership of a given token ID to another address\r\n     * If the target address is a contract, it must implement `onERC721Received`,\r\n     * which is called upon a safe transfer, and return the magic value\r\n     * `bytes4(keccak256(\"onERC721Received(address,address,uint256,bytes)\"))`; otherwise,\r\n     * the transfer is reverted.\r\n     *\r\n     * Requires the msg sender to be the owner, approved, or operator\r\n     * @param _from current owner of the token\r\n     * @param _to address to receive the ownership of the given token ID\r\n     * @param _tokenId uint256 ID of the token to be transferred\r\n    */\r\n    function safeTransferFrom(\r\n        address _from,\r\n        address _to,\r\n        uint256 _tokenId\r\n    )\r\n    public\r\n    {\r\n        // solium-disable-next-line arg-overflow\r\n        safeTransferFrom(_from, _to, _tokenId, \"\");\r\n    }\r\n\r\n    /**\r\n     * @dev Safely transfers the ownership of a given token ID to another address\r\n     * If the target address is a contract, it must implement `onERC721Received`,\r\n     * which is called upon a safe transfer, and return the magic value\r\n     * `bytes4(keccak256(\"onERC721Received(address,address,uint256,bytes)\"))`; otherwise,\r\n     * the transfer is reverted.\r\n     * Requires the msg sender to be the owner, approved, or operator\r\n     * @param _from current owner of the token\r\n     * @param _to address to receive the ownership of the given token ID\r\n     * @param _tokenId uint256 ID of the token to be transferred\r\n     * @param _data bytes data to send along with a safe transfer check\r\n     */\r\n    function safeTransferFrom(\r\n        address _from,\r\n        address _to,\r\n        uint256 _tokenId,\r\n        bytes memory _data\r\n    )\r\n    public\r\n    {\r\n        transferFrom(_from, _to, _tokenId);\r\n        // solium-disable-next-line arg-overflow\r\n//        require(checkAndCallSafeTransfer(_from, _to, _tokenId, _data));\r\n    }\r\n\r\n    /**\r\n     * @dev Returns whether the given spender can transfer a given token ID\r\n     * @param _spender address of the spender to query\r\n     * @param _tokenId uint256 ID of the token to be transferred\r\n     * @return bool whether the msg.sender is approved for the given token ID,\r\n     *  is an operator of the owner, or is the owner of the token\r\n     */\r\n    function isApprovedOrOwner(\r\n        address _spender,\r\n        uint256 _tokenId\r\n    )\r\n    internal\r\n    view\r\n    returns (bool)\r\n    {\r\n        address owner = ownerOf(_tokenId);\r\n        // Disable solium check because of\r\n        // https://github.com/duaraghav8/Solium/issues/175\r\n        // solium-disable-next-line operator-whitespace\r\n        return (\r\n        _spender == owner ||\r\n        getApproved(_tokenId) == _spender ||\r\n        isApprovedForAll(owner, _spender)\r\n        );\r\n    }\r\n\r\n    /**\r\n     * @dev Internal function to mint a new token\r\n     * Reverts if the given token ID already exists\r\n     * @param _to The address that will own the minted token\r\n     * @param _tokenId uint256 ID of the token to be minted by the msg.sender\r\n     */\r\n    function _mint(address _to, uint256 _tokenId) public {\r\n        require(_to != address(0));\r\n        addTokenTo(_to, _tokenId);\r\n        emit Transfer(address(0), _to, _tokenId);\r\n    }\r\n\r\n    /**\r\n     * @dev Internal function to burn a specific token\r\n     * Reverts if the token does not exist\r\n     * @param _tokenId uint256 ID of the token being burned by the msg.sender\r\n     */\r\n    function _burn(address _owner, uint256 _tokenId) internal {\r\n        clearApproval(_owner, _tokenId);\r\n        removeTokenFrom(_owner, _tokenId);\r\n        emit Transfer(_owner, address(0), _tokenId);\r\n    }\r\n\r\n    /**\r\n     * @dev Internal function to clear current approval of a given token ID\r\n     * Reverts if the given address is not indeed the owner of the token\r\n     * @param _owner owner of the token\r\n     * @param _tokenId uint256 ID of the token to be transferred\r\n     */\r\n    function clearApproval(address _owner, uint256 _tokenId) internal {\r\n        require(ownerOf(_tokenId) == _owner);\r\n        if (tokenApprovals[_tokenId] != address(0)) {\r\n            tokenApprovals[_tokenId] = address(0);\r\n        }\r\n    }\r\n\r\n    /**\r\n     * @dev Internal function to add a token ID to the list of a given address\r\n     * @param _to address representing the new owner of the given token ID\r\n     * @param _tokenId uint256 ID of the token to be added to the tokens list of the given address\r\n     */\r\n    function addTokenTo(address _to, uint256 _tokenId) internal {\r\n        require(tokenOwner[_tokenId] == address(0));\r\n        tokenOwner[_tokenId] = _to;\r\n        ownedTokensCount[_to] = ownedTokensCount[_to].add(1);\r\n    }\r\n\r\n    /**\r\n     * @dev Internal function to remove a token ID from the list of a given address\r\n     * @param _from address representing the previous owner of the given token ID\r\n     * @param _tokenId uint256 ID of the token to be removed from the tokens list of the given address\r\n     */\r\n    function removeTokenFrom(address _from, uint256 _tokenId) internal {\r\n        require(ownerOf(_tokenId) == _from);\r\n        ownedTokensCount[_from] = ownedTokensCount[_from].sub(1);\r\n        tokenOwner[_tokenId] = address(0);\r\n    }\r\n\r\n    /**\r\n     * @dev Internal function to invoke `onERC721Received` on a target address\r\n     * The call is not executed if the target address is not a contract\r\n     * @param _from address representing the previous owner of the given token ID\r\n     * @param _to target address that will receive the tokens\r\n     * @param _tokenId uint256 ID of the token to be transferred\r\n     * @param _data bytes optional data to send along with the call\r\n     * @return whether the call correctly returned the expected magic value\r\n     */\r\n//    function checkAndCallSafeTransfer(\r\n//        address _from,\r\n//        address _to,\r\n//        uint256 _tokenId,\r\n//        bytes memory _data\r\n//    )\r\n//    internal\r\n//    returns (bool)\r\n//    {\r\n//        if (!_to.isContract()) {\r\n//            return true;\r\n//        }\r\n//        bytes4 retval = ERC721Receiver(_to).onERC721Received(\r\n//            msg.sender, _from, _tokenId, _data);\r\n//        return (retval == ERC721_RECEIVED);\r\n//    }\r\n}",
  "sourcePath": "E:/codingproject/xkey/contracts/test/MyNFT.sol",
  "compiler": {
    "name": "solc",
    "version": "0.5.16+commit.9c3226ce.Emscripten.clang"
  },
  "schemaVersion": "3.4.0",
  "updatedAt": "2021-06-09T09:07:09.232Z",
  "devdoc": {
    "methods": {
      "_mint(address,uint256)": {
        "details": "Internal function to mint a new token Reverts if the given token ID already exists",
        "params": {
          "_to": "The address that will own the minted token",
          "_tokenId": "uint256 ID of the token to be minted by the msg.sender"
        }
      },
      "approve(address,uint256)": {
        "details": "Approves another address to transfer the given token ID The zero address indicates there is no approved address. There can only be one approved address per token at a given time. Can only be called by the token owner or an approved operator.",
        "params": {
          "_to": "address to be approved for the given token ID",
          "_tokenId": "uint256 ID of the token to be approved"
        }
      },
      "balanceOf(address)": {
        "details": "Gets the balance of the specified address",
        "params": {
          "_owner": "address to query the balance of"
        },
        "return": "uint256 representing the amount owned by the passed address"
      },
      "exists(uint256)": {
        "details": "Returns whether the specified token exists",
        "params": {
          "_tokenId": "uint256 ID of the token to query the existence of"
        },
        "return": "whether the token exists"
      },
      "getApproved(uint256)": {
        "details": "Gets the approved address for a token ID, or zero if no address set",
        "params": {
          "_tokenId": "uint256 ID of the token to query the approval of"
        },
        "return": "address currently approved for the given token ID"
      },
      "isApprovedForAll(address,address)": {
        "details": "Tells whether an operator is approved by a given owner",
        "params": {
          "_operator": "operator address which you want to query the approval of",
          "_owner": "owner address which you want to query the approval of"
        },
        "return": "bool whether the given operator is approved by the given owner"
      },
      "ownerOf(uint256)": {
        "details": "Gets the owner of the specified token ID",
        "params": {
          "_tokenId": "uint256 ID of the token to query the owner of"
        },
        "return": "owner address currently marked as the owner of the given token ID"
      },
      "safeTransferFrom(address,address,uint256)": {
        "details": "Safely transfers the ownership of a given token ID to another address If the target address is a contract, it must implement `onERC721Received`, which is called upon a safe transfer, and return the magic value `bytes4(keccak256(\"onERC721Received(address,address,uint256,bytes)\"))`; otherwise, the transfer is reverted.      * Requires the msg sender to be the owner, approved, or operator",
        "params": {
          "_from": "current owner of the token",
          "_to": "address to receive the ownership of the given token ID",
          "_tokenId": "uint256 ID of the token to be transferred"
        }
      },
      "safeTransferFrom(address,address,uint256,bytes)": {
        "details": "Safely transfers the ownership of a given token ID to another address If the target address is a contract, it must implement `onERC721Received`, which is called upon a safe transfer, and return the magic value `bytes4(keccak256(\"onERC721Received(address,address,uint256,bytes)\"))`; otherwise, the transfer is reverted. Requires the msg sender to be the owner, approved, or operator",
        "params": {
          "_data": "bytes data to send along with a safe transfer check",
          "_from": "current owner of the token",
          "_to": "address to receive the ownership of the given token ID",
          "_tokenId": "uint256 ID of the token to be transferred"
        }
      },
      "setApprovalForAll(address,bool)": {
        "details": "Sets or unsets the approval of a given operator An operator is allowed to transfer all tokens of the sender on their behalf",
        "params": {
          "_approved": "representing the status of the approval to be set",
          "_to": "operator address to set the approval"
        }
      },
      "transferFrom(address,address,uint256)": {
        "details": "Transfers the ownership of a given token ID to another address Usage of this method is discouraged, use `safeTransferFrom` whenever possible Requires the msg sender to be the owner, approved, or operator",
        "params": {
          "_from": "current owner of the token",
          "_to": "address to receive the ownership of the given token ID",
          "_tokenId": "uint256 ID of the token to be transferred"
        }
      }
    }
  },
  "userdoc": {
    "methods": {
      "mintUniqueTokenTo(address,uint256)": {
        "notice": "Custom accessor to create a unique token"
      }
    }
  }
}