{
  "contractName": "PairERC20",
  "abi": [
    {
      "inputs": [],
      "payable": false,
      "stateMutability": "nonpayable",
      "type": "constructor"
    },
    {
      "anonymous": false,
      "inputs": [
        {
          "indexed": false,
          "internalType": "uint256",
          "name": "fromToken",
          "type": "uint256"
        },
        {
          "indexed": false,
          "internalType": "uint256",
          "name": "toToken",
          "type": "uint256"
        },
        {
          "indexed": false,
          "internalType": "uint256",
          "name": "value",
          "type": "uint256"
        }
      ],
      "name": "Transfer",
      "type": "event"
    },
    {
      "constant": true,
      "inputs": [],
      "name": "decimal",
      "outputs": [
        {
          "internalType": "uint256",
          "name": "",
          "type": "uint256"
        }
      ],
      "payable": false,
      "stateMutability": "view",
      "type": "function"
    },
    {
      "constant": true,
      "inputs": [],
      "name": "name",
      "outputs": [
        {
          "internalType": "string",
          "name": "",
          "type": "string"
        }
      ],
      "payable": false,
      "stateMutability": "view",
      "type": "function"
    },
    {
      "constant": true,
      "inputs": [],
      "name": "symbol",
      "outputs": [
        {
          "internalType": "string",
          "name": "",
          "type": "string"
        }
      ],
      "payable": false,
      "stateMutability": "view",
      "type": "function"
    },
    {
      "constant": true,
      "inputs": [],
      "name": "totalSupply",
      "outputs": [
        {
          "internalType": "uint256",
          "name": "",
          "type": "uint256"
        }
      ],
      "payable": false,
      "stateMutability": "view",
      "type": "function"
    },
    {
      "constant": true,
      "inputs": [
        {
          "internalType": "uint256",
          "name": "tokenId",
          "type": "uint256"
        }
      ],
      "name": "balanceOf",
      "outputs": [
        {
          "internalType": "uint256",
          "name": "",
          "type": "uint256"
        }
      ],
      "payable": false,
      "stateMutability": "view",
      "type": "function"
    }
  ],
  "bytecode": "0x608060405234801561001057600080fd5b506102b5806100206000396000f3fe608060405234801561001057600080fd5b50600436106100575760003560e01c806306fdde031461005c57806318160ddd146100df57806376809ce3146100fd57806395d89b411461011b5780639cc7f7081461019e575b600080fd5b6100646101e0565b6040518080602001828103825283818151815260200191508051906020019080838360005b838110156100a4578082015181840152602081019050610089565b50505050905090810190601f1680156100d15780820380516001836020036101000a031916815260200191505b509250505060405180910390f35b6100e7610219565b6040518082815260200191505060405180910390f35b61010561021f565b6040518082815260200191505060405180910390f35b61012361022b565b6040518080602001828103825283818151815260200191508051906020019080838360005b83811015610163578082015181840152602081019050610148565b50505050905090810190601f1680156101905780820380516001836020036101000a031916815260200191505b509250505060405180910390f35b6101ca600480360360208110156101b457600080fd5b8101908080359060200190929190505050610264565b6040518082815260200191505060405180910390f35b6040518060400160405280600881526020017f506169722045524300000000000000000000000000000000000000000000000081525081565b60015481565b670de0b6b3a764000081565b6040518060400160405280600981526020017f504149524552433230000000000000000000000000000000000000000000000081525081565b600080600083815260200190815260200160002054905091905056fea265627a7a7231582036d6b2bbede49725de7a8b689fb9930774cb419fcc0b0e3f20933ca0d664d8f264736f6c63430005100032",
  "source": "// SPDX-License-Identifier: MIT\r\n\r\npragma solidity >=0.5.0;\r\n\r\nimport \"./libraries/SafeMath.sol\";\r\n\r\ncontract PairERC20 {\r\n    using SafeMath for uint256;\r\n    mapping (uint256 => uint256) private _balances;\r\n\r\n    uint256 public totalSupply;\r\n\r\n    string public constant name = 'Pair ERC';\r\n    string public constant symbol = 'PAIRERC20';\r\n    uint256 public constant decimal = 10 ** 18;\r\n    event Transfer(uint256 fromToken, uint256 toToken, uint256 value);\r\n    constructor() public {}\r\n    /**\r\n     * @dev See {IERC20-balanceOf}.\r\n     */\r\n    function balanceOf(uint256 tokenId) public view returns (uint256) {\r\n        return _balances[tokenId];\r\n    }\r\n    function transferburn(uint256 amount) internal{\r\n        _balances[0] = amount;\r\n    }\r\n    function _mint(uint256 tokenId, uint256 amount) internal  {\r\n        require(tokenId != 0, \"ERC20: mint to the zero tokenID\");\r\n\r\n       //_beforeTokenTransfer(address(0), account, amount);\r\n\r\n        totalSupply= totalSupply.add(amount);\r\n        _balances[tokenId] = _balances[tokenId].add(amount);\r\n        emit Transfer(0, tokenId, amount);\r\n    }\r\n\r\n    function _add_min_liquid(uint amount) internal {\r\n        if(totalSupply == 0){\r\n            totalSupply = amount;\r\n        }\r\n    }\r\n\r\n    function _burn(uint256 tokenId, uint256 amount) internal  {\r\n        require(tokenId != 0, \"ERC20: burn from the zero address\");\r\n\r\n        //_beforeTokenTransfer(account, address(0), amount);\r\n\r\n        uint256 accountBalance = _balances[tokenId];\r\n        require(accountBalance >= amount, \"ERC20: burn amount exceeds balance\");\r\n        _balances[tokenId] = accountBalance.sub(amount);\r\n        totalSupply= totalSupply.sub( amount);\r\n        _balances[0] = 0;\r\n        emit Transfer(tokenId, 0, amount);\r\n    }\r\n\r\n}\r\n",
  "sourcePath": "E:/codingproject/xkey/contracts/PairERC20.sol",
  "compiler": {
    "name": "solc",
    "version": "0.5.16+commit.9c3226ce.Emscripten.clang"
  },
  "schemaVersion": "3.4.0",
  "updatedAt": "2021-05-28T05:22:54.779Z",
  "devdoc": {
    "methods": {
      "balanceOf(uint256)": {
        "details": "See {IERC20-balanceOf}."
      }
    }
  },
  "userdoc": {
    "methods": {}
  }
}