{
  "contractName": "QCERC20",
  "abi": [
    {
      "inputs": [],
      "payable": false,
      "stateMutability": "nonpayable",
      "type": "constructor"
    },
    {
      "anonymous": false,
      "inputs": [
        {
          "indexed": true,
          "internalType": "address",
          "name": "owner",
          "type": "address"
        },
        {
          "indexed": true,
          "internalType": "address",
          "name": "spender",
          "type": "address"
        },
        {
          "indexed": false,
          "internalType": "uint256",
          "name": "value",
          "type": "uint256"
        }
      ],
      "name": "Approval",
      "type": "event"
    },
    {
      "anonymous": false,
      "inputs": [
        {
          "indexed": true,
          "internalType": "address",
          "name": "from",
          "type": "address"
        },
        {
          "indexed": true,
          "internalType": "address",
          "name": "to",
          "type": "address"
        },
        {
          "indexed": false,
          "internalType": "uint256",
          "name": "value",
          "type": "uint256"
        }
      ],
      "name": "Transfer",
      "type": "event"
    },
    {
      "constant": true,
      "inputs": [],
      "name": "DOMAIN_SEPARATOR",
      "outputs": [
        {
          "internalType": "bytes32",
          "name": "",
          "type": "bytes32"
        }
      ],
      "payable": false,
      "stateMutability": "view",
      "type": "function"
    },
    {
      "constant": true,
      "inputs": [
        {
          "internalType": "address",
          "name": "",
          "type": "address"
        },
        {
          "internalType": "address",
          "name": "",
          "type": "address"
        }
      ],
      "name": "allowance",
      "outputs": [
        {
          "internalType": "uint256",
          "name": "",
          "type": "uint256"
        }
      ],
      "payable": false,
      "stateMutability": "view",
      "type": "function"
    },
    {
      "constant": true,
      "inputs": [
        {
          "internalType": "address",
          "name": "",
          "type": "address"
        }
      ],
      "name": "balanceOf",
      "outputs": [
        {
          "internalType": "uint256",
          "name": "",
          "type": "uint256"
        }
      ],
      "payable": false,
      "stateMutability": "view",
      "type": "function"
    },
    {
      "constant": true,
      "inputs": [],
      "name": "decimals",
      "outputs": [
        {
          "internalType": "uint8",
          "name": "",
          "type": "uint8"
        }
      ],
      "payable": false,
      "stateMutability": "view",
      "type": "function"
    },
    {
      "constant": true,
      "inputs": [],
      "name": "name",
      "outputs": [
        {
          "internalType": "string",
          "name": "",
          "type": "string"
        }
      ],
      "payable": false,
      "stateMutability": "view",
      "type": "function"
    },
    {
      "constant": true,
      "inputs": [
        {
          "internalType": "address",
          "name": "",
          "type": "address"
        }
      ],
      "name": "nonces",
      "outputs": [
        {
          "internalType": "uint256",
          "name": "",
          "type": "uint256"
        }
      ],
      "payable": false,
      "stateMutability": "view",
      "type": "function"
    },
    {
      "constant": true,
      "inputs": [],
      "name": "symbol",
      "outputs": [
        {
          "internalType": "string",
          "name": "",
          "type": "string"
        }
      ],
      "payable": false,
      "stateMutability": "view",
      "type": "function"
    },
    {
      "constant": true,
      "inputs": [],
      "name": "totalSupply",
      "outputs": [
        {
          "internalType": "uint256",
          "name": "",
          "type": "uint256"
        }
      ],
      "payable": false,
      "stateMutability": "view",
      "type": "function"
    },
    {
      "constant": false,
      "inputs": [
        {
          "internalType": "address",
          "name": "spender",
          "type": "address"
        },
        {
          "internalType": "uint256",
          "name": "value",
          "type": "uint256"
        }
      ],
      "name": "approve",
      "outputs": [
        {
          "internalType": "bool",
          "name": "",
          "type": "bool"
        }
      ],
      "payable": false,
      "stateMutability": "nonpayable",
      "type": "function"
    },
    {
      "constant": false,
      "inputs": [
        {
          "internalType": "address",
          "name": "to",
          "type": "address"
        },
        {
          "internalType": "uint256",
          "name": "value",
          "type": "uint256"
        }
      ],
      "name": "transfer",
      "outputs": [
        {
          "internalType": "bool",
          "name": "",
          "type": "bool"
        }
      ],
      "payable": false,
      "stateMutability": "nonpayable",
      "type": "function"
    },
    {
      "constant": false,
      "inputs": [
        {
          "internalType": "address",
          "name": "from",
          "type": "address"
        },
        {
          "internalType": "address",
          "name": "to",
          "type": "address"
        },
        {
          "internalType": "uint256",
          "name": "value",
          "type": "uint256"
        }
      ],
      "name": "transferFrom",
      "outputs": [
        {
          "internalType": "bool",
          "name": "",
          "type": "bool"
        }
      ],
      "payable": false,
      "stateMutability": "nonpayable",
      "type": "function"
    }
  ],
  "bytecode": "0x6080604052601260ff16600a0a6402540be4000260005534801561002257600080fd5b50600046905050610ba5806100386000396000f3fe608060405234801561001057600080fd5b50600436106100a95760003560e01c80633644e515116100715780633644e5151461025f57806370a082311461027d5780637ecebe00146102d557806395d89b411461032d578063a9059cbb146103b0578063dd62ed3e14610416576100a9565b806306fdde03146100ae578063095ea7b31461013157806318160ddd1461019757806323b872dd146101b5578063313ce5671461023b575b600080fd5b6100b661048e565b6040518080602001828103825283818151815260200191508051906020019080838360005b838110156100f65780820151818401526020810190506100db565b50505050905090810190601f1680156101235780820380516001836020036101000a031916815260200191505b509250505060405180910390f35b61017d6004803603604081101561014757600080fd5b81019080803573ffffffffffffffffffffffffffffffffffffffff169060200190929190803590602001909291905050506104c7565b604051808215151515815260200191505060405180910390f35b61019f6104de565b6040518082815260200191505060405180910390f35b610221600480360360608110156101cb57600080fd5b81019080803573ffffffffffffffffffffffffffffffffffffffff169060200190929190803573ffffffffffffffffffffffffffffffffffffffff169060200190929190803590602001909291905050506104e4565b604051808215151515815260200191505060405180910390f35b6102436106af565b604051808260ff1660ff16815260200191505060405180910390f35b6102676106b4565b6040518082815260200191505060405180910390f35b6102bf6004803603602081101561029357600080fd5b81019080803573ffffffffffffffffffffffffffffffffffffffff1690602001909291905050506106ba565b6040518082815260200191505060405180910390f35b610317600480360360208110156102eb57600080fd5b81019080803573ffffffffffffffffffffffffffffffffffffffff1690602001909291905050506106d2565b6040518082815260200191505060405180910390f35b6103356106ea565b6040518080602001828103825283818151815260200191508051906020019080838360005b8381101561037557808201518184015260208101905061035a565b50505050905090810190601f1680156103a25780820380516001836020036101000a031916815260200191505b509250505060405180910390f35b6103fc600480360360408110156103c657600080fd5b81019080803573ffffffffffffffffffffffffffffffffffffffff16906020019092919080359060200190929190505050610723565b604051808215151515815260200191505060405180910390f35b6104786004803603604081101561042c57600080fd5b81019080803573ffffffffffffffffffffffffffffffffffffffff169060200190929190803573ffffffffffffffffffffffffffffffffffffffff16906020019092919050505061073a565b6040518082815260200191505060405180910390f35b6040518060400160405280600281526020017f514300000000000000000000000000000000000000000000000000000000000081525081565b60006104d433848461075f565b6001905092915050565b60005481565b60007fffffffffffffffffffffffffffffffffffffffffffffffffffffffffffffffff600260008673ffffffffffffffffffffffffffffffffffffffff1673ffffffffffffffffffffffffffffffffffffffff16815260200190815260200160002060003373ffffffffffffffffffffffffffffffffffffffff1673ffffffffffffffffffffffffffffffffffffffff16815260200190815260200160002054146106995761061882600260008773ffffffffffffffffffffffffffffffffffffffff1673ffffffffffffffffffffffffffffffffffffffff16815260200190815260200160002060003373ffffffffffffffffffffffffffffffffffffffff1673ffffffffffffffffffffffffffffffffffffffff1681526020019081526020016000205461084a90919063ffffffff16565b600260008673ffffffffffffffffffffffffffffffffffffffff1673ffffffffffffffffffffffffffffffffffffffff16815260200190815260200160002060003373ffffffffffffffffffffffffffffffffffffffff1673ffffffffffffffffffffffffffffffffffffffff168152602001908152602001600020819055505b6106a4848484610894565b600190509392505050565b601281565b60035481565b60016020528060005260406000206000915090505481565b60046020528060005260406000206000915090505481565b6040518060400160405280600281526020017f514300000000000000000000000000000000000000000000000000000000000081525081565b6000610730338484610894565b6001905092915050565b6002602052816000526040600020602052806000526040600020600091509150505481565b80600260008573ffffffffffffffffffffffffffffffffffffffff1673ffffffffffffffffffffffffffffffffffffffff16815260200190815260200160002060008473ffffffffffffffffffffffffffffffffffffffff1673ffffffffffffffffffffffffffffffffffffffff168152602001908152602001600020819055508173ffffffffffffffffffffffffffffffffffffffff168373ffffffffffffffffffffffffffffffffffffffff167f8c5be1e5ebec7d5bd14f71427d1e84f3dd0314c0f7b2291e5b200ac8c7c3b925836040518082815260200191505060405180910390a3505050565b600061088c83836040518060400160405280601e81526020017f536166654d6174683a207375627472616374696f6e206f766572666c6f770000815250610a28565b905092915050565b6108e681600160008673ffffffffffffffffffffffffffffffffffffffff1673ffffffffffffffffffffffffffffffffffffffff1681526020019081526020016000205461084a90919063ffffffff16565b600160008573ffffffffffffffffffffffffffffffffffffffff1673ffffffffffffffffffffffffffffffffffffffff1681526020019081526020016000208190555061097b81600160008573ffffffffffffffffffffffffffffffffffffffff1673ffffffffffffffffffffffffffffffffffffffff16815260200190815260200160002054610ae890919063ffffffff16565b600160008473ffffffffffffffffffffffffffffffffffffffff1673ffffffffffffffffffffffffffffffffffffffff168152602001908152602001600020819055508173ffffffffffffffffffffffffffffffffffffffff168373ffffffffffffffffffffffffffffffffffffffff167fddf252ad1be2c89b69c2b068fc378daa952ba7f163c4a11628f55a4df523b3ef836040518082815260200191505060405180910390a3505050565b6000838311158290610ad5576040517f08c379a00000000000000000000000000000000000000000000000000000000081526004018080602001828103825283818151815260200191508051906020019080838360005b83811015610a9a578082015181840152602081019050610a7f565b50505050905090810190601f168015610ac75780820380516001836020036101000a031916815260200191505b509250505060405180910390fd5b5060008385039050809150509392505050565b600080828401905083811015610b66576040517f08c379a000000000000000000000000000000000000000000000000000000000815260040180806020018281038252601b8152602001807f536166654d6174683a206164646974696f6e206f766572666c6f77000000000081525060200191505060405180910390fd5b809150509291505056fea265627a7a72315820e3687591de7eecdc86052e41b34fe39a3332eb43155869e2f2b5a0541ad57f7e64736f6c63430005100032",
  "source": "pragma solidity >=0.5.16;\r\n\r\nimport '../interfaces/IERC20.sol';\r\nimport '../libraries/SafeMath.sol';\r\n\r\ncontract QCERC20 is IERC20 {\r\n    using SafeMath for uint;\r\n\r\n    string public constant name = 'QC';\r\n    string public constant symbol = 'QC';\r\n    uint8 public constant decimals = 18;\r\n    uint  public totalSupply = 10**10*10**uint(decimals);\r\n    mapping(address => uint) public balanceOf;\r\n    mapping(address => mapping(address => uint)) public allowance;\r\n\r\n    bytes32 public DOMAIN_SEPARATOR;\r\n    mapping(address => uint) public nonces;\r\n\r\n    event Approval(address indexed owner, address indexed spender, uint value);\r\n    event Transfer(address indexed from, address indexed to, uint value);\r\n\r\n    constructor() public {\r\n        uint chainId;\r\n        assembly {\r\n            chainId := chainid\r\n        }\r\n    }\r\n\r\n    function _approve(address owner, address spender, uint value) private {\r\n        allowance[owner][spender] = value;\r\n        emit Approval(owner, spender, value);\r\n    }\r\n\r\n    function _transfer(address from, address to, uint value) private {\r\n        balanceOf[from] = balanceOf[from].sub(value);\r\n        balanceOf[to] = balanceOf[to].add(value);\r\n        emit Transfer(from, to, value);\r\n    }\r\n\r\n    function approve(address spender, uint value) external returns (bool) {\r\n        _approve(msg.sender, spender, value);\r\n        return true;\r\n    }\r\n\r\n    function transfer(address to, uint value) external returns (bool) {\r\n        _transfer(msg.sender, to, value);\r\n        return true;\r\n    }\r\n\r\n    function transferFrom(address from, address to, uint value) external returns (bool) {\r\n        if (allowance[from][msg.sender] != uint(-1)) {\r\n            allowance[from][msg.sender] = allowance[from][msg.sender].sub(value);\r\n        }\r\n        _transfer(from, to, value);\r\n        return true;\r\n    }\r\n}\r\n",
  "sourcePath": "E:/codingproject/xkey/contracts/test/QC.sol",
  "compiler": {
    "name": "solc",
    "version": "0.5.16+commit.9c3226ce.Emscripten.clang"
  },
  "schemaVersion": "3.4.0",
  "updatedAt": "2021-05-28T05:15:25.643Z",
  "devdoc": {
    "methods": {}
  },
  "userdoc": {
    "methods": {}
  }
}