{
  "contractName": "SWETH",
  "abi": [
    {
      "anonymous": false,
      "inputs": [
        {
          "indexed": true,
          "internalType": "address",
          "name": "src",
          "type": "address"
        },
        {
          "indexed": true,
          "internalType": "address",
          "name": "guy",
          "type": "address"
        },
        {
          "indexed": false,
          "internalType": "uint256",
          "name": "wad",
          "type": "uint256"
        }
      ],
      "name": "Approval",
      "type": "event"
    },
    {
      "anonymous": false,
      "inputs": [
        {
          "indexed": true,
          "internalType": "address",
          "name": "dst",
          "type": "address"
        },
        {
          "indexed": false,
          "internalType": "uint256",
          "name": "wad",
          "type": "uint256"
        }
      ],
      "name": "Deposit",
      "type": "event"
    },
    {
      "anonymous": false,
      "inputs": [
        {
          "indexed": true,
          "internalType": "address",
          "name": "src",
          "type": "address"
        },
        {
          "indexed": true,
          "internalType": "address",
          "name": "dst",
          "type": "address"
        },
        {
          "indexed": false,
          "internalType": "uint256",
          "name": "wad",
          "type": "uint256"
        }
      ],
      "name": "Transfer",
      "type": "event"
    },
    {
      "anonymous": false,
      "inputs": [
        {
          "indexed": true,
          "internalType": "address",
          "name": "src",
          "type": "address"
        },
        {
          "indexed": false,
          "internalType": "uint256",
          "name": "wad",
          "type": "uint256"
        }
      ],
      "name": "Withdrawal",
      "type": "event"
    },
    {
      "payable": true,
      "stateMutability": "payable",
      "type": "fallback"
    },
    {
      "constant": true,
      "inputs": [
        {
          "internalType": "address",
          "name": "",
          "type": "address"
        },
        {
          "internalType": "address",
          "name": "",
          "type": "address"
        }
      ],
      "name": "allowance",
      "outputs": [
        {
          "internalType": "uint256",
          "name": "",
          "type": "uint256"
        }
      ],
      "payable": false,
      "stateMutability": "view",
      "type": "function"
    },
    {
      "constant": true,
      "inputs": [
        {
          "internalType": "address",
          "name": "",
          "type": "address"
        }
      ],
      "name": "balanceOf",
      "outputs": [
        {
          "internalType": "uint256",
          "name": "",
          "type": "uint256"
        }
      ],
      "payable": false,
      "stateMutability": "view",
      "type": "function"
    },
    {
      "constant": true,
      "inputs": [],
      "name": "decimals",
      "outputs": [
        {
          "internalType": "uint8",
          "name": "",
          "type": "uint8"
        }
      ],
      "payable": false,
      "stateMutability": "view",
      "type": "function"
    },
    {
      "constant": true,
      "inputs": [],
      "name": "name",
      "outputs": [
        {
          "internalType": "string",
          "name": "",
          "type": "string"
        }
      ],
      "payable": false,
      "stateMutability": "view",
      "type": "function"
    },
    {
      "constant": true,
      "inputs": [],
      "name": "symbol",
      "outputs": [
        {
          "internalType": "string",
          "name": "",
          "type": "string"
        }
      ],
      "payable": false,
      "stateMutability": "view",
      "type": "function"
    },
    {
      "constant": false,
      "inputs": [],
      "name": "deposit",
      "outputs": [],
      "payable": true,
      "stateMutability": "payable",
      "type": "function"
    },
    {
      "constant": false,
      "inputs": [
        {
          "internalType": "uint256",
          "name": "wad",
          "type": "uint256"
        }
      ],
      "name": "withdraw",
      "outputs": [],
      "payable": false,
      "stateMutability": "nonpayable",
      "type": "function"
    },
    {
      "constant": true,
      "inputs": [],
      "name": "totalSupply",
      "outputs": [
        {
          "internalType": "uint256",
          "name": "",
          "type": "uint256"
        }
      ],
      "payable": false,
      "stateMutability": "view",
      "type": "function"
    },
    {
      "constant": false,
      "inputs": [
        {
          "internalType": "address",
          "name": "guy",
          "type": "address"
        },
        {
          "internalType": "uint256",
          "name": "wad",
          "type": "uint256"
        }
      ],
      "name": "approve",
      "outputs": [
        {
          "internalType": "bool",
          "name": "",
          "type": "bool"
        }
      ],
      "payable": false,
      "stateMutability": "nonpayable",
      "type": "function"
    },
    {
      "constant": false,
      "inputs": [
        {
          "internalType": "address",
          "name": "dst",
          "type": "address"
        },
        {
          "internalType": "uint256",
          "name": "wad",
          "type": "uint256"
        }
      ],
      "name": "transfer",
      "outputs": [
        {
          "internalType": "bool",
          "name": "",
          "type": "bool"
        }
      ],
      "payable": false,
      "stateMutability": "nonpayable",
      "type": "function"
    },
    {
      "constant": false,
      "inputs": [
        {
          "internalType": "address",
          "name": "src",
          "type": "address"
        },
        {
          "internalType": "address",
          "name": "dst",
          "type": "address"
        },
        {
          "internalType": "uint256",
          "name": "wad",
          "type": "uint256"
        }
      ],
      "name": "transferFrom",
      "outputs": [
        {
          "internalType": "bool",
          "name": "",
          "type": "bool"
        }
      ],
      "payable": false,
      "stateMutability": "nonpayable",
      "type": "function"
    }
  ],
  "bytecode": "0x60c0604052600d60808190526c2bb930b83832b21022ba3432b960991b60a090815261002e916000919061007a565b50604080518082019091526004808252630ae8aa8960e31b602090920191825261005a9160019161007a565b506002805460ff1916601217905534801561007457600080fd5b50610115565b828054600181600116156101000203166002900490600052602060002090601f016020900481019282601f106100bb57805160ff19168380011785556100e8565b828001600101855582156100e8579182015b828111156100e85782518255916020019190600101906100cd565b506100f49291506100f8565b5090565b61011291905b808211156100f457600081556001016100fe565b90565b61071f806101246000396000f3fe60806040526004361061009c5760003560e01c8063313ce56711610064578063313ce5671461021157806370a082311461023c57806395d89b411461026f578063a9059cbb14610284578063d0e30db01461009c578063dd62ed3e146102bd5761009c565b806306fdde03146100a6578063095ea7b31461013057806318160ddd1461017d57806323b872dd146101a45780632e1a7d4d146101e7575b6100a46102f8565b005b3480156100b257600080fd5b506100bb610347565b6040805160208082528351818301528351919283929083019185019080838360005b838110156100f55781810151838201526020016100dd565b50505050905090810190601f1680156101225780820380516001836020036101000a031916815260200191505b509250505060405180910390f35b34801561013c57600080fd5b506101696004803603604081101561015357600080fd5b506001600160a01b0381351690602001356103d5565b604080519115158252519081900360200190f35b34801561018957600080fd5b5061019261043b565b60408051918252519081900360200190f35b3480156101b057600080fd5b50610169600480360360608110156101c757600080fd5b506001600160a01b0381358116916020810135909116906040013561043f565b3480156101f357600080fd5b506100a46004803603602081101561020a57600080fd5b5035610573565b34801561021d57600080fd5b50610226610644565b6040805160ff9092168252519081900360200190f35b34801561024857600080fd5b506101926004803603602081101561025f57600080fd5b50356001600160a01b031661064d565b34801561027b57600080fd5b506100bb61065f565b34801561029057600080fd5b50610169600480360360408110156102a757600080fd5b506001600160a01b0381351690602001356106b9565b3480156102c957600080fd5b50610192600480360360408110156102e057600080fd5b506001600160a01b03813581169160200135166106cd565b33600081815260036020908152604091829020805434908101909155825190815291517fe1fffcc4923d04b559f4d29a8bfc6cda04eb5b0d3c460751c2402c5c5cc9109c9281900390910190a2565b6000805460408051602060026001851615610100026000190190941693909304601f810184900484028201840190925281815292918301828280156103cd5780601f106103a2576101008083540402835291602001916103cd565b820191906000526020600020905b8154815290600101906020018083116103b057829003601f168201915b505050505081565b3360008181526004602090815260408083206001600160a01b038716808552908352818420869055815186815291519394909390927f8c5be1e5ebec7d5bd14f71427d1e84f3dd0314c0f7b2291e5b200ac8c7c3b925928290030190a350600192915050565b4790565b6001600160a01b03831660009081526003602052604081205482111561046457600080fd5b6001600160a01b03841633148015906104a257506001600160a01b038416600090815260046020908152604080832033845290915290205460001914155b15610502576001600160a01b03841660009081526004602090815260408083203384529091529020548211156104d757600080fd5b6001600160a01b03841660009081526004602090815260408083203384529091529020805483900390555b6001600160a01b03808516600081815260036020908152604080832080548890039055938716808352918490208054870190558351868152935191937fddf252ad1be2c89b69c2b068fc378daa952ba7f163c4a11628f55a4df523b3ef929081900390910190a35060019392505050565b336000908152600360205260409020548111156105cb576040805162461bcd60e51b8152602060048201526011602482015270092dce6eaccccd2c6d2cadce840ae8aa89607b1b604482015290519081900360640190fd5b33600081815260036020526040808220805485900390555183156108fc0291849190818181858888f1935050505015801561060a573d6000803e3d6000fd5b5060408051828152905133917f7fcf532c15f0a6db0bd6d0e038bea71d30d808c7d98cb3bf7268a95bf5081b65919081900360200190a250565b60025460ff1681565b60036020526000908152604090205481565b60018054604080516020600284861615610100026000190190941693909304601f810184900484028201840190925281815292918301828280156103cd5780601f106103a2576101008083540402835291602001916103cd565b60006106c633848461043f565b9392505050565b60046020908152600092835260408084209091529082529020548156fea265627a7a72315820ac7b1c0051ff46b0f1e5f144e585349d38306193c326ea2b4c82596807064d5264736f6c63430005100032",
  "source": "pragma solidity =0.5.16;\r\n\r\nimport '../interfaces/IWETH.sol'; \r\nimport '../interfaces/IERC20.sol'; \r\n\r\ncontract SWETH is IERC20, IWETH {\r\n    string public name     = \"Wrapped Ether\";\r\n    string public symbol   = \"WETH\";\r\n    uint8  public decimals = 18;\r\n\r\n    event  Approval(address indexed src, address indexed guy, uint wad);\r\n    event  Transfer(address indexed src, address indexed dst, uint wad);\r\n    event  Deposit(address indexed dst, uint wad);\r\n    event  Withdrawal(address indexed src, uint wad);\r\n\r\n    mapping (address => uint)                       public  balanceOf;\r\n    mapping (address => mapping (address => uint))  public  allowance;\r\n\r\n    function() external payable {\r\n        deposit();\r\n    }\r\n    function deposit() public payable {\r\n        balanceOf[msg.sender] += msg.value;\r\n        emit Deposit(msg.sender, msg.value);\r\n    }\r\n    function withdraw(uint wad) public {\r\n        require(balanceOf[msg.sender] >= wad, 'Insufficient WETH');\r\n        balanceOf[msg.sender] -= wad;\r\n        (msg.sender).transfer(wad);\r\n        emit Withdrawal(msg.sender, wad);\r\n    }\r\n\r\n    function totalSupply() public view returns (uint) {\r\n        return address(this).balance;\r\n    }\r\n\r\n    function approve(address guy, uint wad) public returns (bool) {\r\n        allowance[msg.sender][guy] = wad;\r\n        emit Approval(msg.sender, guy, wad);\r\n        return true;\r\n    }\r\n\r\n    function transfer(address dst, uint wad) public returns (bool) {\r\n        return transferFrom(msg.sender, dst, wad);\r\n    }\r\n\r\n    function transferFrom(address src, address dst, uint wad)\r\n        public\r\n        returns (bool)\r\n    {\r\n        require(balanceOf[src] >= wad);\r\n\r\n        if (src != msg.sender && allowance[src][msg.sender] != uint(-1)) {\r\n            require(allowance[src][msg.sender] >= wad);\r\n            allowance[src][msg.sender] -= wad;\r\n        }\r\n\r\n        balanceOf[src] -= wad;\r\n        balanceOf[dst] += wad;\r\n\r\n        emit Transfer(src, dst, wad);\r\n\r\n        return true;\r\n    }\r\n}",
  "sourcePath": "E:/codingproject/xkey/contracts/libraries/SWETH.sol",
  "compiler": {
    "name": "solc",
    "version": "0.5.16+commit.9c3226ce.Emscripten.clang"
  },
  "schemaVersion": "3.4.0",
  "updatedAt": "2021-06-15T09:25:31.353Z",
  "devdoc": {
    "methods": {}
  },
  "userdoc": {
    "methods": {}
  }
}