{
  "contractName": "XkeyDao",
  "abi": [
    {
      "inputs": [
        {
          "internalType": "address",
          "name": "_erc_mintaddr",
          "type": "address"
        },
        {
          "internalType": "address",
          "name": "_xkeyPokerPower",
          "type": "address"
        },
        {
          "internalType": "address",
          "name": "_lpnft",
          "type": "address"
        },
        {
          "internalType": "uint256",
          "name": "_perblockreward",
          "type": "uint256"
        },
        {
          "internalType": "uint256",
          "name": "_priedLength",
          "type": "uint256"
        }
      ],
      "payable": false,
      "stateMutability": "nonpayable",
      "type": "constructor"
    },
    {
      "anonymous": false,
      "inputs": [
        {
          "indexed": false,
          "internalType": "address",
          "name": "",
          "type": "address"
        },
        {
          "indexed": false,
          "internalType": "uint256",
          "name": "",
          "type": "uint256"
        },
        {
          "indexed": false,
          "internalType": "uint256",
          "name": "",
          "type": "uint256"
        }
      ],
      "name": "LiquidSwapTokenCreated",
      "type": "event"
    },
    {
      "constant": true,
      "inputs": [],
      "name": "all_weight",
      "outputs": [
        {
          "internalType": "uint256",
          "name": "",
          "type": "uint256"
        }
      ],
      "payable": false,
      "stateMutability": "view",
      "type": "function"
    },
    {
      "constant": true,
      "inputs": [],
      "name": "erc_mintaddr",
      "outputs": [
        {
          "internalType": "address",
          "name": "",
          "type": "address"
        }
      ],
      "payable": false,
      "stateMutability": "view",
      "type": "function"
    },
    {
      "constant": true,
      "inputs": [],
      "name": "halfroundTimes",
      "outputs": [
        {
          "internalType": "uint256",
          "name": "",
          "type": "uint256"
        }
      ],
      "payable": false,
      "stateMutability": "view",
      "type": "function"
    },
    {
      "constant": true,
      "inputs": [],
      "name": "lpnft",
      "outputs": [
        {
          "internalType": "address",
          "name": "",
          "type": "address"
        }
      ],
      "payable": false,
      "stateMutability": "view",
      "type": "function"
    },
    {
      "constant": true,
      "inputs": [],
      "name": "multipleNumber",
      "outputs": [
        {
          "internalType": "uint256",
          "name": "",
          "type": "uint256"
        }
      ],
      "payable": false,
      "stateMutability": "view",
      "type": "function"
    },
    {
      "constant": true,
      "inputs": [],
      "name": "perblockreward",
      "outputs": [
        {
          "internalType": "uint256",
          "name": "",
          "type": "uint256"
        }
      ],
      "payable": false,
      "stateMutability": "view",
      "type": "function"
    },
    {
      "constant": true,
      "inputs": [],
      "name": "priedLength",
      "outputs": [
        {
          "internalType": "uint256",
          "name": "",
          "type": "uint256"
        }
      ],
      "payable": false,
      "stateMutability": "view",
      "type": "function"
    },
    {
      "constant": true,
      "inputs": [],
      "name": "startBlocknum",
      "outputs": [
        {
          "internalType": "uint256",
          "name": "",
          "type": "uint256"
        }
      ],
      "payable": false,
      "stateMutability": "view",
      "type": "function"
    },
    {
      "constant": true,
      "inputs": [
        {
          "internalType": "uint256",
          "name": "",
          "type": "uint256"
        }
      ],
      "name": "swaptoken_addrs",
      "outputs": [
        {
          "internalType": "address",
          "name": "",
          "type": "address"
        }
      ],
      "payable": false,
      "stateMutability": "view",
      "type": "function"
    },
    {
      "constant": true,
      "inputs": [
        {
          "internalType": "address",
          "name": "",
          "type": "address"
        }
      ],
      "name": "swaptoken_allAmount",
      "outputs": [
        {
          "internalType": "uint256",
          "name": "",
          "type": "uint256"
        }
      ],
      "payable": false,
      "stateMutability": "view",
      "type": "function"
    },
    {
      "constant": true,
      "inputs": [
        {
          "internalType": "address",
          "name": "",
          "type": "address"
        }
      ],
      "name": "swaptoken_current_stage",
      "outputs": [
        {
          "internalType": "uint256",
          "name": "",
          "type": "uint256"
        }
      ],
      "payable": false,
      "stateMutability": "view",
      "type": "function"
    },
    {
      "constant": true,
      "inputs": [],
      "name": "swaptoken_had_mint",
      "outputs": [
        {
          "internalType": "uint256",
          "name": "",
          "type": "uint256"
        }
      ],
      "payable": false,
      "stateMutability": "view",
      "type": "function"
    },
    {
      "constant": true,
      "inputs": [
        {
          "internalType": "address",
          "name": "",
          "type": "address"
        }
      ],
      "name": "swaptoken_hadmint",
      "outputs": [
        {
          "internalType": "uint256",
          "name": "",
          "type": "uint256"
        }
      ],
      "payable": false,
      "stateMutability": "view",
      "type": "function"
    },
    {
      "constant": true,
      "inputs": [
        {
          "internalType": "address",
          "name": "",
          "type": "address"
        }
      ],
      "name": "swaptoken_last_reward_blocknum",
      "outputs": [
        {
          "internalType": "uint256",
          "name": "",
          "type": "uint256"
        }
      ],
      "payable": false,
      "stateMutability": "view",
      "type": "function"
    },
    {
      "constant": true,
      "inputs": [
        {
          "internalType": "address",
          "name": "",
          "type": "address"
        }
      ],
      "name": "swaptoken_pershare_reward",
      "outputs": [
        {
          "internalType": "uint256",
          "name": "",
          "type": "uint256"
        }
      ],
      "payable": false,
      "stateMutability": "view",
      "type": "function"
    },
    {
      "constant": true,
      "inputs": [],
      "name": "swaptoken_totalMint",
      "outputs": [
        {
          "internalType": "uint256",
          "name": "",
          "type": "uint256"
        }
      ],
      "payable": false,
      "stateMutability": "view",
      "type": "function"
    },
    {
      "constant": true,
      "inputs": [
        {
          "internalType": "address",
          "name": "",
          "type": "address"
        }
      ],
      "name": "swaptoken_weight",
      "outputs": [
        {
          "internalType": "uint256",
          "name": "",
          "type": "uint256"
        }
      ],
      "payable": false,
      "stateMutability": "view",
      "type": "function"
    },
    {
      "constant": true,
      "inputs": [],
      "name": "xkeyPokerPower",
      "outputs": [
        {
          "internalType": "address",
          "name": "",
          "type": "address"
        }
      ],
      "payable": false,
      "stateMutability": "view",
      "type": "function"
    },
    {
      "constant": false,
      "inputs": [
        {
          "internalType": "address",
          "name": "_liquid_swaptoken_addr",
          "type": "address"
        },
        {
          "internalType": "uint256",
          "name": "_swaptoken_weight",
          "type": "uint256"
        },
        {
          "internalType": "uint256",
          "name": "_swaptoken_start_block",
          "type": "uint256"
        }
      ],
      "name": "createLiquidSwap",
      "outputs": [],
      "payable": false,
      "stateMutability": "nonpayable",
      "type": "function"
    },
    {
      "constant": true,
      "inputs": [
        {
          "internalType": "address",
          "name": "_user",
          "type": "address"
        }
      ],
      "name": "getAddrBalanceof",
      "outputs": [
        {
          "internalType": "uint256",
          "name": "",
          "type": "uint256"
        }
      ],
      "payable": false,
      "stateMutability": "view",
      "type": "function"
    },
    {
      "constant": false,
      "inputs": [
        {
          "internalType": "address",
          "name": "_erc_mintaddr",
          "type": "address"
        }
      ],
      "name": "changeMintErcAddr",
      "outputs": [],
      "payable": false,
      "stateMutability": "nonpayable",
      "type": "function"
    },
    {
      "constant": false,
      "inputs": [
        {
          "internalType": "uint256",
          "name": "_block_number",
          "type": "uint256"
        }
      ],
      "name": "setStartBlocknum",
      "outputs": [],
      "payable": false,
      "stateMutability": "nonpayable",
      "type": "function"
    },
    {
      "constant": false,
      "inputs": [
        {
          "internalType": "uint256",
          "name": "_tokenId",
          "type": "uint256"
        }
      ],
      "name": "addSwaptokenShareSingle",
      "outputs": [],
      "payable": false,
      "stateMutability": "nonpayable",
      "type": "function"
    },
    {
      "constant": false,
      "inputs": [
        {
          "internalType": "uint256[5]",
          "name": "_tokenIds",
          "type": "uint256[5]"
        }
      ],
      "name": "addSwaptokenShareCombine",
      "outputs": [],
      "payable": false,
      "stateMutability": "nonpayable",
      "type": "function"
    },
    {
      "constant": false,
      "inputs": [
        {
          "internalType": "uint256",
          "name": "_tokenId",
          "type": "uint256"
        }
      ],
      "name": "removeSwaptokenShareSingle",
      "outputs": [],
      "payable": false,
      "stateMutability": "nonpayable",
      "type": "function"
    },
    {
      "constant": false,
      "inputs": [
        {
          "internalType": "uint256",
          "name": "index",
          "type": "uint256"
        }
      ],
      "name": "removeSwaptokenShareCombine",
      "outputs": [],
      "payable": false,
      "stateMutability": "nonpayable",
      "type": "function"
    },
    {
      "constant": false,
      "inputs": [
        {
          "internalType": "address",
          "name": "_swaptoken_addr",
          "type": "address"
        }
      ],
      "name": "getSwaptokenReward",
      "outputs": [],
      "payable": false,
      "stateMutability": "nonpayable",
      "type": "function"
    },
    {
      "constant": true,
      "inputs": [
        {
          "internalType": "address",
          "name": "_swaptoken_addr",
          "type": "address"
        }
      ],
      "name": "predReward",
      "outputs": [
        {
          "internalType": "uint256",
          "name": "",
          "type": "uint256"
        }
      ],
      "payable": false,
      "stateMutability": "view",
      "type": "function"
    },
    {
      "constant": false,
      "inputs": [
        {
          "internalType": "address",
          "name": "_swaptoken_addr",
          "type": "address"
        },
        {
          "internalType": "uint256",
          "name": "new_weight",
          "type": "uint256"
        }
      ],
      "name": "changeSwaptokenWeight",
      "outputs": [],
      "payable": false,
      "stateMutability": "nonpayable",
      "type": "function"
    },
    {
      "constant": true,
      "inputs": [],
      "name": "getOwner",
      "outputs": [
        {
          "internalType": "address",
          "name": "",
          "type": "address"
        }
      ],
      "payable": false,
      "stateMutability": "view",
      "type": "function"
    },
    {
      "constant": true,
      "inputs": [],
      "name": "getCurrentStagePrice",
      "outputs": [
        {
          "internalType": "uint256",
          "name": "",
          "type": "uint256"
        }
      ],
      "payable": false,
      "stateMutability": "view",
      "type": "function"
    },
    {
      "constant": true,
      "inputs": [
        {
          "internalType": "address",
          "name": "_swaptoken_addr",
          "type": "address"
        },
        {
          "internalType": "address",
          "name": "_user",
          "type": "address"
        }
      ],
      "name": "getUserShare",
      "outputs": [
        {
          "internalType": "uint256",
          "name": "",
          "type": "uint256"
        }
      ],
      "payable": false,
      "stateMutability": "view",
      "type": "function"
    }
  ],
  "bytecode": "0x60806040526007601055600260115560016014553480156200002057600080fd5b5060405162003a8738038062003a87833981810160405260a08110156200004657600080fd5b50805160208083015160408401516060850151608090950151600d8054336001600160a01b031991821617909155600b80549091166001600160a01b038716179055939491939092620000ae908390670de0b6b3a764000090620000f0811b62002b5417901c565b600955600e80546001600160a01b039586166001600160a01b031991821617909155601291909155600f80549390941692169190911790915550620001579050565b600082620001015750600062000151565b828202828482816200010f57fe5b04146200014e5760405162461bcd60e51b815260040180806020018281038252602181526020018062003a666021913960400191505060405180910390fd5b90505b92915050565b6138ff80620001676000396000f3fe608060405234801561001057600080fd5b50600436106101f05760003560e01c8063806d474a1161010f578063b9ec9626116100a2578063d980c5d011610071578063d980c5d0146104db578063df74bf5c146104f7578063e68568ca14610514578063ee5a164e1461051c576101f0565b8063b9ec962614610461578063cc6aed3414610487578063cc9524c3146104ad578063d6fcbf7a146104b5576101f0565b80638f7f244a116100de5780638f7f244a1461040e57806390430fb91461042b578063a970995a14610433578063b2bec77014610459576101f0565b8063806d474a146103bb5780638860210c146103d8578063893d20e8146103fe5780638e80d54914610406576101f0565b8063449ea4a61161018757806368f3dd0f1161015657806368f3dd0f1461034457806369e7ee201461036157806377054ef01461038d5780637bd049d7146103b3576101f0565b8063449ea4a6146103065780634b1471a71461030e5780634e85d8bc146103165780636509d1611461031e576101f0565b80630e7db20d116101c35780630e7db20d14610278578063144fcca4146102aa5780631bf840c1146102d05780633c3e4ff5146102fe576101f0565b8063041f6d82146101f557806304d65b74146102145780630860ec29146102385780630b78a4c514610252575b600080fd5b6102126004803603602081101561020b57600080fd5b5035610542565b005b61021c610b58565b604080516001600160a01b039092168252519081900360200190f35b610240610b67565b60408051918252519081900360200190f35b6102126004803603602081101561026857600080fd5b50356001600160a01b0316610b6d565b6102126004803603606081101561028e57600080fd5b506001600160a01b038135169060208101359060400135610e71565b610240600480360360208110156102c057600080fd5b50356001600160a01b0316610ffb565b610240600480360360408110156102e657600080fd5b506001600160a01b038135811691602001351661100d565b61024061103a565b61021c611040565b61024061104f565b610240611055565b6102406004803603602081101561033457600080fd5b50356001600160a01b031661105b565b6102126004803603602081101561035a57600080fd5b503561106d565b6102126004803603604081101561037757600080fd5b506001600160a01b038135169060200135611730565b610240600480360360208110156103a357600080fd5b50356001600160a01b031661181c565b61021c61182e565b61021c600480360360208110156103d157600080fd5b503561183d565b610212600480360360208110156103ee57600080fd5b50356001600160a01b0316611864565b61021c6118aa565b6102406118ba565b6102126004803603602081101561042457600080fd5b503561192c565b610240611ee8565b6102406004803603602081101561044957600080fd5b50356001600160a01b0316611ef7565b610240611f09565b6102406004803603602081101561047757600080fd5b50356001600160a01b0316611f0f565b6102406004803603602081101561049d57600080fd5b50356001600160a01b0316612068565b61024061207a565b610240600480360360208110156104cb57600080fd5b50356001600160a01b0316612080565b610212600480360360a08110156104f157600080fd5b50612092565b6102126004803603602081101561050d57600080fd5b50356126a4565b610240612715565b6102406004803603602081101561053257600080fd5b50356001600160a01b031661271b565b600f5460408051632f7ce47360e21b8152600481018490529051839260009283926001600160a01b039092169163bdf391cc91602480820192602092909190829003018186803b15801561059557600080fd5b505afa1580156105a9573d6000803e3d6000fd5b505050506040513d60208110156105bf57600080fd5b50516001600160a01b038116600090815260208190526040902054909150156105e757600191505b81610639576040805162461bcd60e51b815260206004820152601860248201527f446f6e60742068617665207468697320746f6b656e2069640000000000000000604482015290519081900360640190fd5b601454600114610681576040805162461bcd60e51b815260206004820152600e60248201526d161ad95e481a5cc81b1bd8dad95960921b604482015290519081900360640190fd5b60006014819055600f5460408051632f7ce47360e21b81526004810188905290516001600160a01b039092169163bdf391cc91602480820192602092909190829003018186803b1580156106d457600080fd5b505afa1580156106e8573d6000803e3d6000fd5b505050506040513d60208110156106fe57600080fd5b5051600e54604080517fc2a672e00000000000000000000000000000000000000000000000000000000081523360048201526024810189905290519293506000926001600160a01b039092169163c2a672e09160448082019260209290919082900301818787803b15801561077257600080fd5b505af1158015610786573d6000803e3d6000fd5b505050506040513d602081101561079c57600080fd5b50516001600160a01b0383166000908152600660209081526040808320338452909152902054909150811115610819576040805162461bcd60e51b815260206004820181905260248201527f446f6e74204861766520456e6f75676820746f6b656e20746f2072656d6f7665604482015290519081900360640190fd5b610822826127b7565b6001600160a01b0382166000908152600260209081526040808320546006835281842033855290925282205464e8d4a5100091610865919063ffffffff612b5416565b8161086c57fe5b6001600160a01b0385166000908152600760209081526040808320338452909152812054929091049250906108b1906108ac90849063ffffffff612bb416565b612c19565b600c5490915081906a52b7d2dcc80cd2e4000000906108d6908363ffffffff612c7416565b11156108fe57600c546108fb906a52b7d2dcc80cd2e40000009063ffffffff612cce16565b90505b80156109bd57600c54610917908263ffffffff612c7416565b600c556001600160a01b038516600090815260056020526040902054610943908263ffffffff612c7416565b6001600160a01b0380871660009081526005602052604080822093909355600b548351631d9a4ef360e11b8152336004820152602481018690529351921692633b349de6926044808301939282900301818387803b1580156109a457600080fd5b505af11580156109b8573d6000803e3d6000fd5b505050505b6001600160a01b038516600090815260026020526040902054610a089064e8d4a51000906109f290879063ffffffff612b5416565b816109f957fe5b8591900463ffffffff612bb416565b6001600160a01b038616600081815260076020908152604080832033808552908352818420959095559282526006815282822093825292909252902054610a55908563ffffffff612cce16565b6001600160a01b0386166000818152600660209081526040808320338085529083528184209590955580517f47ccca020000000000000000000000000000000000000000000000000000000081529051610b039594936347ccca0293600480850194919392918390030190829087803b158015610ad157600080fd5b505af1158015610ae5573d6000803e3d6000fd5b505050506040513d6020811015610afb57600080fd5b50518b612d10565b6001600160a01b038516600090815260046020526040902054610b2c908563ffffffff612cce16565b6001600160a01b0390951660009081526004602052604090209490945550506001601455505050505050565b600e546001600160a01b031681565b600c5481565b6001600160a01b03811660009081526020819052604081205482919015610b92575060015b80610bdc576040805162461bcd60e51b81526020600482015260156024820152742237b7303a103430bb32903a3434b9903a37b5b2b760591b604482015290519081900360640190fd5b601454600114610c24576040805162461bcd60e51b815260206004820152600e60248201526d161ad95e481a5cc81b1bd8dad95960921b604482015290519081900360640190fd5b6000601455610c32836127b7565b6001600160a01b0383166000908152600260209081526040808320546006835281842033855290925282205464e8d4a5100091610c75919063ffffffff612b5416565b81610c7c57fe5b6001600160a01b03861660009081526007602090815260408083203384529091529020549190049150811215610cf9576040805162461bcd60e51b815260206004820152600760248201527f486f7720323f3f00000000000000000000000000000000000000000000000000604482015290519081900360640190fd5b6001600160a01b0384166000908152600760209081526040808320338452909152812054610d32906108ac90849063ffffffff612bb416565b6001600160a01b03861660009081526007602090815260408083203384529091529020839055600c5490915081906a52b7d2dcc80cd2e400000090610d7d908363ffffffff612c7416565b1115610da557600c54610da2906a52b7d2dcc80cd2e40000009063ffffffff612cce16565b90505b8015610e6457600c54610dbe908263ffffffff612c7416565b600c556001600160a01b038616600090815260056020526040902054610dea908263ffffffff612c7416565b6001600160a01b0380881660009081526005602052604080822093909355600b548351631d9a4ef360e11b8152336004820152602481018690529351921692633b349de6926044808301939282900301818387803b158015610e4b57600080fd5b505af1158015610e5f573d6000803e3d6000fd5b505050505b5050600160145550505050565b600d546001600160a01b03163314610e8857600080fd5b6001600160a01b03831660009081526020819052604090205415610ef3576040805162461bcd60e51b815260206004820152600b60248201527f546f6b656e206578697374000000000000000000000000000000000000000000604482015290519081900360640190fd5b610efb612f2f565b610f058143612f73565b6001600160a01b038416600090815260208181526040808320939093556001905220829055600a54610f3d908363ffffffff612c7416565b600a9081556008805460018181019092557ff3f7a9fe364faab93b216da50a3214154f22a0a2b415b23a84c8169e8b636ee30180546001600160a01b03871673ffffffffffffffffffffffffffffffffffffffff19909116811790915560008181526003602090815260408083208390559381529083902054935483519283529082019390935280820192909252517fc712c5daa7afb3689e59ecc4eb021e9b0c7a6ba5cf97a7b6c6f3cf0165e6e4309181900360600190a1505050565b60036020526000908152604090205481565b6001600160a01b038083166000908152600660209081526040808320938516835292905220545b92915050565b60105481565b600b546001600160a01b031681565b60135481565b600a5481565b60006020819052908152604090205481565b6014546001146110b5576040805162461bcd60e51b815260206004820152600e60248201526d161ad95e481a5cc81b1bd8dad95960921b604482015290519081900360640190fd5b60006014556110c2613846565b600e54604080517f7a110ca10000000000000000000000000000000000000000000000000000000081523360048201526024810185905290516001600160a01b0390921691637a110ca19160448082019260a092909190829003018186803b15801561112d57600080fd5b505afa158015611141573d6000803e3d6000fd5b505050506040513d601f19601f8201168201806040525060a081101561116657600080fd5b50600f549091506000906001600160a01b031663bdf391cc838360200201516040518263ffffffff1660e01b81526004018082815260200191505060206040518083038186803b1580156111b957600080fd5b505afa1580156111cd573d6000803e3d6000fd5b505050506040513d60208110156111e357600080fd5b5051905060005b60058110156112dc57600f546001600160a01b03808416911663bdf391cc85846005811061121457fe5b60200201516040518263ffffffff1660e01b81526004018082815260200191505060206040518083038186803b15801561124d57600080fd5b505afa158015611261573d6000803e3d6000fd5b505050506040513d602081101561127757600080fd5b50516001600160a01b0316146112d4576040805162461bcd60e51b815260206004820152601f60248201527f7468697320746f6b656e20696420776173206e6f742073616d65207061697200604482015290519081900360640190fd5b6001016111ea565b506001600160a01b038116600090815260208190526040902054611347576040805162461bcd60e51b815260206004820152601460248201527f646f6e742068617665207468697320746f6b656e000000000000000000000000604482015290519081900360640190fd5b600e54604080517fdeecf75c0000000000000000000000000000000000000000000000000000000081523360048201526024810186905290516000926001600160a01b03169163deecf75c91604480830192602092919082900301818787803b1580156113b357600080fd5b505af11580156113c7573d6000803e3d6000fd5b505050506040513d60208110156113dd57600080fd5b50516001600160a01b038316600090815260066020908152604080832033845290915290205490915081111561145a576040805162461bcd60e51b815260206004820181905260248201527f446f6e74204861766520456e6f75676820746f6b656e20746f2072656d6f7665604482015290519081900360640190fd5b611463826127b7565b6001600160a01b0382166000908152600260209081526040808320546006835281842033855290925282205464e8d4a51000916114a6919063ffffffff612b5416565b816114ad57fe5b6001600160a01b0385166000908152600760209081526040808320338452909152812054929091049250906114ed906108ac90849063ffffffff612bb416565b600c5490915081906a52b7d2dcc80cd2e400000090611512908363ffffffff612c7416565b111561153a57600c54611537906a52b7d2dcc80cd2e40000009063ffffffff612cce16565b90505b80156115f957600c54611553908263ffffffff612c7416565b600c556001600160a01b03851660009081526005602052604090205461157f908263ffffffff612c7416565b6001600160a01b0380871660009081526005602052604080822093909355600b548351631d9a4ef360e11b8152336004820152602481018690529351921692633b349de6926044808301939282900301818387803b1580156115e057600080fd5b505af11580156115f4573d6000803e3d6000fd5b505050505b6001600160a01b03851660009081526002602052604090205461162e9064e8d4a51000906109f290879063ffffffff612b5416565b6001600160a01b03861660008181526007602090815260408083203380855290835281842095909555928252600681528282209382529290925290205461167b908563ffffffff612cce16565b6001600160a01b03861660009081526006602090815260408083203384529091528120919091555b60058110156116dc57600f546116d49033906001600160a01b03168984600581106116ca57fe5b6020020151612d10565b6001016116a3565b506001600160a01b038516600090815260046020526040902054611706908563ffffffff612cce16565b6001600160a01b039095166000908152600460205260409020949094555050600160145550505050565b600d546001600160a01b0316331461174757600080fd5b6001600160a01b0382166000908152602081905260408120548391901561176c575060015b806117b6576040805162461bcd60e51b81526020600482015260156024820152742237b7303a103430bb32903a3434b9903a37b5b2b760591b604482015290519081900360640190fd5b6117be612f2f565b6001600160a01b038416600090815260016020526040902054600a546117fb9185916117ef9163ffffffff612cce16565b9063ffffffff612c7416565b600a5550506001600160a01b03909116600090815260016020526040902055565b60016020526000908152604090205481565b600f546001600160a01b031681565b6008818154811061184a57fe5b6000918252602090912001546001600160a01b0316905081565b600d546001600160a01b0316331461187b57600080fd5b600b805473ffffffffffffffffffffffffffffffffffffffff19166001600160a01b0392909216919091179055565b600d546001600160a01b03165b90565b6000601354600014156118d057506009546118b7565b60006118e760135443612cce90919063ffffffff16565b9050600061190b61190360125484612f8a90919063ffffffff16565b601054612fcc565b90506119258160020a600954612f8a90919063ffffffff16565b9250505090565b600f5460408051632f7ce47360e21b8152600481018490529051839260009283926001600160a01b039092169163bdf391cc91602480820192602092909190829003018186803b15801561197f57600080fd5b505afa158015611993573d6000803e3d6000fd5b505050506040513d60208110156119a957600080fd5b50516001600160a01b038116600090815260208190526040902054909150156119d157600191505b81611a23576040805162461bcd60e51b815260206004820152601860248201527f446f6e60742068617665207468697320746f6b656e2069640000000000000000604482015290519081900360640190fd5b601454600114611a6b576040805162461bcd60e51b815260206004820152600e60248201526d161ad95e481a5cc81b1bd8dad95960921b604482015290519081900360640190fd5b6000601455600c546a52b7d2dcc80cd2e400000011611ad1576040805162461bcd60e51b815260206004820152601760248201527f416c6c20746f6b656e20686173206265656e206d696e74000000000000000000604482015290519081900360640190fd5b601354611add57436013555b600f5460408051632f7ce47360e21b81526004810187905290516000926001600160a01b03169163bdf391cc916024808301926020929190829003018186803b158015611b2957600080fd5b505afa158015611b3d573d6000803e3d6000fd5b505050506040513d6020811015611b5357600080fd5b50519050611b60816127b7565b611bd133826001600160a01b03166347ccca026040518163ffffffff1660e01b8152600401602060405180830381600087803b158015611b9f57600080fd5b505af1158015611bb3573d6000803e3d6000fd5b505050506040513d6020811015611bc957600080fd5b505187612fdb565b600e54604080517fbf6eac2f0000000000000000000000000000000000000000000000000000000081523360048201526001600160a01b038481166024830152604482018990529151600093929092169163bf6eac2f9160648082019260209290919082900301818787803b158015611c4957600080fd5b505af1158015611c5d573d6000803e3d6000fd5b505050506040513d6020811015611c7357600080fd5b50516001600160a01b03831660009081526002602090815260408083205460068352818420338552909252822054929350909164e8d4a5100091611cbd919063ffffffff612b5416565b81611cc457fe5b6001600160a01b038516600090815260076020908152604080832033845290915281205492909104925090611d04906108ac90849063ffffffff612bb416565b600c5490915081906a52b7d2dcc80cd2e400000090611d29908363ffffffff612c7416565b1115611d5157600c54611d4e906a52b7d2dcc80cd2e40000009063ffffffff612cce16565b90505b8015611e1057600c54611d6a908263ffffffff612c7416565b600c556001600160a01b038516600090815260056020526040902054611d96908263ffffffff612c7416565b6001600160a01b0380871660009081526005602052604080822093909355600b548351631d9a4ef360e11b8152336004820152602481018690529351921692633b349de6926044808301939282900301818387803b158015611df757600080fd5b505af1158015611e0b573d6000803e3d6000fd5b505050505b6001600160a01b0385166000908152600660209081526040808320338452909152902054611e44908563ffffffff612c7416565b6001600160a01b038616600081815260066020908152604080832033845282528083209490945591815260029091522054611ea79064e8d4a5100090611e9190879063ffffffff612b5416565b81611e9857fe5b8591900463ffffffff61316f16565b6001600160a01b038616600081815260076020908152604080832033845282528083209490945591815260049091522054610b2c908563ffffffff612c7416565b6a52b7d2dcc80cd2e400000081565b60026020526000908152604090205481565b60125481565b6001600160a01b0381166000908152602081905260408120548290829015611f35575060015b80611f7f576040805162461bcd60e51b81526020600482015260156024820152742237b7303a103430bb32903a3434b9903a37b5b2b760591b604482015290519081900360640190fd5b6000611f8a856131d4565b6001600160a01b03861660009081526006602090815260408083203384529091528120549192509064e8d4a5100090611fc9908463ffffffff612b5416565b81611fd057fe5b6001600160a01b038816600090815260076020908152604080832033845290915281205492909104925090612010906108ac90849063ffffffff612bb416565b600c5490915081906a52b7d2dcc80cd2e400000090612035908363ffffffff612c7416565b111561205d57600c5461205a906a52b7d2dcc80cd2e40000009063ffffffff612cce16565b90505b979650505050505050565b60056020526000908152604090205481565b60115481565b60046020526000908152604090205481565b6014546001146120da576040805162461bcd60e51b815260206004820152600e60248201526d161ad95e481a5cc81b1bd8dad95960921b604482015290519081900360640190fd5b6000601455600c546a52b7d2dcc80cd2e400000011612140576040805162461bcd60e51b815260206004820152601760248201527f416c6c20746f6b656e20686173206265656e206d696e74000000000000000000604482015290519081900360640190fd5b600f5460408051632f7ce47360e21b81528335600482015290516000926001600160a01b03169163bdf391cc916024808301926020929190829003018186803b15801561218c57600080fd5b505afa1580156121a0573d6000803e3d6000fd5b505050506040513d60208110156121b657600080fd5b5051905060005b60058110156122af57600f546001600160a01b03808416911663bdf391cc8584600581106121e757fe5b60200201356040518263ffffffff1660e01b81526004018082815260200191505060206040518083038186803b15801561222057600080fd5b505afa158015612234573d6000803e3d6000fd5b505050506040513d602081101561224a57600080fd5b50516001600160a01b0316146122a7576040805162461bcd60e51b815260206004820181905260248201527f786b657964616f3a746f6b656e696473206172656e742073616d652070616972604482015290519081900360640190fd5b6001016121bd565b506001600160a01b03811660009081526020819052604090205461231a576040805162461bcd60e51b815260206004820152601860248201527f646f6e742068617665207468697320746f6b656e206964730000000000000000604482015290519081900360640190fd5b612323816127b7565b60005b600581101561235f57600f546123579033906001600160a01b031685846005811061234d57fe5b6020020135612fdb565b600101612326565b50600e546040517fd973a2ae00000000000000000000000000000000000000000000000000000000815233600482018181526001600160a01b038581166024850152600094169263d973a2ae929186918891906044018260a080828437600081840152601f19601f8201169050808301925050509350505050602060405180830381600087803b1580156123f257600080fd5b505af1158015612406573d6000803e3d6000fd5b505050506040513d602081101561241c57600080fd5b50516001600160a01b03831660009081526002602090815260408083205460068352818420338552909252822054929350909164e8d4a5100091612466919063ffffffff612b5416565b8161246d57fe5b6001600160a01b0385166000908152600760209081526040808320338452909152812054929091049250906124ad906108ac90849063ffffffff612bb416565b600c5490915081906a52b7d2dcc80cd2e4000000906124d2908363ffffffff612c7416565b11156124fa57600c546124f7906a52b7d2dcc80cd2e40000009063ffffffff612cce16565b90505b80156125b957600c54612513908263ffffffff612c7416565b600c556001600160a01b03851660009081526005602052604090205461253f908263ffffffff612c7416565b6001600160a01b0380871660009081526005602052604080822093909355600b548351631d9a4ef360e11b8152336004820152602481018690529351921692633b349de6926044808301939282900301818387803b1580156125a057600080fd5b505af11580156125b4573d6000803e3d6000fd5b505050505b6001600160a01b03851660009081526006602090815260408083203384529091529020546125ed908563ffffffff612c7416565b6001600160a01b03861660008181526006602090815260408083203384528252808320949094559181526002909152205461263a9064e8d4a5100090611e9190879063ffffffff612b5416565b6001600160a01b03861660008181526007602090815260408083203384528252808320949094559181526004909152205461267b908563ffffffff612c7416565b6001600160a01b0390951660009081526004602052604090209490945550506001601455505050565b600d546001600160a01b031633146126bb57600080fd5b60135415612710576040805162461bcd60e51b815260206004820152600a60248201527f6861732073746172742000000000000000000000000000000000000000000000604482015290519081900360640190fd5b601355565b60095481565b600b54604080517f70a082310000000000000000000000000000000000000000000000000000000081526001600160a01b038481166004830152915160009392909216916370a0823191602480820192602092909190829003018186803b15801561278557600080fd5b505afa158015612799573d6000803e3d6000fd5b505050506040513d60208110156127af57600080fd5b505192915050565b6001600160a01b038116600090815260208190526040902054431180156127df575060135415155b15612b48576012546001600160a01b0382166000908152600360205260408120549091612824916128159163ffffffff612b5416565b6013549063ffffffff612c7416565b90506000438210156128c2576000612842438463ffffffff612cce16565b905061285c61190360125483612f8a90919063ffffffff16565b6010546001600160a01b0386166000908152600360205260409020549193509061288c908463ffffffff612c7416565b11156128c0576001600160a01b0384166000908152600360205260409020546010546128bd9163ffffffff612cce16565b91505b505b6001600160a01b03831660009081526004602090815260408083205460039092528220546009549192916128fe9160020a63ffffffff612f8a16565b905060015b838111612b005761292f61292260125483612b5490919063ffffffff16565b869063ffffffff612c7416565b6001600160a01b0387166000908152602081905260409020541115612995576001600160a01b03861660009081526003602052604090205461298e9061297c90839063ffffffff612c7416565b6009549060020a63ffffffff612f8a16565b9150612af8565b6001600160a01b0386166000908152602081905260408120546012546129e491906129d8906129cb90869063ffffffff612b5416565b899063ffffffff612c7416565b9063ffffffff612cce16565b90508315612a9757600a546001600160a01b038816600090815260016020526040812054909190612a2b90612a1f858863ffffffff612b5416565b9063ffffffff612b5416565b81612a3257fe5b049050612a7c85612a4e8364e8d4a5100063ffffffff612b5416565b81612a5557fe5b6001600160a01b038b1660009081526002602052604090205491900463ffffffff612c7416565b6001600160a01b038916600090815260026020526040902055505b612abc612aaf60125484612b5490919063ffffffff16565b879063ffffffff612c7416565b6001600160a01b03881660009081526020818152604080832093909355600390522054612af49061297c90849063ffffffff612c7416565b9250505b600101612903565b506001600160a01b038516600090815260036020526040902054612b2a908463ffffffff612c7416565b6001600160a01b038616600090815260036020526040902055505050505b612b518161357f565b50565b600082612b6357506000611034565b82820282848281612b7057fe5b0414612bad5760405162461bcd60e51b81526004018080602001828103825260218152602001806138866021913960400191505060405180910390fd5b9392505050565b6000818303818312801590612bc95750838113155b80612bde5750600083128015612bde57508381135b612bad5760405162461bcd60e51b81526004018080602001828103825260248152602001806138a76024913960400191505060405180910390fd5b600080821215612c70576040805162461bcd60e51b815260206004820152600b60248201527f496e7465676572203c2030000000000000000000000000000000000000000000604482015290519081900360640190fd5b5090565b600082820183811015612bad576040805162461bcd60e51b815260206004820152601b60248201527f536166654d6174683a206164646974696f6e206f766572666c6f770000000000604482015290519081900360640190fd5b6000612bad83836040518060400160405280601e81526020017f536166654d6174683a207375627472616374696f6e206f766572666c6f77000081525061374a565b306001600160a01b0316826001600160a01b0316636352211e836040518263ffffffff1660e01b81526004018082815260200191505060206040518083038186803b158015612d5e57600080fd5b505afa158015612d72573d6000803e3d6000fd5b505050506040513d6020811015612d8857600080fd5b50516001600160a01b031614612de5576040805162461bcd60e51b815260206004820181905260248201527f74686973206e66742069736e607420626c6f6e677320746f20786b657964616f604482015290519081900360640190fd5b604080516323b872dd60e01b81523060048201526001600160a01b038581166024830152604482018490529151918416916323b872dd9160648082019260009290919082900301818387803b158015612e3d57600080fd5b505af1158015612e51573d6000803e3d6000fd5b50505050826001600160a01b0316826001600160a01b0316636352211e836040518263ffffffff1660e01b81526004018082815260200191505060206040518083038186803b158015612ea357600080fd5b505afa158015612eb7573d6000803e3d6000fd5b505050506040513d6020811015612ecd57600080fd5b50516001600160a01b031614612f2a576040805162461bcd60e51b815260206004820152600c60248201527f646f6e7420676574206e66740000000000000000000000000000000000000000604482015290519081900360640190fd5b505050565b60085460005b81811015612f6f57612f6760088281548110612f4d57fe5b6000918252602090912001546001600160a01b03166127b7565b600101612f35565b5050565b600081831015612f835781612bad565b5090919050565b6000612bad83836040518060400160405280601a81526020017f536166654d6174683a206469766973696f6e206279207a65726f0000000000008152506137e1565b6000818310612f835781612bad565b306001600160a01b0316826001600160a01b0316636352211e836040518263ffffffff1660e01b81526004018082815260200191505060206040518083038186803b15801561302957600080fd5b505afa15801561303d573d6000803e3d6000fd5b505050506040513d602081101561305357600080fd5b50516001600160a01b031614156130b1576040805162461bcd60e51b815260206004820152601d60248201527f74686973206e667420697320626c6f6e677320746f20786b657964616f000000604482015290519081900360640190fd5b604080516323b872dd60e01b81526001600160a01b038581166004830152306024830152604482018490529151918416916323b872dd9160648082019260009290919082900301818387803b15801561310957600080fd5b505af115801561311d573d6000803e3d6000fd5b50505050306001600160a01b0316826001600160a01b0316636352211e836040518263ffffffff1660e01b81526004018082815260200191505060206040518083038186803b158015612ea357600080fd5b60008282018183128015906131845750838112155b80613199575060008312801561319957508381125b612bad5760405162461bcd60e51b81526004018080602001828103825260218152602001806138656021913960400191505060405180910390fd5b6001600160a01b03811660009081526002602090815260408083205460048352818420548484528285205460038552928520549385905290929091904382108015613220575060135415155b156134b7576012546001600160a01b0387166000908152600360205260408120549091613256916128159163ffffffff612b5416565b90506000438210156132f4576000613274438463ffffffff612cce16565b905061328e61190360125483612f8a90919063ffffffff16565b6010546001600160a01b038b16600090815260036020526040902054919350906132be908463ffffffff612c7416565b11156132f2576001600160a01b0389166000908152600360205260409020546010546132ef9163ffffffff612cce16565b91505b505b6001600160a01b0388166000908152600360205260408120546009546133229160020a63ffffffff612f8a16565b905060015b8281116134b25761335361334660125483612b5490919063ffffffff16565b859063ffffffff612c7416565b86111561338f576001600160a01b038a166000908152600360205260409020546133889061297c90839063ffffffff612c7416565b91506134aa565b60006133ba876129d86133ad60125486612b5490919063ffffffff16565b889063ffffffff612c7416565b9050871561343257600a546001600160a01b038c166000908152600160205260408120549091906133f590612a1f858863ffffffff612b5416565b816133fc57fe5b04905061342e896134188364e8d4a5100063ffffffff612b5416565b8161341f57fe5b8c91900463ffffffff612c7416565b9950505b6001600160a01b038b166000908152600360205260409020546134609061297c90849063ffffffff612c7416565b925061347a61292260125484612b5490919063ffffffff16565b6001600160a01b038c166000908152600360205260409020549097506134a6908563ffffffff612c7416565b9550505b600101613327565b505050505b6001600160a01b0386166000908152602081905260409020544311156135755782156135755760008160020a600954816134ed57fe5b0490506000613502438563ffffffff612cce16565b600a546001600160a01b038a166000908152600160205260408120549293509161353690612a1f858763ffffffff612b5416565b8161353d57fe5b04905061356f866135598364e8d4a5100063ffffffff612b5416565b8161356057fe5b8991900463ffffffff612c7416565b96505050505b5091949350505050565b6001600160a01b038116600090815260208190526040812054829190156135a4575060015b806135ee576040805162461bcd60e51b81526020600482015260156024820152742237b7303a103430bb32903a3434b9903a37b5b2b760591b604482015290519081900360640190fd5b6001600160a01b038316600090815260208190526040902054431115612f2a576001600160a01b038316600090815260046020526040902054801561372b576001600160a01b03841660009081526003602052604081205460095461365b9160020a63ffffffff612f8a16565b6001600160a01b0386166000908152602081905260408120549192509061368990439063ffffffff612cce16565b600a546001600160a01b038816600090815260016020526040812054929350916136bd90612a1f858763ffffffff612b5416565b816136c457fe5b04905061370e846136e08364e8d4a5100063ffffffff612b5416565b816136e757fe5b6001600160a01b038a1660009081526002602052604090205491900463ffffffff612c7416565b6001600160a01b0388166000908152600260205260409020555050505b5050506001600160a01b03166000908152602081905260409020439055565b600081848411156137d95760405162461bcd60e51b81526004018080602001828103825283818151815260200191508051906020019080838360005b8381101561379e578181015183820152602001613786565b50505050905090810190601f1680156137cb5780820380516001836020036101000a031916815260200191505b509250505060405180910390fd5b505050900390565b600081836138305760405162461bcd60e51b815260206004820181815283516024840152835190928392604490910191908501908083836000831561379e578181015183820152602001613786565b50600083858161383c57fe5b0495945050505050565b6040518060a00160405280600590602082028038833950919291505056fe5369676e6564536166654d6174683a206164646974696f6e206f766572666c6f77536166654d6174683a206d756c7469706c69636174696f6e206f766572666c6f775369676e6564536166654d6174683a207375627472616374696f6e206f766572666c6f77a265627a7a72315820922fa4960c6d8c712063d543a3bec4c71c19d2bfda3491113ecc12e07e766de364736f6c63430005100032536166654d6174683a206d756c7469706c69636174696f6e206f766572666c6f77",
  "source": "pragma solidity=0.5.16;\r\nimport './libraries/SafeMath.sol';\r\nimport './libraries/SignedSafeMath.sol';\r\nimport './interfaces/IERCMint20.sol';\r\n//import './interfaces/IERC20.sol';\r\nimport './interfaces/IXkeyPokerPower.sol';\r\nimport './interfaces/ISwapLPNFT.sol';\r\nimport './interfaces/IXKeyPair.sol';\r\ncontract XkeyDao {\r\n    using SafeMath  for uint;\r\n    using SafeMath  for uint256;\r\n    using SignedSafeMath for int256;\r\n    /**\r\n    * swap token info\r\n    */\r\n    mapping(address=>uint) public swaptoken_last_reward_blocknum;\r\n    mapping(address=>uint) public swaptoken_weight;\r\n    mapping(address=>uint) public swaptoken_pershare_reward;\r\n    mapping(address=>uint) public swaptoken_current_stage;\r\n    mapping(address=>uint) public swaptoken_allAmount;\r\n    mapping(address=>uint) public swaptoken_hadmint;\r\n    /**\r\n    * user info\r\n    */\r\n    mapping(address=>mapping(address=>uint)) swaptoken_user_share;\r\n    mapping(address=>mapping(address=>int)) swaptoken_user_rewardDebt;\r\n\r\n    address[] public swaptoken_addrs;\r\n    uint public perblockreward;\r\n    uint public all_weight;\r\n    address public erc_mintaddr;\r\n    uint256 public swaptoken_had_mint;\r\n    uint256 public constant swaptoken_totalMint = 100000000 * (10 ** uint(18));\r\n    uint256 private constant ACC_XKey_PRECISION = 10 ** 12;\r\n    address owner;\r\n    address public xkeyPokerPower;\r\n    address public lpnft;\r\n    uint public halfroundTimes = 7;\r\n    uint public multipleNumber = 2;\r\n    uint public priedLength;//3 month 598153\r\n    uint public startBlocknum;\r\n    event LiquidSwapTokenCreated(address,uint,uint);\r\n    constructor(\r\n        address _erc_mintaddr,\r\n        address _xkeyPokerPower,\r\n        address _lpnft,\r\n        uint _perblockreward,\r\n        uint _priedLength) public {\r\n        owner = msg.sender;\r\n        erc_mintaddr =  _erc_mintaddr;\r\n        perblockreward = _perblockreward.mul(10**18);\r\n        xkeyPokerPower = _xkeyPokerPower;\r\n        priedLength = _priedLength;\r\n        lpnft = _lpnft;\r\n    }\r\n    uint private unlocked = 1;\r\n    modifier lock() {\r\n        require(unlocked == 1, 'Xkey is locked');\r\n        unlocked = 0;\r\n        _;\r\n        unlocked = 1;\r\n    }\r\n    modifier onlyOwner {\r\n        require(msg.sender == owner);\r\n        _;\r\n    }\r\n    modifier swapTokenExist(address _swaptoken_addr){\r\n        bool exist = false;\r\n        if(swaptoken_last_reward_blocknum[_swaptoken_addr] != 0){\r\n            exist = true;\r\n        }\r\n        require(exist,'Don`t have this token');\r\n        _;\r\n    }\r\n    modifier swapTokenExistByTokenId(uint256 tokenid){\r\n        bool exist = false;\r\n        address pair = ISwapLPNFT(lpnft).getPair(tokenid);\r\n        if(swaptoken_last_reward_blocknum[pair] != 0){\r\n            exist = true;\r\n        }\r\n        require(exist,'Don`t have this token id');\r\n        _;\r\n    }\r\n    function updateAllSwaptokenInfo() internal{\r\n        uint256 len = swaptoken_addrs.length;\r\n        for (uint256 i = 0; i < len; ++i) {\r\n            calcAllStagePrice(swaptoken_addrs[i]);\r\n        }\r\n    }\r\n\r\n    function calcAllStagePrice(address swap_addr) internal {\r\n        if(block.number > swaptoken_last_reward_blocknum[swap_addr] && startBlocknum != 0){\r\n            uint256 current_start_number = startBlocknum.add(swaptoken_current_stage[swap_addr].mul(priedLength));\r\n            uint256 pastStage = 0;\r\n            if(block.number > current_start_number){\r\n                uint256 blockInv = block.number.sub(current_start_number);\r\n                pastStage = SafeMath.min(blockInv.div(priedLength),halfroundTimes);\r\n                if(swaptoken_current_stage[swap_addr].add(pastStage) > halfroundTimes){\r\n                    pastStage = halfroundTimes.sub(swaptoken_current_stage[swap_addr]);\r\n                }\r\n            }\r\n\r\n            uint256 swap_token_share = swaptoken_allAmount[swap_addr];\r\n            uint256 prevReward = perblockreward.div(2**(swaptoken_current_stage[swap_addr]));\r\n            for(uint i = 1;i <= pastStage;i++){\r\n                if(swaptoken_last_reward_blocknum[swap_addr] > current_start_number.add(i.mul(priedLength))){\r\n                    prevReward= perblockreward.div((2**(i.add(swaptoken_current_stage[swap_addr]))));\r\n                    continue;\r\n                }\r\n                uint blocksub = current_start_number.add(i.mul(priedLength)).sub(swaptoken_last_reward_blocknum[swap_addr]);\r\n                if (swap_token_share > 0) {\r\n                    //uint256 blocks = blocknum.sub(swaptoken_last_reward_blocknum[swap_addr]);\r\n                    uint256 allReward = blocksub.mul(prevReward).mul(swaptoken_weight[swap_addr]) / all_weight;\r\n                    swaptoken_pershare_reward[swap_addr] = swaptoken_pershare_reward[swap_addr].add(allReward.mul(ACC_XKey_PRECISION) / swap_token_share);\r\n                }\r\n                swaptoken_last_reward_blocknum[swap_addr] = current_start_number.add(i.mul(priedLength));\r\n                prevReward= perblockreward.div((2 **(i.add(swaptoken_current_stage[swap_addr]))));\r\n\r\n            }\r\n            swaptoken_current_stage[swap_addr]= swaptoken_current_stage[swap_addr].add(pastStage);\r\n        }\r\n        updateSwaptokenInfo(swap_addr);\r\n    }\r\n\r\n    function createLiquidSwap(address _liquid_swaptoken_addr,\r\n        uint _swaptoken_weight,\r\n        uint _swaptoken_start_block) onlyOwner external {\r\n        require(swaptoken_last_reward_blocknum[_liquid_swaptoken_addr] == 0,\"Token exist\");\r\n        updateAllSwaptokenInfo();\r\n        swaptoken_last_reward_blocknum[_liquid_swaptoken_addr] = SafeMath.max(_swaptoken_start_block,block.number);\r\n        swaptoken_weight[_liquid_swaptoken_addr] = _swaptoken_weight;\r\n        all_weight = all_weight.add( _swaptoken_weight);\r\n        swaptoken_addrs.push(_liquid_swaptoken_addr);\r\n        swaptoken_current_stage[_liquid_swaptoken_addr] = 0;\r\n        emit LiquidSwapTokenCreated(_liquid_swaptoken_addr,swaptoken_weight[_liquid_swaptoken_addr],all_weight);\r\n    }\r\n    function updateSwaptokenInfo(address swap_addr) internal swapTokenExist(swap_addr) {\r\n\r\n        if(block.number > swaptoken_last_reward_blocknum[swap_addr]){\r\n            uint256 swap_token_share = swaptoken_allAmount[swap_addr];\r\n            if (swap_token_share > 0) {\r\n                uint256 reward = perblockreward .div(2 **(swaptoken_current_stage[swap_addr]));\r\n                uint256 blocks = block.number.sub(swaptoken_last_reward_blocknum[swap_addr]);\r\n                uint256 allReward = blocks.mul(reward).mul(swaptoken_weight[swap_addr]) / all_weight;\r\n                swaptoken_pershare_reward[swap_addr] = swaptoken_pershare_reward[swap_addr].add(allReward.mul(ACC_XKey_PRECISION) / swap_token_share);\r\n            }\r\n            swaptoken_last_reward_blocknum[swap_addr] = block.number;\r\n        }\r\n    }\r\n    function getAddrBalanceof(address _user)external view returns (uint){\r\n        return IERCMint20(erc_mintaddr).balanceOf(_user);\r\n    }\r\n    function changeMintErcAddr(address _erc_mintaddr) external onlyOwner {\r\n        erc_mintaddr = _erc_mintaddr;\r\n    }\r\n    function setStartBlocknum(uint _block_number) external onlyOwner{\r\n        require(startBlocknum == 0,\"has start \");\r\n        startBlocknum = _block_number;\r\n    }\r\n    function tansferNFTIn(address from,address nft_address,uint256 tokenId) internal{\r\n        require(ISwapLPNFT(nft_address).ownerOf(tokenId) != address(this),\"this nft is blongs to xkeydao\");\r\n        ISwapLPNFT(nft_address).transferFrom(from,address(this),tokenId);\r\n        require(ISwapLPNFT(nft_address).ownerOf(tokenId) == address(this),\"dont get nft\");\r\n    }\r\n    function transferNFTout(address to,address nft_address,uint256 tokenId) internal {\r\n        require(ISwapLPNFT(nft_address).ownerOf(tokenId) == address(this),\"this nft isn`t blongs to xkeydao\");\r\n        ISwapLPNFT(nft_address).transferFrom(address(this),to,tokenId);\r\n        require(ISwapLPNFT(nft_address).ownerOf(tokenId) == to,\"dont get nft\");\r\n    }\r\n    function addSwaptokenShareSingle(uint256 _tokenId) swapTokenExistByTokenId(_tokenId) lock external{\r\n        require(swaptoken_had_mint < swaptoken_totalMint,\"All token has been mint\");\r\n\r\n        if(startBlocknum == 0){\r\n            startBlocknum = block.number;\r\n        }\r\n\r\n        address _swaptoken_addr = ISwapLPNFT(lpnft).getPair(_tokenId);\r\n        calcAllStagePrice(_swaptoken_addr);\r\n        tansferNFTIn(msg.sender,IXKeyPair(_swaptoken_addr).nft(),_tokenId);\r\n        //uint256 swapAmountBeforeTrans = IERC20(_swaptoken_addr).balanceOf(address(this));\r\n        //IERC20(_swaptoken_addr).transferFrom(msg.sender,address(this),_swaptoken_amount);\r\n        //uint256 swapAmountAfterTrans = IERC20(_swaptoken_addr).balanceOf(address(this));\r\n        //uint256 realAmount = swapAmountAfterTrans.sub(swapAmountBeforeTrans);\r\n        uint256 realAmount = IXkeyPokerPower(xkeyPokerPower).stake(msg.sender, IPairERC20(_swaptoken_addr),_tokenId);\r\n\r\n        int256 user_rewardDebt = int256(swaptoken_user_share[_swaptoken_addr][msg.sender].mul(swaptoken_pershare_reward[_swaptoken_addr])/ACC_XKey_PRECISION);\r\n        uint256 user_reward = user_rewardDebt.sub( swaptoken_user_rewardDebt[_swaptoken_addr][msg.sender]).toUInt256();\r\n\r\n        uint real_reward = user_reward;\r\n        if(swaptoken_had_mint.add(user_reward) > swaptoken_totalMint){\r\n            real_reward = swaptoken_totalMint.sub(swaptoken_had_mint);\r\n        }\r\n        if (real_reward != 0) {\r\n            swaptoken_had_mint = swaptoken_had_mint.add(real_reward);\r\n            swaptoken_hadmint[_swaptoken_addr] = swaptoken_hadmint[_swaptoken_addr].add(real_reward);\r\n            IERCMint20(erc_mintaddr).minerMint(msg.sender,real_reward);\r\n        }\r\n        swaptoken_user_share[_swaptoken_addr][msg.sender]= swaptoken_user_share[_swaptoken_addr][msg.sender].add(realAmount);\r\n        swaptoken_user_rewardDebt[_swaptoken_addr][msg.sender] = user_rewardDebt.add(int256(realAmount.mul(swaptoken_pershare_reward[_swaptoken_addr])/ACC_XKey_PRECISION));\r\n        swaptoken_allAmount[_swaptoken_addr] = swaptoken_allAmount[_swaptoken_addr].add(realAmount);\r\n\r\n    }\r\n    function addSwaptokenShareCombine(uint256[5] calldata _tokenIds)lock external{\r\n        require(swaptoken_had_mint < swaptoken_totalMint,\"All token has been mint\");\r\n        /*\r\n        if(startBlocknum == 0){\r\n            startBlocknum = block.number;\r\n        }\r\n        */\r\n        address _swaptoken_addr = ISwapLPNFT(lpnft).getPair(_tokenIds[0]);\r\n        for(uint i = 0;i < _tokenIds.length;i++){\r\n            require(ISwapLPNFT(lpnft).getPair(_tokenIds[i]) == _swaptoken_addr,\"xkeydao:tokenids arent same pair\");\r\n        }\r\n        require(swaptoken_last_reward_blocknum[_swaptoken_addr] != 0,\"dont have this token ids\");\r\n        calcAllStagePrice(_swaptoken_addr);\r\n        /*\r\n        uint256 swapAmountBeforeTrans = IERC20(_swaptoken_addr).balanceOf(address(this));\r\n        IERC20(_swaptoken_addr).transferFrom(msg.sender,address(this),_swaptoken_amount);\r\n        uint256 swapAmountAfterTrans = IERC20(_swaptoken_addr).balanceOf(address(this));\r\n        */\r\n        for(uint i = 0;i < _tokenIds.length;i++){\r\n            tansferNFTIn(msg.sender,lpnft,_tokenIds[i]);\r\n        }\r\n        uint256 realAmount = IXkeyPokerPower(xkeyPokerPower).stakeComposite(msg.sender, IPairERC20(_swaptoken_addr),_tokenIds);\r\n\r\n        int256 user_rewardDebt = int256(swaptoken_user_share[_swaptoken_addr][msg.sender].mul(swaptoken_pershare_reward[_swaptoken_addr])/ACC_XKey_PRECISION);\r\n        uint256 user_reward = user_rewardDebt.sub( swaptoken_user_rewardDebt[_swaptoken_addr][msg.sender]).toUInt256();\r\n\r\n        uint real_reward = user_reward;\r\n        if(swaptoken_had_mint.add(user_reward) > swaptoken_totalMint){\r\n            real_reward = swaptoken_totalMint.sub(swaptoken_had_mint);\r\n        }\r\n        if (real_reward != 0) {\r\n            swaptoken_had_mint = swaptoken_had_mint.add(real_reward);\r\n            swaptoken_hadmint[_swaptoken_addr] = swaptoken_hadmint[_swaptoken_addr].add(real_reward);\r\n            IERCMint20(erc_mintaddr).minerMint(msg.sender,real_reward);\r\n        }\r\n        swaptoken_user_share[_swaptoken_addr][msg.sender]= swaptoken_user_share[_swaptoken_addr][msg.sender].add(realAmount);\r\n        swaptoken_user_rewardDebt[_swaptoken_addr][msg.sender] = user_rewardDebt.add(int256(realAmount.mul(swaptoken_pershare_reward[_swaptoken_addr])/ACC_XKey_PRECISION));\r\n        swaptoken_allAmount[_swaptoken_addr] = swaptoken_allAmount[_swaptoken_addr].add(realAmount);\r\n    }\r\n    function removeSwaptokenShareSingle(uint256 _tokenId) swapTokenExistByTokenId(_tokenId) lock external{\r\n        address _swaptoken_addr = ISwapLPNFT(lpnft).getPair(_tokenId);\r\n        uint256 _swaptoken_amount = IXkeyPokerPower(xkeyPokerPower).unstake(msg.sender, _tokenId);\r\n        require(swaptoken_user_share[_swaptoken_addr][msg.sender] >= _swaptoken_amount,\"Dont Have Enough token to remove\");\r\n        calcAllStagePrice(_swaptoken_addr);\r\n        int256 user_rewardDebt = int256(swaptoken_user_share[_swaptoken_addr][msg.sender].mul(swaptoken_pershare_reward[_swaptoken_addr])/ACC_XKey_PRECISION);\r\n        uint256 user_reward = user_rewardDebt.sub( swaptoken_user_rewardDebt[_swaptoken_addr][msg.sender]).toUInt256();\r\n\r\n        uint real_reward = user_reward;\r\n        if(swaptoken_had_mint.add(user_reward) > swaptoken_totalMint){\r\n            real_reward = swaptoken_totalMint.sub(swaptoken_had_mint);\r\n        }\r\n\r\n        if (real_reward != 0) {\r\n            swaptoken_had_mint = swaptoken_had_mint.add(real_reward);\r\n            swaptoken_hadmint[_swaptoken_addr] = swaptoken_hadmint[_swaptoken_addr].add(real_reward);\r\n            IERCMint20(erc_mintaddr).minerMint(msg.sender,real_reward);\r\n        }\r\n        swaptoken_user_rewardDebt[_swaptoken_addr][msg.sender] = user_rewardDebt.sub(int256(_swaptoken_amount.mul(swaptoken_pershare_reward[_swaptoken_addr])/ACC_XKey_PRECISION));\r\n        swaptoken_user_share[_swaptoken_addr][msg.sender]= swaptoken_user_share[_swaptoken_addr][msg.sender].sub(_swaptoken_amount);\r\n\r\n        transferNFTout(msg.sender,IXKeyPair(_swaptoken_addr).nft(),_tokenId);\r\n        swaptoken_allAmount[_swaptoken_addr] = swaptoken_allAmount[_swaptoken_addr].sub(_swaptoken_amount);\r\n    }\r\n    function removeSwaptokenShareCombine(uint256 index) lock external{\r\n        uint256[5] memory tokenIds = IXkeyPokerPower(xkeyPokerPower).getTokenIdsByIndex(msg.sender, index);\r\n        address _swaptoken_addr = ISwapLPNFT(lpnft).getPair(tokenIds[0]);\r\n        for(uint i = 0;i < tokenIds.length;i++){\r\n            require(ISwapLPNFT(lpnft).getPair(tokenIds[i]) == _swaptoken_addr,\"this token id was not same pair\");\r\n        }\r\n\r\n        require(swaptoken_last_reward_blocknum[_swaptoken_addr] != 0,\"dont have this token\");\r\n        uint256 _swaptoken_amount = IXkeyPokerPower(xkeyPokerPower).unstakeComposite(msg.sender, index);\r\n        require(swaptoken_user_share[_swaptoken_addr][msg.sender] >= _swaptoken_amount,\"Dont Have Enough token to remove\");\r\n        calcAllStagePrice(_swaptoken_addr);\r\n        int256 user_rewardDebt = int256(swaptoken_user_share[_swaptoken_addr][msg.sender].mul(swaptoken_pershare_reward[_swaptoken_addr])/ACC_XKey_PRECISION);\r\n        uint256 user_reward = user_rewardDebt.sub( swaptoken_user_rewardDebt[_swaptoken_addr][msg.sender]).toUInt256();\r\n\r\n        uint real_reward = user_reward;\r\n        if(swaptoken_had_mint.add(user_reward) > swaptoken_totalMint){\r\n            real_reward = swaptoken_totalMint.sub(swaptoken_had_mint);\r\n        }\r\n        if (real_reward != 0) {\r\n            swaptoken_had_mint = swaptoken_had_mint.add(real_reward);\r\n            swaptoken_hadmint[_swaptoken_addr] = swaptoken_hadmint[_swaptoken_addr].add(real_reward);\r\n            IERCMint20(erc_mintaddr).minerMint(msg.sender,real_reward);\r\n        }\r\n        swaptoken_user_rewardDebt[_swaptoken_addr][msg.sender] = user_rewardDebt.sub(int256(_swaptoken_amount.mul(swaptoken_pershare_reward[_swaptoken_addr])/ACC_XKey_PRECISION));\r\n        swaptoken_user_share[_swaptoken_addr][msg.sender]= swaptoken_user_share[_swaptoken_addr][msg.sender].sub(_swaptoken_amount);\r\n\r\n        for(uint i = 0;i < 5;i++){\r\n            transferNFTout(msg.sender,lpnft,tokenIds[i]);\r\n        }\r\n        swaptoken_allAmount[_swaptoken_addr]= swaptoken_allAmount[_swaptoken_addr].sub(_swaptoken_amount);\r\n    }\r\n    function getSwaptokenReward(address _swaptoken_addr) swapTokenExist(_swaptoken_addr) lock external{\r\n\r\n        calcAllStagePrice(_swaptoken_addr);\r\n        int256 user_rewardDebt = int256(swaptoken_user_share[_swaptoken_addr][msg.sender].mul(swaptoken_pershare_reward[_swaptoken_addr])/ACC_XKey_PRECISION);\r\n        require(user_rewardDebt >= swaptoken_user_rewardDebt[_swaptoken_addr][msg.sender],\"How 2??\");\r\n        uint256 user_reward = user_rewardDebt.sub( swaptoken_user_rewardDebt[_swaptoken_addr][msg.sender]).toUInt256();\r\n        swaptoken_user_rewardDebt[_swaptoken_addr][msg.sender] = user_rewardDebt;\r\n        uint real_reward = user_reward;\r\n        if(swaptoken_had_mint.add(user_reward) > swaptoken_totalMint){\r\n            real_reward = swaptoken_totalMint.sub(swaptoken_had_mint);\r\n        }\r\n        if (real_reward != 0) {\r\n            swaptoken_had_mint = swaptoken_had_mint.add(real_reward);\r\n            swaptoken_hadmint[_swaptoken_addr] = swaptoken_hadmint[_swaptoken_addr].add(real_reward);\r\n            IERCMint20(erc_mintaddr).minerMint(msg.sender,real_reward);\r\n        }\r\n    }\r\n    function prereward(address _swaptoken_addr) internal view returns (uint256){\r\n        uint _swaptoken_pershare_reward = swaptoken_pershare_reward[_swaptoken_addr];\r\n        uint256 swap_token_share = swaptoken_allAmount[_swaptoken_addr];\r\n        uint256 last_blocknum_temp = swaptoken_last_reward_blocknum[_swaptoken_addr];\r\n        uint256 current_stage_Temp = swaptoken_current_stage[_swaptoken_addr];\r\n        if(block.number > swaptoken_last_reward_blocknum[_swaptoken_addr] && startBlocknum != 0){\r\n            uint256 current_start_number = startBlocknum.add(swaptoken_current_stage[_swaptoken_addr].mul(priedLength));\r\n            uint256 pastStage = 0;\r\n            if(block.number > current_start_number){\r\n                uint256 blockInv = block.number.sub(current_start_number);\r\n                pastStage = SafeMath.min(blockInv.div(priedLength),halfroundTimes);\r\n                if(swaptoken_current_stage[_swaptoken_addr].add(pastStage) > halfroundTimes){\r\n                    pastStage = halfroundTimes.sub(swaptoken_current_stage[_swaptoken_addr]);\r\n                }\r\n            }\r\n            uint256 prevReward = perblockreward.div(2**(swaptoken_current_stage[_swaptoken_addr]));\r\n            for(uint i = 1;i <= pastStage;i++){\r\n                if(last_blocknum_temp > current_start_number.add(i.mul(priedLength))){\r\n                    prevReward= perblockreward.div((2**(i.add(swaptoken_current_stage[_swaptoken_addr]))));\r\n                    continue;\r\n                }\r\n                uint blocksub = current_start_number.add(i.mul(priedLength)).sub(last_blocknum_temp);\r\n                //uint reward = perblockreward /(2 **(i.add(swaptoken_current_stage[_swaptoken_addr])));\r\n                if (swap_token_share > 0) {\r\n                    //uint256 blocks = blocknum.sub(swaptoken_last_reward_blocknum[swap_addr]);\r\n                    uint256 allReward = blocksub.mul(prevReward).mul(swaptoken_weight[_swaptoken_addr]) / all_weight;\r\n                    _swaptoken_pershare_reward = _swaptoken_pershare_reward.add(allReward.mul(ACC_XKey_PRECISION) / swap_token_share);\r\n                }\r\n                prevReward= perblockreward.div((2**(i.add(swaptoken_current_stage[_swaptoken_addr]))));\r\n                last_blocknum_temp = current_start_number.add(i.mul(priedLength));\r\n                current_stage_Temp = swaptoken_current_stage[_swaptoken_addr].add(pastStage);\r\n            }\r\n        }\r\n        if(block.number > swaptoken_last_reward_blocknum[_swaptoken_addr]){\r\n\r\n            if (swap_token_share > 0) {\r\n                uint256 reward = perblockreward /(2 **(current_stage_Temp));\r\n                uint256 blocks = block.number.sub(last_blocknum_temp);\r\n                uint256 allReward = blocks.mul(reward).mul(swaptoken_weight[_swaptoken_addr]) / all_weight;\r\n                _swaptoken_pershare_reward = _swaptoken_pershare_reward.add(allReward.mul(ACC_XKey_PRECISION) / swap_token_share);\r\n            }\r\n        }\r\n        return _swaptoken_pershare_reward;\r\n    }\r\n    function predReward(address _swaptoken_addr) public swapTokenExist(_swaptoken_addr) view returns (uint){\r\n        uint256 _swaptoken_pershare_reward = prereward(_swaptoken_addr);\r\n        int256 user_rewardDebt = int256(swaptoken_user_share[_swaptoken_addr][msg.sender].mul(_swaptoken_pershare_reward)/ACC_XKey_PRECISION);\r\n        uint256 user_reward = user_rewardDebt.sub( swaptoken_user_rewardDebt[_swaptoken_addr][msg.sender]).toUInt256();\r\n        uint real_reward = user_reward;\r\n        if(swaptoken_had_mint.add(user_reward) > swaptoken_totalMint){\r\n            real_reward = swaptoken_totalMint.sub(swaptoken_had_mint);\r\n        }\r\n        return real_reward;\r\n    }\r\n    function changeSwaptokenWeight(address _swaptoken_addr,uint new_weight) external onlyOwner swapTokenExist(_swaptoken_addr){\r\n        updateAllSwaptokenInfo();\r\n        all_weight = all_weight.sub(swaptoken_weight[_swaptoken_addr]).add(new_weight);\r\n        swaptoken_weight[_swaptoken_addr] = new_weight;\r\n    }\r\n    function getOwner() public view returns (address){\r\n        return owner;\r\n    }\r\n    function getCurrentStagePrice()public view returns (uint256){\r\n        if(startBlocknum == 0){\r\n            return perblockreward;\r\n        }\r\n        uint256 blockInv = block.number.sub(startBlocknum);\r\n        uint256 stageNum = SafeMath.min(blockInv.div(priedLength),halfroundTimes);\r\n\r\n        return perblockreward.div(2 **(stageNum));\r\n    }\r\n    function getUserShare(address _swaptoken_addr,address _user)public view returns (uint){\r\n        return swaptoken_user_share[_swaptoken_addr][_user];\r\n    }\r\n}\r\n",
  "sourcePath": "E:/codingproject/xkey/contracts/XkeyDao.sol",
  "compiler": {
    "name": "solc",
    "version": "0.5.16+commit.9c3226ce.Emscripten.clang"
  },
  "schemaVersion": "3.4.0",
  "updatedAt": "2021-06-09T09:07:09.155Z",
  "devdoc": {
    "methods": {}
  },
  "userdoc": {
    "methods": {}
  }
}