{
  "contractName": "XkeyDao",
  "abi": [
    {
      "inputs": [
        {
          "internalType": "address",
          "name": "_erc_mintaddr",
          "type": "address"
        },
        {
          "internalType": "address",
          "name": "_xkeyPokerPower",
          "type": "address"
        },
        {
          "internalType": "address",
          "name": "_lpnft",
          "type": "address"
        },
        {
          "internalType": "uint256",
          "name": "_perblockreward",
          "type": "uint256"
        },
        {
          "internalType": "uint256",
          "name": "_priedLength",
          "type": "uint256"
        }
      ],
      "payable": false,
      "stateMutability": "nonpayable",
      "type": "constructor"
    },
    {
      "anonymous": false,
      "inputs": [
        {
          "indexed": false,
          "internalType": "address",
          "name": "",
          "type": "address"
        },
        {
          "indexed": false,
          "internalType": "uint256",
          "name": "",
          "type": "uint256"
        },
        {
          "indexed": false,
          "internalType": "uint256",
          "name": "",
          "type": "uint256"
        }
      ],
      "name": "LiquidSwapTokenCreated",
      "type": "event"
    },
    {
      "anonymous": false,
      "inputs": [
        {
          "indexed": true,
          "internalType": "address",
          "name": "previousOwner",
          "type": "address"
        },
        {
          "indexed": true,
          "internalType": "address",
          "name": "newOwner",
          "type": "address"
        }
      ],
      "name": "OwnershipTransferred",
      "type": "event"
    },
    {
      "constant": true,
      "inputs": [],
      "name": "all_weight",
      "outputs": [
        {
          "internalType": "uint256",
          "name": "",
          "type": "uint256"
        }
      ],
      "payable": false,
      "stateMutability": "view",
      "type": "function"
    },
    {
      "constant": true,
      "inputs": [],
      "name": "composeStartBlockNum",
      "outputs": [
        {
          "internalType": "uint256",
          "name": "",
          "type": "uint256"
        }
      ],
      "payable": false,
      "stateMutability": "view",
      "type": "function"
    },
    {
      "constant": true,
      "inputs": [],
      "name": "erc_mintaddr",
      "outputs": [
        {
          "internalType": "address",
          "name": "",
          "type": "address"
        }
      ],
      "payable": false,
      "stateMutability": "view",
      "type": "function"
    },
    {
      "constant": true,
      "inputs": [],
      "name": "halfroundTimes",
      "outputs": [
        {
          "internalType": "uint256",
          "name": "",
          "type": "uint256"
        }
      ],
      "payable": false,
      "stateMutability": "view",
      "type": "function"
    },
    {
      "constant": true,
      "inputs": [],
      "name": "isOwner",
      "outputs": [
        {
          "internalType": "bool",
          "name": "",
          "type": "bool"
        }
      ],
      "payable": false,
      "stateMutability": "view",
      "type": "function"
    },
    {
      "constant": true,
      "inputs": [],
      "name": "lpnft",
      "outputs": [
        {
          "internalType": "address",
          "name": "",
          "type": "address"
        }
      ],
      "payable": false,
      "stateMutability": "view",
      "type": "function"
    },
    {
      "constant": true,
      "inputs": [],
      "name": "multipleNumber",
      "outputs": [
        {
          "internalType": "uint256",
          "name": "",
          "type": "uint256"
        }
      ],
      "payable": false,
      "stateMutability": "view",
      "type": "function"
    },
    {
      "constant": true,
      "inputs": [],
      "name": "owner",
      "outputs": [
        {
          "internalType": "address",
          "name": "",
          "type": "address"
        }
      ],
      "payable": false,
      "stateMutability": "view",
      "type": "function"
    },
    {
      "constant": true,
      "inputs": [],
      "name": "perblockreward",
      "outputs": [
        {
          "internalType": "uint256",
          "name": "",
          "type": "uint256"
        }
      ],
      "payable": false,
      "stateMutability": "view",
      "type": "function"
    },
    {
      "constant": true,
      "inputs": [],
      "name": "priedLength",
      "outputs": [
        {
          "internalType": "uint256",
          "name": "",
          "type": "uint256"
        }
      ],
      "payable": false,
      "stateMutability": "view",
      "type": "function"
    },
    {
      "constant": false,
      "inputs": [],
      "name": "renounceOwnership",
      "outputs": [],
      "payable": false,
      "stateMutability": "nonpayable",
      "type": "function"
    },
    {
      "constant": true,
      "inputs": [],
      "name": "startBlocknum",
      "outputs": [
        {
          "internalType": "uint256",
          "name": "",
          "type": "uint256"
        }
      ],
      "payable": false,
      "stateMutability": "view",
      "type": "function"
    },
    {
      "constant": true,
      "inputs": [
        {
          "internalType": "uint256",
          "name": "",
          "type": "uint256"
        }
      ],
      "name": "swaptoken_addrs",
      "outputs": [
        {
          "internalType": "address",
          "name": "",
          "type": "address"
        }
      ],
      "payable": false,
      "stateMutability": "view",
      "type": "function"
    },
    {
      "constant": true,
      "inputs": [
        {
          "internalType": "address",
          "name": "",
          "type": "address"
        }
      ],
      "name": "swaptoken_allAmount",
      "outputs": [
        {
          "internalType": "uint256",
          "name": "",
          "type": "uint256"
        }
      ],
      "payable": false,
      "stateMutability": "view",
      "type": "function"
    },
    {
      "constant": true,
      "inputs": [
        {
          "internalType": "address",
          "name": "",
          "type": "address"
        }
      ],
      "name": "swaptoken_current_stage",
      "outputs": [
        {
          "internalType": "uint256",
          "name": "",
          "type": "uint256"
        }
      ],
      "payable": false,
      "stateMutability": "view",
      "type": "function"
    },
    {
      "constant": true,
      "inputs": [],
      "name": "swaptoken_had_mint",
      "outputs": [
        {
          "internalType": "uint256",
          "name": "",
          "type": "uint256"
        }
      ],
      "payable": false,
      "stateMutability": "view",
      "type": "function"
    },
    {
      "constant": true,
      "inputs": [
        {
          "internalType": "address",
          "name": "",
          "type": "address"
        }
      ],
      "name": "swaptoken_hadmint",
      "outputs": [
        {
          "internalType": "uint256",
          "name": "",
          "type": "uint256"
        }
      ],
      "payable": false,
      "stateMutability": "view",
      "type": "function"
    },
    {
      "constant": true,
      "inputs": [
        {
          "internalType": "address",
          "name": "",
          "type": "address"
        }
      ],
      "name": "swaptoken_last_reward_blocknum",
      "outputs": [
        {
          "internalType": "uint256",
          "name": "",
          "type": "uint256"
        }
      ],
      "payable": false,
      "stateMutability": "view",
      "type": "function"
    },
    {
      "constant": true,
      "inputs": [
        {
          "internalType": "address",
          "name": "",
          "type": "address"
        }
      ],
      "name": "swaptoken_pershare_reward",
      "outputs": [
        {
          "internalType": "uint256",
          "name": "",
          "type": "uint256"
        }
      ],
      "payable": false,
      "stateMutability": "view",
      "type": "function"
    },
    {
      "constant": true,
      "inputs": [],
      "name": "swaptoken_totalMint",
      "outputs": [
        {
          "internalType": "uint256",
          "name": "",
          "type": "uint256"
        }
      ],
      "payable": false,
      "stateMutability": "view",
      "type": "function"
    },
    {
      "constant": true,
      "inputs": [
        {
          "internalType": "address",
          "name": "",
          "type": "address"
        }
      ],
      "name": "swaptoken_weight",
      "outputs": [
        {
          "internalType": "uint256",
          "name": "",
          "type": "uint256"
        }
      ],
      "payable": false,
      "stateMutability": "view",
      "type": "function"
    },
    {
      "constant": false,
      "inputs": [
        {
          "internalType": "address",
          "name": "newOwner",
          "type": "address"
        }
      ],
      "name": "transferOwnership",
      "outputs": [],
      "payable": false,
      "stateMutability": "nonpayable",
      "type": "function"
    },
    {
      "constant": true,
      "inputs": [],
      "name": "xkeyPokerPower",
      "outputs": [
        {
          "internalType": "address",
          "name": "",
          "type": "address"
        }
      ],
      "payable": false,
      "stateMutability": "view",
      "type": "function"
    },
    {
      "constant": false,
      "inputs": [
        {
          "internalType": "address",
          "name": "_liquid_swaptoken_addr",
          "type": "address"
        },
        {
          "internalType": "uint256",
          "name": "_swaptoken_weight",
          "type": "uint256"
        },
        {
          "internalType": "uint256",
          "name": "_swaptoken_start_block",
          "type": "uint256"
        }
      ],
      "name": "createLiquidSwap",
      "outputs": [],
      "payable": false,
      "stateMutability": "nonpayable",
      "type": "function"
    },
    {
      "constant": true,
      "inputs": [
        {
          "internalType": "address",
          "name": "_user",
          "type": "address"
        }
      ],
      "name": "getAddrBalanceof",
      "outputs": [
        {
          "internalType": "uint256",
          "name": "",
          "type": "uint256"
        }
      ],
      "payable": false,
      "stateMutability": "view",
      "type": "function"
    },
    {
      "constant": false,
      "inputs": [
        {
          "internalType": "address",
          "name": "_erc_mintaddr",
          "type": "address"
        }
      ],
      "name": "changeMintErcAddr",
      "outputs": [],
      "payable": false,
      "stateMutability": "nonpayable",
      "type": "function"
    },
    {
      "constant": false,
      "inputs": [
        {
          "internalType": "uint256",
          "name": "_block_number",
          "type": "uint256"
        }
      ],
      "name": "setStartBlocknum",
      "outputs": [],
      "payable": false,
      "stateMutability": "nonpayable",
      "type": "function"
    },
    {
      "constant": false,
      "inputs": [],
      "name": "setStartBlockNumberTest",
      "outputs": [],
      "payable": false,
      "stateMutability": "nonpayable",
      "type": "function"
    },
    {
      "constant": false,
      "inputs": [
        {
          "internalType": "uint256[]",
          "name": "_tokenIds",
          "type": "uint256[]"
        }
      ],
      "name": "addSwaptokenShareSingle",
      "outputs": [],
      "payable": false,
      "stateMutability": "nonpayable",
      "type": "function"
    },
    {
      "constant": false,
      "inputs": [
        {
          "internalType": "uint256[5]",
          "name": "_tokenIds",
          "type": "uint256[5]"
        }
      ],
      "name": "addSwaptokenShareCombine",
      "outputs": [],
      "payable": false,
      "stateMutability": "nonpayable",
      "type": "function"
    },
    {
      "constant": false,
      "inputs": [
        {
          "internalType": "uint256[]",
          "name": "_tokenIds",
          "type": "uint256[]"
        }
      ],
      "name": "removeSwaptokenShareSingle",
      "outputs": [],
      "payable": false,
      "stateMutability": "nonpayable",
      "type": "function"
    },
    {
      "constant": false,
      "inputs": [
        {
          "internalType": "uint256",
          "name": "index",
          "type": "uint256"
        }
      ],
      "name": "removeSwaptokenShareCombine",
      "outputs": [],
      "payable": false,
      "stateMutability": "nonpayable",
      "type": "function"
    },
    {
      "constant": false,
      "inputs": [
        {
          "internalType": "address",
          "name": "_swaptoken_addr",
          "type": "address"
        }
      ],
      "name": "getSwaptokenReward",
      "outputs": [],
      "payable": false,
      "stateMutability": "nonpayable",
      "type": "function"
    },
    {
      "constant": true,
      "inputs": [
        {
          "internalType": "address",
          "name": "_swaptoken_addr",
          "type": "address"
        }
      ],
      "name": "predReward",
      "outputs": [
        {
          "internalType": "uint256",
          "name": "",
          "type": "uint256"
        }
      ],
      "payable": false,
      "stateMutability": "view",
      "type": "function"
    },
    {
      "constant": false,
      "inputs": [
        {
          "internalType": "address",
          "name": "_swaptoken_addr",
          "type": "address"
        },
        {
          "internalType": "uint256",
          "name": "new_weight",
          "type": "uint256"
        }
      ],
      "name": "changeSwaptokenWeight",
      "outputs": [],
      "payable": false,
      "stateMutability": "nonpayable",
      "type": "function"
    },
    {
      "constant": true,
      "inputs": [],
      "name": "getCurrentStagePrice",
      "outputs": [
        {
          "internalType": "uint256",
          "name": "",
          "type": "uint256"
        }
      ],
      "payable": false,
      "stateMutability": "view",
      "type": "function"
    },
    {
      "constant": true,
      "inputs": [
        {
          "internalType": "address",
          "name": "_swaptoken_addr",
          "type": "address"
        },
        {
          "internalType": "address",
          "name": "_user",
          "type": "address"
        }
      ],
      "name": "getUserShare",
      "outputs": [
        {
          "internalType": "uint256",
          "name": "",
          "type": "uint256"
        }
      ],
      "payable": false,
      "stateMutability": "view",
      "type": "function"
    }
  ],
  "bytecode": "0x60806040526007601055600260115560016014553480156200002057600080fd5b5060405162003fb438038062003fb4833981810160405260a08110156200004657600080fd5b5080516020820151604083015160608401516080909401519293919290919060006200007a6001600160e01b036200014116565b600080546001600160a01b0319166001600160a01b0383169081178255604051929350917f8be0079c531659141344cd1fd0a4f28419497f9722a3daafe3b4186f6b6457e0908290a350600c80546001600160a01b0319166001600160a01b038716179055620000ff82670de0b6b3a764000062000145602090811b62002f6d17901c565b600a55600e80546001600160a01b039586166001600160a01b031991821617909155601291909155600f80549390941692169190911790915550620001ac9050565b3390565b6000826200015657506000620001a6565b828202828482816200016457fe5b0414620001a35760405162461bcd60e51b815260040180806020018281038252602181526020018062003f936021913960400191505060405180910390fd5b90505b92915050565b613dd780620001bc6000396000f3fe608060405234801561001057600080fd5b50600436106102275760003560e01c80637bd049d711610130578063b2bec770116100b8578063d980c5d01161007c578063d980c5d0146105ec578063df74bf5c14610608578063e68568ca14610625578063ee5a164e1461062d578063f2fde38b1461065357610227565b8063b2bec7701461056a578063b9ec962614610572578063cc6aed3414610598578063cc9524c3146105be578063d6fcbf7a146105c657610227565b80638e80d549116100ff5780638e80d549146105105780638f32d59b1461051857806390430fb914610534578063a970995a1461053c578063adbc248c1461056257610227565b80637bd049d7146104bd578063806d474a146104c55780638860210c146104e25780638da5cb5b1461050857610227565b8063449ea4a6116101b35780636509d161116101825780636509d1611461042057806368f3dd0f1461044657806369e7ee2014610463578063715018a61461048f57806377054ef01461049757610227565b8063449ea4a6146104005780634b1471a7146104085780634e85d8bc14610410578063593f7e501461041857610227565b80630e7db20d116101fa5780630e7db20d14610302578063144fcca4146103345780631bf840c11461035a5780632bd962b8146103885780633c3e4ff5146103f857610227565b806304d65b741461022c5780630860ec29146102505780630a421c9a1461026a5780630b78a4c5146102dc575b600080fd5b610234610679565b604080516001600160a01b039092168252519081900360200190f35b610258610688565b60408051918252519081900360200190f35b6102da6004803603602081101561028057600080fd5b81019060208101813564010000000081111561029b57600080fd5b8201836020820111156102ad57600080fd5b803590602001918460208302840111640100000000831117156102cf57600080fd5b50909250905061068e565b005b6102da600480360360208110156102f257600080fd5b50356001600160a01b0316610d10565b6102da6004803603606081101561031857600080fd5b506001600160a01b038135169060208101359060400135610ffe565b6102586004803603602081101561034a57600080fd5b50356001600160a01b031661119c565b6102586004803603604081101561037057600080fd5b506001600160a01b03813581169160200135166111ae565b6102da6004803603602081101561039e57600080fd5b8101906020810181356401000000008111156103b957600080fd5b8201836020820111156103cb57600080fd5b803590602001918460208302840111640100000000831117156103ed57600080fd5b5090925090506111db565b6102586117ea565b6102346117f0565b6102586117ff565b610258611805565b6102da61180b565b6102586004803603602081101561043657600080fd5b50356001600160a01b031661189a565b6102da6004803603602081101561045c57600080fd5b50356118ac565b6102da6004803603604081101561047957600080fd5b506001600160a01b038135169060200135611ee0565b6102da611ffc565b610258600480360360208110156104ad57600080fd5b50356001600160a01b031661208d565b61023461209f565b610234600480360360208110156104db57600080fd5b50356120ae565b6102da600480360360208110156104f857600080fd5b50356001600160a01b03166120d5565b61023461213e565b61025861214e565b6105206121c0565b604080519115158252519081900360200190f35b6102586121e4565b6102586004803603602081101561055257600080fd5b50356001600160a01b03166121f3565b610258612205565b61025861220b565b6102586004803603602081101561058857600080fd5b50356001600160a01b0316612211565b610258600480360360208110156105ae57600080fd5b50356001600160a01b031661236a565b61025861237c565b610258600480360360208110156105dc57600080fd5b50356001600160a01b0316612382565b6102da600480360360a081101561060257600080fd5b50612394565b6102da6004803603602081101561061e57600080fd5b5035612a06565b610258612a94565b6102586004803603602081101561064357600080fd5b50356001600160a01b0316612a9a565b6102da6004803603602081101561066957600080fd5b50356001600160a01b0316612b1d565b600e546001600160a01b031681565b600d5481565b6014546001146106d6576040805162461bcd60e51b815260206004820152600e60248201526d161ad95e481a5cc81b1bd8dad95960921b604482015290519081900360640190fd5b6000601455600581111561071b5760405162461bcd60e51b8152600401808060200182810382526022815260200180613d266022913960400191505060405180910390fd5b600f546000906001600160a01b031663bdf391cc8484848161073957fe5b905060200201356040518263ffffffff1660e01b81526004018082815260200191505060206040518083038186803b15801561077457600080fd5b505afa158015610788573d6000803e3d6000fd5b505050506040513d602081101561079e57600080fd5b505190506000805b8381101561094c57600f546001600160a01b03808516911663bdf391cc8787858181106107cf57fe5b905060200201356040518263ffffffff1660e01b81526004018082815260200191505060206040518083038186803b15801561080a57600080fd5b505afa15801561081e573d6000803e3d6000fd5b505050506040513d602081101561083457600080fd5b50516001600160a01b031614610891576040805162461bcd60e51b815260206004820152601f60248201527f7468697320746f6b656e20696420776173206e6f742073616d65207061697200604482015290519081900360640190fd5b600e54610942906001600160a01b031663c2a672e0338888868181106108b357fe5b905060200201356040518363ffffffff1660e01b815260040180836001600160a01b03166001600160a01b0316815260200182815260200192505050602060405180830381600087803b15801561090957600080fd5b505af115801561091d573d6000803e3d6000fd5b505050506040513d602081101561093357600080fd5b5051839063ffffffff612b7016565b91506001016107a6565b506001600160a01b03821660009081526007602090815260408083203384529091529020548111156109c5576040805162461bcd60e51b815260206004820181905260248201527f446f6e74204861766520456e6f75676820746f6b656e20746f2072656d6f7665604482015290519081900360640190fd5b6109ce82612bd1565b6001600160a01b0382166000908152600360209081526040808320546007835281842033855290925282205464e8d4a5100091610a11919063ffffffff612f6d16565b81610a1857fe5b6001600160a01b038516600090815260086020908152604080832033845290915281205492909104925090610a5d90610a5890849063ffffffff612fc616565b61302b565b600d5490915081906a52b7d2dcc80cd2e400000090610a82908363ffffffff612b7016565b1115610aaa57600d54610aa7906a52b7d2dcc80cd2e40000009063ffffffff61307416565b90505b8015610b6957600d54610ac3908263ffffffff612b7016565b600d556001600160a01b038516600090815260066020526040902054610aef908263ffffffff612b7016565b6001600160a01b0380871660009081526006602052604080822093909355600c548351631d9a4ef360e11b8152336004820152602481018690529351921692633b349de6926044808301939282900301818387803b158015610b5057600080fd5b505af1158015610b64573d6000803e3d6000fd5b505050505b6001600160a01b038516600090815260036020526040902054610bb49064e8d4a5100090610b9e90879063ffffffff612f6d16565b81610ba557fe5b8591900463ffffffff612fc616565b6001600160a01b038616600081815260086020908152604080832033808552908352818420959095559282526007815282822093825292909252902054610c01908563ffffffff61307416565b6001600160a01b03861660009081526007602090815260408083203384529091528120919091555b86811015610cbc57610cb433876001600160a01b03166347ccca026040518163ffffffff1660e01b8152600401602060405180830381600087803b158015610c7057600080fd5b505af1158015610c84573d6000803e3d6000fd5b505050506040513d6020811015610c9a57600080fd5b50518a8a85818110610ca857fe5b905060200201356130b6565b600101610c29565b506001600160a01b038516600090815260056020526040902054610ce6908563ffffffff61307416565b6001600160a01b039095166000908152600560205260409020949094555050600160145550505050565b6001600160a01b03811660009081526001602052604081205482919015610d35575060015b80610d7f576040805162461bcd60e51b81526020600482015260156024820152742237b7303a103430bb32903a3434b9903a37b5b2b760591b604482015290519081900360640190fd5b601454600114610dc7576040805162461bcd60e51b815260206004820152600e60248201526d161ad95e481a5cc81b1bd8dad95960921b604482015290519081900360640190fd5b6000601455610dd583612bd1565b6001600160a01b0383166000908152600360209081526040808320546007835281842033855290925282205464e8d4a5100091610e18919063ffffffff612f6d16565b81610e1f57fe5b6001600160a01b03861660009081526008602090815260408083203384529091529020549190049150811215610e86576040805162461bcd60e51b8152602060048201526007602482015266486f7720323f3f60c81b604482015290519081900360640190fd5b6001600160a01b0384166000908152600860209081526040808320338452909152812054610ebf90610a5890849063ffffffff612fc616565b6001600160a01b03861660009081526008602090815260408083203384529091529020839055600d5490915081906a52b7d2dcc80cd2e400000090610f0a908363ffffffff612b7016565b1115610f3257600d54610f2f906a52b7d2dcc80cd2e40000009063ffffffff61307416565b90505b8015610ff157600d54610f4b908263ffffffff612b7016565b600d556001600160a01b038616600090815260066020526040902054610f77908263ffffffff612b7016565b6001600160a01b0380881660009081526006602052604080822093909355600c548351631d9a4ef360e11b8152336004820152602481018690529351921692633b349de6926044808301939282900301818387803b158015610fd857600080fd5b505af1158015610fec573d6000803e3d6000fd5b505050505b5050600160145550505050565b6110066121c0565b611045576040805162461bcd60e51b81526020600482018190526024820152600080516020613d06833981519152604482015290519081900360640190fd5b6001600160a01b0383166000908152600160205260409020541561109e576040805162461bcd60e51b815260206004820152600b60248201526a151bdad95b88195e1a5cdd60aa1b604482015290519081900360640190fd5b6110a66132c4565b6110b08143613308565b6001600160a01b0384166000908152600160209081526040808320939093556002905220829055600b546110ea908363ffffffff612b7016565b600b90815560098054600181019091557f6e1540171b6c0c960b71a7020d9f60077f6af931a8bbf590da0223dacf75c7af0180546001600160a01b0386166001600160a01b03199091168117909155600081815260046020908152604080832083905560028252918290205493548251938452908301939093528181019290925290517fc712c5daa7afb3689e59ecc4eb021e9b0c7a6ba5cf97a7b6c6f3cf0165e6e4309181900360600190a1505050565b60046020526000908152604090205481565b6001600160a01b038083166000908152600760209081526040808320938516835292905220545b92915050565b601454600114611223576040805162461bcd60e51b815260206004820152600e60248201526d161ad95e481a5cc81b1bd8dad95960921b604482015290519081900360640190fd5b6000601455600d546a52b7d2dcc80cd2e400000011611283576040805162461bcd60e51b8152602060048201526017602482015276105b1b081d1bdad95b881a185cc81899595b881b5a5b9d604a1b604482015290519081900360640190fd5b60058111156112c35760405162461bcd60e51b8152600401808060200182810382526022815260200180613d266022913960400191505060405180910390fd5b6013546112cf57436013555b600f546000906001600160a01b031663bdf391cc848484816112ed57fe5b905060200201356040518263ffffffff1660e01b81526004018082815260200191505060206040518083038186803b15801561132857600080fd5b505afa15801561133c573d6000803e3d6000fd5b505050506040513d602081101561135257600080fd5b50516001600160a01b0381166000908152600160205260409020549091506113bc576040805162461bcd60e51b8152602060048201526018602482015277646f6e742068617665207468697320746f6b656e2069647360401b604482015290519081900360640190fd5b60006113c782612bd1565b60005b8381101561157b57600f546001600160a01b03808516911663bdf391cc8787858181106113f357fe5b905060200201356040518263ffffffff1660e01b81526004018082815260200191505060206040518083038186803b15801561142e57600080fd5b505afa158015611442573d6000803e3d6000fd5b505050506040513d602081101561145857600080fd5b50516001600160a01b0316146114b5576040805162461bcd60e51b815260206004820181905260248201527f786b657964616f3a746f6b656e696473206172656e742073616d652070616972604482015290519081900360640190fd5b600f546114df9033906001600160a01b03168787858181106114d357fe5b9050602002013561331f565b600e54611571906001600160a01b031663bf6eac2f338689898781811061150257fe5b905060200201356040518463ffffffff1660e01b815260040180846001600160a01b03166001600160a01b03168152602001836001600160a01b03166001600160a01b031681526020018281526020019350505050602060405180830381600087803b15801561090957600080fd5b91506001016113ca565b506001600160a01b0382166000908152600360209081526040808320546007835281842033855290925282205464e8d4a51000916115bf919063ffffffff612f6d16565b816115c657fe5b6001600160a01b03851660009081526008602090815260408083203384529091528120549290910492509061160690610a5890849063ffffffff612fc616565b600d5490915081906a52b7d2dcc80cd2e40000009061162b908363ffffffff612b7016565b111561165357600d54611650906a52b7d2dcc80cd2e40000009063ffffffff61307416565b90505b801561171257600d5461166c908263ffffffff612b7016565b600d556001600160a01b038516600090815260066020526040902054611698908263ffffffff612b7016565b6001600160a01b0380871660009081526006602052604080822093909355600c548351631d9a4ef360e11b8152336004820152602481018690529351921692633b349de6926044808301939282900301818387803b1580156116f957600080fd5b505af115801561170d573d6000803e3d6000fd5b505050505b6001600160a01b0385166000908152600760209081526040808320338452909152902054611746908563ffffffff612b7016565b6001600160a01b0386166000818152600760209081526040808320338452825280832094909455918152600390915220546117a99064e8d4a510009061179390879063ffffffff612f6d16565b8161179a57fe5b8591900463ffffffff6134b316565b6001600160a01b038616600081815260086020908152604080832033845282528083209490945591815260059091522054610ce6908563ffffffff612b7016565b60105481565b600c546001600160a01b031681565b60135481565b600b5481565b6118136121c0565b611852576040805162461bcd60e51b81526020600482018190526024820152600080516020613d06833981519152604482015290519081900360640190fd5b60135415611894576040805162461bcd60e51b815260206004820152600a60248201526903430b99039ba30b93a160b51b604482015290519081900360640190fd5b43601355565b60016020526000908152604090205481565b6014546001146118f4576040805162461bcd60e51b815260206004820152600e60248201526d161ad95e481a5cc81b1bd8dad95960921b604482015290519081900360640190fd5b6000601455611901613c7f565b600e5460408051637a110ca160e01b81523360048201526024810185905290516001600160a01b0390921691637a110ca19160448082019260a092909190829003018186803b15801561195357600080fd5b505afa158015611967573d6000803e3d6000fd5b505050506040513d601f19601f8201168201806040525060a081101561198c57600080fd5b50600f549091506000906001600160a01b031663bdf391cc838360200201516040518263ffffffff1660e01b81526004018082815260200191505060206040518083038186803b1580156119df57600080fd5b505afa1580156119f3573d6000803e3d6000fd5b505050506040513d6020811015611a0957600080fd5b5051905060005b6005811015611b0257600f546001600160a01b03808416911663bdf391cc858460058110611a3a57fe5b60200201516040518263ffffffff1660e01b81526004018082815260200191505060206040518083038186803b158015611a7357600080fd5b505afa158015611a87573d6000803e3d6000fd5b505050506040513d6020811015611a9d57600080fd5b50516001600160a01b031614611afa576040805162461bcd60e51b815260206004820152601f60248201527f7468697320746f6b656e20696420776173206e6f742073616d65207061697200604482015290519081900360640190fd5b600101611a10565b506001600160a01b038116600090815260016020526040902054611b64576040805162461bcd60e51b81526020600482015260146024820152733237b73a103430bb32903a3434b9903a37b5b2b760611b604482015290519081900360640190fd5b600e54604080516337bb3dd760e21b81523360048201526024810186905290516000926001600160a01b03169163deecf75c91604480830192602092919082900301818787803b158015611bb757600080fd5b505af1158015611bcb573d6000803e3d6000fd5b505050506040513d6020811015611be157600080fd5b50516001600160a01b0383166000908152600760209081526040808320338452909152902054909150811115611c5e576040805162461bcd60e51b815260206004820181905260248201527f446f6e74204861766520456e6f75676820746f6b656e20746f2072656d6f7665604482015290519081900360640190fd5b611c6782612bd1565b6001600160a01b0382166000908152600360209081526040808320546007835281842033855290925282205464e8d4a5100091611caa919063ffffffff612f6d16565b81611cb157fe5b6001600160a01b038516600090815260086020908152604080832033845290915281205492909104925090611cf190610a5890849063ffffffff612fc616565b600d5490915081906a52b7d2dcc80cd2e400000090611d16908363ffffffff612b7016565b1115611d3e57600d54611d3b906a52b7d2dcc80cd2e40000009063ffffffff61307416565b90505b8015611dfd57600d54611d57908263ffffffff612b7016565b600d556001600160a01b038516600090815260066020526040902054611d83908263ffffffff612b7016565b6001600160a01b0380871660009081526006602052604080822093909355600c548351631d9a4ef360e11b8152336004820152602481018690529351921692633b349de6926044808301939282900301818387803b158015611de457600080fd5b505af1158015611df8573d6000803e3d6000fd5b505050505b6001600160a01b038516600090815260036020526040902054611e329064e8d4a5100090610b9e90879063ffffffff612f6d16565b6001600160a01b038616600081815260086020908152604080832033808552908352818420959095559282526007815282822093825292909252902054611e7f908563ffffffff61307416565b6001600160a01b03861660009081526007602090815260408083203384529091528120919091555b6005811015610cbc57600f54611ed89033906001600160a01b0316898460058110611ece57fe5b60200201516130b6565b600101611ea7565b611ee86121c0565b611f27576040805162461bcd60e51b81526020600482018190526024820152600080516020613d06833981519152604482015290519081900360640190fd5b6001600160a01b03821660009081526001602052604081205483919015611f4c575060015b80611f96576040805162461bcd60e51b81526020600482015260156024820152742237b7303a103430bb32903a3434b9903a37b5b2b760591b604482015290519081900360640190fd5b611f9e6132c4565b6001600160a01b038416600090815260026020526040902054600b54611fdb918591611fcf9163ffffffff61307416565b9063ffffffff612b7016565b600b5550506001600160a01b03909116600090815260026020526040902055565b6120046121c0565b612043576040805162461bcd60e51b81526020600482018190526024820152600080516020613d06833981519152604482015290519081900360640190fd5b600080546040516001600160a01b03909116907f8be0079c531659141344cd1fd0a4f28419497f9722a3daafe3b4186f6b6457e0908390a3600080546001600160a01b0319169055565b60026020526000908152604090205481565b600f546001600160a01b031681565b600981815481106120bb57fe5b6000918252602090912001546001600160a01b0316905081565b6120dd6121c0565b61211c576040805162461bcd60e51b81526020600482018190526024820152600080516020613d06833981519152604482015290519081900360640190fd5b600c80546001600160a01b0319166001600160a01b0392909216919091179055565b6000546001600160a01b03165b90565b6000601354600014156121645750600a5461214b565b600061217b6013544361307490919063ffffffff16565b9050600061219f6121976012548461351890919063ffffffff16565b60105461355a565b90506121b98160020a600a5461351890919063ffffffff16565b9250505090565b600080546001600160a01b03166121d5613569565b6001600160a01b031614905090565b6a52b7d2dcc80cd2e400000081565b60036020526000908152604090205481565b610b4081565b60125481565b6001600160a01b0381166000908152600160205260408120548290829015612237575060015b80612281576040805162461bcd60e51b81526020600482015260156024820152742237b7303a103430bb32903a3434b9903a37b5b2b760591b604482015290519081900360640190fd5b600061228c8561356d565b6001600160a01b03861660009081526007602090815260408083203384529091528120549192509064e8d4a51000906122cb908463ffffffff612f6d16565b816122d257fe5b6001600160a01b03881660009081526008602090815260408083203384529091528120549290910492509061231290610a5890849063ffffffff612fc616565b600d5490915081906a52b7d2dcc80cd2e400000090612337908363ffffffff612b7016565b111561235f57600d5461235c906a52b7d2dcc80cd2e40000009063ffffffff61307416565b90505b979650505050505050565b60066020526000908152604090205481565b60115481565b60056020526000908152604090205481565b6014546001146123dc576040805162461bcd60e51b815260206004820152600e60248201526d161ad95e481a5cc81b1bd8dad95960921b604482015290519081900360640190fd5b600060145560135461241f5760405162461bcd60e51b8152600401808060200182810382526037815260200180613d6c6037913960400191505060405180910390fd5b610b40601354014311612479576040805162461bcd60e51b815260206004820152601960248201527f636f6d62696e65206d696e74206973206e6f7420737461727400000000000000604482015290519081900360640190fd5b600d546a52b7d2dcc80cd2e4000000116124d4576040805162461bcd60e51b8152602060048201526017602482015276105b1b081d1bdad95b881a185cc81899595b881b5a5b9d604a1b604482015290519081900360640190fd5b600f5460408051632f7ce47360e21b81528335600482015290516000926001600160a01b03169163bdf391cc916024808301926020929190829003018186803b15801561252057600080fd5b505afa158015612534573d6000803e3d6000fd5b505050506040513d602081101561254a57600080fd5b50516001600160a01b0381166000908152600160205260409020549091506125b4576040805162461bcd60e51b8152602060048201526018602482015277646f6e742068617665207468697320746f6b656e2069647360401b604482015290519081900360640190fd5b6125bd81612bd1565b60005b60058110156126da57600f546001600160a01b03808416911663bdf391cc8584600581106125ea57fe5b60200201356040518263ffffffff1660e01b81526004018082815260200191505060206040518083038186803b15801561262357600080fd5b505afa158015612637573d6000803e3d6000fd5b505050506040513d602081101561264d57600080fd5b50516001600160a01b0316146126aa576040805162461bcd60e51b815260206004820181905260248201527f786b657964616f3a746f6b656e696473206172656e742073616d652070616972604482015290519081900360640190fd5b600f546126d29033906001600160a01b03168584600581106126c857fe5b602002013561331f565b6001016125c0565b50600e54604051636cb9d15760e11b815233600482018181526001600160a01b038581166024850152600094169263d973a2ae929186918891906044018260a080828437600081840152601f19601f8201169050808301925050509350505050602060405180830381600087803b15801561275457600080fd5b505af1158015612768573d6000803e3d6000fd5b505050506040513d602081101561277e57600080fd5b50516001600160a01b03831660009081526003602090815260408083205460078352818420338552909252822054929350909164e8d4a51000916127c8919063ffffffff612f6d16565b816127cf57fe5b6001600160a01b03851660009081526008602090815260408083203384529091528120549290910492509061280f90610a5890849063ffffffff612fc616565b600d5490915081906a52b7d2dcc80cd2e400000090612834908363ffffffff612b7016565b111561285c57600d54612859906a52b7d2dcc80cd2e40000009063ffffffff61307416565b90505b801561291b57600d54612875908263ffffffff612b7016565b600d556001600160a01b0385166000908152600660205260409020546128a1908263ffffffff612b7016565b6001600160a01b0380871660009081526006602052604080822093909355600c548351631d9a4ef360e11b8152336004820152602481018690529351921692633b349de6926044808301939282900301818387803b15801561290257600080fd5b505af1158015612916573d6000803e3d6000fd5b505050505b6001600160a01b038516600090815260076020908152604080832033845290915290205461294f908563ffffffff612b7016565b6001600160a01b03861660008181526007602090815260408083203384528252808320949094559181526003909152205461299c9064e8d4a510009061179390879063ffffffff612f6d16565b6001600160a01b0386166000818152600860209081526040808320338452825280832094909455918152600590915220546129dd908563ffffffff612b7016565b6001600160a01b0390951660009081526005602052604090209490945550506001601455505050565b612a0e6121c0565b612a4d576040805162461bcd60e51b81526020600482018190526024820152600080516020613d06833981519152604482015290519081900360640190fd5b60135415612a8f576040805162461bcd60e51b815260206004820152600a60248201526903430b99039ba30b93a160b51b604482015290519081900360640190fd5b601355565b600a5481565b600c54604080516370a0823160e01b81526001600160a01b038481166004830152915160009392909216916370a0823191602480820192602092909190829003018186803b158015612aeb57600080fd5b505afa158015612aff573d6000803e3d6000fd5b505050506040513d6020811015612b1557600080fd5b505192915050565b612b256121c0565b612b64576040805162461bcd60e51b81526020600482018190526024820152600080516020613d06833981519152604482015290519081900360640190fd5b612b6d81613918565b50565b600082820183811015612bca576040805162461bcd60e51b815260206004820152601b60248201527f536166654d6174683a206164646974696f6e206f766572666c6f770000000000604482015290519081900360640190fd5b9392505050565b6001600160a01b03811660009081526001602052604090205443118015612bf9575060135415155b15612f64576012546001600160a01b0382166000908152600460205260408120549091612c3e91612c2f9163ffffffff612f6d16565b6013549063ffffffff612b7016565b9050600043821015612cdc576000612c5c438463ffffffff61307416565b9050612c766121976012548361351890919063ffffffff16565b6010546001600160a01b03861660009081526004602052604090205491935090612ca6908463ffffffff612b7016565b1115612cda576001600160a01b038416600090815260046020526040902054601054612cd79163ffffffff61307416565b91505b505b6001600160a01b0383166000908152600560209081526040808320546004909252822054600a54919291612d189160020a63ffffffff61351816565b905060015b838111612f1c57612d49612d3c60125483612f6d90919063ffffffff16565b869063ffffffff612b7016565b6001600160a01b0387166000908152600160205260409020541115612daf576001600160a01b038616600090815260046020526040902054612da890612d9690839063ffffffff612b7016565b600a549060020a63ffffffff61351816565b9150612f14565b6001600160a01b038616600090815260016020526040812054601254612dfe9190612df290612de590869063ffffffff612f6d16565b899063ffffffff612b7016565b9063ffffffff61307416565b90508315612eb157600b546001600160a01b038816600090815260026020526040812054909190612e4590612e39858863ffffffff612f6d16565b9063ffffffff612f6d16565b81612e4c57fe5b049050612e9685612e688364e8d4a5100063ffffffff612f6d16565b81612e6f57fe5b6001600160a01b038b1660009081526003602052604090205491900463ffffffff612b7016565b6001600160a01b038916600090815260036020526040902055505b612ed6612ec960125484612f6d90919063ffffffff16565b879063ffffffff612b7016565b6001600160a01b038816600090815260016020908152604080832093909355600490522054612f1090612d9690849063ffffffff612b7016565b9250505b600101612d1d565b506001600160a01b038516600090815260046020526040902054612f46908463ffffffff612b7016565b6001600160a01b038616600090815260046020526040902055505050505b612b6d816139b8565b600082612f7c575060006111d5565b82820282848281612f8957fe5b0414612bca5760405162461bcd60e51b8152600401808060200182810382526021815260200180613ce56021913960400191505060405180910390fd5b6000818303818312801590612fdb5750838113155b80612ff05750600083128015612ff057508381135b612bca5760405162461bcd60e51b8152600401808060200182810382526024815260200180613d486024913960400191505060405180910390fd5b600080821215613070576040805162461bcd60e51b815260206004820152600b60248201526a0496e7465676572203c20360ac1b604482015290519081900360640190fd5b5090565b6000612bca83836040518060400160405280601e81526020017f536166654d6174683a207375627472616374696f6e206f766572666c6f770000815250613b83565b306001600160a01b0316826001600160a01b0316636352211e836040518263ffffffff1660e01b81526004018082815260200191505060206040518083038186803b15801561310457600080fd5b505afa158015613118573d6000803e3d6000fd5b505050506040513d602081101561312e57600080fd5b50516001600160a01b03161461318b576040805162461bcd60e51b815260206004820181905260248201527f74686973206e66742069736e607420626c6f6e677320746f20786b657964616f604482015290519081900360640190fd5b604080516323b872dd60e01b81523060048201526001600160a01b038581166024830152604482018490529151918416916323b872dd9160648082019260009290919082900301818387803b1580156131e357600080fd5b505af11580156131f7573d6000803e3d6000fd5b50505050826001600160a01b0316826001600160a01b0316636352211e836040518263ffffffff1660e01b81526004018082815260200191505060206040518083038186803b15801561324957600080fd5b505afa15801561325d573d6000803e3d6000fd5b505050506040513d602081101561327357600080fd5b50516001600160a01b0316146132bf576040805162461bcd60e51b815260206004820152600c60248201526b191bdb9d0819d95d081b999d60a21b604482015290519081900360640190fd5b505050565b60095460005b81811015613304576132fc600982815481106132e257fe5b6000918252602090912001546001600160a01b0316612bd1565b6001016132ca565b5050565b6000818310156133185781612bca565b5090919050565b306001600160a01b0316826001600160a01b0316636352211e836040518263ffffffff1660e01b81526004018082815260200191505060206040518083038186803b15801561336d57600080fd5b505afa158015613381573d6000803e3d6000fd5b505050506040513d602081101561339757600080fd5b50516001600160a01b031614156133f5576040805162461bcd60e51b815260206004820152601d60248201527f74686973206e667420697320626c6f6e677320746f20786b657964616f000000604482015290519081900360640190fd5b604080516323b872dd60e01b81526001600160a01b038581166004830152306024830152604482018490529151918416916323b872dd9160648082019260009290919082900301818387803b15801561344d57600080fd5b505af1158015613461573d6000803e3d6000fd5b50505050306001600160a01b0316826001600160a01b0316636352211e836040518263ffffffff1660e01b81526004018082815260200191505060206040518083038186803b15801561324957600080fd5b60008282018183128015906134c85750838112155b806134dd57506000831280156134dd57508381125b612bca5760405162461bcd60e51b8152600401808060200182810382526021815260200180613cc46021913960400191505060405180910390fd5b6000612bca83836040518060400160405280601a81526020017f536166654d6174683a206469766973696f6e206279207a65726f000000000000815250613c1a565b60008183106133185781612bca565b3390565b6001600160a01b038116600090815260036020908152604080832054600583528184205460018085528386205460048652938620549452909290919043821080156135b9575060135415155b15613850576012546001600160a01b03871660009081526004602052604081205490916135ef91612c2f9163ffffffff612f6d16565b905060004382101561368d57600061360d438463ffffffff61307416565b90506136276121976012548361351890919063ffffffff16565b6010546001600160a01b038b1660009081526004602052604090205491935090613657908463ffffffff612b7016565b111561368b576001600160a01b0389166000908152600460205260409020546010546136889163ffffffff61307416565b91505b505b6001600160a01b038816600090815260046020526040812054600a546136bb9160020a63ffffffff61351816565b905060015b82811161384b576136ec6136df60125483612f6d90919063ffffffff16565b859063ffffffff612b7016565b861115613728576001600160a01b038a1660009081526004602052604090205461372190612d9690839063ffffffff612b7016565b9150613843565b600061375387612df261374660125486612f6d90919063ffffffff16565b889063ffffffff612b7016565b905087156137cb57600b546001600160a01b038c1660009081526002602052604081205490919061378e90612e39858863ffffffff612f6d16565b8161379557fe5b0490506137c7896137b18364e8d4a5100063ffffffff612f6d16565b816137b857fe5b8c91900463ffffffff612b7016565b9950505b6001600160a01b038b166000908152600460205260409020546137f990612d9690849063ffffffff612b7016565b9250613813612d3c60125484612f6d90919063ffffffff16565b6001600160a01b038c1660009081526004602052604090205490975061383f908563ffffffff612b7016565b9550505b6001016136c0565b505050505b6001600160a01b03861660009081526001602052604090205443111561390e57821561390e5760008160020a600a548161388657fe5b049050600061389b438563ffffffff61307416565b600b546001600160a01b038a16600090815260026020526040812054929350916138cf90612e39858763ffffffff612f6d16565b816138d657fe5b049050613908866138f28364e8d4a5100063ffffffff612f6d16565b816138f957fe5b8991900463ffffffff612b7016565b96505050505b5091949350505050565b6001600160a01b03811661395d5760405162461bcd60e51b8152600401808060200182810382526026815260200180613c9e6026913960400191505060405180910390fd5b600080546040516001600160a01b03808516939216917f8be0079c531659141344cd1fd0a4f28419497f9722a3daafe3b4186f6b6457e091a3600080546001600160a01b0319166001600160a01b0392909216919091179055565b6001600160a01b038116600090815260016020526040812054829190156139dd575060015b80613a27576040805162461bcd60e51b81526020600482015260156024820152742237b7303a103430bb32903a3434b9903a37b5b2b760591b604482015290519081900360640190fd5b6001600160a01b0383166000908152600160205260409020544311156132bf576001600160a01b0383166000908152600560205260409020548015613b64576001600160a01b038416600090815260046020526040812054600a54613a949160020a63ffffffff61351816565b6001600160a01b03861660009081526001602052604081205491925090613ac290439063ffffffff61307416565b600b546001600160a01b03881660009081526002602052604081205492935091613af690612e39858763ffffffff612f6d16565b81613afd57fe5b049050613b4784613b198364e8d4a5100063ffffffff612f6d16565b81613b2057fe5b6001600160a01b038a1660009081526003602052604090205491900463ffffffff612b7016565b6001600160a01b0388166000908152600360205260409020555050505b5050506001600160a01b03166000908152600160205260409020439055565b60008184841115613c125760405162461bcd60e51b81526004018080602001828103825283818151815260200191508051906020019080838360005b83811015613bd7578181015183820152602001613bbf565b50505050905090810190601f168015613c045780820380516001836020036101000a031916815260200191505b509250505060405180910390fd5b505050900390565b60008183613c695760405162461bcd60e51b8152602060048201818152835160248401528351909283926044909101919085019080838360008315613bd7578181015183820152602001613bbf565b506000838581613c7557fe5b0495945050505050565b6040518060a00160405280600590602082028038833950919291505056fe4f776e61626c653a206e6577206f776e657220697320746865207a65726f20616464726573735369676e6564536166654d6174683a206164646974696f6e206f766572666c6f77536166654d6174683a206d756c7469706c69636174696f6e206f766572666c6f774f776e61626c653a2063616c6c6572206973206e6f7420746865206f776e6572746f6b656e206964732073697a652073686f756c64206c6f776572207468616e20355369676e6564536166654d6174683a207375627472616374696f6e206f766572666c6f77636f6d62696e65206d696e74206973206e6f742073746172742062656361757365207374617274426c6f636b4e756d206e6f7420736574a265627a7a72315820cb5a2915f6affa5fe92e7c91394c976c37e4070aee57545b9fbda00bcb71b7c864736f6c63430005100032536166654d6174683a206d756c7469706c69636174696f6e206f766572666c6f77",
  "source": "pragma solidity=0.5.16;\r\nimport './libraries/SafeMath.sol';\r\nimport './libraries/SignedSafeMath.sol';\r\nimport './interfaces/IERCMint20.sol';\r\n//import './interfaces/IERC20.sol';\r\nimport './interfaces/IXkeyPokerPower.sol';\r\nimport './interfaces/ISwapLPNFT.sol';\r\nimport './interfaces/IXKeyPair.sol';\r\nimport \"openzeppelin-solidity/contracts/ownership/Ownable.sol\";\r\ncontract XkeyDao is Ownable{\r\n    using SafeMath  for uint;\r\n    using SafeMath  for uint256;\r\n    using SignedSafeMath for int256;\r\n    /**\r\n    * swap token info\r\n    */\r\n    mapping(address=>uint) public swaptoken_last_reward_blocknum;\r\n    mapping(address=>uint) public swaptoken_weight;\r\n    mapping(address=>uint) public swaptoken_pershare_reward;\r\n    mapping(address=>uint) public swaptoken_current_stage;\r\n    mapping(address=>uint) public swaptoken_allAmount;\r\n    mapping(address=>uint) public swaptoken_hadmint;\r\n    /**\r\n    * user info\r\n    */\r\n    mapping(address=>mapping(address=>uint)) swaptoken_user_share;\r\n    mapping(address=>mapping(address=>int)) swaptoken_user_rewardDebt;\r\n\r\n    address[] public swaptoken_addrs;\r\n    uint public perblockreward;\r\n    uint public all_weight;\r\n    address public erc_mintaddr;\r\n    uint256 public swaptoken_had_mint;\r\n    uint256 public constant swaptoken_totalMint = 100000000 * (10 ** uint(18));\r\n    uint256 private constant ACC_XKey_PRECISION = 10 ** 12;\r\n    //address owner;\r\n    address public xkeyPokerPower;\r\n    address public lpnft;\r\n    uint public halfroundTimes = 7;\r\n    uint public multipleNumber = 2;\r\n    uint public priedLength;//3 month 598153\r\n    uint public startBlocknum;\r\n    //uint constant public  composeStartBlockNum = 100000;\r\n    uint constant public  composeStartBlockNum = 2880;\r\n    event LiquidSwapTokenCreated(address,uint,uint);\r\n    constructor(\r\n        address _erc_mintaddr,\r\n        address _xkeyPokerPower,\r\n        address _lpnft,\r\n        uint _perblockreward,\r\n        uint _priedLength) public {\r\n       // owner = msg.sender;\r\n        erc_mintaddr =  _erc_mintaddr;\r\n        perblockreward = _perblockreward.mul(10**18);\r\n        xkeyPokerPower = _xkeyPokerPower;\r\n        priedLength = _priedLength;\r\n        lpnft = _lpnft;\r\n    }\r\n    uint private unlocked = 1;\r\n    modifier lock() {\r\n        require(unlocked == 1, 'Xkey is locked');\r\n        unlocked = 0;\r\n        _;\r\n        unlocked = 1;\r\n    }\r\n\r\n    modifier swapTokenExist(address _swaptoken_addr){\r\n        bool exist = false;\r\n        if(swaptoken_last_reward_blocknum[_swaptoken_addr] != 0){\r\n            exist = true;\r\n        }\r\n        require(exist,'Don`t have this token');\r\n        _;\r\n    }\r\n    function updateAllSwaptokenInfo() internal{\r\n        uint256 len = swaptoken_addrs.length;\r\n        for (uint256 i = 0; i < len; ++i) {\r\n            calcAllStagePrice(swaptoken_addrs[i]);\r\n        }\r\n    }\r\n\r\n    function calcAllStagePrice(address swap_addr) internal {\r\n        if(block.number > swaptoken_last_reward_blocknum[swap_addr] && startBlocknum != 0){\r\n            uint256 current_start_number = startBlocknum.add(swaptoken_current_stage[swap_addr].mul(priedLength));\r\n            uint256 pastStage = 0;\r\n            if(block.number > current_start_number){\r\n                uint256 blockInv = block.number.sub(current_start_number);\r\n                pastStage = SafeMath.min(blockInv.div(priedLength),halfroundTimes);\r\n                if(swaptoken_current_stage[swap_addr].add(pastStage) > halfroundTimes){\r\n                    pastStage = halfroundTimes.sub(swaptoken_current_stage[swap_addr]);\r\n                }\r\n            }\r\n\r\n            uint256 swap_token_share = swaptoken_allAmount[swap_addr];\r\n            uint256 prevReward = perblockreward.div(2**(swaptoken_current_stage[swap_addr]));\r\n            for(uint i = 1;i <= pastStage;i++){\r\n                if(swaptoken_last_reward_blocknum[swap_addr] > current_start_number.add(i.mul(priedLength))){\r\n                    prevReward= perblockreward.div((2**(i.add(swaptoken_current_stage[swap_addr]))));\r\n                    continue;\r\n                }\r\n                uint blocksub = current_start_number.add(i.mul(priedLength)).sub(swaptoken_last_reward_blocknum[swap_addr]);\r\n                if (swap_token_share > 0) {\r\n                    //uint256 blocks = blocknum.sub(swaptoken_last_reward_blocknum[swap_addr]);\r\n                    uint256 allReward = blocksub.mul(prevReward).mul(swaptoken_weight[swap_addr]) / all_weight;\r\n                    swaptoken_pershare_reward[swap_addr] = swaptoken_pershare_reward[swap_addr].add(allReward.mul(ACC_XKey_PRECISION) / swap_token_share);\r\n                }\r\n                swaptoken_last_reward_blocknum[swap_addr] = current_start_number.add(i.mul(priedLength));\r\n                prevReward= perblockreward.div((2 **(i.add(swaptoken_current_stage[swap_addr]))));\r\n\r\n            }\r\n            swaptoken_current_stage[swap_addr]= swaptoken_current_stage[swap_addr].add(pastStage);\r\n        }\r\n        updateSwaptokenInfo(swap_addr);\r\n    }\r\n\r\n    function createLiquidSwap(address _liquid_swaptoken_addr,\r\n        uint _swaptoken_weight,\r\n        uint _swaptoken_start_block) onlyOwner external {\r\n        require(swaptoken_last_reward_blocknum[_liquid_swaptoken_addr] == 0,\"Token exist\");\r\n        updateAllSwaptokenInfo();\r\n        swaptoken_last_reward_blocknum[_liquid_swaptoken_addr] = SafeMath.max(_swaptoken_start_block,block.number);\r\n        swaptoken_weight[_liquid_swaptoken_addr] = _swaptoken_weight;\r\n        all_weight = all_weight.add( _swaptoken_weight);\r\n        swaptoken_addrs.push(_liquid_swaptoken_addr);\r\n        swaptoken_current_stage[_liquid_swaptoken_addr] = 0;\r\n        emit LiquidSwapTokenCreated(_liquid_swaptoken_addr,swaptoken_weight[_liquid_swaptoken_addr],all_weight);\r\n    }\r\n    function updateSwaptokenInfo(address swap_addr) internal swapTokenExist(swap_addr) {\r\n\r\n        if(block.number > swaptoken_last_reward_blocknum[swap_addr]){\r\n            uint256 swap_token_share = swaptoken_allAmount[swap_addr];\r\n            if (swap_token_share > 0) {\r\n                uint256 reward = perblockreward .div(2 **(swaptoken_current_stage[swap_addr]));\r\n                uint256 blocks = block.number.sub(swaptoken_last_reward_blocknum[swap_addr]);\r\n                uint256 allReward = blocks.mul(reward).mul(swaptoken_weight[swap_addr]) / all_weight;\r\n                swaptoken_pershare_reward[swap_addr] = swaptoken_pershare_reward[swap_addr].add(allReward.mul(ACC_XKey_PRECISION) / swap_token_share);\r\n            }\r\n            swaptoken_last_reward_blocknum[swap_addr] = block.number;\r\n        }\r\n    }\r\n    function getAddrBalanceof(address _user)external view returns (uint){\r\n        return IERCMint20(erc_mintaddr).balanceOf(_user);\r\n    }\r\n    function changeMintErcAddr(address _erc_mintaddr) external onlyOwner {\r\n        erc_mintaddr = _erc_mintaddr;\r\n    }\r\n    function setStartBlocknum(uint _block_number) external onlyOwner{\r\n        require(startBlocknum == 0,\"has start \");\r\n        startBlocknum = _block_number;\r\n    }\r\n    function setStartBlockNumberTest()external onlyOwner{\r\n        require(startBlocknum == 0,\"has start \");\r\n        startBlocknum = block.number;\r\n    }\r\n\r\n    function tansferNFTIn(address from,address nft_address,uint256 tokenId) internal{\r\n        require(ISwapLPNFT(nft_address).ownerOf(tokenId) != address(this),\"this nft is blongs to xkeydao\");\r\n        ISwapLPNFT(nft_address).transferFrom(from,address(this),tokenId);\r\n        require(ISwapLPNFT(nft_address).ownerOf(tokenId) == address(this),\"dont get nft\");\r\n    }\r\n    function transferNFTout(address to,address nft_address,uint256 tokenId) internal {\r\n        require(ISwapLPNFT(nft_address).ownerOf(tokenId) == address(this),\"this nft isn`t blongs to xkeydao\");\r\n        ISwapLPNFT(nft_address).transferFrom(address(this),to,tokenId);\r\n        require(ISwapLPNFT(nft_address).ownerOf(tokenId) == to,\"dont get nft\");\r\n    }\r\n    function addSwaptokenShareSingle(uint256[] calldata _tokenIds)lock external{\r\n        require(swaptoken_had_mint < swaptoken_totalMint,\"All token has been mint\");\r\n        require(_tokenIds.length <= 5,\"token ids size should lower than 5\");\r\n        if(startBlocknum == 0){\r\n            startBlocknum = block.number;\r\n        }\r\n        address _swaptoken_addr = ISwapLPNFT(lpnft).getPair(_tokenIds[0]);\r\n        require(swaptoken_last_reward_blocknum[_swaptoken_addr] != 0,\"dont have this token ids\");\r\n        uint256 realAmount = 0;\r\n        calcAllStagePrice(_swaptoken_addr);\r\n        for(uint i = 0;i < _tokenIds.length;i++){\r\n            require(ISwapLPNFT(lpnft).getPair(_tokenIds[i]) == _swaptoken_addr,\"xkeydao:tokenids arent same pair\");\r\n            tansferNFTIn(msg.sender,lpnft,_tokenIds[i]);\r\n            realAmount = realAmount.add(IXkeyPokerPower(xkeyPokerPower).stake(msg.sender, IPairERC20(_swaptoken_addr),_tokenIds[i]));\r\n        }\r\n\r\n        //address _swaptoken_addr = ISwapLPNFT(lpnft).getPair(_tokenId);\r\n        //tansferNFTIn(msg.sender,IXKeyPair(_swaptoken_addr).nft(),_tokenId);\r\n        //uint256 swapAmountBeforeTrans = IERC20(_swaptoken_addr).balanceOf(address(this));\r\n        //IERC20(_swaptoken_addr).transferFrom(msg.sender,address(this),_swaptoken_amount);\r\n        //uint256 swapAmountAfterTrans = IERC20(_swaptoken_addr).balanceOf(address(this));\r\n        //uint256 realAmount = swapAmountAfterTrans.sub(swapAmountBeforeTrans);\r\n\r\n\r\n        int256 user_rewardDebt = int256(swaptoken_user_share[_swaptoken_addr][msg.sender].mul(swaptoken_pershare_reward[_swaptoken_addr])/ACC_XKey_PRECISION);\r\n        uint256 user_reward = user_rewardDebt.sub( swaptoken_user_rewardDebt[_swaptoken_addr][msg.sender]).toUInt256();\r\n\r\n        uint real_reward = user_reward;\r\n        if(swaptoken_had_mint.add(user_reward) > swaptoken_totalMint){\r\n            real_reward = swaptoken_totalMint.sub(swaptoken_had_mint);\r\n        }\r\n        if (real_reward != 0) {\r\n            swaptoken_had_mint = swaptoken_had_mint.add(real_reward);\r\n            swaptoken_hadmint[_swaptoken_addr] = swaptoken_hadmint[_swaptoken_addr].add(real_reward);\r\n            IERCMint20(erc_mintaddr).minerMint(msg.sender,real_reward);\r\n        }\r\n        swaptoken_user_share[_swaptoken_addr][msg.sender]= swaptoken_user_share[_swaptoken_addr][msg.sender].add(realAmount);\r\n        swaptoken_user_rewardDebt[_swaptoken_addr][msg.sender] = user_rewardDebt.add(int256(realAmount.mul(swaptoken_pershare_reward[_swaptoken_addr])/ACC_XKey_PRECISION));\r\n        swaptoken_allAmount[_swaptoken_addr] = swaptoken_allAmount[_swaptoken_addr].add(realAmount);\r\n\r\n    }\r\n    function addSwaptokenShareCombine(uint256[5] calldata _tokenIds)lock external{\r\n        require(startBlocknum !=0,\"combine mint is not start because startBlockNum not set\");\r\n        require(block.number > startBlocknum + composeStartBlockNum,\"combine mint is not start\");\r\n        require(swaptoken_had_mint < swaptoken_totalMint,\"All token has been mint\");\r\n        /*\r\n        if(startBlocknum == 0){\r\n            startBlocknum = block.number;\r\n        }\r\n        */\r\n        address _swaptoken_addr = ISwapLPNFT(lpnft).getPair(_tokenIds[0]);\r\n        require(swaptoken_last_reward_blocknum[_swaptoken_addr] != 0,\"dont have this token ids\");\r\n        calcAllStagePrice(_swaptoken_addr);\r\n        for(uint i = 0;i < _tokenIds.length;i++){\r\n            require(ISwapLPNFT(lpnft).getPair(_tokenIds[i]) == _swaptoken_addr,\"xkeydao:tokenids arent same pair\");\r\n            tansferNFTIn(msg.sender,lpnft,_tokenIds[i]);\r\n        }\r\n\r\n        /*\r\n        uint256 swapAmountBeforeTrans = IERC20(_swaptoken_addr).balanceOf(address(this));\r\n        IERC20(_swaptoken_addr).transferFrom(msg.sender,address(this),_swaptoken_amount);\r\n        uint256 swapAmountAfterTrans = IERC20(_swaptoken_addr).balanceOf(address(this));\r\n        */\r\n        uint256 realAmount = IXkeyPokerPower(xkeyPokerPower).stakeComposite(msg.sender, IPairERC20(_swaptoken_addr),_tokenIds);\r\n\r\n        int256 user_rewardDebt = int256(swaptoken_user_share[_swaptoken_addr][msg.sender].mul(swaptoken_pershare_reward[_swaptoken_addr])/ACC_XKey_PRECISION);\r\n        uint256 user_reward = user_rewardDebt.sub( swaptoken_user_rewardDebt[_swaptoken_addr][msg.sender]).toUInt256();\r\n\r\n        uint real_reward = user_reward;\r\n        if(swaptoken_had_mint.add(user_reward) > swaptoken_totalMint){\r\n            real_reward = swaptoken_totalMint.sub(swaptoken_had_mint);\r\n        }\r\n        if (real_reward != 0) {\r\n            swaptoken_had_mint = swaptoken_had_mint.add(real_reward);\r\n            swaptoken_hadmint[_swaptoken_addr] = swaptoken_hadmint[_swaptoken_addr].add(real_reward);\r\n            IERCMint20(erc_mintaddr).minerMint(msg.sender,real_reward);\r\n        }\r\n        swaptoken_user_share[_swaptoken_addr][msg.sender]= swaptoken_user_share[_swaptoken_addr][msg.sender].add(realAmount);\r\n        swaptoken_user_rewardDebt[_swaptoken_addr][msg.sender] = user_rewardDebt.add(int256(realAmount.mul(swaptoken_pershare_reward[_swaptoken_addr])/ACC_XKey_PRECISION));\r\n        swaptoken_allAmount[_swaptoken_addr] = swaptoken_allAmount[_swaptoken_addr].add(realAmount);\r\n    }\r\n    function removeSwaptokenShareSingle(uint256[] calldata _tokenIds) lock external{\r\n        require(_tokenIds.length <= 5,\"token ids size should lower than 5\");\r\n        address _swaptoken_addr = ISwapLPNFT(lpnft).getPair(_tokenIds[0]);\r\n        uint256 _swaptoken_amount = 0;\r\n        for(uint i = 0;i < _tokenIds.length;i++){\r\n            require(ISwapLPNFT(lpnft).getPair(_tokenIds[i]) == _swaptoken_addr,\"this token id was not same pair\");\r\n            _swaptoken_amount = _swaptoken_amount.add( IXkeyPokerPower(xkeyPokerPower).unstake(msg.sender, _tokenIds[i]));\r\n        }\r\n        //address _swaptoken_addr = ISwapLPNFT(lpnft).getPair(_tokenId);\r\n        //uint256 _swaptoken_amount = IXkeyPokerPower(xkeyPokerPower).unstake(msg.sender, _tokenId);\r\n        require(swaptoken_user_share[_swaptoken_addr][msg.sender] >= _swaptoken_amount,\"Dont Have Enough token to remove\");\r\n        calcAllStagePrice(_swaptoken_addr);\r\n        int256 user_rewardDebt = int256(swaptoken_user_share[_swaptoken_addr][msg.sender].mul(swaptoken_pershare_reward[_swaptoken_addr])/ACC_XKey_PRECISION);\r\n        uint256 user_reward = user_rewardDebt.sub( swaptoken_user_rewardDebt[_swaptoken_addr][msg.sender]).toUInt256();\r\n\r\n        uint real_reward = user_reward;\r\n        if(swaptoken_had_mint.add(user_reward) > swaptoken_totalMint){\r\n            real_reward = swaptoken_totalMint.sub(swaptoken_had_mint);\r\n        }\r\n\r\n        if (real_reward != 0) {\r\n            swaptoken_had_mint = swaptoken_had_mint.add(real_reward);\r\n            swaptoken_hadmint[_swaptoken_addr] = swaptoken_hadmint[_swaptoken_addr].add(real_reward);\r\n            IERCMint20(erc_mintaddr).minerMint(msg.sender,real_reward);\r\n        }\r\n        swaptoken_user_rewardDebt[_swaptoken_addr][msg.sender] = user_rewardDebt.sub(int256(_swaptoken_amount.mul(swaptoken_pershare_reward[_swaptoken_addr])/ACC_XKey_PRECISION));\r\n        swaptoken_user_share[_swaptoken_addr][msg.sender]= swaptoken_user_share[_swaptoken_addr][msg.sender].sub(_swaptoken_amount);\r\n        for(uint i = 0;i < _tokenIds.length;i++){\r\n            transferNFTout(msg.sender,IXKeyPair(_swaptoken_addr).nft(),_tokenIds[i]);\r\n        }\r\n\r\n        swaptoken_allAmount[_swaptoken_addr] = swaptoken_allAmount[_swaptoken_addr].sub(_swaptoken_amount);\r\n    }\r\n    function removeSwaptokenShareCombine(uint256 index) lock external{\r\n        uint256[5] memory tokenIds = IXkeyPokerPower(xkeyPokerPower).getTokenIdsByIndex(msg.sender, index);\r\n        address _swaptoken_addr = ISwapLPNFT(lpnft).getPair(tokenIds[0]);\r\n        for(uint i = 0;i < tokenIds.length;i++){\r\n            require(ISwapLPNFT(lpnft).getPair(tokenIds[i]) == _swaptoken_addr,\"this token id was not same pair\");\r\n        }\r\n\r\n        require(swaptoken_last_reward_blocknum[_swaptoken_addr] != 0,\"dont have this token\");\r\n        uint256 _swaptoken_amount = IXkeyPokerPower(xkeyPokerPower).unstakeComposite(msg.sender, index);\r\n        require(swaptoken_user_share[_swaptoken_addr][msg.sender] >= _swaptoken_amount,\"Dont Have Enough token to remove\");\r\n        calcAllStagePrice(_swaptoken_addr);\r\n        int256 user_rewardDebt = int256(swaptoken_user_share[_swaptoken_addr][msg.sender].mul(swaptoken_pershare_reward[_swaptoken_addr])/ACC_XKey_PRECISION);\r\n        uint256 user_reward = user_rewardDebt.sub( swaptoken_user_rewardDebt[_swaptoken_addr][msg.sender]).toUInt256();\r\n\r\n        uint real_reward = user_reward;\r\n        if(swaptoken_had_mint.add(user_reward) > swaptoken_totalMint){\r\n            real_reward = swaptoken_totalMint.sub(swaptoken_had_mint);\r\n        }\r\n        if (real_reward != 0) {\r\n            swaptoken_had_mint = swaptoken_had_mint.add(real_reward);\r\n            swaptoken_hadmint[_swaptoken_addr] = swaptoken_hadmint[_swaptoken_addr].add(real_reward);\r\n            IERCMint20(erc_mintaddr).minerMint(msg.sender,real_reward);\r\n        }\r\n        swaptoken_user_rewardDebt[_swaptoken_addr][msg.sender] = user_rewardDebt.sub(int256(_swaptoken_amount.mul(swaptoken_pershare_reward[_swaptoken_addr])/ACC_XKey_PRECISION));\r\n        swaptoken_user_share[_swaptoken_addr][msg.sender]= swaptoken_user_share[_swaptoken_addr][msg.sender].sub(_swaptoken_amount);\r\n\r\n        for(uint i = 0;i < 5;i++){\r\n            transferNFTout(msg.sender,lpnft,tokenIds[i]);\r\n        }\r\n        swaptoken_allAmount[_swaptoken_addr]= swaptoken_allAmount[_swaptoken_addr].sub(_swaptoken_amount);\r\n    }\r\n    function getSwaptokenReward(address _swaptoken_addr) swapTokenExist(_swaptoken_addr) lock external{\r\n\r\n        calcAllStagePrice(_swaptoken_addr);\r\n        int256 user_rewardDebt = int256(swaptoken_user_share[_swaptoken_addr][msg.sender].mul(swaptoken_pershare_reward[_swaptoken_addr])/ACC_XKey_PRECISION);\r\n        require(user_rewardDebt >= swaptoken_user_rewardDebt[_swaptoken_addr][msg.sender],\"How 2??\");\r\n        uint256 user_reward = user_rewardDebt.sub( swaptoken_user_rewardDebt[_swaptoken_addr][msg.sender]).toUInt256();\r\n        swaptoken_user_rewardDebt[_swaptoken_addr][msg.sender] = user_rewardDebt;\r\n        uint real_reward = user_reward;\r\n        if(swaptoken_had_mint.add(user_reward) > swaptoken_totalMint){\r\n            real_reward = swaptoken_totalMint.sub(swaptoken_had_mint);\r\n        }\r\n        if (real_reward != 0) {\r\n            swaptoken_had_mint = swaptoken_had_mint.add(real_reward);\r\n            swaptoken_hadmint[_swaptoken_addr] = swaptoken_hadmint[_swaptoken_addr].add(real_reward);\r\n            IERCMint20(erc_mintaddr).minerMint(msg.sender,real_reward);\r\n        }\r\n    }\r\n    function prereward(address _swaptoken_addr) internal view returns (uint256){\r\n        uint _swaptoken_pershare_reward = swaptoken_pershare_reward[_swaptoken_addr];\r\n        uint256 swap_token_share = swaptoken_allAmount[_swaptoken_addr];\r\n        uint256 last_blocknum_temp = swaptoken_last_reward_blocknum[_swaptoken_addr];\r\n        uint256 current_stage_Temp = swaptoken_current_stage[_swaptoken_addr];\r\n        if(block.number > swaptoken_last_reward_blocknum[_swaptoken_addr] && startBlocknum != 0){\r\n            uint256 current_start_number = startBlocknum.add(swaptoken_current_stage[_swaptoken_addr].mul(priedLength));\r\n            uint256 pastStage = 0;\r\n            if(block.number > current_start_number){\r\n                uint256 blockInv = block.number.sub(current_start_number);\r\n                pastStage = SafeMath.min(blockInv.div(priedLength),halfroundTimes);\r\n                if(swaptoken_current_stage[_swaptoken_addr].add(pastStage) > halfroundTimes){\r\n                    pastStage = halfroundTimes.sub(swaptoken_current_stage[_swaptoken_addr]);\r\n                }\r\n            }\r\n            uint256 prevReward = perblockreward.div(2**(swaptoken_current_stage[_swaptoken_addr]));\r\n            for(uint i = 1;i <= pastStage;i++){\r\n                if(last_blocknum_temp > current_start_number.add(i.mul(priedLength))){\r\n                    prevReward= perblockreward.div((2**(i.add(swaptoken_current_stage[_swaptoken_addr]))));\r\n                    continue;\r\n                }\r\n                uint blocksub = current_start_number.add(i.mul(priedLength)).sub(last_blocknum_temp);\r\n                //uint reward = perblockreward /(2 **(i.add(swaptoken_current_stage[_swaptoken_addr])));\r\n                if (swap_token_share > 0) {\r\n                    //uint256 blocks = blocknum.sub(swaptoken_last_reward_blocknum[swap_addr]);\r\n                    uint256 allReward = blocksub.mul(prevReward).mul(swaptoken_weight[_swaptoken_addr]) / all_weight;\r\n                    _swaptoken_pershare_reward = _swaptoken_pershare_reward.add(allReward.mul(ACC_XKey_PRECISION) / swap_token_share);\r\n                }\r\n                prevReward= perblockreward.div((2**(i.add(swaptoken_current_stage[_swaptoken_addr]))));\r\n                last_blocknum_temp = current_start_number.add(i.mul(priedLength));\r\n                current_stage_Temp = swaptoken_current_stage[_swaptoken_addr].add(pastStage);\r\n            }\r\n        }\r\n        if(block.number > swaptoken_last_reward_blocknum[_swaptoken_addr]){\r\n\r\n            if (swap_token_share > 0) {\r\n                uint256 reward = perblockreward /(2 **(current_stage_Temp));\r\n                uint256 blocks = block.number.sub(last_blocknum_temp);\r\n                uint256 allReward = blocks.mul(reward).mul(swaptoken_weight[_swaptoken_addr]) / all_weight;\r\n                _swaptoken_pershare_reward = _swaptoken_pershare_reward.add(allReward.mul(ACC_XKey_PRECISION) / swap_token_share);\r\n            }\r\n        }\r\n        return _swaptoken_pershare_reward;\r\n    }\r\n    function predReward(address _swaptoken_addr) public swapTokenExist(_swaptoken_addr) view returns (uint){\r\n        uint256 _swaptoken_pershare_reward = prereward(_swaptoken_addr);\r\n        int256 user_rewardDebt = int256(swaptoken_user_share[_swaptoken_addr][msg.sender].mul(_swaptoken_pershare_reward)/ACC_XKey_PRECISION);\r\n        uint256 user_reward = user_rewardDebt.sub( swaptoken_user_rewardDebt[_swaptoken_addr][msg.sender]).toUInt256();\r\n        uint real_reward = user_reward;\r\n        if(swaptoken_had_mint.add(user_reward) > swaptoken_totalMint){\r\n            real_reward = swaptoken_totalMint.sub(swaptoken_had_mint);\r\n        }\r\n        return real_reward;\r\n    }\r\n    function changeSwaptokenWeight(address _swaptoken_addr,uint new_weight) external onlyOwner swapTokenExist(_swaptoken_addr){\r\n        updateAllSwaptokenInfo();\r\n        all_weight = all_weight.sub(swaptoken_weight[_swaptoken_addr]).add(new_weight);\r\n        swaptoken_weight[_swaptoken_addr] = new_weight;\r\n    }\r\n    function getCurrentStagePrice()public view returns (uint256){\r\n        if(startBlocknum == 0){\r\n            return perblockreward;\r\n        }\r\n        uint256 blockInv = block.number.sub(startBlocknum);\r\n        uint256 stageNum = SafeMath.min(blockInv.div(priedLength),halfroundTimes);\r\n\r\n        return perblockreward.div(2 **(stageNum));\r\n    }\r\n    function getUserShare(address _swaptoken_addr,address _user)public view returns (uint){\r\n        return swaptoken_user_share[_swaptoken_addr][_user];\r\n    }\r\n}\r\n",
  "sourcePath": "E:/codingproject/xkey/contracts/XkeyDao.sol",
  "compiler": {
    "name": "solc",
    "version": "0.5.16+commit.9c3226ce.Emscripten.clang"
  },
  "schemaVersion": "3.4.0",
  "updatedAt": "2021-06-15T09:25:31.272Z",
  "devdoc": {
    "methods": {
      "isOwner()": {
        "details": "Returns true if the caller is the current owner."
      },
      "owner()": {
        "details": "Returns the address of the current owner."
      },
      "renounceOwnership()": {
        "details": "Leaves the contract without owner. It will not be possible to call `onlyOwner` functions anymore. Can only be called by the current owner.     * NOTE: Renouncing ownership will leave the contract without an owner, thereby removing any functionality that is only available to the owner."
      },
      "transferOwnership(address)": {
        "details": "Transfers ownership of the contract to a new account (`newOwner`). Can only be called by the current owner."
      }
    }
  },
  "userdoc": {
    "methods": {}
  }
}