{
  "contractName": "XkeyDao",
  "abi": [
    {
      "inputs": [
        {
          "internalType": "address",
          "name": "_erc_mintaddr",
          "type": "address"
        },
        {
          "internalType": "address",
          "name": "_xkeyPokerPower",
          "type": "address"
        },
        {
          "internalType": "address",
          "name": "_lpnft",
          "type": "address"
        },
        {
          "internalType": "uint256",
          "name": "_perblockreward",
          "type": "uint256"
        },
        {
          "internalType": "uint256",
          "name": "_priedLength",
          "type": "uint256"
        }
      ],
      "payable": false,
      "stateMutability": "nonpayable",
      "type": "constructor"
    },
    {
      "anonymous": false,
      "inputs": [
        {
          "indexed": false,
          "internalType": "address",
          "name": "",
          "type": "address"
        },
        {
          "indexed": false,
          "internalType": "uint256",
          "name": "",
          "type": "uint256"
        },
        {
          "indexed": false,
          "internalType": "uint256",
          "name": "",
          "type": "uint256"
        }
      ],
      "name": "LiquidSwapTokenCreated",
      "type": "event"
    },
    {
      "constant": true,
      "inputs": [],
      "name": "all_weight",
      "outputs": [
        {
          "internalType": "uint256",
          "name": "",
          "type": "uint256"
        }
      ],
      "payable": false,
      "stateMutability": "view",
      "type": "function"
    },
    {
      "constant": true,
      "inputs": [],
      "name": "erc_mintaddr",
      "outputs": [
        {
          "internalType": "address",
          "name": "",
          "type": "address"
        }
      ],
      "payable": false,
      "stateMutability": "view",
      "type": "function"
    },
    {
      "constant": true,
      "inputs": [],
      "name": "halfroundTimes",
      "outputs": [
        {
          "internalType": "uint256",
          "name": "",
          "type": "uint256"
        }
      ],
      "payable": false,
      "stateMutability": "view",
      "type": "function"
    },
    {
      "constant": true,
      "inputs": [],
      "name": "lpnft",
      "outputs": [
        {
          "internalType": "address",
          "name": "",
          "type": "address"
        }
      ],
      "payable": false,
      "stateMutability": "view",
      "type": "function"
    },
    {
      "constant": true,
      "inputs": [],
      "name": "multipleNumber",
      "outputs": [
        {
          "internalType": "uint256",
          "name": "",
          "type": "uint256"
        }
      ],
      "payable": false,
      "stateMutability": "view",
      "type": "function"
    },
    {
      "constant": true,
      "inputs": [],
      "name": "perblockreward",
      "outputs": [
        {
          "internalType": "uint256",
          "name": "",
          "type": "uint256"
        }
      ],
      "payable": false,
      "stateMutability": "view",
      "type": "function"
    },
    {
      "constant": true,
      "inputs": [],
      "name": "priedLength",
      "outputs": [
        {
          "internalType": "uint256",
          "name": "",
          "type": "uint256"
        }
      ],
      "payable": false,
      "stateMutability": "view",
      "type": "function"
    },
    {
      "constant": true,
      "inputs": [],
      "name": "startBlocknum",
      "outputs": [
        {
          "internalType": "uint256",
          "name": "",
          "type": "uint256"
        }
      ],
      "payable": false,
      "stateMutability": "view",
      "type": "function"
    },
    {
      "constant": true,
      "inputs": [
        {
          "internalType": "uint256",
          "name": "",
          "type": "uint256"
        }
      ],
      "name": "swaptoken_addrs",
      "outputs": [
        {
          "internalType": "address",
          "name": "",
          "type": "address"
        }
      ],
      "payable": false,
      "stateMutability": "view",
      "type": "function"
    },
    {
      "constant": true,
      "inputs": [
        {
          "internalType": "address",
          "name": "",
          "type": "address"
        }
      ],
      "name": "swaptoken_allAmount",
      "outputs": [
        {
          "internalType": "uint256",
          "name": "",
          "type": "uint256"
        }
      ],
      "payable": false,
      "stateMutability": "view",
      "type": "function"
    },
    {
      "constant": true,
      "inputs": [
        {
          "internalType": "address",
          "name": "",
          "type": "address"
        }
      ],
      "name": "swaptoken_current_stage",
      "outputs": [
        {
          "internalType": "uint256",
          "name": "",
          "type": "uint256"
        }
      ],
      "payable": false,
      "stateMutability": "view",
      "type": "function"
    },
    {
      "constant": true,
      "inputs": [],
      "name": "swaptoken_had_mint",
      "outputs": [
        {
          "internalType": "uint256",
          "name": "",
          "type": "uint256"
        }
      ],
      "payable": false,
      "stateMutability": "view",
      "type": "function"
    },
    {
      "constant": true,
      "inputs": [
        {
          "internalType": "address",
          "name": "",
          "type": "address"
        }
      ],
      "name": "swaptoken_last_reward_blocknum",
      "outputs": [
        {
          "internalType": "uint256",
          "name": "",
          "type": "uint256"
        }
      ],
      "payable": false,
      "stateMutability": "view",
      "type": "function"
    },
    {
      "constant": true,
      "inputs": [
        {
          "internalType": "address",
          "name": "",
          "type": "address"
        }
      ],
      "name": "swaptoken_pershare_reward",
      "outputs": [
        {
          "internalType": "uint256",
          "name": "",
          "type": "uint256"
        }
      ],
      "payable": false,
      "stateMutability": "view",
      "type": "function"
    },
    {
      "constant": true,
      "inputs": [],
      "name": "swaptoken_totalMint",
      "outputs": [
        {
          "internalType": "uint256",
          "name": "",
          "type": "uint256"
        }
      ],
      "payable": false,
      "stateMutability": "view",
      "type": "function"
    },
    {
      "constant": true,
      "inputs": [
        {
          "internalType": "address",
          "name": "",
          "type": "address"
        }
      ],
      "name": "swaptoken_weight",
      "outputs": [
        {
          "internalType": "uint256",
          "name": "",
          "type": "uint256"
        }
      ],
      "payable": false,
      "stateMutability": "view",
      "type": "function"
    },
    {
      "constant": true,
      "inputs": [],
      "name": "xkeyPokerPower",
      "outputs": [
        {
          "internalType": "address",
          "name": "",
          "type": "address"
        }
      ],
      "payable": false,
      "stateMutability": "view",
      "type": "function"
    },
    {
      "constant": false,
      "inputs": [
        {
          "internalType": "address",
          "name": "_liquid_swaptoken_addr",
          "type": "address"
        },
        {
          "internalType": "uint256",
          "name": "_swaptoken_weight",
          "type": "uint256"
        },
        {
          "internalType": "uint256",
          "name": "_swaptoken_start_block",
          "type": "uint256"
        }
      ],
      "name": "createLiquidSwap",
      "outputs": [],
      "payable": false,
      "stateMutability": "nonpayable",
      "type": "function"
    },
    {
      "constant": true,
      "inputs": [
        {
          "internalType": "address",
          "name": "_user",
          "type": "address"
        }
      ],
      "name": "getAddrBalanceof",
      "outputs": [
        {
          "internalType": "uint256",
          "name": "",
          "type": "uint256"
        }
      ],
      "payable": false,
      "stateMutability": "view",
      "type": "function"
    },
    {
      "constant": false,
      "inputs": [
        {
          "internalType": "address",
          "name": "_erc_mintaddr",
          "type": "address"
        }
      ],
      "name": "changeMintErcAddr",
      "outputs": [],
      "payable": false,
      "stateMutability": "nonpayable",
      "type": "function"
    },
    {
      "constant": false,
      "inputs": [
        {
          "internalType": "uint256",
          "name": "_block_number",
          "type": "uint256"
        }
      ],
      "name": "setStartBlocknum",
      "outputs": [],
      "payable": false,
      "stateMutability": "nonpayable",
      "type": "function"
    },
    {
      "constant": false,
      "inputs": [
        {
          "internalType": "uint256",
          "name": "_tokenId",
          "type": "uint256"
        }
      ],
      "name": "addSwaptokenShareSingle",
      "outputs": [],
      "payable": false,
      "stateMutability": "nonpayable",
      "type": "function"
    },
    {
      "constant": false,
      "inputs": [
        {
          "internalType": "uint256[5]",
          "name": "_tokenIds",
          "type": "uint256[5]"
        }
      ],
      "name": "addSwaptokenShareCombine",
      "outputs": [],
      "payable": false,
      "stateMutability": "nonpayable",
      "type": "function"
    },
    {
      "constant": false,
      "inputs": [
        {
          "internalType": "uint256",
          "name": "_tokenId",
          "type": "uint256"
        }
      ],
      "name": "removeSwaptokenShareSingle",
      "outputs": [],
      "payable": false,
      "stateMutability": "nonpayable",
      "type": "function"
    },
    {
      "constant": false,
      "inputs": [
        {
          "internalType": "uint256",
          "name": "index",
          "type": "uint256"
        }
      ],
      "name": "removeSwaptokenShareCombine",
      "outputs": [],
      "payable": false,
      "stateMutability": "nonpayable",
      "type": "function"
    },
    {
      "constant": false,
      "inputs": [
        {
          "internalType": "address",
          "name": "_swaptoken_addr",
          "type": "address"
        }
      ],
      "name": "getSwaptokenReward",
      "outputs": [],
      "payable": false,
      "stateMutability": "nonpayable",
      "type": "function"
    },
    {
      "constant": true,
      "inputs": [
        {
          "internalType": "address",
          "name": "_swaptoken_addr",
          "type": "address"
        }
      ],
      "name": "predReward",
      "outputs": [
        {
          "internalType": "uint256",
          "name": "",
          "type": "uint256"
        }
      ],
      "payable": false,
      "stateMutability": "view",
      "type": "function"
    },
    {
      "constant": false,
      "inputs": [
        {
          "internalType": "address",
          "name": "_swaptoken_addr",
          "type": "address"
        },
        {
          "internalType": "uint256",
          "name": "new_weight",
          "type": "uint256"
        }
      ],
      "name": "changeSwaptokenWeight",
      "outputs": [],
      "payable": false,
      "stateMutability": "nonpayable",
      "type": "function"
    },
    {
      "constant": true,
      "inputs": [],
      "name": "getOwner",
      "outputs": [
        {
          "internalType": "address",
          "name": "",
          "type": "address"
        }
      ],
      "payable": false,
      "stateMutability": "view",
      "type": "function"
    },
    {
      "constant": true,
      "inputs": [],
      "name": "getCurrentStagePrice",
      "outputs": [
        {
          "internalType": "uint256",
          "name": "",
          "type": "uint256"
        }
      ],
      "payable": false,
      "stateMutability": "view",
      "type": "function"
    },
    {
      "constant": true,
      "inputs": [
        {
          "internalType": "address",
          "name": "_swaptoken_addr",
          "type": "address"
        },
        {
          "internalType": "address",
          "name": "_user",
          "type": "address"
        }
      ],
      "name": "getUserShare",
      "outputs": [
        {
          "internalType": "uint256",
          "name": "",
          "type": "uint256"
        }
      ],
      "payable": false,
      "stateMutability": "view",
      "type": "function"
    }
  ],
  "bytecode": "0x60806040526007600f55600260105560016013553480156200002057600080fd5b50604051620066b0380380620066b0833981810160405260a08110156200004657600080fd5b81019080805190602001909291908051906020019092919080519060200190929190805190602001909291908051906020019092919050505033600c60006101000a81548173ffffffffffffffffffffffffffffffffffffffff021916908373ffffffffffffffffffffffffffffffffffffffff16021790555084600a60006101000a81548173ffffffffffffffffffffffffffffffffffffffff021916908373ffffffffffffffffffffffffffffffffffffffff16021790555062000123670de0b6b3a764000083620001bd60201b62004d4e1790919060201c565b60088190555083600d60006101000a81548173ffffffffffffffffffffffffffffffffffffffff021916908373ffffffffffffffffffffffffffffffffffffffff1602179055508060118190555082600e60006101000a81548173ffffffffffffffffffffffffffffffffffffffff021916908373ffffffffffffffffffffffffffffffffffffffff160217905550505050505062000248565b600080831415620001d2576000905062000242565b6000828402905082848281620001e457fe5b04146200023d576040517f08c379a00000000000000000000000000000000000000000000000000000000081526004018080602001828103825260218152602001806200668f6021913960400191505060405180910390fd5b809150505b92915050565b61643780620002586000396000f3fe608060405234801561001057600080fd5b50600436106101e55760003560e01c80637bd049d71161010f578063b2bec770116100a2578063d980c5d011610071578063d980c5d0146108b0578063df74bf5c146108de578063e68568ca1461090c578063ee5a164e1461092a576101e5565b8063b2bec770146107c4578063b9ec9626146107e2578063cc9524c31461083a578063d6fcbf7a14610858576101e5565b80638e80d549116100de5780638e80d549146107025780638f7f244a1461072057806390430fb91461074e578063a970995a1461076c576101e5565b80637bd049d7146105bc578063806d474a146106065780638860210c14610674578063893d20e8146106b8576101e5565b80633c3e4ff5116101875780636509d161116101565780636509d1611461049057806368f3dd0f146104e857806369e7ee201461051657806377054ef014610564576101e5565b80633c3e4ff5146103ec578063449ea4a61461040a5780634b1471a7146104545780634e85d8bc14610472576101e5565b80630b78a4c5116101c35780630b78a4c5146102805780630e7db20d146102c4578063144fcca41461031c5780631bf840c114610374576101e5565b8063041f6d82146101ea57806304d65b74146102185780630860ec2914610262575b600080fd5b6102166004803603602081101561020057600080fd5b8101908080359060200190929190505050610982565b005b6102206113f0565b604051808273ffffffffffffffffffffffffffffffffffffffff1673ffffffffffffffffffffffffffffffffffffffff16815260200191505060405180910390f35b61026a611416565b6040518082815260200191505060405180910390f35b6102c26004803603602081101561029657600080fd5b81019080803573ffffffffffffffffffffffffffffffffffffffff16906020019092919050505061141c565b005b61031a600480360360608110156102da57600080fd5b81019080803573ffffffffffffffffffffffffffffffffffffffff1690602001909291908035906020019092919080359060200190929190505050611999565b005b61035e6004803603602081101561033257600080fd5b81019080803573ffffffffffffffffffffffffffffffffffffffff169060200190929190505050611cbe565b6040518082815260200191505060405180910390f35b6103d66004803603604081101561038a57600080fd5b81019080803573ffffffffffffffffffffffffffffffffffffffff169060200190929190803573ffffffffffffffffffffffffffffffffffffffff169060200190929190505050611cd6565b6040518082815260200191505060405180910390f35b6103f4611d5d565b6040518082815260200191505060405180910390f35b610412611d63565b604051808273ffffffffffffffffffffffffffffffffffffffff1673ffffffffffffffffffffffffffffffffffffffff16815260200191505060405180910390f35b61045c611d89565b6040518082815260200191505060405180910390f35b61047a611d8f565b6040518082815260200191505060405180910390f35b6104d2600480360360208110156104a657600080fd5b81019080803573ffffffffffffffffffffffffffffffffffffffff169060200190929190505050611d95565b6040518082815260200191505060405180910390f35b610514600480360360208110156104fe57600080fd5b8101908080359060200190929190505050611dad565b005b6105626004803603604081101561052c57600080fd5b81019080803573ffffffffffffffffffffffffffffffffffffffff169060200190929190803590602001909291905050506129a3565b005b6105a66004803603602081101561057a57600080fd5b81019080803573ffffffffffffffffffffffffffffffffffffffff169060200190929190505050612b7f565b6040518082815260200191505060405180910390f35b6105c4612b97565b604051808273ffffffffffffffffffffffffffffffffffffffff1673ffffffffffffffffffffffffffffffffffffffff16815260200191505060405180910390f35b6106326004803603602081101561061c57600080fd5b8101908080359060200190929190505050612bbd565b604051808273ffffffffffffffffffffffffffffffffffffffff1673ffffffffffffffffffffffffffffffffffffffff16815260200191505060405180910390f35b6106b66004803603602081101561068a57600080fd5b81019080803573ffffffffffffffffffffffffffffffffffffffff169060200190929190505050612bf9565b005b6106c0612c97565b604051808273ffffffffffffffffffffffffffffffffffffffff1673ffffffffffffffffffffffffffffffffffffffff16815260200191505060405180910390f35b61070a612cc1565b6040518082815260200191505060405180910390f35b61074c6004803603602081101561073657600080fd5b8101908080359060200190929190505050612d34565b005b610756613778565b6040518082815260200191505060405180910390f35b6107ae6004803603602081101561078257600080fd5b81019080803573ffffffffffffffffffffffffffffffffffffffff169060200190929190505050613786565b6040518082815260200191505060405180910390f35b6107cc61379e565b6040518082815260200191505060405180910390f35b610824600480360360208110156107f857600080fd5b81019080803573ffffffffffffffffffffffffffffffffffffffff1690602001909291905050506137a4565b6040518082815260200191505060405180910390f35b610842613a0e565b6040518082815260200191505060405180910390f35b61089a6004803603602081101561086e57600080fd5b81019080803573ffffffffffffffffffffffffffffffffffffffff169060200190929190505050613a14565b6040518082815260200191505060405180910390f35b6108dc600480360360a08110156108c657600080fd5b810190808060a001909192919290505050613a2c565b005b61090a600480360360208110156108f457600080fd5b810190808035906020019092919050505061450d565b005b6109146145e9565b6040518082815260200191505060405180910390f35b61096c6004803603602081101561094057600080fd5b81019080803573ffffffffffffffffffffffffffffffffffffffff1690602001909291905050506145ef565b6040518082815260200191505060405180910390f35b8060008090506000600e60009054906101000a900473ffffffffffffffffffffffffffffffffffffffff1673ffffffffffffffffffffffffffffffffffffffff1663bdf391cc846040518263ffffffff1660e01b81526004018082815260200191505060206040518083038186803b1580156109fd57600080fd5b505afa158015610a11573d6000803e3d6000fd5b505050506040513d6020811015610a2757600080fd5b8101908080519060200190929190505050905060008060008373ffffffffffffffffffffffffffffffffffffffff1673ffffffffffffffffffffffffffffffffffffffff1681526020019081526020016000205414610a8557600191505b81610af8576040517f08c379a00000000000000000000000000000000000000000000000000000000081526004018080602001828103825260188152602001807f446f6e60742068617665207468697320746f6b656e206964000000000000000081525060200191505060405180910390fd5b600160135414610b70576040517f08c379a000000000000000000000000000000000000000000000000000000000815260040180806020018281038252600e8152602001807f586b6579206973206c6f636b656400000000000000000000000000000000000081525060200191505060405180910390fd5b60006013819055506000600e60009054906101000a900473ffffffffffffffffffffffffffffffffffffffff1673ffffffffffffffffffffffffffffffffffffffff1663bdf391cc866040518263ffffffff1660e01b81526004018082815260200191505060206040518083038186803b158015610bed57600080fd5b505afa158015610c01573d6000803e3d6000fd5b505050506040513d6020811015610c1757600080fd5b810190808051906020019092919050505090506000600d60009054906101000a900473ffffffffffffffffffffffffffffffffffffffff1673ffffffffffffffffffffffffffffffffffffffff1663c2a672e033886040518363ffffffff1660e01b8152600401808373ffffffffffffffffffffffffffffffffffffffff1673ffffffffffffffffffffffffffffffffffffffff16815260200182815260200192505050602060405180830381600087803b158015610cd557600080fd5b505af1158015610ce9573d6000803e3d6000fd5b505050506040513d6020811015610cff57600080fd5b8101908080519060200190929190505050905080600560008473ffffffffffffffffffffffffffffffffffffffff1673ffffffffffffffffffffffffffffffffffffffff16815260200190815260200160002060003373ffffffffffffffffffffffffffffffffffffffff1673ffffffffffffffffffffffffffffffffffffffff168152602001908152602001600020541015610e04576040517f08c379a00000000000000000000000000000000000000000000000000000000081526004018080602001828103825260208152602001807f446f6e74204861766520456e6f75676820746f6b656e20746f2072656d6f766581525060200191505060405180910390fd5b610e0d826146d2565b600064e8d4a51000610ee3600260008673ffffffffffffffffffffffffffffffffffffffff1673ffffffffffffffffffffffffffffffffffffffff16815260200190815260200160002054600560008773ffffffffffffffffffffffffffffffffffffffff1673ffffffffffffffffffffffffffffffffffffffff16815260200190815260200160002060003373ffffffffffffffffffffffffffffffffffffffff1673ffffffffffffffffffffffffffffffffffffffff16815260200190815260200160002054614d4e90919063ffffffff16565b81610eea57fe5b0490506000610f86610f81600660008773ffffffffffffffffffffffffffffffffffffffff1673ffffffffffffffffffffffffffffffffffffffff16815260200190815260200160002060003373ffffffffffffffffffffffffffffffffffffffff1673ffffffffffffffffffffffffffffffffffffffff1681526020019081526020016000205484614dd490919063ffffffff16565b614e62565b905060008190506012600a0a6305f5e10002610fad83600b54614ee290919063ffffffff16565b1115610fd557610fd2600b546012600a0a6305f5e10002614f6a90919063ffffffff16565b90505b600081146110ba57610ff281600b54614ee290919063ffffffff16565b600b81905550600a60009054906101000a900473ffffffffffffffffffffffffffffffffffffffff1673ffffffffffffffffffffffffffffffffffffffff16633b349de633836040518363ffffffff1660e01b8152600401808373ffffffffffffffffffffffffffffffffffffffff1673ffffffffffffffffffffffffffffffffffffffff16815260200182815260200192505050600060405180830381600087803b1580156110a157600080fd5b505af11580156110b5573d6000803e3d6000fd5b505050505b61112c64e8d4a51000611115600260008973ffffffffffffffffffffffffffffffffffffffff1673ffffffffffffffffffffffffffffffffffffffff1681526020019081526020016000205487614d4e90919063ffffffff16565b8161111c57fe5b0484614dd490919063ffffffff16565b600660008773ffffffffffffffffffffffffffffffffffffffff1673ffffffffffffffffffffffffffffffffffffffff16815260200190815260200160002060003373ffffffffffffffffffffffffffffffffffffffff1673ffffffffffffffffffffffffffffffffffffffff1681526020019081526020016000208190555061123b84600560008873ffffffffffffffffffffffffffffffffffffffff1673ffffffffffffffffffffffffffffffffffffffff16815260200190815260200160002060003373ffffffffffffffffffffffffffffffffffffffff1673ffffffffffffffffffffffffffffffffffffffff16815260200190815260200160002054614f6a90919063ffffffff16565b600560008773ffffffffffffffffffffffffffffffffffffffff1673ffffffffffffffffffffffffffffffffffffffff16815260200190815260200160002060003373ffffffffffffffffffffffffffffffffffffffff1673ffffffffffffffffffffffffffffffffffffffff16815260200190815260200160002081905550611348338673ffffffffffffffffffffffffffffffffffffffff166347ccca026040518163ffffffff1660e01b8152600401602060405180830381600087803b15801561130757600080fd5b505af115801561131b573d6000803e3d6000fd5b505050506040513d602081101561133157600080fd5b81019080805190602001909291905050508b614fb4565b61139a84600460008873ffffffffffffffffffffffffffffffffffffffff1673ffffffffffffffffffffffffffffffffffffffff16815260200190815260200160002054614f6a90919063ffffffff16565b600460008773ffffffffffffffffffffffffffffffffffffffff1673ffffffffffffffffffffffffffffffffffffffff168152602001908152602001600020819055505050505050600160138190555050505050565b600d60009054906101000a900473ffffffffffffffffffffffffffffffffffffffff1681565b600b5481565b80600080905060008060008473ffffffffffffffffffffffffffffffffffffffff1673ffffffffffffffffffffffffffffffffffffffff168152602001908152602001600020541461146d57600190505b806114e0576040517f08c379a00000000000000000000000000000000000000000000000000000000081526004018080602001828103825260158152602001807f446f6e60742068617665207468697320746f6b656e000000000000000000000081525060200191505060405180910390fd5b600160135414611558576040517f08c379a000000000000000000000000000000000000000000000000000000000815260040180806020018281038252600e8152602001807f586b6579206973206c6f636b656400000000000000000000000000000000000081525060200191505060405180910390fd5b6000601381905550611569836146d2565b600064e8d4a5100061163f600260008773ffffffffffffffffffffffffffffffffffffffff1673ffffffffffffffffffffffffffffffffffffffff16815260200190815260200160002054600560008873ffffffffffffffffffffffffffffffffffffffff1673ffffffffffffffffffffffffffffffffffffffff16815260200190815260200160002060003373ffffffffffffffffffffffffffffffffffffffff1673ffffffffffffffffffffffffffffffffffffffff16815260200190815260200160002054614d4e90919063ffffffff16565b8161164657fe5b049050600660008573ffffffffffffffffffffffffffffffffffffffff1673ffffffffffffffffffffffffffffffffffffffff16815260200190815260200160002060003373ffffffffffffffffffffffffffffffffffffffff1673ffffffffffffffffffffffffffffffffffffffff1681526020019081526020016000205481121561173b576040517f08c379a00000000000000000000000000000000000000000000000000000000081526004018080602001828103825260078152602001807f486f7720323f3f0000000000000000000000000000000000000000000000000081525060200191505060405180910390fd5b60006117d46117cf600660008873ffffffffffffffffffffffffffffffffffffffff1673ffffffffffffffffffffffffffffffffffffffff16815260200190815260200160002060003373ffffffffffffffffffffffffffffffffffffffff1673ffffffffffffffffffffffffffffffffffffffff1681526020019081526020016000205484614dd490919063ffffffff16565b614e62565b905081600660008773ffffffffffffffffffffffffffffffffffffffff1673ffffffffffffffffffffffffffffffffffffffff16815260200190815260200160002060003373ffffffffffffffffffffffffffffffffffffffff1673ffffffffffffffffffffffffffffffffffffffff1681526020019081526020016000208190555060008190506012600a0a6305f5e1000261187c83600b54614ee290919063ffffffff16565b11156118a4576118a1600b546012600a0a6305f5e10002614f6a90919063ffffffff16565b90505b60008114611989576118c181600b54614ee290919063ffffffff16565b600b81905550600a60009054906101000a900473ffffffffffffffffffffffffffffffffffffffff1673ffffffffffffffffffffffffffffffffffffffff16633b349de633836040518363ffffffff1660e01b8152600401808373ffffffffffffffffffffffffffffffffffffffff1673ffffffffffffffffffffffffffffffffffffffff16815260200182815260200192505050600060405180830381600087803b15801561197057600080fd5b505af1158015611984573d6000803e3d6000fd5b505050505b5050506001601381905550505050565b600c60009054906101000a900473ffffffffffffffffffffffffffffffffffffffff1673ffffffffffffffffffffffffffffffffffffffff163373ffffffffffffffffffffffffffffffffffffffff16146119f357600080fd5b60008060008573ffffffffffffffffffffffffffffffffffffffff1673ffffffffffffffffffffffffffffffffffffffff1681526020019081526020016000205414611aa7576040517f08c379a000000000000000000000000000000000000000000000000000000000815260040180806020018281038252600b8152602001807f546f6b656e20657869737400000000000000000000000000000000000000000081525060200191505060405180910390fd5b611aaf6152e4565b611ab9814361534b565b6000808573ffffffffffffffffffffffffffffffffffffffff1673ffffffffffffffffffffffffffffffffffffffff1681526020019081526020016000208190555081600160008573ffffffffffffffffffffffffffffffffffffffff1673ffffffffffffffffffffffffffffffffffffffff16815260200190815260200160002081905550611b5482600954614ee290919063ffffffff16565b60098190555060078390806001815401808255809150509060018203906000526020600020016000909192909190916101000a81548173ffffffffffffffffffffffffffffffffffffffff021916908373ffffffffffffffffffffffffffffffffffffffff160217905550506000600360008573ffffffffffffffffffffffffffffffffffffffff1673ffffffffffffffffffffffffffffffffffffffff168152602001908152602001600020819055507fc712c5daa7afb3689e59ecc4eb021e9b0c7a6ba5cf97a7b6c6f3cf0165e6e43083600160008673ffffffffffffffffffffffffffffffffffffffff1673ffffffffffffffffffffffffffffffffffffffff16815260200190815260200160002054600954604051808473ffffffffffffffffffffffffffffffffffffffff1673ffffffffffffffffffffffffffffffffffffffff168152602001838152602001828152602001935050505060405180910390a1505050565b60036020528060005260406000206000915090505481565b6000600560008473ffffffffffffffffffffffffffffffffffffffff1673ffffffffffffffffffffffffffffffffffffffff16815260200190815260200160002060008373ffffffffffffffffffffffffffffffffffffffff1673ffffffffffffffffffffffffffffffffffffffff16815260200190815260200160002054905092915050565b600f5481565b600a60009054906101000a900473ffffffffffffffffffffffffffffffffffffffff1681565b60125481565b60095481565b60006020528060005260406000206000915090505481565b600160135414611e25576040517f08c379a000000000000000000000000000000000000000000000000000000000815260040180806020018281038252600e8152602001807f586b6579206973206c6f636b656400000000000000000000000000000000000081525060200191505060405180910390fd5b6000601381905550611e3561637a565b600d60009054906101000a900473ffffffffffffffffffffffffffffffffffffffff1673ffffffffffffffffffffffffffffffffffffffff16637a110ca133846040518363ffffffff1660e01b8152600401808373ffffffffffffffffffffffffffffffffffffffff1673ffffffffffffffffffffffffffffffffffffffff1681526020018281526020019250505060a06040518083038186803b158015611edc57600080fd5b505afa158015611ef0573d6000803e3d6000fd5b505050506040513d601f19601f8201168201806040525060a0811015611f1557600080fd5b810190809190505090506000600e60009054906101000a900473ffffffffffffffffffffffffffffffffffffffff1673ffffffffffffffffffffffffffffffffffffffff1663bdf391cc83600060058110611f6c57fe5b60200201516040518263ffffffff1660e01b81526004018082815260200191505060206040518083038186803b158015611fa557600080fd5b505afa158015611fb9573d6000803e3d6000fd5b505050506040513d6020811015611fcf57600080fd5b8101908080519060200190929190505050905060008090505b600581101561215c578173ffffffffffffffffffffffffffffffffffffffff16600e60009054906101000a900473ffffffffffffffffffffffffffffffffffffffff1673ffffffffffffffffffffffffffffffffffffffff1663bdf391cc85846005811061205257fe5b60200201516040518263ffffffff1660e01b81526004018082815260200191505060206040518083038186803b15801561208b57600080fd5b505afa15801561209f573d6000803e3d6000fd5b505050506040513d60208110156120b557600080fd5b810190808051906020019092919050505073ffffffffffffffffffffffffffffffffffffffff161461214f576040517f08c379a000000000000000000000000000000000000000000000000000000000815260040180806020018281038252601f8152602001807f7468697320746f6b656e20696420776173206e6f742073616d6520706169720081525060200191505060405180910390fd5b8080600101915050611fe8565b5060008060008373ffffffffffffffffffffffffffffffffffffffff1673ffffffffffffffffffffffffffffffffffffffff168152602001908152602001600020541415612212576040517f08c379a00000000000000000000000000000000000000000000000000000000081526004018080602001828103825260148152602001807f646f6e742068617665207468697320746f6b656e00000000000000000000000081525060200191505060405180910390fd5b6000600d60009054906101000a900473ffffffffffffffffffffffffffffffffffffffff1673ffffffffffffffffffffffffffffffffffffffff1663deecf75c33866040518363ffffffff1660e01b8152600401808373ffffffffffffffffffffffffffffffffffffffff1673ffffffffffffffffffffffffffffffffffffffff16815260200182815260200192505050602060405180830381600087803b1580156122bd57600080fd5b505af11580156122d1573d6000803e3d6000fd5b505050506040513d60208110156122e757600080fd5b8101908080519060200190929190505050905080600560008473ffffffffffffffffffffffffffffffffffffffff1673ffffffffffffffffffffffffffffffffffffffff16815260200190815260200160002060003373ffffffffffffffffffffffffffffffffffffffff1673ffffffffffffffffffffffffffffffffffffffff1681526020019081526020016000205410156123ec576040517f08c379a00000000000000000000000000000000000000000000000000000000081526004018080602001828103825260208152602001807f446f6e74204861766520456e6f75676820746f6b656e20746f2072656d6f766581525060200191505060405180910390fd5b6123f5826146d2565b600064e8d4a510006124cb600260008673ffffffffffffffffffffffffffffffffffffffff1673ffffffffffffffffffffffffffffffffffffffff16815260200190815260200160002054600560008773ffffffffffffffffffffffffffffffffffffffff1673ffffffffffffffffffffffffffffffffffffffff16815260200190815260200160002060003373ffffffffffffffffffffffffffffffffffffffff1673ffffffffffffffffffffffffffffffffffffffff16815260200190815260200160002054614d4e90919063ffffffff16565b816124d257fe5b049050600061256e612569600660008773ffffffffffffffffffffffffffffffffffffffff1673ffffffffffffffffffffffffffffffffffffffff16815260200190815260200160002060003373ffffffffffffffffffffffffffffffffffffffff1673ffffffffffffffffffffffffffffffffffffffff1681526020019081526020016000205484614dd490919063ffffffff16565b614e62565b905060008190506012600a0a6305f5e1000261259583600b54614ee290919063ffffffff16565b11156125bd576125ba600b546012600a0a6305f5e10002614f6a90919063ffffffff16565b90505b600081146126a2576125da81600b54614ee290919063ffffffff16565b600b81905550600a60009054906101000a900473ffffffffffffffffffffffffffffffffffffffff1673ffffffffffffffffffffffffffffffffffffffff16633b349de633836040518363ffffffff1660e01b8152600401808373ffffffffffffffffffffffffffffffffffffffff1673ffffffffffffffffffffffffffffffffffffffff16815260200182815260200192505050600060405180830381600087803b15801561268957600080fd5b505af115801561269d573d6000803e3d6000fd5b505050505b61271464e8d4a510006126fd600260008973ffffffffffffffffffffffffffffffffffffffff1673ffffffffffffffffffffffffffffffffffffffff1681526020019081526020016000205487614d4e90919063ffffffff16565b8161270457fe5b0484614dd490919063ffffffff16565b600660008773ffffffffffffffffffffffffffffffffffffffff1673ffffffffffffffffffffffffffffffffffffffff16815260200190815260200160002060003373ffffffffffffffffffffffffffffffffffffffff1673ffffffffffffffffffffffffffffffffffffffff1681526020019081526020016000208190555061282384600560008873ffffffffffffffffffffffffffffffffffffffff1673ffffffffffffffffffffffffffffffffffffffff16815260200190815260200160002060003373ffffffffffffffffffffffffffffffffffffffff1673ffffffffffffffffffffffffffffffffffffffff16815260200190815260200160002054614f6a90919063ffffffff16565b600560008773ffffffffffffffffffffffffffffffffffffffff1673ffffffffffffffffffffffffffffffffffffffff16815260200190815260200160002060003373ffffffffffffffffffffffffffffffffffffffff1673ffffffffffffffffffffffffffffffffffffffff1681526020019081526020016000208190555060008090505b60058110156128fc576128ef33600e60009054906101000a900473ffffffffffffffffffffffffffffffffffffffff168984600581106128e557fe5b6020020151614fb4565b80806001019150506128a9565b5061294f84600460008873ffffffffffffffffffffffffffffffffffffffff1673ffffffffffffffffffffffffffffffffffffffff16815260200190815260200160002054614f6a90919063ffffffff16565b600460008773ffffffffffffffffffffffffffffffffffffffff1673ffffffffffffffffffffffffffffffffffffffff16815260200190815260200160002081905550505050505050600160138190555050565b600c60009054906101000a900473ffffffffffffffffffffffffffffffffffffffff1673ffffffffffffffffffffffffffffffffffffffff163373ffffffffffffffffffffffffffffffffffffffff16146129fd57600080fd5b81600080905060008060008473ffffffffffffffffffffffffffffffffffffffff1673ffffffffffffffffffffffffffffffffffffffff1681526020019081526020016000205414612a4e57600190505b80612ac1576040517f08c379a00000000000000000000000000000000000000000000000000000000081526004018080602001828103825260158152602001807f446f6e60742068617665207468697320746f6b656e000000000000000000000081525060200191505060405180910390fd5b612ac96152e4565b612b2f83612b21600160008873ffffffffffffffffffffffffffffffffffffffff1673ffffffffffffffffffffffffffffffffffffffff16815260200190815260200160002054600954614f6a90919063ffffffff16565b614ee290919063ffffffff16565b60098190555082600160008673ffffffffffffffffffffffffffffffffffffffff1673ffffffffffffffffffffffffffffffffffffffff1681526020019081526020016000208190555050505050565b60016020528060005260406000206000915090505481565b600e60009054906101000a900473ffffffffffffffffffffffffffffffffffffffff1681565b60078181548110612bca57fe5b906000526020600020016000915054906101000a900473ffffffffffffffffffffffffffffffffffffffff1681565b600c60009054906101000a900473ffffffffffffffffffffffffffffffffffffffff1673ffffffffffffffffffffffffffffffffffffffff163373ffffffffffffffffffffffffffffffffffffffff1614612c5357600080fd5b80600a60006101000a81548173ffffffffffffffffffffffffffffffffffffffff021916908373ffffffffffffffffffffffffffffffffffffffff16021790555050565b6000600c60009054906101000a900473ffffffffffffffffffffffffffffffffffffffff16905090565b6000806012541415612cd7576008549050612d31565b6000612cee60125443614f6a90919063ffffffff16565b90506000612d12612d0a6011548461536590919063ffffffff16565b600f546153af565b9050612d2c8160020a60085461536590919063ffffffff16565b925050505b90565b8060008090506000600e60009054906101000a900473ffffffffffffffffffffffffffffffffffffffff1673ffffffffffffffffffffffffffffffffffffffff1663bdf391cc846040518263ffffffff1660e01b81526004018082815260200191505060206040518083038186803b158015612daf57600080fd5b505afa158015612dc3573d6000803e3d6000fd5b505050506040513d6020811015612dd957600080fd5b8101908080519060200190929190505050905060008060008373ffffffffffffffffffffffffffffffffffffffff1673ffffffffffffffffffffffffffffffffffffffff1681526020019081526020016000205414612e3757600191505b81612eaa576040517f08c379a00000000000000000000000000000000000000000000000000000000081526004018080602001828103825260188152602001807f446f6e60742068617665207468697320746f6b656e206964000000000000000081525060200191505060405180910390fd5b600160135414612f22576040517f08c379a000000000000000000000000000000000000000000000000000000000815260040180806020018281038252600e8152602001807f586b6579206973206c6f636b656400000000000000000000000000000000000081525060200191505060405180910390fd5b60006013819055506012600a0a6305f5e10002600b5410612fab576040517f08c379a00000000000000000000000000000000000000000000000000000000081526004018080602001828103825260178152602001807f416c6c20746f6b656e20686173206265656e206d696e7400000000000000000081525060200191505060405180910390fd5b60006012541415612fbe57436012819055505b6000600e60009054906101000a900473ffffffffffffffffffffffffffffffffffffffff1673ffffffffffffffffffffffffffffffffffffffff1663bdf391cc866040518263ffffffff1660e01b81526004018082815260200191505060206040518083038186803b15801561303357600080fd5b505afa158015613047573d6000803e3d6000fd5b505050506040513d602081101561305d57600080fd5b81019080805190602001909291905050509050613079816146d2565b613106338273ffffffffffffffffffffffffffffffffffffffff166347ccca026040518163ffffffff1660e01b8152600401602060405180830381600087803b1580156130c557600080fd5b505af11580156130d9573d6000803e3d6000fd5b505050506040513d60208110156130ef57600080fd5b8101908080519060200190929190505050876153c8565b6000600d60009054906101000a900473ffffffffffffffffffffffffffffffffffffffff1673ffffffffffffffffffffffffffffffffffffffff1663bf6eac2f3384896040518463ffffffff1660e01b8152600401808473ffffffffffffffffffffffffffffffffffffffff1673ffffffffffffffffffffffffffffffffffffffff1681526020018373ffffffffffffffffffffffffffffffffffffffff1673ffffffffffffffffffffffffffffffffffffffff1681526020018281526020019350505050602060405180830381600087803b1580156131e557600080fd5b505af11580156131f9573d6000803e3d6000fd5b505050506040513d602081101561320f57600080fd5b81019080805190602001909291905050509050600064e8d4a510006132f8600260008673ffffffffffffffffffffffffffffffffffffffff1673ffffffffffffffffffffffffffffffffffffffff16815260200190815260200160002054600560008773ffffffffffffffffffffffffffffffffffffffff1673ffffffffffffffffffffffffffffffffffffffff16815260200190815260200160002060003373ffffffffffffffffffffffffffffffffffffffff1673ffffffffffffffffffffffffffffffffffffffff16815260200190815260200160002054614d4e90919063ffffffff16565b816132ff57fe5b049050600061339b613396600660008773ffffffffffffffffffffffffffffffffffffffff1673ffffffffffffffffffffffffffffffffffffffff16815260200190815260200160002060003373ffffffffffffffffffffffffffffffffffffffff1673ffffffffffffffffffffffffffffffffffffffff1681526020019081526020016000205484614dd490919063ffffffff16565b614e62565b905060008190506012600a0a6305f5e100026133c283600b54614ee290919063ffffffff16565b11156133ea576133e7600b546012600a0a6305f5e10002614f6a90919063ffffffff16565b90505b600081146134cf5761340781600b54614ee290919063ffffffff16565b600b81905550600a60009054906101000a900473ffffffffffffffffffffffffffffffffffffffff1673ffffffffffffffffffffffffffffffffffffffff16633b349de633836040518363ffffffff1660e01b8152600401808373ffffffffffffffffffffffffffffffffffffffff1673ffffffffffffffffffffffffffffffffffffffff16815260200182815260200192505050600060405180830381600087803b1580156134b657600080fd5b505af11580156134ca573d6000803e3d6000fd5b505050505b61355e84600560008873ffffffffffffffffffffffffffffffffffffffff1673ffffffffffffffffffffffffffffffffffffffff16815260200190815260200160002060003373ffffffffffffffffffffffffffffffffffffffff1673ffffffffffffffffffffffffffffffffffffffff16815260200190815260200160002054614ee290919063ffffffff16565b600560008773ffffffffffffffffffffffffffffffffffffffff1673ffffffffffffffffffffffffffffffffffffffff16815260200190815260200160002060003373ffffffffffffffffffffffffffffffffffffffff1673ffffffffffffffffffffffffffffffffffffffff1681526020019081526020016000208190555061365064e8d4a51000613639600260008973ffffffffffffffffffffffffffffffffffffffff1673ffffffffffffffffffffffffffffffffffffffff1681526020019081526020016000205487614d4e90919063ffffffff16565b8161364057fe5b04846156f990919063ffffffff16565b600660008773ffffffffffffffffffffffffffffffffffffffff1673ffffffffffffffffffffffffffffffffffffffff16815260200190815260200160002060003373ffffffffffffffffffffffffffffffffffffffff1673ffffffffffffffffffffffffffffffffffffffff1681526020019081526020016000208190555061372284600460008873ffffffffffffffffffffffffffffffffffffffff1673ffffffffffffffffffffffffffffffffffffffff16815260200190815260200160002054614ee290919063ffffffff16565b600460008773ffffffffffffffffffffffffffffffffffffffff1673ffffffffffffffffffffffffffffffffffffffff168152602001908152602001600020819055505050505050600160138190555050505050565b6012600a0a6305f5e1000281565b60026020528060005260406000206000915090505481565b60115481565b600081600080905060008060008473ffffffffffffffffffffffffffffffffffffffff1673ffffffffffffffffffffffffffffffffffffffff16815260200190815260200160002054146137f757600190505b8061386a576040517f08c379a00000000000000000000000000000000000000000000000000000000081526004018080602001828103825260158152602001807f446f6e60742068617665207468697320746f6b656e000000000000000000000081525060200191505060405180910390fd5b600061387585615787565b9050600064e8d4a5100061390e83600560008a73ffffffffffffffffffffffffffffffffffffffff1673ffffffffffffffffffffffffffffffffffffffff16815260200190815260200160002060003373ffffffffffffffffffffffffffffffffffffffff1673ffffffffffffffffffffffffffffffffffffffff16815260200190815260200160002054614d4e90919063ffffffff16565b8161391557fe5b04905060006139b16139ac600660008a73ffffffffffffffffffffffffffffffffffffffff1673ffffffffffffffffffffffffffffffffffffffff16815260200190815260200160002060003373ffffffffffffffffffffffffffffffffffffffff1673ffffffffffffffffffffffffffffffffffffffff1681526020019081526020016000205484614dd490919063ffffffff16565b614e62565b905060008190506012600a0a6305f5e100026139d883600b54614ee290919063ffffffff16565b1115613a00576139fd600b546012600a0a6305f5e10002614f6a90919063ffffffff16565b90505b809650505050505050919050565b60105481565b60046020528060005260406000206000915090505481565b600160135414613aa4576040517f08c379a000000000000000000000000000000000000000000000000000000000815260040180806020018281038252600e8152602001807f586b6579206973206c6f636b656400000000000000000000000000000000000081525060200191505060405180910390fd5b60006013819055506012600a0a6305f5e10002600b5410613b2d576040517f08c379a00000000000000000000000000000000000000000000000000000000081526004018080602001828103825260178152602001807f416c6c20746f6b656e20686173206265656e206d696e7400000000000000000081525060200191505060405180910390fd5b6000600e60009054906101000a900473ffffffffffffffffffffffffffffffffffffffff1673ffffffffffffffffffffffffffffffffffffffff1663bdf391cc83600060058110613b7a57fe5b60200201356040518263ffffffff1660e01b81526004018082815260200191505060206040518083038186803b158015613bb357600080fd5b505afa158015613bc7573d6000803e3d6000fd5b505050506040513d6020811015613bdd57600080fd5b8101908080519060200190929190505050905060008090505b6005811015613d6a578173ffffffffffffffffffffffffffffffffffffffff16600e60009054906101000a900473ffffffffffffffffffffffffffffffffffffffff1673ffffffffffffffffffffffffffffffffffffffff1663bdf391cc858460058110613c6057fe5b60200201356040518263ffffffff1660e01b81526004018082815260200191505060206040518083038186803b158015613c9957600080fd5b505afa158015613cad573d6000803e3d6000fd5b505050506040513d6020811015613cc357600080fd5b810190808051906020019092919050505073ffffffffffffffffffffffffffffffffffffffff1614613d5d576040517f08c379a00000000000000000000000000000000000000000000000000000000081526004018080602001828103825260208152602001807f786b657964616f3a746f6b656e696473206172656e742073616d65207061697281525060200191505060405180910390fd5b8080600101915050613bf6565b5060008060008373ffffffffffffffffffffffffffffffffffffffff1673ffffffffffffffffffffffffffffffffffffffff168152602001908152602001600020541415613e20576040517f08c379a00000000000000000000000000000000000000000000000000000000081526004018080602001828103825260188152602001807f646f6e742068617665207468697320746f6b656e20696473000000000000000081525060200191505060405180910390fd5b613e29816146d2565b60008090505b6005811015613e8257613e7533600e60009054906101000a900473ffffffffffffffffffffffffffffffffffffffff16858460058110613e6b57fe5b60200201356153c8565b8080600101915050613e2f565b506000600d60009054906101000a900473ffffffffffffffffffffffffffffffffffffffff1673ffffffffffffffffffffffffffffffffffffffff1663d973a2ae3384866040518463ffffffff1660e01b8152600401808473ffffffffffffffffffffffffffffffffffffffff1673ffffffffffffffffffffffffffffffffffffffff1681526020018373ffffffffffffffffffffffffffffffffffffffff1673ffffffffffffffffffffffffffffffffffffffff16815260200182600560200280828437600081840152601f19601f8201169050808301925050509350505050602060405180830381600087803b158015613f7d57600080fd5b505af1158015613f91573d6000803e3d6000fd5b505050506040513d6020811015613fa757600080fd5b81019080805190602001909291905050509050600064e8d4a51000614090600260008673ffffffffffffffffffffffffffffffffffffffff1673ffffffffffffffffffffffffffffffffffffffff16815260200190815260200160002054600560008773ffffffffffffffffffffffffffffffffffffffff1673ffffffffffffffffffffffffffffffffffffffff16815260200190815260200160002060003373ffffffffffffffffffffffffffffffffffffffff1673ffffffffffffffffffffffffffffffffffffffff16815260200190815260200160002054614d4e90919063ffffffff16565b8161409757fe5b049050600061413361412e600660008773ffffffffffffffffffffffffffffffffffffffff1673ffffffffffffffffffffffffffffffffffffffff16815260200190815260200160002060003373ffffffffffffffffffffffffffffffffffffffff1673ffffffffffffffffffffffffffffffffffffffff1681526020019081526020016000205484614dd490919063ffffffff16565b614e62565b905060008190506012600a0a6305f5e1000261415a83600b54614ee290919063ffffffff16565b11156141825761417f600b546012600a0a6305f5e10002614f6a90919063ffffffff16565b90505b600081146142675761419f81600b54614ee290919063ffffffff16565b600b81905550600a60009054906101000a900473ffffffffffffffffffffffffffffffffffffffff1673ffffffffffffffffffffffffffffffffffffffff16633b349de633836040518363ffffffff1660e01b8152600401808373ffffffffffffffffffffffffffffffffffffffff1673ffffffffffffffffffffffffffffffffffffffff16815260200182815260200192505050600060405180830381600087803b15801561424e57600080fd5b505af1158015614262573d6000803e3d6000fd5b505050505b6142f684600560008873ffffffffffffffffffffffffffffffffffffffff1673ffffffffffffffffffffffffffffffffffffffff16815260200190815260200160002060003373ffffffffffffffffffffffffffffffffffffffff1673ffffffffffffffffffffffffffffffffffffffff16815260200190815260200160002054614ee290919063ffffffff16565b600560008773ffffffffffffffffffffffffffffffffffffffff1673ffffffffffffffffffffffffffffffffffffffff16815260200190815260200160002060003373ffffffffffffffffffffffffffffffffffffffff1673ffffffffffffffffffffffffffffffffffffffff168152602001908152602001600020819055506143e864e8d4a510006143d1600260008973ffffffffffffffffffffffffffffffffffffffff1673ffffffffffffffffffffffffffffffffffffffff1681526020019081526020016000205487614d4e90919063ffffffff16565b816143d857fe5b04846156f990919063ffffffff16565b600660008773ffffffffffffffffffffffffffffffffffffffff1673ffffffffffffffffffffffffffffffffffffffff16815260200190815260200160002060003373ffffffffffffffffffffffffffffffffffffffff1673ffffffffffffffffffffffffffffffffffffffff168152602001908152602001600020819055506144ba84600460008873ffffffffffffffffffffffffffffffffffffffff1673ffffffffffffffffffffffffffffffffffffffff16815260200190815260200160002054614ee290919063ffffffff16565b600460008773ffffffffffffffffffffffffffffffffffffffff1673ffffffffffffffffffffffffffffffffffffffff168152602001908152602001600020819055505050505050600160138190555050565b600c60009054906101000a900473ffffffffffffffffffffffffffffffffffffffff1673ffffffffffffffffffffffffffffffffffffffff163373ffffffffffffffffffffffffffffffffffffffff161461456757600080fd5b6000601254146145df576040517f08c379a000000000000000000000000000000000000000000000000000000000815260040180806020018281038252600a8152602001807f686173207374617274200000000000000000000000000000000000000000000081525060200191505060405180910390fd5b8060128190555050565b60085481565b6000600a60009054906101000a900473ffffffffffffffffffffffffffffffffffffffff1673ffffffffffffffffffffffffffffffffffffffff166370a08231836040518263ffffffff1660e01b8152600401808273ffffffffffffffffffffffffffffffffffffffff1673ffffffffffffffffffffffffffffffffffffffff16815260200191505060206040518083038186803b15801561469057600080fd5b505afa1580156146a4573d6000803e3d6000fd5b505050506040513d60208110156146ba57600080fd5b81019080805190602001909291905050509050919050565b6000808273ffffffffffffffffffffffffffffffffffffffff1673ffffffffffffffffffffffffffffffffffffffff16815260200190815260200160002054431180156147225750600060125414155b15614d42576000614791614780601154600360008673ffffffffffffffffffffffffffffffffffffffff1673ffffffffffffffffffffffffffffffffffffffff16815260200190815260200160002054614d4e90919063ffffffff16565b601254614ee290919063ffffffff16565b905060008090508143111561488d5760006147b58343614f6a90919063ffffffff16565b90506147d76147cf6011548361536590919063ffffffff16565b600f546153af565b9150600f5461482e83600360008873ffffffffffffffffffffffffffffffffffffffff1673ffffffffffffffffffffffffffffffffffffffff16815260200190815260200160002054614ee290919063ffffffff16565b111561488b57614888600360008673ffffffffffffffffffffffffffffffffffffffff1673ffffffffffffffffffffffffffffffffffffffff16815260200190815260200160002054600f54614f6a90919063ffffffff16565b91505b505b6000600460008573ffffffffffffffffffffffffffffffffffffffff1673ffffffffffffffffffffffffffffffffffffffff168152602001908152602001600020549050600061492a600360008773ffffffffffffffffffffffffffffffffffffffff1673ffffffffffffffffffffffffffffffffffffffff1681526020019081526020016000205460020a60085461536590919063ffffffff16565b90506000600190505b838111614ca75761496161495260115483614d4e90919063ffffffff16565b86614ee290919063ffffffff16565b6000808873ffffffffffffffffffffffffffffffffffffffff1673ffffffffffffffffffffffffffffffffffffffff168152602001908152602001600020541115614a1657614a0f6149fb600360008973ffffffffffffffffffffffffffffffffffffffff1673ffffffffffffffffffffffffffffffffffffffff1681526020019081526020016000205483614ee290919063ffffffff16565b60020a60085461536590919063ffffffff16565b9150614c9a565b6000614a8f6000808973ffffffffffffffffffffffffffffffffffffffff1673ffffffffffffffffffffffffffffffffffffffff16815260200190815260200160002054614a81614a7260115486614d4e90919063ffffffff16565b89614ee290919063ffffffff16565b614f6a90919063ffffffff16565b90506000841115614bc4576000600954614b03600160008b73ffffffffffffffffffffffffffffffffffffffff1673ffffffffffffffffffffffffffffffffffffffff16815260200190815260200160002054614af58786614d4e90919063ffffffff16565b614d4e90919063ffffffff16565b81614b0a57fe5b049050614b7f85614b2964e8d4a5100084614d4e90919063ffffffff16565b81614b3057fe5b04600260008b73ffffffffffffffffffffffffffffffffffffffff1673ffffffffffffffffffffffffffffffffffffffff16815260200190815260200160002054614ee290919063ffffffff16565b600260008a73ffffffffffffffffffffffffffffffffffffffff1673ffffffffffffffffffffffffffffffffffffffff16815260200190815260200160002081905550505b614beb614bdc60115484614d4e90919063ffffffff16565b87614ee290919063ffffffff16565b6000808973ffffffffffffffffffffffffffffffffffffffff1673ffffffffffffffffffffffffffffffffffffffff16815260200190815260200160002081905550614c96614c82600360008a73ffffffffffffffffffffffffffffffffffffffff1673ffffffffffffffffffffffffffffffffffffffff1681526020019081526020016000205484614ee290919063ffffffff16565b60020a60085461536590919063ffffffff16565b9250505b8080600101915050614933565b50614cfa83600360008873ffffffffffffffffffffffffffffffffffffffff1673ffffffffffffffffffffffffffffffffffffffff16815260200190815260200160002054614ee290919063ffffffff16565b600360008773ffffffffffffffffffffffffffffffffffffffff1673ffffffffffffffffffffffffffffffffffffffff16815260200190815260200160002081905550505050505b614d4b81615e77565b50565b600080831415614d615760009050614dce565b6000828402905082848281614d7257fe5b0414614dc9576040517f08c379a00000000000000000000000000000000000000000000000000000000081526004018080602001828103825260218152602001806163be6021913960400191505060405180910390fd5b809150505b92915050565b600080828403905060008312158015614ded5750838113155b80614e035750600083128015614e0257508381135b5b614e58576040517f08c379a00000000000000000000000000000000000000000000000000000000081526004018080602001828103825260248152602001806163df6024913960400191505060405180910390fd5b8091505092915050565b600080821215614eda576040517f08c379a000000000000000000000000000000000000000000000000000000000815260040180806020018281038252600b8152602001807f496e7465676572203c203000000000000000000000000000000000000000000081525060200191505060405180910390fd5b819050919050565b600080828401905083811015614f60576040517f08c379a000000000000000000000000000000000000000000000000000000000815260040180806020018281038252601b8152602001807f536166654d6174683a206164646974696f6e206f766572666c6f77000000000081525060200191505060405180910390fd5b8091505092915050565b6000614fac83836040518060400160405280601e81526020017f536166654d6174683a207375627472616374696f6e206f766572666c6f7700008152506161f4565b905092915050565b3073ffffffffffffffffffffffffffffffffffffffff168273ffffffffffffffffffffffffffffffffffffffff16636352211e836040518263ffffffff1660e01b81526004018082815260200191505060206040518083038186803b15801561501c57600080fd5b505afa158015615030573d6000803e3d6000fd5b505050506040513d602081101561504657600080fd5b810190808051906020019092919050505073ffffffffffffffffffffffffffffffffffffffff16146150e0576040517f08c379a00000000000000000000000000000000000000000000000000000000081526004018080602001828103825260208152602001807f74686973206e66742069736e607420626c6f6e677320746f20786b657964616f81525060200191505060405180910390fd5b8173ffffffffffffffffffffffffffffffffffffffff166323b872dd3085846040518463ffffffff1660e01b8152600401808473ffffffffffffffffffffffffffffffffffffffff1673ffffffffffffffffffffffffffffffffffffffff1681526020018373ffffffffffffffffffffffffffffffffffffffff1673ffffffffffffffffffffffffffffffffffffffff1681526020018281526020019350505050600060405180830381600087803b15801561519b57600080fd5b505af11580156151af573d6000803e3d6000fd5b505050508273ffffffffffffffffffffffffffffffffffffffff168273ffffffffffffffffffffffffffffffffffffffff16636352211e836040518263ffffffff1660e01b81526004018082815260200191505060206040518083038186803b15801561521b57600080fd5b505afa15801561522f573d6000803e3d6000fd5b505050506040513d602081101561524557600080fd5b810190808051906020019092919050505073ffffffffffffffffffffffffffffffffffffffff16146152df576040517f08c379a000000000000000000000000000000000000000000000000000000000815260040180806020018281038252600c8152602001807f646f6e7420676574206e6674000000000000000000000000000000000000000081525060200191505060405180910390fd5b505050565b6000600780549050905060008090505b818110156153475761533c6007828154811061530c57fe5b9060005260206000200160009054906101000a900473ffffffffffffffffffffffffffffffffffffffff166146d2565b8060010190506152f4565b5050565b60008183101561535b578161535d565b825b905092915050565b60006153a783836040518060400160405280601a81526020017f536166654d6174683a206469766973696f6e206279207a65726f0000000000008152506162b4565b905092915050565b60008183106153be57816153c0565b825b905092915050565b3073ffffffffffffffffffffffffffffffffffffffff168273ffffffffffffffffffffffffffffffffffffffff16636352211e836040518263ffffffff1660e01b81526004018082815260200191505060206040518083038186803b15801561543057600080fd5b505afa158015615444573d6000803e3d6000fd5b505050506040513d602081101561545a57600080fd5b810190808051906020019092919050505073ffffffffffffffffffffffffffffffffffffffff1614156154f5576040517f08c379a000000000000000000000000000000000000000000000000000000000815260040180806020018281038252601d8152602001807f74686973206e667420697320626c6f6e677320746f20786b657964616f00000081525060200191505060405180910390fd5b8173ffffffffffffffffffffffffffffffffffffffff166323b872dd8430846040518463ffffffff1660e01b8152600401808473ffffffffffffffffffffffffffffffffffffffff1673ffffffffffffffffffffffffffffffffffffffff1681526020018373ffffffffffffffffffffffffffffffffffffffff1673ffffffffffffffffffffffffffffffffffffffff1681526020018281526020019350505050600060405180830381600087803b1580156155b057600080fd5b505af11580156155c4573d6000803e3d6000fd5b505050503073ffffffffffffffffffffffffffffffffffffffff168273ffffffffffffffffffffffffffffffffffffffff16636352211e836040518263ffffffff1660e01b81526004018082815260200191505060206040518083038186803b15801561563057600080fd5b505afa158015615644573d6000803e3d6000fd5b505050506040513d602081101561565a57600080fd5b810190808051906020019092919050505073ffffffffffffffffffffffffffffffffffffffff16146156f4576040517f08c379a000000000000000000000000000000000000000000000000000000000815260040180806020018281038252600c8152602001807f646f6e7420676574206e6674000000000000000000000000000000000000000081525060200191505060405180910390fd5b505050565b6000808284019050600083121580156157125750838112155b80615728575060008312801561572757508381125b5b61577d576040517f08c379a000000000000000000000000000000000000000000000000000000000815260040180806020018281038252602181526020018061639d6021913960400191505060405180910390fd5b8091505092915050565b600080600260008473ffffffffffffffffffffffffffffffffffffffff1673ffffffffffffffffffffffffffffffffffffffff1681526020019081526020016000205490506000600460008573ffffffffffffffffffffffffffffffffffffffff1673ffffffffffffffffffffffffffffffffffffffff16815260200190815260200160002054905060008060008673ffffffffffffffffffffffffffffffffffffffff1673ffffffffffffffffffffffffffffffffffffffff1681526020019081526020016000205490506000600360008773ffffffffffffffffffffffffffffffffffffffff1673ffffffffffffffffffffffffffffffffffffffff1681526020019081526020016000205490506000808773ffffffffffffffffffffffffffffffffffffffff1673ffffffffffffffffffffffffffffffffffffffff16815260200190815260200160002054431180156158e75750600060125414155b15615d45576000615956615945601154600360008b73ffffffffffffffffffffffffffffffffffffffff1673ffffffffffffffffffffffffffffffffffffffff16815260200190815260200160002054614d4e90919063ffffffff16565b601254614ee290919063ffffffff16565b9050600080905081431115615a5257600061597a8343614f6a90919063ffffffff16565b905061599c6159946011548361536590919063ffffffff16565b600f546153af565b9150600f546159f383600360008d73ffffffffffffffffffffffffffffffffffffffff1673ffffffffffffffffffffffffffffffffffffffff16815260200190815260200160002054614ee290919063ffffffff16565b1115615a5057615a4d600360008b73ffffffffffffffffffffffffffffffffffffffff1673ffffffffffffffffffffffffffffffffffffffff16815260200190815260200160002054600f54614f6a90919063ffffffff16565b91505b505b6000615aab600360008b73ffffffffffffffffffffffffffffffffffffffff1673ffffffffffffffffffffffffffffffffffffffff1681526020019081526020016000205460020a60085461536590919063ffffffff16565b90506000600190505b828111615d4057615ae2615ad360115483614d4e90919063ffffffff16565b85614ee290919063ffffffff16565b861115615b5957615b52615b3e600360008d73ffffffffffffffffffffffffffffffffffffffff1673ffffffffffffffffffffffffffffffffffffffff1681526020019081526020016000205483614ee290919063ffffffff16565b60020a60085461536590919063ffffffff16565b9150615d33565b6000615b9487615b86615b7760115486614d4e90919063ffffffff16565b88614ee290919063ffffffff16565b614f6a90919063ffffffff16565b90506000881115615c49576000600954615c08600160008f73ffffffffffffffffffffffffffffffffffffffff1673ffffffffffffffffffffffffffffffffffffffff16815260200190815260200160002054615bfa8786614d4e90919063ffffffff16565b614d4e90919063ffffffff16565b81615c0f57fe5b049050615c4589615c2e64e8d4a5100084614d4e90919063ffffffff16565b81615c3557fe5b048b614ee290919063ffffffff16565b9950505b615cb2615c9e600360008e73ffffffffffffffffffffffffffffffffffffffff1673ffffffffffffffffffffffffffffffffffffffff1681526020019081526020016000205484614ee290919063ffffffff16565b60020a60085461536590919063ffffffff16565b9250615cdb615ccc60115484614d4e90919063ffffffff16565b86614ee290919063ffffffff16565b9650615d2f84600360008e73ffffffffffffffffffffffffffffffffffffffff1673ffffffffffffffffffffffffffffffffffffffff16815260200190815260200160002054614ee290919063ffffffff16565b9550505b8080600101915050615ab4565b505050505b6000808773ffffffffffffffffffffffffffffffffffffffff1673ffffffffffffffffffffffffffffffffffffffff16815260200190815260200160002054431115615e6b576000831115615e6a5760008160020a60085481615da457fe5b0490506000615dbc8443614f6a90919063ffffffff16565b90506000600954615e27600160008c73ffffffffffffffffffffffffffffffffffffffff1673ffffffffffffffffffffffffffffffffffffffff16815260200190815260200160002054615e198686614d4e90919063ffffffff16565b614d4e90919063ffffffff16565b81615e2e57fe5b049050615e6486615e4d64e8d4a5100084614d4e90919063ffffffff16565b81615e5457fe5b0488614ee290919063ffffffff16565b96505050505b5b83945050505050919050565b80600080905060008060008473ffffffffffffffffffffffffffffffffffffffff1673ffffffffffffffffffffffffffffffffffffffff1681526020019081526020016000205414615ec857600190505b80615f3b576040517f08c379a00000000000000000000000000000000000000000000000000000000081526004018080602001828103825260158152602001807f446f6e60742068617665207468697320746f6b656e000000000000000000000081525060200191505060405180910390fd5b6000808473ffffffffffffffffffffffffffffffffffffffff1673ffffffffffffffffffffffffffffffffffffffff168152602001908152602001600020544311156161ef576000600460008573ffffffffffffffffffffffffffffffffffffffff1673ffffffffffffffffffffffffffffffffffffffff16815260200190815260200160002054905060008111156161aa576000616027600360008773ffffffffffffffffffffffffffffffffffffffff1673ffffffffffffffffffffffffffffffffffffffff1681526020019081526020016000205460020a60085461536590919063ffffffff16565b9050600061607c6000808873ffffffffffffffffffffffffffffffffffffffff1673ffffffffffffffffffffffffffffffffffffffff1681526020019081526020016000205443614f6a90919063ffffffff16565b905060006009546160e7600160008a73ffffffffffffffffffffffffffffffffffffffff1673ffffffffffffffffffffffffffffffffffffffff168152602001908152602001600020546160d98686614d4e90919063ffffffff16565b614d4e90919063ffffffff16565b816160ee57fe5b0490506161638461610d64e8d4a5100084614d4e90919063ffffffff16565b8161611457fe5b04600260008a73ffffffffffffffffffffffffffffffffffffffff1673ffffffffffffffffffffffffffffffffffffffff16815260200190815260200160002054614ee290919063ffffffff16565b600260008973ffffffffffffffffffffffffffffffffffffffff1673ffffffffffffffffffffffffffffffffffffffff168152602001908152602001600020819055505050505b436000808673ffffffffffffffffffffffffffffffffffffffff1673ffffffffffffffffffffffffffffffffffffffff16815260200190815260200160002081905550505b505050565b60008383111582906162a1576040517f08c379a00000000000000000000000000000000000000000000000000000000081526004018080602001828103825283818151815260200191508051906020019080838360005b8381101561626657808201518184015260208101905061624b565b50505050905090810190601f1680156162935780820380516001836020036101000a031916815260200191505b509250505060405180910390fd5b5060008385039050809150509392505050565b60008083118290616360576040517f08c379a00000000000000000000000000000000000000000000000000000000081526004018080602001828103825283818151815260200191508051906020019080838360005b8381101561632557808201518184015260208101905061630a565b50505050905090810190601f1680156163525780820380516001836020036101000a031916815260200191505b509250505060405180910390fd5b50600083858161636c57fe5b049050809150509392505050565b6040518060a0016040528060059060208202803883398082019150509050509056fe5369676e6564536166654d6174683a206164646974696f6e206f766572666c6f77536166654d6174683a206d756c7469706c69636174696f6e206f766572666c6f775369676e6564536166654d6174683a207375627472616374696f6e206f766572666c6f77a265627a7a72315820dcd6e524230410ebc0359f4789fcbb71a202e664e8cd7ddfd7e44112bce5a15864736f6c63430005100032536166654d6174683a206d756c7469706c69636174696f6e206f766572666c6f77",
  "source": "pragma solidity=0.5.16;\r\nimport './libraries/SafeMath.sol';\r\nimport './libraries/SignedSafeMath.sol';\r\nimport './interfaces/IERCMint20.sol';\r\n//import './interfaces/IERC20.sol';\r\nimport './interfaces/IXkeyPokerPower.sol';\r\nimport './interfaces/ISwapLPNFT.sol';\r\nimport './interfaces/IXKeyPair.sol';\r\ncontract XkeyDao {\r\n    using SafeMath  for uint;\r\n    using SafeMath  for uint256;\r\n    using SignedSafeMath for int256;\r\n    /**\r\n    * swap token info\r\n    */\r\n    mapping(address=>uint) public swaptoken_last_reward_blocknum;\r\n    mapping(address=>uint) public swaptoken_weight;\r\n    mapping(address=>uint) public swaptoken_pershare_reward;\r\n    mapping(address=>uint) public swaptoken_current_stage;\r\n    mapping(address=>uint) public swaptoken_allAmount;\r\n    /**\r\n    * user info\r\n    */\r\n    mapping(address=>mapping(address=>uint)) swaptoken_user_share;\r\n    mapping(address=>mapping(address=>int)) swaptoken_user_rewardDebt;\r\n\r\n    address[] public swaptoken_addrs;\r\n    uint public perblockreward;\r\n    uint public all_weight;\r\n    address public erc_mintaddr;\r\n    uint256 public swaptoken_had_mint;\r\n    uint256 public constant swaptoken_totalMint = 100000000 * (10 ** uint(18));\r\n    uint256 private constant ACC_XKey_PRECISION = 10 ** 12;\r\n    address owner;\r\n    address public xkeyPokerPower;\r\n    address public lpnft;\r\n    uint public halfroundTimes = 7;\r\n    uint public multipleNumber = 2;\r\n    uint public priedLength;//3 month 598153\r\n    uint public startBlocknum;\r\n    event LiquidSwapTokenCreated(address,uint,uint);\r\n    constructor(\r\n        address _erc_mintaddr,\r\n        address _xkeyPokerPower,\r\n        address _lpnft,\r\n        uint _perblockreward,\r\n        uint _priedLength) public {\r\n        owner = msg.sender;\r\n        erc_mintaddr =  _erc_mintaddr;\r\n        perblockreward = _perblockreward.mul(10**18);\r\n        xkeyPokerPower = _xkeyPokerPower;\r\n        priedLength = _priedLength;\r\n        lpnft = _lpnft;\r\n    }\r\n    uint private unlocked = 1;\r\n    modifier lock() {\r\n        require(unlocked == 1, 'Xkey is locked');\r\n        unlocked = 0;\r\n        _;\r\n        unlocked = 1;\r\n    }\r\n    modifier onlyOwner {\r\n        require(msg.sender == owner);\r\n        _;\r\n    }\r\n    modifier swapTokenExist(address _swaptoken_addr){\r\n        bool exist = false;\r\n        if(swaptoken_last_reward_blocknum[_swaptoken_addr] != 0){\r\n            exist = true;\r\n        }\r\n        require(exist,'Don`t have this token');\r\n        _;\r\n    }\r\n    modifier swapTokenExistByTokenId(uint256 tokenid){\r\n        bool exist = false;\r\n        address pair = ISwapLPNFT(lpnft).getPair(tokenid);\r\n        if(swaptoken_last_reward_blocknum[pair] != 0){\r\n            exist = true;\r\n        }\r\n        require(exist,'Don`t have this token id');\r\n        _;\r\n    }\r\n    function updateAllSwaptokenInfo() internal{\r\n        uint256 len = swaptoken_addrs.length;\r\n        for (uint256 i = 0; i < len; ++i) {\r\n            calcAllStagePrice(swaptoken_addrs[i]);\r\n        }\r\n    }\r\n\r\n    function calcAllStagePrice(address swap_addr) internal {\r\n        if(block.number > swaptoken_last_reward_blocknum[swap_addr] && startBlocknum != 0){\r\n            uint256 current_start_number = startBlocknum.add(swaptoken_current_stage[swap_addr].mul(priedLength));\r\n            uint256 pastStage = 0;\r\n            if(block.number > current_start_number){\r\n                uint256 blockInv = block.number.sub(current_start_number);\r\n                pastStage = SafeMath.min(blockInv.div(priedLength),halfroundTimes);\r\n                if(swaptoken_current_stage[swap_addr].add(pastStage) > halfroundTimes){\r\n                    pastStage = halfroundTimes.sub(swaptoken_current_stage[swap_addr]);\r\n                }\r\n            }\r\n\r\n            uint256 swap_token_share = swaptoken_allAmount[swap_addr];\r\n            uint256 prevReward = perblockreward.div(2**(swaptoken_current_stage[swap_addr]));\r\n            for(uint i = 1;i <= pastStage;i++){\r\n                if(swaptoken_last_reward_blocknum[swap_addr] > current_start_number.add(i.mul(priedLength))){\r\n                    prevReward= perblockreward.div((2**(i.add(swaptoken_current_stage[swap_addr]))));\r\n                    continue;\r\n                }\r\n                uint blocksub = current_start_number.add(i.mul(priedLength)).sub(swaptoken_last_reward_blocknum[swap_addr]);\r\n                if (swap_token_share > 0) {\r\n                    //uint256 blocks = blocknum.sub(swaptoken_last_reward_blocknum[swap_addr]);\r\n                    uint256 allReward = blocksub.mul(prevReward).mul(swaptoken_weight[swap_addr]) / all_weight;\r\n                    swaptoken_pershare_reward[swap_addr] = swaptoken_pershare_reward[swap_addr].add(allReward.mul(ACC_XKey_PRECISION) / swap_token_share);\r\n                }\r\n                swaptoken_last_reward_blocknum[swap_addr] = current_start_number.add(i.mul(priedLength));\r\n                prevReward= perblockreward.div((2 **(i.add(swaptoken_current_stage[swap_addr]))));\r\n\r\n            }\r\n            swaptoken_current_stage[swap_addr]= swaptoken_current_stage[swap_addr].add(pastStage);\r\n        }\r\n        updateSwaptokenInfo(swap_addr);\r\n    }\r\n\r\n    function createLiquidSwap(address _liquid_swaptoken_addr,\r\n        uint _swaptoken_weight,\r\n        uint _swaptoken_start_block) onlyOwner external {\r\n        require(swaptoken_last_reward_blocknum[_liquid_swaptoken_addr] == 0,\"Token exist\");\r\n        updateAllSwaptokenInfo();\r\n        swaptoken_last_reward_blocknum[_liquid_swaptoken_addr] = SafeMath.max(_swaptoken_start_block,block.number);\r\n        swaptoken_weight[_liquid_swaptoken_addr] = _swaptoken_weight;\r\n        all_weight = all_weight.add( _swaptoken_weight);\r\n        swaptoken_addrs.push(_liquid_swaptoken_addr);\r\n        swaptoken_current_stage[_liquid_swaptoken_addr] = 0;\r\n        emit LiquidSwapTokenCreated(_liquid_swaptoken_addr,swaptoken_weight[_liquid_swaptoken_addr],all_weight);\r\n    }\r\n    function updateSwaptokenInfo(address swap_addr) internal swapTokenExist(swap_addr) {\r\n\r\n        if(block.number > swaptoken_last_reward_blocknum[swap_addr]){\r\n            uint256 swap_token_share = swaptoken_allAmount[swap_addr];\r\n            if (swap_token_share > 0) {\r\n                uint256 reward = perblockreward .div(2 **(swaptoken_current_stage[swap_addr]));\r\n                uint256 blocks = block.number.sub(swaptoken_last_reward_blocknum[swap_addr]);\r\n                uint256 allReward = blocks.mul(reward).mul(swaptoken_weight[swap_addr]) / all_weight;\r\n                swaptoken_pershare_reward[swap_addr] = swaptoken_pershare_reward[swap_addr].add(allReward.mul(ACC_XKey_PRECISION) / swap_token_share);\r\n            }\r\n            swaptoken_last_reward_blocknum[swap_addr] = block.number;\r\n        }\r\n    }\r\n    function getAddrBalanceof(address _user)external view returns (uint){\r\n        return IERCMint20(erc_mintaddr).balanceOf(_user);\r\n    }\r\n    function changeMintErcAddr(address _erc_mintaddr) external onlyOwner {\r\n        erc_mintaddr = _erc_mintaddr;\r\n    }\r\n    function setStartBlocknum(uint _block_number) external onlyOwner{\r\n        require(startBlocknum == 0,\"has start \");\r\n        startBlocknum = _block_number;\r\n    }\r\n    function tansferNFTIn(address from,address nft_address,uint256 tokenId) internal{\r\n        require(ISwapLPNFT(nft_address).ownerOf(tokenId) != address(this),\"this nft is blongs to xkeydao\");\r\n        ISwapLPNFT(nft_address).transferFrom(from,address(this),tokenId);\r\n        require(ISwapLPNFT(nft_address).ownerOf(tokenId) == address(this),\"dont get nft\");\r\n    }\r\n    function transferNFTout(address to,address nft_address,uint256 tokenId) internal {\r\n        require(ISwapLPNFT(nft_address).ownerOf(tokenId) == address(this),\"this nft isn`t blongs to xkeydao\");\r\n        ISwapLPNFT(nft_address).transferFrom(address(this),to,tokenId);\r\n        require(ISwapLPNFT(nft_address).ownerOf(tokenId) == to,\"dont get nft\");\r\n    }\r\n    function addSwaptokenShareSingle(uint256 _tokenId) swapTokenExistByTokenId(_tokenId) lock external{\r\n        require(swaptoken_had_mint < swaptoken_totalMint,\"All token has been mint\");\r\n\r\n        if(startBlocknum == 0){\r\n            startBlocknum = block.number;\r\n        }\r\n\r\n        address _swaptoken_addr = ISwapLPNFT(lpnft).getPair(_tokenId);\r\n        calcAllStagePrice(_swaptoken_addr);\r\n        tansferNFTIn(msg.sender,IXKeyPair(_swaptoken_addr).nft(),_tokenId);\r\n        //uint256 swapAmountBeforeTrans = IERC20(_swaptoken_addr).balanceOf(address(this));\r\n        //IERC20(_swaptoken_addr).transferFrom(msg.sender,address(this),_swaptoken_amount);\r\n        //uint256 swapAmountAfterTrans = IERC20(_swaptoken_addr).balanceOf(address(this));\r\n        //uint256 realAmount = swapAmountAfterTrans.sub(swapAmountBeforeTrans);\r\n        uint256 realAmount = IXkeyPokerPower(xkeyPokerPower).stake(msg.sender, IPairERC20(_swaptoken_addr),_tokenId);\r\n\r\n        int256 user_rewardDebt = int256(swaptoken_user_share[_swaptoken_addr][msg.sender].mul(swaptoken_pershare_reward[_swaptoken_addr])/ACC_XKey_PRECISION);\r\n        uint256 user_reward = user_rewardDebt.sub( swaptoken_user_rewardDebt[_swaptoken_addr][msg.sender]).toUInt256();\r\n\r\n        uint real_reward = user_reward;\r\n        if(swaptoken_had_mint.add(user_reward) > swaptoken_totalMint){\r\n            real_reward = swaptoken_totalMint.sub(swaptoken_had_mint);\r\n        }\r\n        if (real_reward != 0) {\r\n            swaptoken_had_mint = swaptoken_had_mint.add(real_reward);\r\n            IERCMint20(erc_mintaddr).minerMint(msg.sender,real_reward);\r\n        }\r\n        swaptoken_user_share[_swaptoken_addr][msg.sender]= swaptoken_user_share[_swaptoken_addr][msg.sender].add(realAmount);\r\n        swaptoken_user_rewardDebt[_swaptoken_addr][msg.sender] = user_rewardDebt.add(int256(realAmount.mul(swaptoken_pershare_reward[_swaptoken_addr])/ACC_XKey_PRECISION));\r\n        swaptoken_allAmount[_swaptoken_addr] = swaptoken_allAmount[_swaptoken_addr].add(realAmount);\r\n\r\n    }\r\n    function addSwaptokenShareCombine(uint256[5] calldata _tokenIds)lock external{\r\n        require(swaptoken_had_mint < swaptoken_totalMint,\"All token has been mint\");\r\n        /*\r\n        if(startBlocknum == 0){\r\n            startBlocknum = block.number;\r\n        }\r\n        */\r\n        address _swaptoken_addr = ISwapLPNFT(lpnft).getPair(_tokenIds[0]);\r\n        for(uint i = 0;i < _tokenIds.length;i++){\r\n            require(ISwapLPNFT(lpnft).getPair(_tokenIds[i]) == _swaptoken_addr,\"xkeydao:tokenids arent same pair\");\r\n        }\r\n        require(swaptoken_last_reward_blocknum[_swaptoken_addr] != 0,\"dont have this token ids\");\r\n        calcAllStagePrice(_swaptoken_addr);\r\n        /*\r\n        uint256 swapAmountBeforeTrans = IERC20(_swaptoken_addr).balanceOf(address(this));\r\n        IERC20(_swaptoken_addr).transferFrom(msg.sender,address(this),_swaptoken_amount);\r\n        uint256 swapAmountAfterTrans = IERC20(_swaptoken_addr).balanceOf(address(this));\r\n        */\r\n        for(uint i = 0;i < _tokenIds.length;i++){\r\n            tansferNFTIn(msg.sender,lpnft,_tokenIds[i]);\r\n        }\r\n        uint256 realAmount = IXkeyPokerPower(xkeyPokerPower).stakeComposite(msg.sender, IPairERC20(_swaptoken_addr),_tokenIds);\r\n\r\n        int256 user_rewardDebt = int256(swaptoken_user_share[_swaptoken_addr][msg.sender].mul(swaptoken_pershare_reward[_swaptoken_addr])/ACC_XKey_PRECISION);\r\n        uint256 user_reward = user_rewardDebt.sub( swaptoken_user_rewardDebt[_swaptoken_addr][msg.sender]).toUInt256();\r\n\r\n        uint real_reward = user_reward;\r\n        if(swaptoken_had_mint.add(user_reward) > swaptoken_totalMint){\r\n        real_reward = swaptoken_totalMint.sub(swaptoken_had_mint);\r\n        }\r\n        if (real_reward != 0) {\r\n            swaptoken_had_mint = swaptoken_had_mint.add(real_reward);\r\n            IERCMint20(erc_mintaddr).minerMint(msg.sender,real_reward);\r\n        }\r\n        swaptoken_user_share[_swaptoken_addr][msg.sender]= swaptoken_user_share[_swaptoken_addr][msg.sender].add(realAmount);\r\n        swaptoken_user_rewardDebt[_swaptoken_addr][msg.sender] = user_rewardDebt.add(int256(realAmount.mul(swaptoken_pershare_reward[_swaptoken_addr])/ACC_XKey_PRECISION));\r\n        swaptoken_allAmount[_swaptoken_addr] = swaptoken_allAmount[_swaptoken_addr].add(realAmount);\r\n    }\r\n    function removeSwaptokenShareSingle(uint256 _tokenId) swapTokenExistByTokenId(_tokenId) lock external{\r\n        address _swaptoken_addr = ISwapLPNFT(lpnft).getPair(_tokenId);\r\n        uint256 _swaptoken_amount = IXkeyPokerPower(xkeyPokerPower).unstake(msg.sender, _tokenId);\r\n        require(swaptoken_user_share[_swaptoken_addr][msg.sender] >= _swaptoken_amount,\"Dont Have Enough token to remove\");\r\n        calcAllStagePrice(_swaptoken_addr);\r\n        int256 user_rewardDebt = int256(swaptoken_user_share[_swaptoken_addr][msg.sender].mul(swaptoken_pershare_reward[_swaptoken_addr])/ACC_XKey_PRECISION);\r\n        uint256 user_reward = user_rewardDebt.sub( swaptoken_user_rewardDebt[_swaptoken_addr][msg.sender]).toUInt256();\r\n\r\n        uint real_reward = user_reward;\r\n        if(swaptoken_had_mint.add(user_reward) > swaptoken_totalMint){\r\n            real_reward = swaptoken_totalMint.sub(swaptoken_had_mint);\r\n        }\r\n\r\n        if (real_reward != 0) {\r\n            swaptoken_had_mint = swaptoken_had_mint.add(real_reward);\r\n            IERCMint20(erc_mintaddr).minerMint(msg.sender,real_reward);\r\n        }\r\n        swaptoken_user_rewardDebt[_swaptoken_addr][msg.sender] = user_rewardDebt.sub(int256(_swaptoken_amount.mul(swaptoken_pershare_reward[_swaptoken_addr])/ACC_XKey_PRECISION));\r\n        swaptoken_user_share[_swaptoken_addr][msg.sender]= swaptoken_user_share[_swaptoken_addr][msg.sender].sub(_swaptoken_amount);\r\n\r\n        transferNFTout(msg.sender,IXKeyPair(_swaptoken_addr).nft(),_tokenId);\r\n        swaptoken_allAmount[_swaptoken_addr] = swaptoken_allAmount[_swaptoken_addr].sub(_swaptoken_amount);\r\n    }\r\n    function removeSwaptokenShareCombine(uint256 index) lock external{\r\n        uint256[5] memory tokenIds = IXkeyPokerPower(xkeyPokerPower).getTokenIdsByIndex(msg.sender, index);\r\n        address _swaptoken_addr = ISwapLPNFT(lpnft).getPair(tokenIds[0]);\r\n        for(uint i = 0;i < tokenIds.length;i++){\r\n            require(ISwapLPNFT(lpnft).getPair(tokenIds[i]) == _swaptoken_addr,\"this token id was not same pair\");\r\n        }\r\n\r\n        require(swaptoken_last_reward_blocknum[_swaptoken_addr] != 0,\"dont have this token\");\r\n        uint256 _swaptoken_amount = IXkeyPokerPower(xkeyPokerPower).unstakeComposite(msg.sender, index);\r\n        require(swaptoken_user_share[_swaptoken_addr][msg.sender] >= _swaptoken_amount,\"Dont Have Enough token to remove\");\r\n        calcAllStagePrice(_swaptoken_addr);\r\n        int256 user_rewardDebt = int256(swaptoken_user_share[_swaptoken_addr][msg.sender].mul(swaptoken_pershare_reward[_swaptoken_addr])/ACC_XKey_PRECISION);\r\n        uint256 user_reward = user_rewardDebt.sub( swaptoken_user_rewardDebt[_swaptoken_addr][msg.sender]).toUInt256();\r\n\r\n        uint real_reward = user_reward;\r\n        if(swaptoken_had_mint.add(user_reward) > swaptoken_totalMint){\r\n        real_reward = swaptoken_totalMint.sub(swaptoken_had_mint);\r\n        }\r\n        if (real_reward != 0) {\r\n        swaptoken_had_mint = swaptoken_had_mint.add(real_reward);\r\n        IERCMint20(erc_mintaddr).minerMint(msg.sender,real_reward);\r\n        }\r\n        swaptoken_user_rewardDebt[_swaptoken_addr][msg.sender] = user_rewardDebt.sub(int256(_swaptoken_amount.mul(swaptoken_pershare_reward[_swaptoken_addr])/ACC_XKey_PRECISION));\r\n        swaptoken_user_share[_swaptoken_addr][msg.sender]= swaptoken_user_share[_swaptoken_addr][msg.sender].sub(_swaptoken_amount);\r\n\r\n        for(uint i = 0;i < 5;i++){\r\n            transferNFTout(msg.sender,lpnft,tokenIds[i]);\r\n        }\r\n        swaptoken_allAmount[_swaptoken_addr]= swaptoken_allAmount[_swaptoken_addr].sub(_swaptoken_amount);\r\n    }\r\n    function getSwaptokenReward(address _swaptoken_addr) swapTokenExist(_swaptoken_addr) lock external{\r\n\r\n        calcAllStagePrice(_swaptoken_addr);\r\n        int256 user_rewardDebt = int256(swaptoken_user_share[_swaptoken_addr][msg.sender].mul(swaptoken_pershare_reward[_swaptoken_addr])/ACC_XKey_PRECISION);\r\n        require(user_rewardDebt >= swaptoken_user_rewardDebt[_swaptoken_addr][msg.sender],\"How 2??\");\r\n        uint256 user_reward = user_rewardDebt.sub( swaptoken_user_rewardDebt[_swaptoken_addr][msg.sender]).toUInt256();\r\n        swaptoken_user_rewardDebt[_swaptoken_addr][msg.sender] = user_rewardDebt;\r\n        uint real_reward = user_reward;\r\n        if(swaptoken_had_mint.add(user_reward) > swaptoken_totalMint){\r\n            real_reward = swaptoken_totalMint.sub(swaptoken_had_mint);\r\n        }\r\n        if (real_reward != 0) {\r\n            swaptoken_had_mint = swaptoken_had_mint.add(real_reward);\r\n            IERCMint20(erc_mintaddr).minerMint(msg.sender,real_reward);\r\n        }\r\n    }\r\n    function prereward(address _swaptoken_addr) internal view returns (uint256){\r\n        uint _swaptoken_pershare_reward = swaptoken_pershare_reward[_swaptoken_addr];\r\n        uint256 swap_token_share = swaptoken_allAmount[_swaptoken_addr];\r\n        uint256 last_blocknum_temp = swaptoken_last_reward_blocknum[_swaptoken_addr];\r\n        uint256 current_stage_Temp = swaptoken_current_stage[_swaptoken_addr];\r\n        if(block.number > swaptoken_last_reward_blocknum[_swaptoken_addr] && startBlocknum != 0){\r\n            uint256 current_start_number = startBlocknum.add(swaptoken_current_stage[_swaptoken_addr].mul(priedLength));\r\n            uint256 pastStage = 0;\r\n            if(block.number > current_start_number){\r\n                uint256 blockInv = block.number.sub(current_start_number);\r\n                pastStage = SafeMath.min(blockInv.div(priedLength),halfroundTimes);\r\n                if(swaptoken_current_stage[_swaptoken_addr].add(pastStage) > halfroundTimes){\r\n                    pastStage = halfroundTimes.sub(swaptoken_current_stage[_swaptoken_addr]);\r\n                }\r\n            }\r\n            uint256 prevReward = perblockreward.div(2**(swaptoken_current_stage[_swaptoken_addr]));\r\n            for(uint i = 1;i <= pastStage;i++){\r\n                if(last_blocknum_temp > current_start_number.add(i.mul(priedLength))){\r\n                    prevReward= perblockreward.div((2**(i.add(swaptoken_current_stage[_swaptoken_addr]))));\r\n                    continue;\r\n                }\r\n                uint blocksub = current_start_number.add(i.mul(priedLength)).sub(last_blocknum_temp);\r\n                //uint reward = perblockreward /(2 **(i.add(swaptoken_current_stage[_swaptoken_addr])));\r\n                if (swap_token_share > 0) {\r\n                    //uint256 blocks = blocknum.sub(swaptoken_last_reward_blocknum[swap_addr]);\r\n                    uint256 allReward = blocksub.mul(prevReward).mul(swaptoken_weight[_swaptoken_addr]) / all_weight;\r\n                    _swaptoken_pershare_reward = _swaptoken_pershare_reward.add(allReward.mul(ACC_XKey_PRECISION) / swap_token_share);\r\n                }\r\n                prevReward= perblockreward.div((2**(i.add(swaptoken_current_stage[_swaptoken_addr]))));\r\n                last_blocknum_temp = current_start_number.add(i.mul(priedLength));\r\n                current_stage_Temp = swaptoken_current_stage[_swaptoken_addr].add(pastStage);\r\n            }\r\n        }\r\n        if(block.number > swaptoken_last_reward_blocknum[_swaptoken_addr]){\r\n\r\n            if (swap_token_share > 0) {\r\n                uint256 reward = perblockreward /(2 **(current_stage_Temp));\r\n                uint256 blocks = block.number.sub(last_blocknum_temp);\r\n                uint256 allReward = blocks.mul(reward).mul(swaptoken_weight[_swaptoken_addr]) / all_weight;\r\n                _swaptoken_pershare_reward = _swaptoken_pershare_reward.add(allReward.mul(ACC_XKey_PRECISION) / swap_token_share);\r\n            }\r\n        }\r\n        return _swaptoken_pershare_reward;\r\n    }\r\n    function predReward(address _swaptoken_addr) public swapTokenExist(_swaptoken_addr) view returns (uint){\r\n        uint256 _swaptoken_pershare_reward = prereward(_swaptoken_addr);\r\n        int256 user_rewardDebt = int256(swaptoken_user_share[_swaptoken_addr][msg.sender].mul(_swaptoken_pershare_reward)/ACC_XKey_PRECISION);\r\n        uint256 user_reward = user_rewardDebt.sub( swaptoken_user_rewardDebt[_swaptoken_addr][msg.sender]).toUInt256();\r\n        uint real_reward = user_reward;\r\n        if(swaptoken_had_mint.add(user_reward) > swaptoken_totalMint){\r\n            real_reward = swaptoken_totalMint.sub(swaptoken_had_mint);\r\n        }\r\n        return real_reward;\r\n    }\r\n    function changeSwaptokenWeight(address _swaptoken_addr,uint new_weight) external onlyOwner swapTokenExist(_swaptoken_addr){\r\n        updateAllSwaptokenInfo();\r\n        all_weight = all_weight.sub(swaptoken_weight[_swaptoken_addr]).add(new_weight);\r\n        swaptoken_weight[_swaptoken_addr] = new_weight;\r\n    }\r\n    function getOwner() public view returns (address){\r\n        return owner;\r\n    }\r\n    function getCurrentStagePrice()public view returns (uint256){\r\n        if(startBlocknum == 0){\r\n            return perblockreward;\r\n        }\r\n        uint256 blockInv = block.number.sub(startBlocknum);\r\n        uint256 stageNum = SafeMath.min(blockInv.div(priedLength),halfroundTimes);\r\n\r\n        return perblockreward.div(2 **(stageNum));\r\n    }\r\n    function getUserShare(address _swaptoken_addr,address _user)public view returns (uint){\r\n        return swaptoken_user_share[_swaptoken_addr][_user];\r\n    }\r\n}\r\n",
  "sourcePath": "E:/codingproject/xkey/contracts/XkeyDao.sol",
  "compiler": {
    "name": "solc",
    "version": "0.5.16+commit.9c3226ce.Emscripten.clang"
  },
  "schemaVersion": "3.4.0",
  "updatedAt": "2021-05-28T05:15:25.539Z",
  "devdoc": {
    "methods": {}
  },
  "userdoc": {
    "methods": {}
  }
}