{
  "contractName": "XKeyNFT721StakingNew",
  "abi": [
    {
      "inputs": [
        {
          "internalType": "address",
          "name": "_erc721_mintaddr",
          "type": "address"
        }
      ],
      "payable": false,
      "stateMutability": "nonpayable",
      "type": "constructor"
    },
    {
      "anonymous": false,
      "inputs": [
        {
          "indexed": false,
          "internalType": "bool",
          "name": "",
          "type": "bool"
        },
        {
          "indexed": false,
          "internalType": "uint256",
          "name": "",
          "type": "uint256"
        },
        {
          "indexed": false,
          "internalType": "uint256",
          "name": "",
          "type": "uint256"
        }
      ],
      "name": "PoolCreated",
      "type": "event"
    },
    {
      "constant": true,
      "inputs": [],
      "name": "erc721_mintaddr",
      "outputs": [
        {
          "internalType": "address",
          "name": "",
          "type": "address"
        }
      ],
      "payable": false,
      "stateMutability": "view",
      "type": "function"
    },
    {
      "constant": true,
      "inputs": [],
      "name": "owner",
      "outputs": [
        {
          "internalType": "address",
          "name": "",
          "type": "address"
        }
      ],
      "payable": false,
      "stateMutability": "view",
      "type": "function"
    },
    {
      "constant": true,
      "inputs": [
        {
          "internalType": "address",
          "name": "",
          "type": "address"
        }
      ],
      "name": "supportNFTContracts",
      "outputs": [
        {
          "internalType": "bool",
          "name": "",
          "type": "bool"
        }
      ],
      "payable": false,
      "stateMutability": "view",
      "type": "function"
    },
    {
      "constant": true,
      "inputs": [],
      "name": "swaptoken_had_mint",
      "outputs": [
        {
          "internalType": "uint256",
          "name": "",
          "type": "uint256"
        }
      ],
      "payable": false,
      "stateMutability": "view",
      "type": "function"
    },
    {
      "constant": false,
      "inputs": [
        {
          "internalType": "address[]",
          "name": "_nftContracts",
          "type": "address[]"
        }
      ],
      "name": "initSupportNFT",
      "outputs": [],
      "payable": false,
      "stateMutability": "nonpayable",
      "type": "function"
    },
    {
      "constant": false,
      "inputs": [
        {
          "internalType": "address",
          "name": "_erc721_mintaddr",
          "type": "address"
        }
      ],
      "name": "changeMintErcAddr",
      "outputs": [],
      "payable": false,
      "stateMutability": "nonpayable",
      "type": "function"
    },
    {
      "constant": false,
      "inputs": [
        {
          "internalType": "uint256",
          "name": "poolid",
          "type": "uint256"
        }
      ],
      "name": "closePool",
      "outputs": [],
      "payable": false,
      "stateMutability": "nonpayable",
      "type": "function"
    },
    {
      "constant": false,
      "inputs": [
        {
          "internalType": "uint256",
          "name": "poolid",
          "type": "uint256"
        }
      ],
      "name": "openPool",
      "outputs": [],
      "payable": false,
      "stateMutability": "nonpayable",
      "type": "function"
    },
    {
      "constant": false,
      "inputs": [
        {
          "internalType": "address",
          "name": "_swaptoken_addr",
          "type": "address"
        },
        {
          "internalType": "uint256",
          "name": "_swaptoken_tokenid",
          "type": "uint256"
        },
        {
          "internalType": "uint256",
          "name": "poolid",
          "type": "uint256"
        }
      ],
      "name": "addNFT721",
      "outputs": [],
      "payable": false,
      "stateMutability": "nonpayable",
      "type": "function"
    },
    {
      "constant": false,
      "inputs": [
        {
          "internalType": "address",
          "name": "_swaptoken_addr",
          "type": "address"
        },
        {
          "internalType": "uint256",
          "name": "_swaptoken_tokenid",
          "type": "uint256"
        },
        {
          "internalType": "uint256",
          "name": "poolid",
          "type": "uint256"
        }
      ],
      "name": "removeNFT721",
      "outputs": [],
      "payable": false,
      "stateMutability": "nonpayable",
      "type": "function"
    },
    {
      "constant": true,
      "inputs": [
        {
          "internalType": "uint256",
          "name": "poolid",
          "type": "uint256"
        }
      ],
      "name": "getPoolStatus",
      "outputs": [
        {
          "internalType": "bool",
          "name": "",
          "type": "bool"
        }
      ],
      "payable": false,
      "stateMutability": "view",
      "type": "function"
    },
    {
      "constant": true,
      "inputs": [
        {
          "internalType": "uint256",
          "name": "poolid",
          "type": "uint256"
        }
      ],
      "name": "getPoolStart",
      "outputs": [
        {
          "internalType": "uint256",
          "name": "",
          "type": "uint256"
        }
      ],
      "payable": false,
      "stateMutability": "view",
      "type": "function"
    },
    {
      "constant": true,
      "inputs": [
        {
          "internalType": "uint256",
          "name": "poolid",
          "type": "uint256"
        }
      ],
      "name": "getPoolCloseat",
      "outputs": [
        {
          "internalType": "uint256",
          "name": "",
          "type": "uint256"
        }
      ],
      "payable": false,
      "stateMutability": "view",
      "type": "function"
    },
    {
      "constant": true,
      "inputs": [
        {
          "internalType": "address",
          "name": "useraddr",
          "type": "address"
        },
        {
          "internalType": "uint256",
          "name": "poolid",
          "type": "uint256"
        }
      ],
      "name": "getUserIfInpool",
      "outputs": [
        {
          "internalType": "bool",
          "name": "",
          "type": "bool"
        }
      ],
      "payable": false,
      "stateMutability": "view",
      "type": "function"
    },
    {
      "constant": true,
      "inputs": [],
      "name": "getOwner",
      "outputs": [
        {
          "internalType": "address",
          "name": "",
          "type": "address"
        }
      ],
      "payable": false,
      "stateMutability": "view",
      "type": "function"
    }
  ],
  "bytecode": "0x60806040523480156200001157600080fd5b506040516200183738038062001837833981810160405260208110156200003757600080fd5b505160008054336001600160a01b0319918216178255600180549091166001600160a01b03841617815590819052600080516020620017f7833981519152805460ff19169091179055600b60209081524260008051602062001817833981519152819055620000b4916213c680906200031d811b6200129f17901c565b60016000527fbbc70db1b6c7afd11e79c0fb0051300458f1a3acb8ee9789d9b6b26c61ad9bc7819055600080516020620017f7833981519152546000805160206200181783398151915254600a60209081526040805160ff9094161515845290830191909152818101929092529051600080516020620017d78339815191529181900360600190a1600260005260008051602062001777833981519152805460ff19166001179055600b602090815242600080516020620017b783398151915281905562000190916213c680906200129f6200031d821b17901c565b60026000527fbff4442b8ed600beeb8e26b1279a0f0d14c6edfaec26d968ee13c86f7d4c2ba88190556000805160206200177783398151915254600080516020620017b783398151915254600a60209081526040805160ff9094161515845290830191909152818101929092529051600080516020620017d78339815191529181900360600190a1600360005260008051602062001797833981519152805460ff19166001179055600b6020908152427f64c15cc42be7899b001f818cf4433057002112c418d1d3a67cd5cb453051d33e8190556200027d916213c680906200129f6200031d821b17901c565b60036000527fa856840544dc26124927add067d799967eac11be13e14d82cc281ea46fa3975981905560008051602062001797833981519152547f64c15cc42be7899b001f818cf4433057002112c418d1d3a67cd5cb453051d33e54600a60209081526040805160ff9094161515845290830191909152818101929092529051600080516020620017d78339815191529181900360600190a1506200037f565b60008282018381101562000378576040805162461bcd60e51b815260206004820152601b60248201527f536166654d6174683a206164646974696f6e206f766572666c6f770000000000604482015290519081900360640190fd5b9392505050565b6113e8806200038f6000396000f3fe608060405234801561001057600080fd5b50600436106100f55760003560e01c80638da5cb5b11610097578063d290ca9611610066578063d290ca96146102c7578063ddac4d01146102cf578063ee3316be146102ec578063f9c2041b1461031e576100f5565b80638da5cb5b1461020c57806395411f091461021457806397f693251461023a578063b34a5f72146102aa576100f5565b80636e880070116100d35780636e8800701461016557806386b607be146101a55780638860210c146101c2578063893d20e8146101e8576100f5565b80630860ec29146100fa57806337de615f1461011457806358618aaf14610133575b600080fd5b61010261033b565b60408051918252519081900360200190f35b6101316004803603602081101561012a57600080fd5b5035610341565b005b6101316004803603606081101561014957600080fd5b506001600160a01b0381351690602081013590604001356103d1565b6101916004803603604081101561017b57600080fd5b506001600160a01b03813516906020013561088e565b604080519115158252519081900360200190f35b610102600480360360208110156101bb57600080fd5b503561091d565b610131600480360360208110156101d857600080fd5b50356001600160a01b0316610993565b6101f06109e4565b604080516001600160a01b039092168252519081900360200190f35b6101f06109f3565b6101916004803603602081101561022a57600080fd5b50356001600160a01b0316610a02565b6101316004803603602081101561025057600080fd5b81019060208101813564010000000081111561026b57600080fd5b82018360208201111561027d57600080fd5b8035906020019184602083028401116401000000008311171561029f57600080fd5b509092509050610a17565b610191600480360360208110156102c057600080fd5b5035610ac5565b6101f0610b3e565b610131600480360360208110156102e557600080fd5b5035610b4d565b6101316004803603606081101561030257600080fd5b506001600160a01b038135169060208101359060400135610c15565b6101026004803603602081101561033457600080fd5b50356111e0565b60025481565b8080600114806103515750806002145b8061035c5750806003145b6103a1576040805162461bcd60e51b81526020600482015260116024820152703837b7b634b2103737ba1032bc34b9ba1760791b604482015290519081900360640190fd5b6000546001600160a01b031633146103b857600080fd5b506000908152600960205260409020805460ff19169055565b6001600160a01b038316600090815260066020526040902054839060ff161515600114610445576040805162461bcd60e51b815260206004820152601060248201527f6e6674206e6f7420737570706f72742e00000000000000000000000000000000604482015290519081900360640190fd5b8180600114806104555750806002145b806104605750806003145b6104a5576040805162461bcd60e51b81526020600482015260116024820152703837b7b634b2103737ba1032bc34b9ba1760791b604482015290519081900360640190fd5b3360009081526003602090815260408083206001600160a01b0389168452825280832087845290915290205460ff16151560011461052a576040805162461bcd60e51b815260206004820152600f60248201527f446f6e74206861766520746f6b656e0000000000000000000000000000000000604482015290519081900360640190fd5b33600090815260046020908152604080832086845290915290205460ff16151560011461059e576040805162461bcd60e51b815260206004820181905260248201527f54686973207573657220686173206e6f74206a6f696e207468697320706f6f6c604482015290519081900360640190fd5b3360008181526003602090815260408083206001600160a01b038a16845282528083208884528252808320805460ff199081169091559383526004825280832087845290915290208054909116905560018314801561062b575033600090815260056020908152604080832086845290915290205462093a809061062990429063ffffffff61125616565b115b156106b257600154604080517f1fb33b0600000000000000000000000000000000000000000000000000000000815233600482015290516001600160a01b0390921691631fb33b069160248082019260009290919082900301818387803b15801561069557600080fd5b505af11580156106a9573d6000803e3d6000fd5b5050505061081b565b8260021480156106f0575033600090815260056020908152604080832086845290915290205462054600906106ee90429063ffffffff61125616565b115b1561075a57600154604080517f2ecda33900000000000000000000000000000000000000000000000000000000815233600482015290516001600160a01b0390921691632ecda3399160248082019260009290919082900301818387803b15801561069557600080fd5b82600314801561079857503360009081526005602090815260408083208684529091529020546202a3009061079690429063ffffffff61125616565b115b1561081b57600154604080517ff477957b00000000000000000000000000000000000000000000000000000000815233600482015290516001600160a01b039092169163f477957b9160248082019260009290919082900301818387803b15801561080257600080fd5b505af1158015610816573d6000803e3d6000fd5b505050505b604080516323b872dd60e01b81523060048201523360248201526044810186905290516001600160a01b038716916323b872dd91606480830192600092919082900301818387803b15801561086f57600080fd5b505af1158015610883573d6000803e3d6000fd5b505050505050505050565b60008180600114806108a05750806002145b806108ab5750806003145b6108f0576040805162461bcd60e51b81526020600482015260116024820152703837b7b634b2103737ba1032bc34b9ba1760791b604482015290519081900360640190fd5b50506001600160a01b03919091166000908152600460209081526040808320938352929052205460ff1690565b600081806001148061092f5750806002145b8061093a5750806003145b61097f576040805162461bcd60e51b81526020600482015260116024820152703837b7b634b2103737ba1032bc34b9ba1760791b604482015290519081900360640190fd5b50506000908152600a602052604090205490565b6000546001600160a01b031633146109aa57600080fd5b600180547fffffffffffffffffffffffff0000000000000000000000000000000000000000166001600160a01b0392909216919091179055565b6000546001600160a01b031690565b6000546001600160a01b031681565b60066020526000908152604090205460ff1681565b6000546001600160a01b03163314610a2e57600080fd5b80610a6a5760405162461bcd60e51b81526004018080602001828103825260238152602001806113916023913960400191505060405180910390fd5b60005b81811015610ac057600160066000858585818110610a8757fe5b602090810292909201356001600160a01b0316835250810191909152604001600020805460ff1916911515919091179055600101610a6d565b505050565b6000818060011480610ad75750806002145b80610ae25750806003145b610b27576040805162461bcd60e51b81526020600482015260116024820152703837b7b634b2103737ba1032bc34b9ba1760791b604482015290519081900360640190fd5b505060009081526009602052604090205460ff1690565b6001546001600160a01b031681565b808060011480610b5d5750806002145b80610b685750806003145b610bad576040805162461bcd60e51b81526020600482015260116024820152703837b7b634b2103737ba1032bc34b9ba1760791b604482015290519081900360640190fd5b6000546001600160a01b03163314610bc457600080fd5b6000828152600960209081526040808320805460ff19166001179055600b90915290204290819055610bff906213c68063ffffffff61129f16565b6000928352600a60205260409092209190915550565b6001600160a01b038316600090815260066020526040902054839060ff161515600114610c89576040805162461bcd60e51b815260206004820152601060248201527f6e6674206e6f7420737570706f72742e00000000000000000000000000000000604482015290519081900360640190fd5b818060011480610c995750806002145b80610ca45750806003145b610ce9576040805162461bcd60e51b81526020600482015260116024820152703837b7b634b2103737ba1032bc34b9ba1760791b604482015290519081900360640190fd5b600160009054906101000a90046001600160a01b03166001600160a01b031663c095b2376040518163ffffffff1660e01b815260040160206040518083038186803b158015610d3757600080fd5b505afa158015610d4b573d6000803e3d6000fd5b505050506040513d6020811015610d6157600080fd5b505115610db5576040805162461bcd60e51b815260206004820152601760248201527f416c6c20746f6b656e20686173206265656e206d696e74000000000000000000604482015290519081900360640190fd5b60008381526009602052604090205460ff161515600114610e1d576040805162461bcd60e51b815260206004820152600e60248201527f506f6f6c20697320636c6f736564000000000000000000000000000000000000604482015290519081900360640190fd5b6000838152600b6020526040902054421015610e80576040805162461bcd60e51b815260206004820152601360248201527f506f6f6c2068617665206e6f7420737461727400000000000000000000000000604482015290519081900360640190fd5b6000838152600a6020526040902054421115610ee3576040805162461bcd60e51b815260206004820152601f60248201527f506f6f6c207374617274696d65206d6f7265207468616e203135206461797300604482015290519081900360640190fd5b33600090815260046020908152604080832086845290915290205460ff1615610f53576040805162461bcd60e51b815260206004820152601c60248201527f54686973207573657220686173206a6f696e207468697320706f6f6c00000000604482015290519081900360640190fd5b33600081815260046020818152604080842088855282528084208054600160ff199182168117909255868652600584528286208a87528452828620429055958552600383528185206001600160a01b038c168087529084528286208b875284529482902080549096161790945583517f6352211e00000000000000000000000000000000000000000000000000000000815291820188905292513093636352211e9260248082019391829003018186803b15801561101057600080fd5b505afa158015611024573d6000803e3d6000fd5b505050506040513d602081101561103a57600080fd5b50516001600160a01b03161415611098576040805162461bcd60e51b815260206004820152601f60248201527f7468697320746f6b656e696420686173207472616e7366657220746f206d6500604482015290519081900360640190fd5b604080516323b872dd60e01b81523360048201523060248201526044810186905290516001600160a01b038716916323b872dd91606480830192600092919082900301818387803b1580156110ec57600080fd5b505af1158015611100573d6000803e3d6000fd5b50505050306001600160a01b0316856001600160a01b0316636352211e866040518263ffffffff1660e01b81526004018082815260200191505060206040518083038186803b15801561115257600080fd5b505afa158015611166573d6000803e3d6000fd5b505050506040513d602081101561117c57600080fd5b50516001600160a01b0316146111d9576040805162461bcd60e51b815260206004820152601f60248201527f7468697320746f6b656e696420686173207472616e7366657220746f206d6500604482015290519081900360640190fd5b5050505050565b60008180600114806111f25750806002145b806111fd5750806003145b611242576040805162461bcd60e51b81526020600482015260116024820152703837b7b634b2103737ba1032bc34b9ba1760791b604482015290519081900360640190fd5b50506000908152600b602052604090205490565b600061129883836040518060400160405280601e81526020017f536166654d6174683a207375627472616374696f6e206f766572666c6f7700008152506112f9565b9392505050565b600082820183811015611298576040805162461bcd60e51b815260206004820152601b60248201527f536166654d6174683a206164646974696f6e206f766572666c6f770000000000604482015290519081900360640190fd5b600081848411156113885760405162461bcd60e51b81526004018080602001828103825283818151815260200191508051906020019080838360005b8381101561134d578181015183820152602001611335565b50505050905090810190601f16801561137a5780820380516001836020036101000a031916815260200191505b509250505060405180910390fd5b50505090039056fe737570706f727420636f6e7472616374732063616e206e6f7420626520656d7074792ea265627a7a72315820d7c03909f0e053dd5e5544a412b27b29c1bf4ad4e383755664695a3c0e83ae3f64736f6c634300051000326cde3cea4b3a3fb2488b2808bae7556f4a405e50f65e1794383bc026131b13c3c575c31fea594a6eb97c8e9d3f9caee4c16218c6ef37e923234c0fe9014a61e7a50eece07c7db1631545c0069bd8f5f54d5935e215d59097edf258a44ba91634d97aa36d6a18e8c4c4d585bf56dc621a77e42dccb2814c0dcda647dc028e7ba192e85d02570a8092d09a6e3a57665bc3815a2699a4074001bf1ccabf660f5a3672c6bfb7988af3a1efa6568f02a999bc52252641c659d85961ca3d372b57d5cf",
  "source": "pragma solidity=0.5.16;\r\n\r\nimport './libraries/SafeMath.sol';\r\nimport './libraries/SignedSafeMath.sol';\r\nimport \"./interfaces/IERCMint721.sol\";\r\nimport './interfaces/IERC721.sol';\r\n\r\ncontract XKeyNFT721StakingNew {\r\n    using SafeMath  for uint;\r\n    using SignedSafeMath for int256;\r\n\r\n    address public owner;\r\n    address public erc721_mintaddr;\r\n    uint256 public swaptoken_had_mint;\r\n//    uint256 public swaptoken_totalMint;\r\n    // user=>nft=>tokenid=>bool\r\n    mapping(address=>mapping(address=>mapping(uint=>bool))) userNFTTokenid;\r\n    // user=>poolid=>bool\r\n    mapping(address=>mapping(uint=>bool)) userNFTInPool;\r\n    // user=>poolid=>uint\r\n    mapping(address=>mapping(uint=>uint)) userJoinPoolTime;\r\n\r\n    mapping(address=>bool) public supportNFTContracts;\r\n    //pool=>duration,1:gold,2:silver,3:copper\r\n    //totalmint\r\n    uint poolTotalmint;\r\n    //totalhadmint\r\n    uint poolTotalhadmint;\r\n    //pool=>exist\r\n    mapping(uint=>bool) poolExist;\r\n    //pool=>closeat\r\n    mapping(uint=>uint) poolCloseat;\r\n    //pool=>start\r\n    mapping(uint=>uint) poolStart;\r\n\r\n    // user=>poolid=>starttime\r\n    mapping(address=>mapping(uint=>bool)) userStakingStartTime;\r\n    event PoolCreated(bool,uint,uint);\r\n\r\n    constructor(\r\n        address _erc721_mintaddr) public {\r\n        owner = msg.sender;\r\n        erc721_mintaddr =  _erc721_mintaddr;\r\n//        swaptoken_totalMint = _swaptoken_totalMint;\r\n\r\n        poolExist[1] = true;\r\n        poolStart[1] = now;\r\n        poolCloseat[1] = now.add(15 days);\r\n        emit PoolCreated(poolExist[1],poolStart[1],poolCloseat[1]);\r\n\r\n        poolExist[2] = true;\r\n        poolStart[2] = now;\r\n        poolCloseat[2] = now.add(15 days);\r\n        emit PoolCreated(poolExist[2],poolStart[2],poolCloseat[2]);\r\n\r\n        poolExist[3] = true;\r\n        poolStart[3] = now;\r\n        poolCloseat[3] = now.add(15 days);\r\n        emit PoolCreated(poolExist[3],poolStart[3],poolCloseat[3]);\r\n    }\r\n\r\n    modifier onlyOwner {\r\n        require(msg.sender == owner);\r\n        _;\r\n    }\r\n\r\n    modifier onlySupportContracts(address _nftcontract) {\r\n        require(supportNFTContracts[_nftcontract] == true,\"nft not support.\");\r\n        _;\r\n    }\r\n\r\n    modifier poolIfExist(uint  _poolid) {\r\n        require(_poolid==1 || _poolid==2 || _poolid==3,\"poolid not exist.\");\r\n        _;\r\n    }\r\n\r\n    function initSupportNFT(address[] calldata _nftContracts) onlyOwner external {\r\n        require(_nftContracts.length > 0,\"support contracts can not be empty.\");\r\n        for(uint i = 0; i < _nftContracts.length; i++) {\r\n            supportNFTContracts[_nftContracts[i]] = true;\r\n        }\r\n    }\r\n\r\n    function changeMintErcAddr(address _erc721_mintaddr) external onlyOwner {\r\n        erc721_mintaddr = _erc721_mintaddr;\r\n    }\r\n\r\n//    function ChangePoolStart(uint poolid,address user) external onlyOwner {\r\n//        userJoinPoolTime[user][poolid] = (userJoinPoolTime[user][poolid]).sub(8 days);\r\n//    }\r\n\r\n    function closePool(uint poolid) poolIfExist(poolid) external onlyOwner {\r\n        poolExist[poolid] = false;\r\n    }\r\n\r\n    function openPool(uint poolid)  poolIfExist(poolid) external onlyOwner {\r\n        poolExist[poolid] = true;\r\n        poolStart[poolid] = now;\r\n        poolCloseat[poolid] = now.add(15 days);\r\n\r\n    }\r\n\r\n    function addNFT721(address _swaptoken_addr,uint _swaptoken_tokenid,uint poolid) onlySupportContracts(_swaptoken_addr) poolIfExist(poolid) external{\r\n        require(IERCMint721(erc721_mintaddr).ifMintEnd() == false,\"All token has been mint\");\r\n        require(poolExist[poolid] == true,\"Pool is closed\");\r\n        require(poolStart[poolid] <= now,\"Pool have not start\");\r\n        require(poolCloseat[poolid] >= now,\"Pool startime more than 15 days\");\r\n        require(userNFTInPool[msg.sender][poolid] == false,\"This user has join this pool\");\r\n\r\n        userNFTInPool[msg.sender][poolid] = true;\r\n        userJoinPoolTime[msg.sender][poolid] = now;\r\n        userNFTTokenid[msg.sender][_swaptoken_addr][_swaptoken_tokenid] = true;\r\n        require(IERC721(_swaptoken_addr).ownerOf(_swaptoken_tokenid) != address(this),\"this tokenid has transfer to me\");\r\n        IERC721(_swaptoken_addr).transferFrom(msg.sender,address(this),_swaptoken_tokenid);\r\n        require(IERC721(_swaptoken_addr).ownerOf(_swaptoken_tokenid) == address(this),\"this tokenid has transfer to me\");\r\n    }\r\n\r\n    function removeNFT721(address _swaptoken_addr,uint _swaptoken_tokenid,uint poolid) onlySupportContracts(_swaptoken_addr) poolIfExist(poolid) external {\r\n        require(userNFTTokenid[msg.sender][_swaptoken_addr][_swaptoken_tokenid] == true,\"Dont have token\");\r\n        require(userNFTInPool[msg.sender][poolid] == true,\"This user has not join this pool\");\r\n\r\n        userNFTTokenid[msg.sender][_swaptoken_addr][_swaptoken_tokenid] = false;\r\n        userNFTInPool[msg.sender][poolid] = false;\r\n        if (poolid == 1 && now.sub(userJoinPoolTime[msg.sender][poolid]) > 7 days) {\r\n            IERCMint721(erc721_mintaddr).mintGold(msg.sender);\r\n        } else if (poolid == 2 && now.sub(userJoinPoolTime[msg.sender][poolid]) > 4 days) {\r\n            IERCMint721(erc721_mintaddr).mintSilver(msg.sender);\r\n        } else if (poolid == 3 && now.sub(userJoinPoolTime[msg.sender][poolid]) > 2 days) {\r\n            IERCMint721(erc721_mintaddr).mintCopper(msg.sender);\r\n        }\r\n        IERC721(_swaptoken_addr).transferFrom(address(this),msg.sender,_swaptoken_tokenid);\r\n    }\r\n\r\n    function getPoolStatus(uint poolid) poolIfExist(poolid) external view returns (bool) {\r\n        return poolExist[poolid];\r\n    }\r\n\r\n    function getPoolStart(uint poolid) poolIfExist(poolid) external view returns (uint) {\r\n        return poolStart[poolid];\r\n    }\r\n\r\n    function getPoolCloseat(uint poolid) poolIfExist(poolid) external view returns (uint) {\r\n        return poolCloseat[poolid];\r\n    }\r\n    function getUserIfInpool(address useraddr,uint poolid) poolIfExist(poolid) external view returns (bool) {\r\n        return userNFTInPool[useraddr][poolid];\r\n    }\r\n\r\n\r\n    function getOwner() public view returns (address){\r\n        return owner;\r\n    }\r\n}\r\n",
  "sourcePath": "E:/codingproject/xkey/contracts/XKeyNFT721StakingNew.sol",
  "compiler": {
    "name": "solc",
    "version": "0.5.16+commit.9c3226ce.Emscripten.clang"
  },
  "schemaVersion": "3.4.0",
  "updatedAt": "2021-06-04T05:56:25.606Z",
  "devdoc": {
    "methods": {}
  },
  "userdoc": {
    "methods": {}
  }
}