{
  "contractName": "XKeyToken",
  "abi": [
    {
      "inputs": [],
      "payable": false,
      "stateMutability": "nonpayable",
      "type": "constructor"
    },
    {
      "anonymous": false,
      "inputs": [
        {
          "indexed": true,
          "internalType": "address",
          "name": "owner",
          "type": "address"
        },
        {
          "indexed": true,
          "internalType": "address",
          "name": "spender",
          "type": "address"
        },
        {
          "indexed": false,
          "internalType": "uint256",
          "name": "value",
          "type": "uint256"
        }
      ],
      "name": "Approval",
      "type": "event"
    },
    {
      "anonymous": false,
      "inputs": [
        {
          "indexed": true,
          "internalType": "address",
          "name": "from",
          "type": "address"
        },
        {
          "indexed": true,
          "internalType": "address",
          "name": "to",
          "type": "address"
        },
        {
          "indexed": false,
          "internalType": "uint256",
          "name": "value",
          "type": "uint256"
        }
      ],
      "name": "Transfer",
      "type": "event"
    },
    {
      "constant": true,
      "inputs": [
        {
          "internalType": "address",
          "name": "",
          "type": "address"
        },
        {
          "internalType": "address",
          "name": "",
          "type": "address"
        }
      ],
      "name": "allowance",
      "outputs": [
        {
          "internalType": "uint256",
          "name": "",
          "type": "uint256"
        }
      ],
      "payable": false,
      "stateMutability": "view",
      "type": "function"
    },
    {
      "constant": true,
      "inputs": [
        {
          "internalType": "address",
          "name": "",
          "type": "address"
        }
      ],
      "name": "balanceOf",
      "outputs": [
        {
          "internalType": "uint256",
          "name": "",
          "type": "uint256"
        }
      ],
      "payable": false,
      "stateMutability": "view",
      "type": "function"
    },
    {
      "constant": true,
      "inputs": [],
      "name": "decimals",
      "outputs": [
        {
          "internalType": "uint8",
          "name": "",
          "type": "uint8"
        }
      ],
      "payable": false,
      "stateMutability": "view",
      "type": "function"
    },
    {
      "constant": true,
      "inputs": [],
      "name": "max_mint_number",
      "outputs": [
        {
          "internalType": "uint256",
          "name": "",
          "type": "uint256"
        }
      ],
      "payable": false,
      "stateMutability": "view",
      "type": "function"
    },
    {
      "constant": true,
      "inputs": [],
      "name": "max_pre_number",
      "outputs": [
        {
          "internalType": "uint256",
          "name": "",
          "type": "uint256"
        }
      ],
      "payable": false,
      "stateMutability": "view",
      "type": "function"
    },
    {
      "constant": true,
      "inputs": [
        {
          "internalType": "address",
          "name": "",
          "type": "address"
        },
        {
          "internalType": "uint256",
          "name": "",
          "type": "uint256"
        }
      ],
      "name": "minter_address_number",
      "outputs": [
        {
          "internalType": "uint256",
          "name": "",
          "type": "uint256"
        }
      ],
      "payable": false,
      "stateMutability": "view",
      "type": "function"
    },
    {
      "constant": true,
      "inputs": [],
      "name": "name",
      "outputs": [
        {
          "internalType": "string",
          "name": "",
          "type": "string"
        }
      ],
      "payable": false,
      "stateMutability": "view",
      "type": "function"
    },
    {
      "constant": true,
      "inputs": [],
      "name": "owner",
      "outputs": [
        {
          "internalType": "address",
          "name": "",
          "type": "address"
        }
      ],
      "payable": false,
      "stateMutability": "view",
      "type": "function"
    },
    {
      "constant": true,
      "inputs": [],
      "name": "symbol",
      "outputs": [
        {
          "internalType": "string",
          "name": "",
          "type": "string"
        }
      ],
      "payable": false,
      "stateMutability": "view",
      "type": "function"
    },
    {
      "constant": true,
      "inputs": [],
      "name": "totalMinterNumber",
      "outputs": [
        {
          "internalType": "uint256",
          "name": "",
          "type": "uint256"
        }
      ],
      "payable": false,
      "stateMutability": "view",
      "type": "function"
    },
    {
      "constant": true,
      "inputs": [],
      "name": "totalReleaseNumber",
      "outputs": [
        {
          "internalType": "uint256",
          "name": "",
          "type": "uint256"
        }
      ],
      "payable": false,
      "stateMutability": "view",
      "type": "function"
    },
    {
      "constant": true,
      "inputs": [],
      "name": "totalSupply",
      "outputs": [
        {
          "internalType": "uint256",
          "name": "",
          "type": "uint256"
        }
      ],
      "payable": false,
      "stateMutability": "view",
      "type": "function"
    },
    {
      "constant": false,
      "inputs": [
        {
          "internalType": "address",
          "name": "new_owner",
          "type": "address"
        }
      ],
      "name": "changeOwner",
      "outputs": [],
      "payable": false,
      "stateMutability": "nonpayable",
      "type": "function"
    },
    {
      "constant": false,
      "inputs": [
        {
          "internalType": "address",
          "name": "miner",
          "type": "address"
        },
        {
          "internalType": "uint256",
          "name": "total",
          "type": "uint256"
        }
      ],
      "name": "setMintContract",
      "outputs": [],
      "payable": false,
      "stateMutability": "nonpayable",
      "type": "function"
    },
    {
      "constant": false,
      "inputs": [
        {
          "internalType": "address",
          "name": "to",
          "type": "address"
        },
        {
          "internalType": "uint256",
          "name": "value",
          "type": "uint256"
        }
      ],
      "name": "minerMint",
      "outputs": [],
      "payable": false,
      "stateMutability": "nonpayable",
      "type": "function"
    },
    {
      "constant": false,
      "inputs": [
        {
          "internalType": "address",
          "name": "spender",
          "type": "address"
        },
        {
          "internalType": "uint256",
          "name": "value",
          "type": "uint256"
        }
      ],
      "name": "approve",
      "outputs": [
        {
          "internalType": "bool",
          "name": "",
          "type": "bool"
        }
      ],
      "payable": false,
      "stateMutability": "nonpayable",
      "type": "function"
    },
    {
      "constant": false,
      "inputs": [
        {
          "internalType": "address",
          "name": "to",
          "type": "address"
        },
        {
          "internalType": "uint256",
          "name": "value",
          "type": "uint256"
        }
      ],
      "name": "transfer",
      "outputs": [
        {
          "internalType": "bool",
          "name": "",
          "type": "bool"
        }
      ],
      "payable": false,
      "stateMutability": "nonpayable",
      "type": "function"
    },
    {
      "constant": false,
      "inputs": [
        {
          "internalType": "address",
          "name": "from",
          "type": "address"
        },
        {
          "internalType": "address",
          "name": "to",
          "type": "address"
        },
        {
          "internalType": "uint256",
          "name": "value",
          "type": "uint256"
        }
      ],
      "name": "transferFrom",
      "outputs": [
        {
          "internalType": "bool",
          "name": "",
          "type": "bool"
        }
      ],
      "payable": false,
      "stateMutability": "nonpayable",
      "type": "function"
    }
  ],
  "bytecode": "0x608060405234801561001057600080fd5b50600680546001600160a01b0319163390811790915560009081526004602052604081206b014adf4b7320334b90000000908190559055610be8806100566000396000f3fe608060405234801561001057600080fd5b50600436106101165760003560e01c806395d89b41116100a2578063a9059cbb11610071578063a9059cbb14610344578063dd62ed3e14610370578063e4eb688d1461039e578063e53050b7146103a6578063e818cb35146103ae57610116565b806395d89b411461011b5780639af9d266146102c65780639d85f4df146102f2578063a6f9dae11461031e57610116565b8063313ce567116100e9578063313ce567146102285780633b349de6146102465780636934d4ea1461027457806370a082311461027c5780638da5cb5b146102a257610116565b806306fdde031461011b578063095ea7b31461019857806318160ddd146101d857806323b872dd146101f2575b600080fd5b6101236103b6565b6040805160208082528351818301528351919283929083019185019080838360005b8381101561015d578181015183820152602001610145565b50505050905090810190601f16801561018a5780820380516001836020036101000a031916815260200191505b509250505060405180910390f35b6101c4600480360360408110156101ae57600080fd5b506001600160a01b0381351690602001356103d6565b604080519115158252519081900360200190f35b6101e06103ec565b60408051918252519081900360200190f35b6101c46004803603606081101561020857600080fd5b506001600160a01b038135811691602081013590911690604001356103f2565b61023061048c565b6040805160ff9092168252519081900360200190f35b6102726004803603604081101561025c57600080fd5b506001600160a01b038135169060200135610491565b005b6101e061058b565b6101e06004803603602081101561029257600080fd5b50356001600160a01b031661059b565b6102aa6105ad565b604080516001600160a01b039092168252519081900360200190f35b6101e0600480360360408110156102dc57600080fd5b506001600160a01b0381351690602001356105bc565b6102726004803603604081101561030857600080fd5b506001600160a01b0381351690602001356105de565b6102726004803603602081101561033457600080fd5b50356001600160a01b031661075a565b6101c46004803603604081101561035a57600080fd5b506001600160a01b0381351690602001356107d5565b6101e06004803603604081101561038657600080fd5b506001600160a01b03813581169160200135166107e2565b6101e06107ff565b6101e0610805565b6101e061080b565b60405180604001604052806004815260200163584b455960e01b81525081565b60006103e333848461081b565b50600192915050565b60005481565b6001600160a01b038316600090815260056020908152604080832033845290915281205460001914610477576001600160a01b0384166000908152600560209081526040808320338452909152902054610452908363ffffffff61087d16565b6001600160a01b03851660009081526005602090815260408083203384529091529020555b6104828484846108c6565b5060019392505050565b601281565b336000908152600360205260409020546104e3576040805162461bcd60e51b815260206004820152600e60248201526d34b73b30b634b21036b4b73a32b960911b604482015290519081900360640190fd5b3360009081526003602052604090206001810154905403818111156105055750805b6000811161054c576040805162461bcd60e51b815260206004820152600f60248201526e1b9bdd1a1a5b99c81d1bc81b5a5b9d608a1b604482015290519081900360640190fd5b336000908152600360205260409020600101546105699082610980565b3360009081526003602052604090206001015561058683826109da565b505050565b6b014adf4b7320334b9000000081565b60046020526000908152604090205481565b6006546001600160a01b031681565b600360205281600052604060002081600281106105d557fe5b01549150829050565b6006546001600160a01b03163314610637576040805162461bcd60e51b8152602060048201526017602482015276666f7220636f6e7472616374206f776e6572206f6e6c7960481b604482015290519081900360640190fd5b6001546b033b2e3c9fd0803ce800000090610658908363ffffffff61098016565b11156106ab576040805162461bcd60e51b815260206004820152601860248201527f6d6178206d696e74206e756d6265722065786365656465640000000000000000604482015290519081900360640190fd5b6001600160a01b03821660009081526003602052604090205415806106ec57506001600160a01b038216600090815260036020526040902081906001015411155b1561071f576001600160a01b03821660009081526003602052604090208190556001546107199082610980565b50610756565b60405162461bcd60e51b815260040180806020018281038252602f815260200180610b85602f913960400191505060405180910390fd5b5050565b6006546001600160a01b031633146107b3576040805162461bcd60e51b8152602060048201526017602482015276666f7220636f6e7472616374206f776e6572206f6e6c7960481b604482015290519081900360640190fd5b600680546001600160a01b0319166001600160a01b0392909216919091179055565b60006103e33384846108c6565b600560209081526000928352604080842090915290825290205481565b60015481565b60025481565b6b033b2e3c9fd0803ce800000081565b6001600160a01b03808416600081815260056020908152604080832094871680845294825291829020859055815185815291517f8c5be1e5ebec7d5bd14f71427d1e84f3dd0314c0f7b2291e5b200ac8c7c3b9259281900390910190a3505050565b60006108bf83836040518060400160405280601e81526020017f536166654d6174683a207375627472616374696f6e206f766572666c6f770000815250610aed565b9392505050565b6001600160a01b0383166000908152600460205260409020546108ef908263ffffffff61087d16565b6001600160a01b038085166000908152600460205260408082209390935590841681522054610924908263ffffffff61098016565b6001600160a01b0380841660008181526004602090815260409182902094909455805185815290519193928716927fddf252ad1be2c89b69c2b068fc378daa952ba7f163c4a11628f55a4df523b3ef92918290030190a3505050565b6000828201838110156108bf576040805162461bcd60e51b815260206004820152601b60248201527f536166654d6174683a206164646974696f6e206f766572666c6f770000000000604482015290519081900360640190fd5b6000546b033b2e3c9fd0803ce8000000906109fb908363ffffffff61098016565b1115610a4e576040805162461bcd60e51b815260206004820152601b60248201527f43616e6e6f74206d696e7420636f696e206f766572206c696d69740000000000604482015290519081900360640190fd5b6001600160a01b038216600090815260046020526040902054610a77908263ffffffff61098016565b6001600160a01b03831660009081526004602052604081209190915554610aa4908263ffffffff61098016565b60009081556040805183815290516001600160a01b03851692917fddf252ad1be2c89b69c2b068fc378daa952ba7f163c4a11628f55a4df523b3ef919081900360200190a35050565b60008184841115610b7c5760405162461bcd60e51b81526004018080602001828103825283818151815260200191508051906020019080838360005b83811015610b41578181015183820152602001610b29565b50505050905090810190601f168015610b6e5780820380516001836020036101000a031916815260200191505b509250505060405180910390fd5b50505090039056fe63616e6e6f742073657420746f74616c206e756d626572206c657373207468616e206d696e746564206e756d626572a265627a7a72315820e121ed2b8ccd5fc29824a14e31bd9e690986207b495eb2d9cadd88ab3bfe912664736f6c63430005100032",
  "source": "pragma solidity=0.5.16;\r\n\r\nimport './libraries/SafeMath.sol';\r\nimport './interfaces/IERCMint20.sol';\r\n\r\ncontract XKeyToken is IERCMint20 {\r\n    using SafeMath for uint;\r\n\r\n    string public constant name = 'XKEY';\r\n    string public constant symbol = 'XKEY';\r\n    uint8 public constant decimals = 18;\r\n    uint public constant max_mint_number = 1000000000 * (10 ** uint(decimals));\r\n    uint public constant max_pre_number = 400000000 * (10 ** uint(decimals));\r\n    uint public totalSupply;\r\n    uint public totalMinterNumber;\r\n    uint public totalReleaseNumber;\r\n    mapping(address=>uint[2]) public minter_address_number;\r\n    mapping(address => uint) public balanceOf;\r\n    mapping(address => mapping(address => uint)) public allowance;\r\n    address public owner;\r\n\r\n    event Approval(address indexed owner, address indexed spender, uint value);\r\n    event Transfer(address indexed from, address indexed to, uint value);\r\n\r\n    modifier onlyOwner() {\r\n        require(msg.sender == owner, \"for contract owner only\");\r\n        _;\r\n    }\r\n\r\n    constructor() public {\r\n        owner = msg.sender;\r\n        balanceOf[msg.sender] = max_pre_number;\r\n        totalSupply = max_pre_number;\r\n    }\r\n\r\n    function changeOwner(address new_owner) external onlyOwner() {\r\n        owner = new_owner;\r\n    }\r\n\r\n    function _mint(address to, uint value) internal {\r\n        require(totalSupply.add(value) <= max_mint_number, \"Cannot mint coin over limit\");\r\n        balanceOf[to] = balanceOf[to].add(value);\r\n        totalSupply = totalSupply.add(value);\r\n        emit Transfer(address(0), to, value);\r\n    }\r\n\r\n    function _approve(address origen_owner, address spender, uint value) private {\r\n        allowance[origen_owner][spender] = value;\r\n        emit Approval(origen_owner, spender, value);\r\n    }\r\n\r\n    function _transfer(address from, address to, uint value) private {\r\n        balanceOf[from] = balanceOf[from].sub(value);\r\n        balanceOf[to] = balanceOf[to].add(value);\r\n        emit Transfer(from, to, value);\r\n    }\r\n\r\n    function setMintContract(address miner, uint total) external onlyOwner() {\r\n        require(totalMinterNumber.add(total) <= max_mint_number, \"max mint number exceeded\");\r\n        if (minter_address_number[miner][0] == 0 || minter_address_number[miner][1] <= total) {\r\n            minter_address_number[miner][0] = total;\r\n            totalMinterNumber.add(total);\r\n        } else {\r\n            revert(\"cannot set total number less than minted number\");\r\n        }\r\n    }\r\n\r\n    function minerMint(address to, uint value) external{\r\n        require(minter_address_number[msg.sender][0] > 0, \"invalid minter\");\r\n        uint realMint = minter_address_number[msg.sender][0] - minter_address_number[msg.sender][1];\r\n        if(realMint > value){\r\n            realMint = value;\r\n        }\r\n        require(realMint > 0, \"nothing to mint\");\r\n        minter_address_number[msg.sender][1] = minter_address_number[msg.sender][1].add(realMint);\r\n        _mint(to, realMint);\r\n    }\r\n\r\n    function approve(address spender, uint value) external returns (bool) {\r\n        _approve(msg.sender, spender, value);\r\n        return true;\r\n    }\r\n\r\n    function transfer(address to, uint value) external returns (bool) {\r\n        _transfer(msg.sender, to, value);\r\n        return true;\r\n    }\r\n\r\n    function transferFrom(address from, address to, uint value) external returns (bool) {\r\n        if (allowance[from][msg.sender] != uint(-1)) {\r\n            allowance[from][msg.sender] = allowance[from][msg.sender].sub(value);\r\n        }\r\n        _transfer(from, to, value);\r\n        return true;\r\n    }\r\n}\r\n",
  "sourcePath": "E:/codingproject/xkey/contracts/XKeyToken.sol",
  "compiler": {
    "name": "solc",
    "version": "0.5.16+commit.9c3226ce.Emscripten.clang"
  },
  "schemaVersion": "3.4.0",
  "updatedAt": "2021-06-09T09:08:20.640Z",
  "devdoc": {
    "methods": {}
  },
  "userdoc": {
    "methods": {}
  }
}