{
  "contractName": "XKeyNFT721Staking",
  "abi": [
    {
      "inputs": [
        {
          "internalType": "address",
          "name": "_erc_mintaddr",
          "type": "address"
        },
        {
          "internalType": "uint256",
          "name": "_perblockreward",
          "type": "uint256"
        },
        {
          "internalType": "uint256",
          "name": "_swaptoken_totalMint",
          "type": "uint256"
        }
      ],
      "payable": false,
      "stateMutability": "nonpayable",
      "type": "constructor"
    },
    {
      "anonymous": false,
      "inputs": [
        {
          "indexed": false,
          "internalType": "address",
          "name": "",
          "type": "address"
        },
        {
          "indexed": false,
          "internalType": "uint256",
          "name": "",
          "type": "uint256"
        },
        {
          "indexed": false,
          "internalType": "uint256",
          "name": "",
          "type": "uint256"
        }
      ],
      "name": "LiquidSwapTokenCreated",
      "type": "event"
    },
    {
      "constant": true,
      "inputs": [],
      "name": "all_weight",
      "outputs": [
        {
          "internalType": "uint256",
          "name": "",
          "type": "uint256"
        }
      ],
      "payable": false,
      "stateMutability": "view",
      "type": "function"
    },
    {
      "constant": true,
      "inputs": [],
      "name": "erc_mintaddr",
      "outputs": [
        {
          "internalType": "address",
          "name": "",
          "type": "address"
        }
      ],
      "payable": false,
      "stateMutability": "view",
      "type": "function"
    },
    {
      "constant": true,
      "inputs": [],
      "name": "perblockreward",
      "outputs": [
        {
          "internalType": "uint256",
          "name": "",
          "type": "uint256"
        }
      ],
      "payable": false,
      "stateMutability": "view",
      "type": "function"
    },
    {
      "constant": true,
      "inputs": [
        {
          "internalType": "address",
          "name": "",
          "type": "address"
        }
      ],
      "name": "supportNFTContracts",
      "outputs": [
        {
          "internalType": "bool",
          "name": "",
          "type": "bool"
        }
      ],
      "payable": false,
      "stateMutability": "view",
      "type": "function"
    },
    {
      "constant": true,
      "inputs": [
        {
          "internalType": "uint256",
          "name": "",
          "type": "uint256"
        }
      ],
      "name": "swaptoken_addrs",
      "outputs": [
        {
          "internalType": "address",
          "name": "",
          "type": "address"
        }
      ],
      "payable": false,
      "stateMutability": "view",
      "type": "function"
    },
    {
      "constant": true,
      "inputs": [],
      "name": "swaptoken_had_mint",
      "outputs": [
        {
          "internalType": "uint256",
          "name": "",
          "type": "uint256"
        }
      ],
      "payable": false,
      "stateMutability": "view",
      "type": "function"
    },
    {
      "constant": true,
      "inputs": [
        {
          "internalType": "address",
          "name": "",
          "type": "address"
        }
      ],
      "name": "swaptoken_last_reward_blocknum",
      "outputs": [
        {
          "internalType": "uint256",
          "name": "",
          "type": "uint256"
        }
      ],
      "payable": false,
      "stateMutability": "view",
      "type": "function"
    },
    {
      "constant": true,
      "inputs": [
        {
          "internalType": "address",
          "name": "",
          "type": "address"
        }
      ],
      "name": "swaptoken_pershare_reward",
      "outputs": [
        {
          "internalType": "uint256",
          "name": "",
          "type": "uint256"
        }
      ],
      "payable": false,
      "stateMutability": "view",
      "type": "function"
    },
    {
      "constant": true,
      "inputs": [],
      "name": "swaptoken_totalMint",
      "outputs": [
        {
          "internalType": "uint256",
          "name": "",
          "type": "uint256"
        }
      ],
      "payable": false,
      "stateMutability": "view",
      "type": "function"
    },
    {
      "constant": true,
      "inputs": [
        {
          "internalType": "address",
          "name": "",
          "type": "address"
        }
      ],
      "name": "swaptoken_weight",
      "outputs": [
        {
          "internalType": "uint256",
          "name": "",
          "type": "uint256"
        }
      ],
      "payable": false,
      "stateMutability": "view",
      "type": "function"
    },
    {
      "constant": false,
      "inputs": [
        {
          "internalType": "address",
          "name": "_liquid_swaptoken_addr",
          "type": "address"
        },
        {
          "internalType": "uint256",
          "name": "_swaptoken_weight",
          "type": "uint256"
        },
        {
          "internalType": "uint256",
          "name": "_swaptoken_start_block",
          "type": "uint256"
        }
      ],
      "name": "CreateLiquidSwap",
      "outputs": [],
      "payable": false,
      "stateMutability": "nonpayable",
      "type": "function"
    },
    {
      "constant": false,
      "inputs": [
        {
          "internalType": "address",
          "name": "swap_addr",
          "type": "address"
        }
      ],
      "name": "updateSwaptokenInfo",
      "outputs": [],
      "payable": false,
      "stateMutability": "nonpayable",
      "type": "function"
    },
    {
      "constant": false,
      "inputs": [
        {
          "internalType": "address",
          "name": "_swaptoken_addr",
          "type": "address"
        },
        {
          "internalType": "uint32",
          "name": "weight",
          "type": "uint32"
        }
      ],
      "name": "ChangeSwaptokenWeight",
      "outputs": [],
      "payable": false,
      "stateMutability": "nonpayable",
      "type": "function"
    },
    {
      "constant": true,
      "inputs": [
        {
          "internalType": "address",
          "name": "_user",
          "type": "address"
        }
      ],
      "name": "GetAddrBalanceof",
      "outputs": [
        {
          "internalType": "uint256",
          "name": "",
          "type": "uint256"
        }
      ],
      "payable": false,
      "stateMutability": "view",
      "type": "function"
    },
    {
      "constant": false,
      "inputs": [
        {
          "internalType": "address",
          "name": "_erc_mintaddr",
          "type": "address"
        }
      ],
      "name": "ChangeMintErcAddr",
      "outputs": [],
      "payable": false,
      "stateMutability": "nonpayable",
      "type": "function"
    },
    {
      "constant": false,
      "inputs": [
        {
          "internalType": "address",
          "name": "_swaptoken_addr",
          "type": "address"
        },
        {
          "internalType": "uint256",
          "name": "_swaptoken_tokenid",
          "type": "uint256"
        }
      ],
      "name": "AddSwaptokenShare",
      "outputs": [],
      "payable": false,
      "stateMutability": "nonpayable",
      "type": "function"
    },
    {
      "constant": false,
      "inputs": [
        {
          "internalType": "address",
          "name": "_swaptoken_addr",
          "type": "address"
        },
        {
          "internalType": "uint256[]",
          "name": "_swaptoken_tokenids",
          "type": "uint256[]"
        }
      ],
      "name": "RemoveSwaptokenShare",
      "outputs": [],
      "payable": false,
      "stateMutability": "nonpayable",
      "type": "function"
    },
    {
      "constant": false,
      "inputs": [
        {
          "internalType": "address",
          "name": "_swaptoken_addr",
          "type": "address"
        }
      ],
      "name": "GetSwaptokenReward",
      "outputs": [],
      "payable": false,
      "stateMutability": "nonpayable",
      "type": "function"
    },
    {
      "constant": true,
      "inputs": [
        {
          "internalType": "address",
          "name": "_swaptoken_addr",
          "type": "address"
        }
      ],
      "name": "PredReward",
      "outputs": [
        {
          "internalType": "uint256",
          "name": "",
          "type": "uint256"
        }
      ],
      "payable": false,
      "stateMutability": "view",
      "type": "function"
    },
    {
      "constant": false,
      "inputs": [
        {
          "internalType": "uint256",
          "name": "_perblockreward",
          "type": "uint256"
        }
      ],
      "name": "ChangePerBlockReward",
      "outputs": [],
      "payable": false,
      "stateMutability": "nonpayable",
      "type": "function"
    },
    {
      "constant": true,
      "inputs": [],
      "name": "GetOwner",
      "outputs": [
        {
          "internalType": "address",
          "name": "",
          "type": "address"
        }
      ],
      "payable": false,
      "stateMutability": "view",
      "type": "function"
    },
    {
      "constant": true,
      "inputs": [
        {
          "internalType": "address",
          "name": "_swaptoken_addr",
          "type": "address"
        },
        {
          "internalType": "address",
          "name": "_user",
          "type": "address"
        }
      ],
      "name": "GetUserShare",
      "outputs": [
        {
          "internalType": "uint256",
          "name": "",
          "type": "uint256"
        }
      ],
      "payable": false,
      "stateMutability": "view",
      "type": "function"
    },
    {
      "constant": true,
      "inputs": [
        {
          "internalType": "address",
          "name": "_swaptoken_addr",
          "type": "address"
        },
        {
          "internalType": "address",
          "name": "_user",
          "type": "address"
        },
        {
          "internalType": "uint256",
          "name": "_tokenId",
          "type": "uint256"
        }
      ],
      "name": "GetUserIfhaveTokenid",
      "outputs": [
        {
          "internalType": "bool",
          "name": "",
          "type": "bool"
        }
      ],
      "payable": false,
      "stateMutability": "view",
      "type": "function"
    }
  ],
  "bytecode": "0x60806040523480156200001157600080fd5b50604051620036e2380380620036e2833981810160405260608110156200003757600080fd5b8101908080519060200190929190805190602001909291908051906020019092919050505033600c60006101000a81548173ffffffffffffffffffffffffffffffffffffffff021916908373ffffffffffffffffffffffffffffffffffffffff16021790555082600960006101000a81548173ffffffffffffffffffffffffffffffffffffffff021916908373ffffffffffffffffffffffffffffffffffffffff16021790555062000100670de0b6b3a7640000836200011660201b6200308a1790919060201c565b60088190555080600b81905550505050620001a1565b6000808314156200012b57600090506200019b565b60008284029050828482816200013d57fe5b041462000196576040517f08c379a0000000000000000000000000000000000000000000000000000000008152600401808060200182810382526021815260200180620036c16021913960400191505060405180910390fd5b809150505b92915050565b61351080620001b16000396000f3fe608060405234801561001057600080fd5b506004361061014d5760003560e01c806390430fb9116100c3578063a970995a1161007c578063a970995a146106a1578063bf58cc71146106f9578063e0a595071461073d578063e68568ca14610781578063ec308bbd1461079f578063f792f762146108175761014d565b806390430fb91461050f57806395411f091461052d57806397655df0146105895780639b56f7e6146105e15780639dc4022614610625578063a589feb2146106735761014d565b80634d939d62116101155780634d939d62146102b45780634e85d8bc1461034d5780636509d1611461036b57806368d87253146103c357806377054ef014610449578063806d474a146104a15761014d565b80630860ec29146101525780630ae50a39146101705780633a350ba3146101ba578063449ea4a61461021257806347711fd31461025c575b600080fd5b61015a61086b565b6040518082815260200191505060405180910390f35b610178610871565b604051808273ffffffffffffffffffffffffffffffffffffffff1673ffffffffffffffffffffffffffffffffffffffff16815260200191505060405180910390f35b6101fc600480360360208110156101d057600080fd5b81019080803573ffffffffffffffffffffffffffffffffffffffff16906020019092919050505061089b565b6040518082815260200191505060405180910390f35b61021a61097e565b604051808273ffffffffffffffffffffffffffffffffffffffff1673ffffffffffffffffffffffffffffffffffffffff16815260200191505060405180910390f35b61029e6004803603602081101561027257600080fd5b81019080803573ffffffffffffffffffffffffffffffffffffffff1690602001909291905050506109a4565b6040518082815260200191505060405180910390f35b61034b600480360360408110156102ca57600080fd5b81019080803573ffffffffffffffffffffffffffffffffffffffff1690602001909291908035906020019064010000000081111561030757600080fd5b82018360208201111561031957600080fd5b8035906020019184602083028401116401000000008311171561033b57600080fd5b9091929391929390505050610e86565b005b610355611882565b6040518082815260200191505060405180910390f35b6103ad6004803603602081101561038157600080fd5b81019080803573ffffffffffffffffffffffffffffffffffffffff169060200190929190505050611888565b6040518082815260200191505060405180910390f35b61042f600480360360608110156103d957600080fd5b81019080803573ffffffffffffffffffffffffffffffffffffffff169060200190929190803573ffffffffffffffffffffffffffffffffffffffff169060200190929190803590602001909291905050506118a0565b604051808215151515815260200191505060405180910390f35b61048b6004803603602081101561045f57600080fd5b81019080803573ffffffffffffffffffffffffffffffffffffffff169060200190929190505050611946565b6040518082815260200191505060405180910390f35b6104cd600480360360208110156104b757600080fd5b810190808035906020019092919050505061195e565b604051808273ffffffffffffffffffffffffffffffffffffffff1673ffffffffffffffffffffffffffffffffffffffff16815260200191505060405180910390f35b61051761199a565b6040518082815260200191505060405180910390f35b61056f6004803603602081101561054357600080fd5b81019080803573ffffffffffffffffffffffffffffffffffffffff1690602001909291905050506119a0565b604051808215151515815260200191505060405180910390f35b6105df6004803603606081101561059f57600080fd5b81019080803573ffffffffffffffffffffffffffffffffffffffff16906020019092919080359060200190929190803590602001909291905050506119c0565b005b610623600480360360208110156105f757600080fd5b81019080803573ffffffffffffffffffffffffffffffffffffffff169060200190929190505050611cf9565b005b6106716004803603604081101561063b57600080fd5b81019080803573ffffffffffffffffffffffffffffffffffffffff16906020019092919080359060200190929190505050611d97565b005b61069f6004803603602081101561068957600080fd5b81019080803590602001909291905050506125b3565b005b6106e3600480360360208110156106b757600080fd5b81019080803573ffffffffffffffffffffffffffffffffffffffff16906020019092919050505061261f565b6040518082815260200191505060405180910390f35b61073b6004803603602081101561070f57600080fd5b81019080803573ffffffffffffffffffffffffffffffffffffffff169060200190929190505050612637565b005b61077f6004803603602081101561075357600080fd5b81019080803573ffffffffffffffffffffffffffffffffffffffff169060200190929190505050612a2b565b005b610789612dca565b6040518082815260200191505060405180910390f35b610801600480360360408110156107b557600080fd5b81019080803573ffffffffffffffffffffffffffffffffffffffff169060200190929190803573ffffffffffffffffffffffffffffffffffffffff169060200190929190505050612dd0565b6040518082815260200191505060405180910390f35b6108696004803603604081101561082d57600080fd5b81019080803573ffffffffffffffffffffffffffffffffffffffff169060200190929190803563ffffffff169060200190929190505050612e57565b005b600a5481565b6000600c60009054906101000a900473ffffffffffffffffffffffffffffffffffffffff16905090565b6000600960009054906101000a900473ffffffffffffffffffffffffffffffffffffffff1673ffffffffffffffffffffffffffffffffffffffff166370a08231836040518263ffffffff1660e01b8152600401808273ffffffffffffffffffffffffffffffffffffffff1673ffffffffffffffffffffffffffffffffffffffff16815260200191505060206040518083038186803b15801561093c57600080fd5b505afa158015610950573d6000803e3d6000fd5b505050506040513d602081101561096657600080fd5b81019080805190602001909291905050509050919050565b600960009054906101000a900473ffffffffffffffffffffffffffffffffffffffff1681565b60008160008090506000600260008473ffffffffffffffffffffffffffffffffffffffff1673ffffffffffffffffffffffffffffffffffffffff16815260200190815260200160002054146109f857600190505b80610a6b576040517f08c379a00000000000000000000000000000000000000000000000000000000081526004018080602001828103825260158152602001807f446f6e60742068617665207468697320746f6b656e000000000000000000000081525060200191505060405180910390fd5b6000600460008673ffffffffffffffffffffffffffffffffffffffff1673ffffffffffffffffffffffffffffffffffffffff168152602001908152602001600020549050600260008673ffffffffffffffffffffffffffffffffffffffff1673ffffffffffffffffffffffffffffffffffffffff16815260200190815260200160002054431115610cff5760008573ffffffffffffffffffffffffffffffffffffffff166370a08231306040518263ffffffff1660e01b8152600401808273ffffffffffffffffffffffffffffffffffffffff1673ffffffffffffffffffffffffffffffffffffffff16815260200191505060206040518083038186803b158015610b7557600080fd5b505afa158015610b89573d6000803e3d6000fd5b505050506040513d6020811015610b9f57600080fd5b810190808051906020019092919050505090506000811115610cfd576000610c0f600260008973ffffffffffffffffffffffffffffffffffffffff1673ffffffffffffffffffffffffffffffffffffffff168152602001908152602001600020544361304090919063ffffffff16565b90506000600754610c7c600360008b73ffffffffffffffffffffffffffffffffffffffff1673ffffffffffffffffffffffffffffffffffffffff16815260200190815260200160002054610c6e6008548661308a90919063ffffffff16565b61308a90919063ffffffff16565b81610c8357fe5b049050610cf883610ca264e8d4a510008461308a90919063ffffffff16565b81610ca957fe5b04600460008b73ffffffffffffffffffffffffffffffffffffffff1673ffffffffffffffffffffffffffffffffffffffff1681526020019081526020016000205461311090919063ffffffff16565b935050505b505b600064e8d4a51000610d9683600560008a73ffffffffffffffffffffffffffffffffffffffff1673ffffffffffffffffffffffffffffffffffffffff16815260200190815260200160002060003373ffffffffffffffffffffffffffffffffffffffff1673ffffffffffffffffffffffffffffffffffffffff1681526020019081526020016000205461308a90919063ffffffff16565b81610d9d57fe5b0490506000610e39610e34600660008a73ffffffffffffffffffffffffffffffffffffffff1673ffffffffffffffffffffffffffffffffffffffff16815260200190815260200160002060003373ffffffffffffffffffffffffffffffffffffffff1673ffffffffffffffffffffffffffffffffffffffff168152602001908152602001600020548461319890919063ffffffff16565b613226565b90506000819050600b54610e5883600a5461311090919063ffffffff16565b1115610e7857610e75600a54600b5461304090919063ffffffff16565b90505b809650505050505050919050565b8260008090506000600260008473ffffffffffffffffffffffffffffffffffffffff1673ffffffffffffffffffffffffffffffffffffffff1681526020019081526020016000205414610ed857600190505b80610f4b576040517f08c379a00000000000000000000000000000000000000000000000000000000081526004018080602001828103825260158152602001807f446f6e60742068617665207468697320746f6b656e000000000000000000000081525060200191505060405180910390fd5b84600115156000808373ffffffffffffffffffffffffffffffffffffffff1673ffffffffffffffffffffffffffffffffffffffff16815260200190815260200160002060009054906101000a900460ff16151514611011576040517f08c379a00000000000000000000000000000000000000000000000000000000081526004018080602001828103825260108152602001807f6e6674206e6f7420737570706f72742e0000000000000000000000000000000081525060200191505060405180910390fd5b84849050600560008873ffffffffffffffffffffffffffffffffffffffff1673ffffffffffffffffffffffffffffffffffffffff16815260200190815260200160002060003373ffffffffffffffffffffffffffffffffffffffff1673ffffffffffffffffffffffffffffffffffffffff168152602001908152602001600020541015611106576040517f08c379a00000000000000000000000000000000000000000000000000000000081526004018080602001828103825260208152602001807f446f6e74204861766520456e6f75676820746f6b656e20746f2072656d6f766581525060200191505060405180910390fd5b61110f86612a2b565b600064e8d4a510006111e5600460008a73ffffffffffffffffffffffffffffffffffffffff1673ffffffffffffffffffffffffffffffffffffffff16815260200190815260200160002054600560008b73ffffffffffffffffffffffffffffffffffffffff1673ffffffffffffffffffffffffffffffffffffffff16815260200190815260200160002060003373ffffffffffffffffffffffffffffffffffffffff1673ffffffffffffffffffffffffffffffffffffffff1681526020019081526020016000205461308a90919063ffffffff16565b816111ec57fe5b0490506000611288611283600660008b73ffffffffffffffffffffffffffffffffffffffff1673ffffffffffffffffffffffffffffffffffffffff16815260200190815260200160002060003373ffffffffffffffffffffffffffffffffffffffff1673ffffffffffffffffffffffffffffffffffffffff168152602001908152602001600020548461319890919063ffffffff16565b613226565b90506000819050600b546112a783600a5461311090919063ffffffff16565b11156112c7576112c4600a54600b5461304090919063ffffffff16565b90505b600081146113ac576112e481600a5461311090919063ffffffff16565b600a81905550600960009054906101000a900473ffffffffffffffffffffffffffffffffffffffff1673ffffffffffffffffffffffffffffffffffffffff16633b349de633836040518363ffffffff1660e01b8152600401808373ffffffffffffffffffffffffffffffffffffffff1673ffffffffffffffffffffffffffffffffffffffff16815260200182815260200192505050600060405180830381600087803b15801561139357600080fd5b505af11580156113a7573d6000803e3d6000fd5b505050505b60008090505b8888905081101561187657600160003373ffffffffffffffffffffffffffffffffffffffff1673ffffffffffffffffffffffffffffffffffffffff16815260200190815260200160002060008b73ffffffffffffffffffffffffffffffffffffffff1673ffffffffffffffffffffffffffffffffffffffff16815260200190815260200160002060008a8a8481811061144757fe5b90506020020135815260200190815260200160002060009054906101000a900460ff166114dc576040517f08c379a000000000000000000000000000000000000000000000000000000000815260040180806020018281038252600f8152602001807f446f6e74206861766520746f6b656e000000000000000000000000000000000081525060200191505060405180910390fd5b6000600160003373ffffffffffffffffffffffffffffffffffffffff1673ffffffffffffffffffffffffffffffffffffffff16815260200190815260200160002060008c73ffffffffffffffffffffffffffffffffffffffff1673ffffffffffffffffffffffffffffffffffffffff16815260200190815260200160002060008b8b8581811061156857fe5b90506020020135815260200190815260200160002060006101000a81548160ff0219169083151502179055506115f464e8d4a51000600460008d73ffffffffffffffffffffffffffffffffffffffff1673ffffffffffffffffffffffffffffffffffffffff16815260200190815260200160002054816115e457fe5b048561319890919063ffffffff16565b600660008c73ffffffffffffffffffffffffffffffffffffffff1673ffffffffffffffffffffffffffffffffffffffff16815260200190815260200160002060003373ffffffffffffffffffffffffffffffffffffffff1673ffffffffffffffffffffffffffffffffffffffff168152602001908152602001600020819055506117046001600560008d73ffffffffffffffffffffffffffffffffffffffff1673ffffffffffffffffffffffffffffffffffffffff16815260200190815260200160002060003373ffffffffffffffffffffffffffffffffffffffff1673ffffffffffffffffffffffffffffffffffffffff1681526020019081526020016000205461304090919063ffffffff16565b600560008c73ffffffffffffffffffffffffffffffffffffffff1673ffffffffffffffffffffffffffffffffffffffff16815260200190815260200160002060003373ffffffffffffffffffffffffffffffffffffffff1673ffffffffffffffffffffffffffffffffffffffff168152602001908152602001600020819055508973ffffffffffffffffffffffffffffffffffffffff166323b872dd30338c8c868181106117ae57fe5b905060200201356040518463ffffffff1660e01b8152600401808473ffffffffffffffffffffffffffffffffffffffff1673ffffffffffffffffffffffffffffffffffffffff1681526020018373ffffffffffffffffffffffffffffffffffffffff1673ffffffffffffffffffffffffffffffffffffffff1681526020018281526020019350505050600060405180830381600087803b15801561185157600080fd5b505af1158015611865573d6000803e3d6000fd5b5050505080806001019150506113b2565b50505050505050505050565b60075481565b60026020528060005260406000206000915090505481565b6000600160008473ffffffffffffffffffffffffffffffffffffffff1673ffffffffffffffffffffffffffffffffffffffff16815260200190815260200160002060008573ffffffffffffffffffffffffffffffffffffffff1673ffffffffffffffffffffffffffffffffffffffff168152602001908152602001600020600083815260200190815260200160002060009054906101000a900460ff1690509392505050565b60036020528060005260406000206000915090505481565b600d818154811061196b57fe5b906000526020600020016000915054906101000a900473ffffffffffffffffffffffffffffffffffffffff1681565b600b5481565b60006020528060005260406000206000915054906101000a900460ff1681565b600c60009054906101000a900473ffffffffffffffffffffffffffffffffffffffff1673ffffffffffffffffffffffffffffffffffffffff163373ffffffffffffffffffffffffffffffffffffffff1614611a1a57600080fd5b6000600260008573ffffffffffffffffffffffffffffffffffffffff1673ffffffffffffffffffffffffffffffffffffffff1681526020019081526020016000205414611acf576040517f08c379a000000000000000000000000000000000000000000000000000000000815260040180806020018281038252600b8152602001807f546f6b656e20457869737400000000000000000000000000000000000000000081525060200191505060405180910390fd5b611ad76132a6565b611ae1438261330d565b600260008573ffffffffffffffffffffffffffffffffffffffff1673ffffffffffffffffffffffffffffffffffffffff1681526020019081526020016000208190555081600360008573ffffffffffffffffffffffffffffffffffffffff1673ffffffffffffffffffffffffffffffffffffffff16815260200190815260200160002081905550611b7d8260075461311090919063ffffffff16565b60078190555060016000808573ffffffffffffffffffffffffffffffffffffffff1673ffffffffffffffffffffffffffffffffffffffff16815260200190815260200160002060006101000a81548160ff021916908315150217905550600d8390806001815401808255809150509060018203906000526020600020016000909192909190916101000a81548173ffffffffffffffffffffffffffffffffffffffff021916908373ffffffffffffffffffffffffffffffffffffffff160217905550507fc712c5daa7afb3689e59ecc4eb021e9b0c7a6ba5cf97a7b6c6f3cf0165e6e43083600360008673ffffffffffffffffffffffffffffffffffffffff1673ffffffffffffffffffffffffffffffffffffffff16815260200190815260200160002054600754604051808473ffffffffffffffffffffffffffffffffffffffff1673ffffffffffffffffffffffffffffffffffffffff168152602001838152602001828152602001935050505060405180910390a1505050565b600c60009054906101000a900473ffffffffffffffffffffffffffffffffffffffff1673ffffffffffffffffffffffffffffffffffffffff163373ffffffffffffffffffffffffffffffffffffffff1614611d5357600080fd5b80600960006101000a81548173ffffffffffffffffffffffffffffffffffffffff021916908373ffffffffffffffffffffffffffffffffffffffff16021790555050565b8160008090506000600260008473ffffffffffffffffffffffffffffffffffffffff1673ffffffffffffffffffffffffffffffffffffffff1681526020019081526020016000205414611de957600190505b80611e5c576040517f08c379a00000000000000000000000000000000000000000000000000000000081526004018080602001828103825260158152602001807f446f6e60742068617665207468697320746f6b656e000000000000000000000081525060200191505060405180910390fd5b83600115156000808373ffffffffffffffffffffffffffffffffffffffff1673ffffffffffffffffffffffffffffffffffffffff16815260200190815260200160002060009054906101000a900460ff16151514611f22576040517f08c379a00000000000000000000000000000000000000000000000000000000081526004018080602001828103825260108152602001807f6e6674206e6f7420737570706f72742e0000000000000000000000000000000081525060200191505060405180910390fd5b600b54600a5410611f9b576040517f08c379a00000000000000000000000000000000000000000000000000000000081526004018080602001828103825260178152602001807f416c6c20746f6b656e20686173206265656e206d696e7400000000000000000081525060200191505060405180910390fd5b611fa485612a2b565b600064e8d4a5100061207a600460008973ffffffffffffffffffffffffffffffffffffffff1673ffffffffffffffffffffffffffffffffffffffff16815260200190815260200160002054600560008a73ffffffffffffffffffffffffffffffffffffffff1673ffffffffffffffffffffffffffffffffffffffff16815260200190815260200160002060003373ffffffffffffffffffffffffffffffffffffffff1673ffffffffffffffffffffffffffffffffffffffff1681526020019081526020016000205461308a90919063ffffffff16565b8161208157fe5b049050600061211d612118600660008a73ffffffffffffffffffffffffffffffffffffffff1673ffffffffffffffffffffffffffffffffffffffff16815260200190815260200160002060003373ffffffffffffffffffffffffffffffffffffffff1673ffffffffffffffffffffffffffffffffffffffff168152602001908152602001600020548461319890919063ffffffff16565b613226565b90506000819050600b5461213c83600a5461311090919063ffffffff16565b111561215c57612159600a54600b5461304090919063ffffffff16565b90505b600081146122415761217981600a5461311090919063ffffffff16565b600a81905550600960009054906101000a900473ffffffffffffffffffffffffffffffffffffffff1673ffffffffffffffffffffffffffffffffffffffff16633b349de633836040518363ffffffff1660e01b8152600401808373ffffffffffffffffffffffffffffffffffffffff1673ffffffffffffffffffffffffffffffffffffffff16815260200182815260200192505050600060405180830381600087803b15801561222857600080fd5b505af115801561223c573d6000803e3d6000fd5b505050505b60018060003373ffffffffffffffffffffffffffffffffffffffff1673ffffffffffffffffffffffffffffffffffffffff16815260200190815260200160002060008a73ffffffffffffffffffffffffffffffffffffffff1673ffffffffffffffffffffffffffffffffffffffff168152602001908152602001600020600089815260200190815260200160002060006101000a81548160ff0219169083151502179055506123766001600560008b73ffffffffffffffffffffffffffffffffffffffff1673ffffffffffffffffffffffffffffffffffffffff16815260200190815260200160002060003373ffffffffffffffffffffffffffffffffffffffff1673ffffffffffffffffffffffffffffffffffffffff1681526020019081526020016000205461311090919063ffffffff16565b600560008a73ffffffffffffffffffffffffffffffffffffffff1673ffffffffffffffffffffffffffffffffffffffff16815260200190815260200160002060003373ffffffffffffffffffffffffffffffffffffffff1673ffffffffffffffffffffffffffffffffffffffff1681526020019081526020016000208190555061245664e8d4a51000600460008b73ffffffffffffffffffffffffffffffffffffffff1673ffffffffffffffffffffffffffffffffffffffff168152602001908152602001600020548161244657fe5b048461332790919063ffffffff16565b600660008a73ffffffffffffffffffffffffffffffffffffffff1673ffffffffffffffffffffffffffffffffffffffff16815260200190815260200160002060003373ffffffffffffffffffffffffffffffffffffffff1673ffffffffffffffffffffffffffffffffffffffff168152602001908152602001600020819055508773ffffffffffffffffffffffffffffffffffffffff166323b872dd33308a6040518463ffffffff1660e01b8152600401808473ffffffffffffffffffffffffffffffffffffffff1673ffffffffffffffffffffffffffffffffffffffff1681526020018373ffffffffffffffffffffffffffffffffffffffff1673ffffffffffffffffffffffffffffffffffffffff1681526020018281526020019350505050600060405180830381600087803b15801561259157600080fd5b505af11580156125a5573d6000803e3d6000fd5b505050505050505050505050565b600c60009054906101000a900473ffffffffffffffffffffffffffffffffffffffff1673ffffffffffffffffffffffffffffffffffffffff163373ffffffffffffffffffffffffffffffffffffffff161461260d57600080fd5b6126156132a6565b8060088190555050565b60046020528060005260406000206000915090505481565b8060008090506000600260008473ffffffffffffffffffffffffffffffffffffffff1673ffffffffffffffffffffffffffffffffffffffff168152602001908152602001600020541461268957600190505b806126fc576040517f08c379a00000000000000000000000000000000000000000000000000000000081526004018080602001828103825260158152602001807f446f6e60742068617665207468697320746f6b656e000000000000000000000081525060200191505060405180910390fd5b61270583612a2b565b600064e8d4a510006127db600460008773ffffffffffffffffffffffffffffffffffffffff1673ffffffffffffffffffffffffffffffffffffffff16815260200190815260200160002054600560008873ffffffffffffffffffffffffffffffffffffffff1673ffffffffffffffffffffffffffffffffffffffff16815260200190815260200160002060003373ffffffffffffffffffffffffffffffffffffffff1673ffffffffffffffffffffffffffffffffffffffff1681526020019081526020016000205461308a90919063ffffffff16565b816127e257fe5b049050600061287e612879600660008873ffffffffffffffffffffffffffffffffffffffff1673ffffffffffffffffffffffffffffffffffffffff16815260200190815260200160002060003373ffffffffffffffffffffffffffffffffffffffff1673ffffffffffffffffffffffffffffffffffffffff168152602001908152602001600020548461319890919063ffffffff16565b613226565b905081600660008773ffffffffffffffffffffffffffffffffffffffff1673ffffffffffffffffffffffffffffffffffffffff16815260200190815260200160002060003373ffffffffffffffffffffffffffffffffffffffff1673ffffffffffffffffffffffffffffffffffffffff168152602001908152602001600020819055506000819050600b5461291e83600a5461311090919063ffffffff16565b111561293e5761293b600a54600b5461304090919063ffffffff16565b90505b60008114612a235761295b81600a5461311090919063ffffffff16565b600a81905550600960009054906101000a900473ffffffffffffffffffffffffffffffffffffffff1673ffffffffffffffffffffffffffffffffffffffff16633b349de633836040518363ffffffff1660e01b8152600401808373ffffffffffffffffffffffffffffffffffffffff1673ffffffffffffffffffffffffffffffffffffffff16815260200182815260200192505050600060405180830381600087803b158015612a0a57600080fd5b505af1158015612a1e573d6000803e3d6000fd5b505050505b505050505050565b8060008090506000600260008473ffffffffffffffffffffffffffffffffffffffff1673ffffffffffffffffffffffffffffffffffffffff1681526020019081526020016000205414612a7d57600190505b80612af0576040517f08c379a00000000000000000000000000000000000000000000000000000000081526004018080602001828103825260158152602001807f446f6e60742068617665207468697320746f6b656e000000000000000000000081525060200191505060405180910390fd5b600260008473ffffffffffffffffffffffffffffffffffffffff1673ffffffffffffffffffffffffffffffffffffffff16815260200190815260200160002054431115612dc55760008373ffffffffffffffffffffffffffffffffffffffff166370a08231306040518263ffffffff1660e01b8152600401808273ffffffffffffffffffffffffffffffffffffffff1673ffffffffffffffffffffffffffffffffffffffff16815260200191505060206040518083038186803b158015612bb657600080fd5b505afa158015612bca573d6000803e3d6000fd5b505050506040513d6020811015612be057600080fd5b810190808051906020019092919050505090506000811115612d7f576000612c50600260008773ffffffffffffffffffffffffffffffffffffffff1673ffffffffffffffffffffffffffffffffffffffff168152602001908152602001600020544361304090919063ffffffff16565b90506000600754612cbd600360008973ffffffffffffffffffffffffffffffffffffffff1673ffffffffffffffffffffffffffffffffffffffff16815260200190815260200160002054612caf6008548661308a90919063ffffffff16565b61308a90919063ffffffff16565b81612cc457fe5b049050612d3983612ce364e8d4a510008461308a90919063ffffffff16565b81612cea57fe5b04600460008973ffffffffffffffffffffffffffffffffffffffff1673ffffffffffffffffffffffffffffffffffffffff1681526020019081526020016000205461311090919063ffffffff16565b600460008873ffffffffffffffffffffffffffffffffffffffff1673ffffffffffffffffffffffffffffffffffffffff1681526020019081526020016000208190555050505b43600260008673ffffffffffffffffffffffffffffffffffffffff1673ffffffffffffffffffffffffffffffffffffffff16815260200190815260200160002081905550505b505050565b60085481565b6000600560008473ffffffffffffffffffffffffffffffffffffffff1673ffffffffffffffffffffffffffffffffffffffff16815260200190815260200160002060008373ffffffffffffffffffffffffffffffffffffffff1673ffffffffffffffffffffffffffffffffffffffff16815260200190815260200160002054905092915050565b8160008090506000600260008473ffffffffffffffffffffffffffffffffffffffff1673ffffffffffffffffffffffffffffffffffffffff1681526020019081526020016000205414612ea957600190505b80612f1c576040517f08c379a00000000000000000000000000000000000000000000000000000000081526004018080602001828103825260158152602001807f446f6e60742068617665207468697320746f6b656e000000000000000000000081525060200191505060405180910390fd5b600c60009054906101000a900473ffffffffffffffffffffffffffffffffffffffff1673ffffffffffffffffffffffffffffffffffffffff163373ffffffffffffffffffffffffffffffffffffffff1614612f7657600080fd5b612f7e6132a6565b612fea8363ffffffff16612fdc600360008873ffffffffffffffffffffffffffffffffffffffff1673ffffffffffffffffffffffffffffffffffffffff1681526020019081526020016000205460075461304090919063ffffffff16565b61311090919063ffffffff16565b6007819055508263ffffffff16600360008673ffffffffffffffffffffffffffffffffffffffff1673ffffffffffffffffffffffffffffffffffffffff1681526020019081526020016000208190555050505050565b600061308283836040518060400160405280601e81526020017f536166654d6174683a207375627472616374696f6e206f766572666c6f7700008152506133b5565b905092915050565b60008083141561309d576000905061310a565b60008284029050828482816130ae57fe5b0414613105576040517f08c379a00000000000000000000000000000000000000000000000000000000081526004018080602001828103825260218152602001806134976021913960400191505060405180910390fd5b809150505b92915050565b60008082840190508381101561318e576040517f08c379a000000000000000000000000000000000000000000000000000000000815260040180806020018281038252601b8152602001807f536166654d6174683a206164646974696f6e206f766572666c6f77000000000081525060200191505060405180910390fd5b8091505092915050565b6000808284039050600083121580156131b15750838113155b806131c757506000831280156131c657508381135b5b61321c576040517f08c379a00000000000000000000000000000000000000000000000000000000081526004018080602001828103825260248152602001806134b86024913960400191505060405180910390fd5b8091505092915050565b60008082121561329e576040517f08c379a000000000000000000000000000000000000000000000000000000000815260040180806020018281038252600b8152602001807f496e7465676572203c203000000000000000000000000000000000000000000081525060200191505060405180910390fd5b819050919050565b6000600d80549050905060008090505b81811015613309576132fe600d82815481106132ce57fe5b9060005260206000200160009054906101000a900473ffffffffffffffffffffffffffffffffffffffff16612a2b565b8060010190506132b6565b5050565b60008183101561331d578161331f565b825b905092915050565b6000808284019050600083121580156133405750838112155b80613356575060008312801561335557508381125b5b6133ab576040517f08c379a00000000000000000000000000000000000000000000000000000000081526004018080602001828103825260218152602001806134766021913960400191505060405180910390fd5b8091505092915050565b6000838311158290613462576040517f08c379a00000000000000000000000000000000000000000000000000000000081526004018080602001828103825283818151815260200191508051906020019080838360005b8381101561342757808201518184015260208101905061340c565b50505050905090810190601f1680156134545780820380516001836020036101000a031916815260200191505b509250505060405180910390fd5b506000838503905080915050939250505056fe5369676e6564536166654d6174683a206164646974696f6e206f766572666c6f77536166654d6174683a206d756c7469706c69636174696f6e206f766572666c6f775369676e6564536166654d6174683a207375627472616374696f6e206f766572666c6f77a265627a7a72315820d51c2c922cf22b9b0bc79944d0dc6a1a836549e161d3874c1d307e72b0d8ff0164736f6c63430005100032536166654d6174683a206d756c7469706c69636174696f6e206f766572666c6f77",
  "source": "pragma solidity=0.5.16;\r\nimport './libraries/SafeMath.sol';\r\nimport './libraries/SignedSafeMath.sol';\r\nimport './interfaces/IERCMint20.sol';\r\nimport './interfaces/IERC721.sol';\r\n\r\ncontract XKeyNFT721Staking {\r\n    using SafeMath  for uint;\r\n    using SignedSafeMath for int256;\r\n    // support staking NFT contract address\r\n    mapping(address=>bool) public supportNFTContracts;\r\n\r\n    // user=>nft=>tokenid=>bool\r\n    mapping(address=>mapping(address=>mapping(uint=>bool))) userNFTTokenid;\r\n\r\n    mapping(address=>uint) public swaptoken_last_reward_blocknum;\r\n    mapping(address=>uint) public swaptoken_weight;\r\n    mapping(address=>uint) public swaptoken_pershare_reward;\r\n    mapping(address=>mapping(address=>uint)) swaptoken_user_share;\r\n    mapping(address=>mapping(address=>int)) swaptoken_user_rewardDebt;\r\n\r\n    uint public all_weight;\r\n    uint public perblockreward;\r\n    address public erc_mintaddr;\r\n    uint256 private constant ACC_XKey_PRECISION = 10 ** 12;\r\n    uint256 public swaptoken_had_mint;\r\n    uint256 public swaptoken_totalMint;\r\n    address owner;\r\n    address[] public swaptoken_addrs;\r\n\r\n\r\n\r\n    event LiquidSwapTokenCreated(address,uint,uint);\r\n    constructor(\r\n        address _erc_mintaddr,\r\n        uint _perblockreward,\r\n        uint _swaptoken_totalMint) public {\r\n        owner = msg.sender;\r\n        erc_mintaddr =  _erc_mintaddr;\r\n        perblockreward = _perblockreward.mul(10**18);\r\n        swaptoken_totalMint = _swaptoken_totalMint;\r\n    }\r\n\r\n    modifier onlyOwner {\r\n        require(msg.sender == owner);\r\n        _;\r\n    }\r\n    modifier swapTokenExist(address _swaptoken_addr){\r\n        bool exist = false;\r\n        if(swaptoken_last_reward_blocknum[_swaptoken_addr] != 0){\r\n            exist = true;\r\n        }\r\n        require(exist,'Don`t have this token');\r\n        _;\r\n    }\r\n\r\n    modifier onlySupportContracts(address _nftcontract) {\r\n        require(supportNFTContracts[_nftcontract] == true,\"nft not support.\");\r\n        _;\r\n    }\r\n\r\n    function updateAllSwaptokenInfo() internal{\r\n        uint256 len = swaptoken_addrs.length;\r\n        for (uint256 i = 0; i < len; ++i) {\r\n            updateSwaptokenInfo(swaptoken_addrs[i]);\r\n        }\r\n    }\r\n\r\n    function CreateLiquidSwap(address _liquid_swaptoken_addr,uint _swaptoken_weight,uint _swaptoken_start_block) onlyOwner external {\r\n        require(swaptoken_last_reward_blocknum[_liquid_swaptoken_addr] == 0,\"Token Exist\");\r\n        updateAllSwaptokenInfo();\r\n        swaptoken_last_reward_blocknum[_liquid_swaptoken_addr] = SafeMath.max(block.number,_swaptoken_start_block);\r\n        swaptoken_weight[_liquid_swaptoken_addr] = _swaptoken_weight;\r\n        all_weight = all_weight.add( _swaptoken_weight);\r\n        supportNFTContracts[_liquid_swaptoken_addr] = true;\r\n        swaptoken_addrs.push(_liquid_swaptoken_addr);\r\n        emit LiquidSwapTokenCreated(_liquid_swaptoken_addr,swaptoken_weight[_liquid_swaptoken_addr],all_weight);\r\n    }\r\n    function updateSwaptokenInfo(address swap_addr) public swapTokenExist(swap_addr){\r\n        if(block.number > swaptoken_last_reward_blocknum[swap_addr]){\r\n            uint256 swap_token_share = IERC721(swap_addr).balanceOf(address(this));\r\n            if (swap_token_share > 0) {\r\n                uint256 blocks = block.number.sub(swaptoken_last_reward_blocknum[swap_addr]);\r\n                uint256 allReward = blocks.mul(perblockreward).mul(swaptoken_weight[swap_addr]) / all_weight;\r\n                swaptoken_pershare_reward[swap_addr] = swaptoken_pershare_reward[swap_addr].add(allReward.mul(ACC_XKey_PRECISION) / swap_token_share);\r\n            }\r\n            swaptoken_last_reward_blocknum[swap_addr] = block.number;\r\n        }\r\n    }\r\n\r\n    function ChangeSwaptokenWeight(address _swaptoken_addr ,uint32 weight) external swapTokenExist(_swaptoken_addr) onlyOwner {\r\n        updateAllSwaptokenInfo();\r\n        all_weight = all_weight.sub(swaptoken_weight[_swaptoken_addr]).add(weight);\r\n        swaptoken_weight[_swaptoken_addr] = weight;\r\n    }\r\n\r\n    function GetAddrBalanceof(address _user)external view returns (uint){\r\n        return IERCMint20(erc_mintaddr).balanceOf(_user);\r\n    }\r\n    function ChangeMintErcAddr(address _erc_mintaddr) external onlyOwner {\r\n        erc_mintaddr = _erc_mintaddr;\r\n    }\r\n    function AddSwaptokenShare(address _swaptoken_addr,uint _swaptoken_tokenid) swapTokenExist(_swaptoken_addr) onlySupportContracts(_swaptoken_addr) external{\r\n        require(swaptoken_had_mint < swaptoken_totalMint,\"All token has been mint\");\r\n        updateSwaptokenInfo(_swaptoken_addr);\r\n        int256 user_rewardDebt = int256(swaptoken_user_share[_swaptoken_addr][msg.sender].mul(swaptoken_pershare_reward[_swaptoken_addr])/ACC_XKey_PRECISION);\r\n        uint256 user_reward = user_rewardDebt.sub( swaptoken_user_rewardDebt[_swaptoken_addr][msg.sender]).toUInt256();\r\n\r\n        uint real_reward = user_reward;\r\n        if(swaptoken_had_mint.add(user_reward) > swaptoken_totalMint){\r\n            real_reward = swaptoken_totalMint.sub(swaptoken_had_mint);\r\n        }\r\n        if (real_reward != 0) {\r\n            swaptoken_had_mint = swaptoken_had_mint.add(real_reward);\r\n            IERCMint20(erc_mintaddr).minerMint(msg.sender,real_reward);\r\n        }\r\n        userNFTTokenid[msg.sender][_swaptoken_addr][_swaptoken_tokenid] = true;\r\n        swaptoken_user_share[_swaptoken_addr][msg.sender]= swaptoken_user_share[_swaptoken_addr][msg.sender].add(1);\r\n        swaptoken_user_rewardDebt[_swaptoken_addr][msg.sender] = user_rewardDebt.add(int256(swaptoken_pershare_reward[_swaptoken_addr]/ACC_XKey_PRECISION));\r\n        IERC721(_swaptoken_addr).transferFrom(msg.sender,address(this),_swaptoken_tokenid);\r\n        //IERC20(_swaptoken_addr).transferFrom(msg.sender,address(this),_swaptoken_amount);\r\n        /*\r\n                IERC721(_swaptoken_addr).transferFrom(msg.sender,address(this),_swaptoken_tokenid);\r\n                uint preshare = swaptoken_user_share[_swaptoken_addr][msg.sender];\r\n                uint start_block = swaptoken_user_payedblock[_swaptoken_addr][msg.sender];\r\n                if(start_block != 0 && start_block > swaptoken_startnum[_swaptoken_addr]){\r\n                    if(swaptoken_totalshare[_swaptoken_addr] > 0 && all_weight > 0 && preshare > 0){\r\n                        calcreward(msg.sender,_swaptoken_addr,preshare,start_block);\r\n                    }\r\n                }\r\n                userNFTTokenid[msg.sender][_swaptoken_addr][_swaptoken_tokenid] = true;\r\n                swaptoken_totalshare[_swaptoken_addr] = swaptoken_totalshare[_swaptoken_addr].add(1);\r\n                swaptoken_user_share[_swaptoken_addr][msg.sender] = swaptoken_user_share[_swaptoken_addr][msg.sender].add(1);\r\n                if(swaptoken_user_payedblock[_swaptoken_addr][msg.sender] == 0){\r\n                    swaptoken_user_payedblock[_swaptoken_addr][msg.sender] = SafeMath.max(swaptoken_startnum[_swaptoken_addr],block.number);\r\n                }\r\n                */\r\n\r\n    }\r\n    function RemoveSwaptokenShare(address _swaptoken_addr,uint[] calldata _swaptoken_tokenids) swapTokenExist(_swaptoken_addr) onlySupportContracts(_swaptoken_addr)  external{\r\n        require(swaptoken_user_share[_swaptoken_addr][msg.sender] >= _swaptoken_tokenids.length,\"Dont Have Enough token to remove\");\r\n        updateSwaptokenInfo(_swaptoken_addr);\r\n        int256 user_rewardDebt = int256(swaptoken_user_share[_swaptoken_addr][msg.sender].mul(swaptoken_pershare_reward[_swaptoken_addr])/ACC_XKey_PRECISION);\r\n        uint256 user_reward = user_rewardDebt.sub( swaptoken_user_rewardDebt[_swaptoken_addr][msg.sender]).toUInt256();\r\n\r\n        uint real_reward = user_reward;\r\n        if(swaptoken_had_mint.add(user_reward) > swaptoken_totalMint){\r\n            real_reward = swaptoken_totalMint.sub(swaptoken_had_mint);\r\n        }\r\n        if (real_reward != 0) {\r\n            swaptoken_had_mint = swaptoken_had_mint.add(real_reward);\r\n            IERCMint20(erc_mintaddr).minerMint(msg.sender,real_reward);\r\n        }\r\n        for(uint i = 0; i < _swaptoken_tokenids.length; i++) {\r\n            require(userNFTTokenid[msg.sender][_swaptoken_addr][_swaptoken_tokenids[i]],\"Dont have token\");\r\n            userNFTTokenid[msg.sender][_swaptoken_addr][_swaptoken_tokenids[i]] = false;\r\n            swaptoken_user_rewardDebt[_swaptoken_addr][msg.sender] = user_rewardDebt.sub(int256((swaptoken_pershare_reward[_swaptoken_addr])/ACC_XKey_PRECISION));\r\n            swaptoken_user_share[_swaptoken_addr][msg.sender]= swaptoken_user_share[_swaptoken_addr][msg.sender].sub(1);\r\n            IERC721(_swaptoken_addr).transferFrom(address(this),msg.sender,_swaptoken_tokenids[i]);\r\n        }\r\n\r\n        //IERC20(_swaptoken_addr).transfer(msg.sender,_swaptoken_amount);\r\n        /*\r\n                uint shares = swaptoken_user_share[_swaptoken_addr][msg.sender];\r\n                uint start_block = swaptoken_user_payedblock[_swaptoken_addr][msg.sender];\r\n                require(userNFTTokenid[msg.sender][_swaptoken_addr][_swaptoken_tokenid],\"Dont Have this tokenid to remove\");\r\n                if(swaptoken_totalshare[_swaptoken_addr] > 0 && all_weight > 0){\r\n                    calcreward(msg.sender,_swaptoken_addr,shares,start_block);\r\n                }\r\n                swaptoken_user_share[_swaptoken_addr][msg.sender] = swaptoken_user_share[_swaptoken_addr][msg.sender].sub(1);\r\n                swaptoken_totalshare[_swaptoken_addr] = swaptoken_totalshare[_swaptoken_addr].sub(1);\r\n                userNFTTokenid[msg.sender][_swaptoken_addr][_swaptoken_tokenid] = false;\r\n                IERC721(_swaptoken_addr).transferFrom(address(this),msg.sender,_swaptoken_tokenid);*/\r\n    }\r\n    /*\r\n    function calcreward(address user, address _swaptoken_addr, uint256 _user_shares,uint256 lastGetRewardBlock) internal {\r\n        uint reward = 0;\r\n        if(block.number >= lastGetRewardBlock){\r\n            uint blockcounts = block.number.sub(lastGetRewardBlock);\r\n            uint pricePerShare = perblockreward.mul(granularity)/ swaptoken_totalshare[_swaptoken_addr];\r\n            pricePerShare = pricePerShare.mul(swaptoken_weight[_swaptoken_addr])/all_weight;\r\n            reward = blockcounts.mul(_user_shares).mul(pricePerShare)/granularity;\r\n            if(swaptoken_had_mint.add(reward) > swaptoken_totalMint){\r\n                reward = swaptoken_totalMint.sub(swaptoken_had_mint);\r\n            }\r\n            swaptoken_user_payedblock[_swaptoken_addr][msg.sender] = block.number;\r\n        }\r\n        if(reward > 0){\r\n            IERCMint20(erc_mintaddr).minerMint(user,reward);\r\n            swaptoken_had_mint = swaptoken_had_mint.add(reward);\r\n        }\r\n    }*/\r\n    function GetSwaptokenReward(address _swaptoken_addr) swapTokenExist(_swaptoken_addr) external{\r\n        updateSwaptokenInfo(_swaptoken_addr);\r\n        int256 user_rewardDebt = int256(swaptoken_user_share[_swaptoken_addr][msg.sender].mul(swaptoken_pershare_reward[_swaptoken_addr])/ACC_XKey_PRECISION);\r\n        uint256 user_reward = user_rewardDebt.sub( swaptoken_user_rewardDebt[_swaptoken_addr][msg.sender]).toUInt256();\r\n        swaptoken_user_rewardDebt[_swaptoken_addr][msg.sender] = user_rewardDebt;\r\n        uint real_reward = user_reward;\r\n        if(swaptoken_had_mint.add(user_reward) > swaptoken_totalMint){\r\n            real_reward = swaptoken_totalMint.sub(swaptoken_had_mint);\r\n        }\r\n        if (real_reward != 0) {\r\n            swaptoken_had_mint = swaptoken_had_mint.add(real_reward);\r\n            IERCMint20(erc_mintaddr).minerMint(msg.sender,real_reward);\r\n        }\r\n    }\r\n\r\n    function PredReward(address _swaptoken_addr) external swapTokenExist(_swaptoken_addr) view returns (uint){\r\n        uint _swaptoken_pershare_reward = swaptoken_pershare_reward[_swaptoken_addr];\r\n        if(block.number > swaptoken_last_reward_blocknum[_swaptoken_addr]){\r\n            uint256 swap_token_share = IERC721(_swaptoken_addr).balanceOf(address(this));\r\n            if (swap_token_share > 0) {\r\n                uint256 blocks = block.number.sub(swaptoken_last_reward_blocknum[_swaptoken_addr]);\r\n                uint256 allReward = blocks.mul(perblockreward).mul(swaptoken_weight[_swaptoken_addr]) / all_weight;\r\n                _swaptoken_pershare_reward = swaptoken_pershare_reward[_swaptoken_addr].add(allReward.mul(ACC_XKey_PRECISION) / swap_token_share);\r\n            }\r\n        }\r\n        int256 user_rewardDebt = int256(swaptoken_user_share[_swaptoken_addr][msg.sender].mul(_swaptoken_pershare_reward)/ACC_XKey_PRECISION);\r\n        uint256 user_reward = user_rewardDebt.sub( swaptoken_user_rewardDebt[_swaptoken_addr][msg.sender]).toUInt256();\r\n        uint real_reward = user_reward;\r\n        if(swaptoken_had_mint.add(user_reward) > swaptoken_totalMint){\r\n            real_reward = swaptoken_totalMint.sub(swaptoken_had_mint);\r\n        }\r\n        return real_reward;\r\n    }\r\n\r\n    function ChangePerBlockReward(uint _perblockreward) external onlyOwner{\r\n        updateAllSwaptokenInfo();\r\n        perblockreward = _perblockreward;\r\n    }\r\n    function GetOwner() public view returns (address){\r\n        return owner;\r\n    }\r\n    function GetUserShare(address _swaptoken_addr,address _user)public view returns (uint){\r\n        return swaptoken_user_share[_swaptoken_addr][_user];\r\n    }\r\n\r\n    function GetUserIfhaveTokenid(address _swaptoken_addr,address _user,uint _tokenId)public view returns (bool){\r\n        return userNFTTokenid[_user][_swaptoken_addr][_tokenId];\r\n    }\r\n\r\n}\r\n",
  "sourcePath": "E:/codingproject/xkey/contracts/XKeyNFT721Staking.sol",
  "compiler": {
    "name": "solc",
    "version": "0.5.16+commit.9c3226ce.Emscripten.clang"
  },
  "schemaVersion": "3.4.0",
  "updatedAt": "2021-05-28T05:15:25.435Z",
  "devdoc": {
    "methods": {}
  },
  "userdoc": {
    "methods": {}
  }
}