{
  "contractName": "XKeyPair",
  "abi": [
    {
      "inputs": [],
      "payable": false,
      "stateMutability": "nonpayable",
      "type": "constructor"
    },
    {
      "anonymous": false,
      "inputs": [
        {
          "indexed": true,
          "internalType": "address",
          "name": "sender",
          "type": "address"
        },
        {
          "indexed": false,
          "internalType": "uint256",
          "name": "amount0",
          "type": "uint256"
        },
        {
          "indexed": false,
          "internalType": "uint256",
          "name": "amount1",
          "type": "uint256"
        },
        {
          "indexed": true,
          "internalType": "address",
          "name": "to",
          "type": "address"
        }
      ],
      "name": "Burn",
      "type": "event"
    },
    {
      "anonymous": false,
      "inputs": [
        {
          "indexed": true,
          "internalType": "address",
          "name": "sender",
          "type": "address"
        },
        {
          "indexed": false,
          "internalType": "uint256",
          "name": "amount0",
          "type": "uint256"
        },
        {
          "indexed": false,
          "internalType": "uint256",
          "name": "amount1",
          "type": "uint256"
        }
      ],
      "name": "Mint",
      "type": "event"
    },
    {
      "anonymous": false,
      "inputs": [
        {
          "indexed": true,
          "internalType": "address",
          "name": "sender",
          "type": "address"
        },
        {
          "indexed": false,
          "internalType": "uint256",
          "name": "amount0In",
          "type": "uint256"
        },
        {
          "indexed": false,
          "internalType": "uint256",
          "name": "amount1In",
          "type": "uint256"
        },
        {
          "indexed": false,
          "internalType": "uint256",
          "name": "amount0Out",
          "type": "uint256"
        },
        {
          "indexed": false,
          "internalType": "uint256",
          "name": "amount1Out",
          "type": "uint256"
        },
        {
          "indexed": true,
          "internalType": "address",
          "name": "to",
          "type": "address"
        }
      ],
      "name": "Swap",
      "type": "event"
    },
    {
      "anonymous": false,
      "inputs": [
        {
          "indexed": false,
          "internalType": "uint112",
          "name": "reserve0",
          "type": "uint112"
        },
        {
          "indexed": false,
          "internalType": "uint112",
          "name": "reserve1",
          "type": "uint112"
        }
      ],
      "name": "Sync",
      "type": "event"
    },
    {
      "anonymous": false,
      "inputs": [
        {
          "indexed": false,
          "internalType": "uint256",
          "name": "fromToken",
          "type": "uint256"
        },
        {
          "indexed": false,
          "internalType": "uint256",
          "name": "toToken",
          "type": "uint256"
        },
        {
          "indexed": false,
          "internalType": "uint256",
          "name": "value",
          "type": "uint256"
        }
      ],
      "name": "Transfer",
      "type": "event"
    },
    {
      "constant": true,
      "inputs": [],
      "name": "MINIMUM_LIQUIDITY",
      "outputs": [
        {
          "internalType": "uint256",
          "name": "",
          "type": "uint256"
        }
      ],
      "payable": false,
      "stateMutability": "view",
      "type": "function"
    },
    {
      "constant": true,
      "inputs": [
        {
          "internalType": "uint256",
          "name": "tokenId",
          "type": "uint256"
        }
      ],
      "name": "balanceOf",
      "outputs": [
        {
          "internalType": "uint256",
          "name": "",
          "type": "uint256"
        }
      ],
      "payable": false,
      "stateMutability": "view",
      "type": "function"
    },
    {
      "constant": true,
      "inputs": [],
      "name": "decimal",
      "outputs": [
        {
          "internalType": "uint256",
          "name": "",
          "type": "uint256"
        }
      ],
      "payable": false,
      "stateMutability": "view",
      "type": "function"
    },
    {
      "constant": true,
      "inputs": [],
      "name": "factory",
      "outputs": [
        {
          "internalType": "address",
          "name": "",
          "type": "address"
        }
      ],
      "payable": false,
      "stateMutability": "view",
      "type": "function"
    },
    {
      "constant": true,
      "inputs": [],
      "name": "kLast",
      "outputs": [
        {
          "internalType": "uint256",
          "name": "",
          "type": "uint256"
        }
      ],
      "payable": false,
      "stateMutability": "view",
      "type": "function"
    },
    {
      "constant": true,
      "inputs": [],
      "name": "name",
      "outputs": [
        {
          "internalType": "string",
          "name": "",
          "type": "string"
        }
      ],
      "payable": false,
      "stateMutability": "view",
      "type": "function"
    },
    {
      "constant": true,
      "inputs": [],
      "name": "nft",
      "outputs": [
        {
          "internalType": "address",
          "name": "",
          "type": "address"
        }
      ],
      "payable": false,
      "stateMutability": "view",
      "type": "function"
    },
    {
      "constant": true,
      "inputs": [],
      "name": "price0CumulativeLast",
      "outputs": [
        {
          "internalType": "uint256",
          "name": "",
          "type": "uint256"
        }
      ],
      "payable": false,
      "stateMutability": "view",
      "type": "function"
    },
    {
      "constant": true,
      "inputs": [],
      "name": "price1CumulativeLast",
      "outputs": [
        {
          "internalType": "uint256",
          "name": "",
          "type": "uint256"
        }
      ],
      "payable": false,
      "stateMutability": "view",
      "type": "function"
    },
    {
      "constant": true,
      "inputs": [],
      "name": "router",
      "outputs": [
        {
          "internalType": "address",
          "name": "",
          "type": "address"
        }
      ],
      "payable": false,
      "stateMutability": "view",
      "type": "function"
    },
    {
      "constant": true,
      "inputs": [],
      "name": "symbol",
      "outputs": [
        {
          "internalType": "string",
          "name": "",
          "type": "string"
        }
      ],
      "payable": false,
      "stateMutability": "view",
      "type": "function"
    },
    {
      "constant": true,
      "inputs": [],
      "name": "token0",
      "outputs": [
        {
          "internalType": "address",
          "name": "",
          "type": "address"
        }
      ],
      "payable": false,
      "stateMutability": "view",
      "type": "function"
    },
    {
      "constant": true,
      "inputs": [],
      "name": "token1",
      "outputs": [
        {
          "internalType": "address",
          "name": "",
          "type": "address"
        }
      ],
      "payable": false,
      "stateMutability": "view",
      "type": "function"
    },
    {
      "constant": true,
      "inputs": [],
      "name": "totalSupply",
      "outputs": [
        {
          "internalType": "uint256",
          "name": "",
          "type": "uint256"
        }
      ],
      "payable": false,
      "stateMutability": "view",
      "type": "function"
    },
    {
      "constant": false,
      "inputs": [
        {
          "internalType": "address",
          "name": "msg_sender",
          "type": "address"
        },
        {
          "internalType": "uint256",
          "name": "tokenId",
          "type": "uint256"
        },
        {
          "internalType": "uint256",
          "name": "liquidity",
          "type": "uint256"
        }
      ],
      "name": "TransferBurnAmount",
      "outputs": [],
      "payable": false,
      "stateMutability": "nonpayable",
      "type": "function"
    },
    {
      "constant": true,
      "inputs": [],
      "name": "getReserves",
      "outputs": [
        {
          "internalType": "uint112",
          "name": "_reserve0",
          "type": "uint112"
        },
        {
          "internalType": "uint112",
          "name": "_reserve1",
          "type": "uint112"
        },
        {
          "internalType": "uint32",
          "name": "_blockTimestampLast",
          "type": "uint32"
        }
      ],
      "payable": false,
      "stateMutability": "view",
      "type": "function"
    },
    {
      "constant": false,
      "inputs": [
        {
          "internalType": "address",
          "name": "_token0",
          "type": "address"
        },
        {
          "internalType": "address",
          "name": "_token1",
          "type": "address"
        },
        {
          "internalType": "address",
          "name": "_nft",
          "type": "address"
        },
        {
          "internalType": "address",
          "name": "_router",
          "type": "address"
        }
      ],
      "name": "initialize",
      "outputs": [],
      "payable": false,
      "stateMutability": "nonpayable",
      "type": "function"
    },
    {
      "constant": false,
      "inputs": [
        {
          "internalType": "uint256",
          "name": "tokenId",
          "type": "uint256"
        }
      ],
      "name": "mint",
      "outputs": [
        {
          "internalType": "uint256",
          "name": "liquidity",
          "type": "uint256"
        }
      ],
      "payable": false,
      "stateMutability": "nonpayable",
      "type": "function"
    },
    {
      "constant": false,
      "inputs": [
        {
          "internalType": "address",
          "name": "to",
          "type": "address"
        },
        {
          "internalType": "uint256",
          "name": "tokenId",
          "type": "uint256"
        }
      ],
      "name": "burn",
      "outputs": [
        {
          "internalType": "uint256",
          "name": "amount0",
          "type": "uint256"
        },
        {
          "internalType": "uint256",
          "name": "amount1",
          "type": "uint256"
        }
      ],
      "payable": false,
      "stateMutability": "nonpayable",
      "type": "function"
    },
    {
      "constant": false,
      "inputs": [
        {
          "internalType": "uint256",
          "name": "amount0Out",
          "type": "uint256"
        },
        {
          "internalType": "uint256",
          "name": "amount1Out",
          "type": "uint256"
        },
        {
          "internalType": "address",
          "name": "to",
          "type": "address"
        },
        {
          "internalType": "bytes",
          "name": "data",
          "type": "bytes"
        }
      ],
      "name": "swap",
      "outputs": [],
      "payable": false,
      "stateMutability": "nonpayable",
      "type": "function"
    },
    {
      "constant": false,
      "inputs": [
        {
          "internalType": "address",
          "name": "to",
          "type": "address"
        }
      ],
      "name": "skim",
      "outputs": [],
      "payable": false,
      "stateMutability": "nonpayable",
      "type": "function"
    },
    {
      "constant": false,
      "inputs": [],
      "name": "sync",
      "outputs": [],
      "payable": false,
      "stateMutability": "nonpayable",
      "type": "function"
    }
  ],
  "bytecode": "0x60806040526001600b5534801561001557600080fd5b50600280546001600160a01b0319163317905561208e806100376000396000f3fe608060405234801561001057600080fd5b50600436106101425760003560e01c80639cc7f708116100b8578063c45a01551161007c578063c45a0155146103a5578063d21220a7146103ad578063f887ea40146103b5578063f8c8765e146103bd578063ffb91f6e146103fb578063fff6cae91461042d57610142565b80639cc7f708146102f85780639dc29fac14610315578063a0712d681461035a578063ba9a7a5614610377578063bc25cf771461037f57610142565b806347ccca021161010a57806347ccca02146102c85780635909c0d5146102d05780635a3d5493146102d85780637464fc3d146102e057806376809ce3146102e857806395d89b41146102f057610142565b8063022c0d9f1461014757806306fdde03146101d55780630902f1ac146102525780630dfe16811461028a57806318160ddd146102ae575b600080fd5b6101d36004803603608081101561015d57600080fd5b8135916020810135916001600160a01b03604083013516919081019060808101606082013564010000000081111561019457600080fd5b8201836020820111156101a657600080fd5b803590602001918460018302840111640100000000831117156101c857600080fd5b509092509050610435565b005b6101dd6109a3565b6040805160208082528351818301528351919283929083019185019080838360005b838110156102175781810151838201526020016101ff565b50505050905090810190601f1680156102445780820380516001836020036101000a031916815260200191505b509250505060405180910390f35b61025a6109c7565b604080516001600160701b03948516815292909316602083015263ffffffff168183015290519081900360600190f35b6102926109f1565b604080516001600160a01b039092168252519081900360200190f35b6102b6610a00565b60408051918252519081900360200190f35b610292610a06565b6102b6610a15565b6102b6610a1b565b6102b6610a21565b6102b6610a27565b6101dd610a33565b6102b66004803603602081101561030e57600080fd5b5035610a58565b6103416004803603604081101561032b57600080fd5b506001600160a01b038135169060200135610a6d565b6040805192835260208301919091528051918290030190f35b6102b66004803603602081101561037057600080fd5b5035610dd3565b6102b661127c565b6101d36004803603602081101561039557600080fd5b50356001600160a01b0316611282565b6102926113eb565b6102926113fa565b610292611409565b6101d3600480360360808110156103d357600080fd5b506001600160a01b038135811691602081013582169160408201358116916060013516611418565b6101d36004803603606081101561041157600080fd5b506001600160a01b0381351690602081013590604001356114b9565b6101d361165e565b600b5460011461047b576040805162461bcd60e51b815260206004820152600c60248201526b1612d95e4e881313d0d2d15160a21b604482015290519081900360640190fd5b6000600b558415158061048e5750600084115b6104df576040805162461bcd60e51b815260206004820181905260248201527f584b65793a20494e53554646494349454e545f4f55545055545f414d4f554e54604482015290519081900360640190fd5b6000806104ea6109c7565b5091509150816001600160701b03168710801561050f5750806001600160701b031686105b610560576040805162461bcd60e51b815260206004820152601c60248201527f584b65793a20494e53554646494349454e545f4c495155494449545900000000604482015290519081900360640190fd5b60035460045460009182916001600160a01b0391821691908116908916821480159061059e5750806001600160a01b0316896001600160a01b031614155b6105e2576040805162461bcd60e51b815260206004820152601060248201526f584b65793a20494e56414c49445f544f60801b604482015290519081900360640190fd5b8a156105f3576105f3828a8d6117bc565b891561060457610604818a8c6117bc565b86156106bf57886001600160a01b0316632c34a609338d8d8c8c6040518663ffffffff1660e01b815260040180866001600160a01b03166001600160a01b03168152602001858152602001848152602001806020018281038252848482818152602001925080828437600081840152601f19601f8201169050808301925050509650505050505050600060405180830381600087803b1580156106a657600080fd5b505af11580156106ba573d6000803e3d6000fd5b505050505b604080516370a0823160e01b815230600482015290516001600160a01b038416916370a08231916024808301926020929190829003018186803b15801561070557600080fd5b505afa158015610719573d6000803e3d6000fd5b505050506040513d602081101561072f57600080fd5b5051604080516370a0823160e01b815230600482015290519195506001600160a01b038316916370a0823191602480820192602092909190829003018186803b15801561077b57600080fd5b505afa15801561078f573d6000803e3d6000fd5b505050506040513d60208110156107a557600080fd5b5051925060009150506001600160701b0385168a900383116107c85760006107d7565b89856001600160701b03160383035b9050600089856001600160701b03160383116107f4576000610803565b89856001600160701b03160383035b905060008211806108145750600081115b610865576040805162461bcd60e51b815260206004820152601f60248201527f584b65793a20494e53554646494349454e545f494e5055545f414d4f554e5400604482015290519081900360640190fd5b600061089961087b84600363ffffffff61194e16565b61088d876103e863ffffffff61194e16565b9063ffffffff6119b016565b905060006108b161087b84600363ffffffff61194e16565b90506108e2620f42406108d66001600160701b038b8116908b1663ffffffff61194e16565b9063ffffffff61194e16565b6108f2838363ffffffff61194e16565b101561092f576040805162461bcd60e51b8152602060048201526007602482015266584b65793a204b60c81b604482015290519081900360640190fd5b505061093d848488886119f2565b60408051838152602081018390528082018d9052606081018c905290516001600160a01b038b169133917fd78ad95fa46c994b6551d0da85fc275fe613ce37657fb8d5e3d130840159d8229181900360800190a350506001600b55505050505050505050565b60405180604001604052806008815260200167506169722045524360c01b81525081565b6007546001600160701b0380821692600160701b830490911691600160e01b900463ffffffff1690565b6003546001600160a01b031681565b60015481565b6005546001600160a01b031681565b60085481565b60095481565b600a5481565b670de0b6b3a764000081565b6040518060400160405280600981526020016805041495245524332360bc1b81525081565b6000818152602081905260409020545b919050565b600080600b54600114610ab6576040805162461bcd60e51b815260206004820152600c60248201526b1612d95e4e881313d0d2d15160a21b604482015290519081900360640190fd5b6000600b81905580610ac66109c7565b5060035460048054604080516370a0823160e01b81523093810193909352519496509294506001600160a01b0391821693919092169160009184916370a08231916024808301926020929190829003018186803b158015610b2657600080fd5b505afa158015610b3a573d6000803e3d6000fd5b505050506040513d6020811015610b5057600080fd5b5051604080516370a0823160e01b815230600482015290519192506000916001600160a01b038516916370a08231916024808301926020929190829003018186803b158015610b9e57600080fd5b505afa158015610bb2573d6000803e3d6000fd5b505050506040513d6020811015610bc857600080fd5b505190506000610bd781610a58565b60015490915080610bee838663ffffffff61194e16565b81610bf557fe5b04995080610c09838563ffffffff61194e16565b81610c1057fe5b04985060008a118015610c235750600089115b610c5e5760405162461bcd60e51b8152600401808060200182810382526023815260200180611fac6023913960400191505060405180910390fd5b610c688b83611bb2565b610c73868d8c6117bc565b610c7e858d8b6117bc565b604080516370a0823160e01b815230600482015290516001600160a01b038816916370a08231916024808301926020929190829003018186803b158015610cc457600080fd5b505afa158015610cd8573d6000803e3d6000fd5b505050506040513d6020811015610cee57600080fd5b5051604080516370a0823160e01b815230600482015290519195506001600160a01b038716916370a0823191602480820192602092909190829003018186803b158015610d3a57600080fd5b505afa158015610d4e573d6000803e3d6000fd5b505050506040513d6020811015610d6457600080fd5b50519250610d7484848a8a6119f2565b604080518b8152602081018b905281516001600160a01b038f169233927fdccd412f0b1252819cb1fd330b93224ca42612892bb3f4f789976e6d81936496929081900390910190a350505050505050506001600b819055509250929050565b6000600b54600114610e1b576040805162461bcd60e51b815260206004820152600c60248201526b1612d95e4e881313d0d2d15160a21b604482015290519081900360640190fd5b6000600b81905580610e2b6109c7565b50915091508360001415610e86576040805162461bcd60e51b815260206004820152601d60248201527f584b6579203a206d696e7420746f6b656e2069642069732077726f6e67000000604482015290519081900360640190fd5b600354604080516370a0823160e01b815230600482015290516000926001600160a01b0316916370a08231916024808301926020929190829003018186803b158015610ed157600080fd5b505afa158015610ee5573d6000803e3d6000fd5b505050506040513d6020811015610efb57600080fd5b505160048054604080516370a0823160e01b81523093810193909352519293506000926001600160a01b03909116916370a08231916024808301926020929190829003018186803b158015610f4f57600080fd5b505afa158015610f63573d6000803e3d6000fd5b505050506040513d6020811015610f7957600080fd5b505190506000610f98836001600160701b03871663ffffffff6119b016565b90506000610fb5836001600160701b03871663ffffffff6119b016565b60015490915080610ff057610fde6103e861088d610fd9868663ffffffff61194e16565b611ce4565b9750610feb6103e8611d35565b61103f565b61103c6001600160701b03881661100d858463ffffffff61194e16565b8161101457fe5b046001600160701b03881661102f858563ffffffff61194e16565b8161103657fe5b04611d45565b97505b6000881161107e5760405162461bcd60e51b8152600401808060200182810382526023815260200180611ff56023913960400191505060405180910390fd5b600554604080516331a9108f60e11b8152600481018c905290516000926001600160a01b031691636352211e916024808301926020929190829003018186803b1580156110ca57600080fd5b505afa1580156110de573d6000803e3d6000fd5b505050506040513d60208110156110f457600080fd5b505160055460408051632f7ce47360e21b8152600481018e905290519293506000926001600160a01b039092169163bdf391cc91602480820192602092909190829003018186803b15801561114857600080fd5b505afa15801561115c573d6000803e3d6000fd5b505050506040513d602081101561117257600080fd5b505190506001600160a01b03811630146111bd5760405162461bcd60e51b8152600401808060200182810382526026815260200180611fcf6026913960400191505060405180910390fd5b6001600160a01b038216611218576040805162461bcd60e51b815260206004820152601760248201527f746f6b656e206d75737420686176652061206f776e6572000000000000000000604482015290519081900360640190fd5b6112228b8b611d5b565b61122e87878b8b6119f2565b6040805186815260208101869052815133927f4c209b5fc8ad50758f13e2e1088ba56a560dff690a1c6fef26394f4c03821c4f928290030190a250506001600b555095979650505050505050565b6103e881565b600b546001146112c8576040805162461bcd60e51b815260206004820152600c60248201526b1612d95e4e881313d0d2d15160a21b604482015290519081900360640190fd5b6000600b5560035460048054600754604080516370a0823160e01b81523094810194909452516001600160a01b03948516949092169261137a9285928792611375926001600160701b039092169185916370a08231916024808301926020929190829003018186803b15801561133d57600080fd5b505afa158015611351573d6000803e3d6000fd5b505050506040513d602081101561136757600080fd5b50519063ffffffff6119b016565b6117bc565b600754604080516370a0823160e01b815230600482015290516113e1928492879261137592600160701b90046001600160701b0316916001600160a01b038616916370a0823191602480820192602092909190829003018186803b15801561133d57600080fd5b50506001600b5550565b6002546001600160a01b031681565b6004546001600160a01b031681565b6006546001600160a01b031681565b6002546001600160a01b03163314611469576040805162461bcd60e51b815260206004820152600f60248201526e2c25b2bc9d102327a92124a22222a760891b604482015290519081900360640190fd5b600380546001600160a01b039586166001600160a01b0319918216179091556004805494861694821694909417909355600580549285169284169290921790915560068054919093169116179055565b6006546001600160a01b03163314611518576040805162461bcd60e51b815260206004820152601f60248201527f4f6e6c7920526f757465722063616e207573652074686973206d6574686f6400604482015290519081900360640190fd5b600554604080516331a9108f60e11b81526004810185905290516000926001600160a01b031691636352211e916024808301926020929190829003018186803b15801561156457600080fd5b505afa158015611578573d6000803e3d6000fd5b505050506040513d602081101561158e57600080fd5b505190506001600160a01b03848116908216146115f2576040805162461bcd60e51b815260206004820152601d60248201527f4e6f7420746f6b656e204f776e65722063616e74207472616e73666572000000604482015290519081900360640190fd5b816115fc84610a58565b101561164f576040805162461bcd60e51b815260206004820152601e60248201527f4e6f7420656e6f756768206c697175696469747920746f2072656d6f76650000604482015290519081900360640190fd5b61165882611e35565b50505050565b600b546001146116a4576040805162461bcd60e51b815260206004820152600c60248201526b1612d95e4e881313d0d2d15160a21b604482015290519081900360640190fd5b6000600b55600354604080516370a0823160e01b815230600482015290516117b5926001600160a01b0316916370a08231916024808301926020929190829003018186803b1580156116f557600080fd5b505afa158015611709573d6000803e3d6000fd5b505050506040513d602081101561171f57600080fd5b505160048054604080516370a0823160e01b81523093810193909352516001600160a01b03909116916370a08231916024808301926020929190829003018186803b15801561176d57600080fd5b505afa158015611781573d6000803e3d6000fd5b505050506040513d602081101561179757600080fd5b50516007546001600160701b0380821691600160701b9004166119f2565b6001600b55565b604080518082018252601981527f7472616e7366657228616464726573732c75696e74323536290000000000000060209182015281516001600160a01b0385811660248301526044808301869052845180840390910181526064909201845291810180516001600160e01b031663a9059cbb60e01b1781529251815160009460609489169392918291908083835b602083106118695780518252601f19909201916020918201910161184a565b6001836020036101000a0380198251168184511680821785525050505050509050019150506000604051808303816000865af19150503d80600081146118cb576040519150601f19603f3d011682016040523d82523d6000602084013e6118d0565b606091505b50915091508180156118fe5750805115806118fe57508080602001905160208110156118fb57600080fd5b50515b611947576040805162461bcd60e51b81526020600482015260156024820152741612d95e4e881514905394d1915497d19052531151605a1b604482015290519081900360640190fd5b5050505050565b60008261195d575060006119aa565b8282028284828161196a57fe5b04146119a75760405162461bcd60e51b81526004018080602001828103825260218152602001806120186021913960400191505060405180910390fd5b90505b92915050565b60006119a783836040518060400160405280601e81526020017f536166654d6174683a207375627472616374696f6e206f766572666c6f770000815250611e61565b6001600160701b038411801590611a1057506001600160701b038311155b611a52576040805162461bcd60e51b815260206004820152600e60248201526d584b65793a204f564552464c4f5760901b604482015290519081900360640190fd5b60075463ffffffff42811691600160e01b90048116820390811615801590611a8257506001600160701b03841615155b8015611a9657506001600160701b03831615155b15611b07578063ffffffff16611ac485611aaf86611ef8565b6001600160e01b03169063ffffffff611f0a16565b600880546001600160e01b03929092169290920201905563ffffffff8116611aef84611aaf87611ef8565b600980546001600160e01b0392909216929092020190555b600780546dffffffffffffffffffffffffffff19166001600160701b03888116919091176dffffffffffffffffffffffffffff60701b1916600160701b8883168102919091176001600160e01b0316600160e01b63ffffffff871602179283905560408051848416815291909304909116602082015281517f1c411e9a96e071241c2f21f7726b17ae89e3cab4c78be50e062b03a9fffbbad1929181900390910190a1505050505050565b81611bee5760405162461bcd60e51b81526004018080602001828103825260218152602001806120396021913960400191505060405180910390fd5b60008281526020819052604090205481811015611c3c5760405162461bcd60e51b8152600401808060200182810382526022815260200180611f8a6022913960400191505060405180910390fd5b611c4c818363ffffffff6119b016565b600084815260208190526040902055600154611c6e908363ffffffff6119b016565b600155600080805260208181527fad3228b676f7d3cd4284a5443f17f1962b36e491b30a40b2405849e597ba5fb5829055604080518681529182019290925280820184905290517faf6151f5085accf2d57e1e7bf7601d3b3982e0de7e9a90f032f8554de9c104f69181900360600190a1505050565b60006003821115611d27575080600160028204015b81811015611d2157809150600281828581611d1057fe5b040181611d1957fe5b049050611cf9565b50610a68565b8115610a6857506001919050565b600154611d425760018190555b50565b6000818310611d5457816119a7565b5090919050565b81611dad576040805162461bcd60e51b815260206004820152601f60248201527f45524332303a206d696e7420746f20746865207a65726f20746f6b656e494400604482015290519081900360640190fd5b600154611dc0908263ffffffff611f2f16565b600155600082815260208190526040902054611de2908263ffffffff611f2f16565b600083815260208181526040808320939093558251918252810184905280820183905290517faf6151f5085accf2d57e1e7bf7601d3b3982e0de7e9a90f032f8554de9c104f69181900360600190a15050565b60008080526020527fad3228b676f7d3cd4284a5443f17f1962b36e491b30a40b2405849e597ba5fb555565b60008184841115611ef05760405162461bcd60e51b81526004018080602001828103825283818151815260200191508051906020019080838360005b83811015611eb5578181015183820152602001611e9d565b50505050905090810190601f168015611ee25780820380516001836020036101000a031916815260200191505b509250505060405180910390fd5b505050900390565b6001600160701b0316600160701b0290565b60006001600160701b0382166001600160e01b03841681611f2757fe5b049392505050565b6000828201838110156119a7576040805162461bcd60e51b815260206004820152601b60248201527f536166654d6174683a206164646974696f6e206f766572666c6f770000000000604482015290519081900360640190fdfe45524332303a206275726e20616d6f756e7420657863656564732062616c616e6365584b65793a20494e53554646494349454e545f4c49515549444954595f4255524e45447468697320746f6b656e2063616e74206164646c697175696420696e20746869732070616972584b65793a20494e53554646494349454e545f4c49515549444954595f4d494e544544536166654d6174683a206d756c7469706c69636174696f6e206f766572666c6f7745524332303a206275726e2066726f6d20746865207a65726f2061646472657373a265627a7a72315820c08ae051ce7256020c09d27c7a5e4136024ba34e6e7be7e3e00ddf95a194da7b64736f6c63430005100032",
  "source": "pragma solidity =0.5.16;\r\n\r\nimport './interfaces/IXKeyPair.sol';\r\nimport './PairERC20.sol';\r\nimport './libraries/Math.sol';\r\nimport './libraries/UQ112x112.sol';\r\nimport './interfaces/IERC20.sol';\r\nimport './interfaces/IXKeyFactory.sol';\r\nimport './interfaces/IXKeyCallee.sol';\r\nimport './interfaces/ISwapLPNFT.sol';\r\ncontract XKeyPair is IXKeyPair, PairERC20 {\r\n    using SafeMath  for uint;\r\n    using UQ112x112 for uint224;\r\n\r\n    uint public constant MINIMUM_LIQUIDITY = 10**3;\r\n    bytes4 private constant SELECTOR = bytes4(keccak256(bytes('transfer(address,uint256)')));\r\n\r\n    address public factory;\r\n    address public token0;\r\n    address public token1;\r\n    address public nft;\r\n    address public router;\r\n    uint112 private reserve0;           // uses single storage slot, accessible via getReserves\r\n    uint112 private reserve1;           // uses single storage slot, accessible via getReserves\r\n    uint32  private blockTimestampLast; // uses single storage slot, accessible via getReserves\r\n\r\n    uint public price0CumulativeLast;\r\n    uint public price1CumulativeLast;\r\n    uint public kLast; // reserve0 * reserve1, as of immediately after the most recent liquidity event\r\n\r\n    uint private unlocked = 1;\r\n    modifier lock() {\r\n        require(unlocked == 1, 'XKey: LOCKED');\r\n        unlocked = 0;\r\n        _;\r\n        unlocked = 1;\r\n    }\r\n    modifier onlyRouter(){\r\n        require(msg.sender == router,\"Only Router can use this method\");\r\n        _;\r\n    }\r\n    function TransferBurnAmount(address msg_sender,uint256 tokenId,uint256 liquidity) external onlyRouter {\r\n        address tokenowner = ISwapLPNFT(nft).ownerOf(tokenId);\r\n        require(msg_sender == tokenowner,\"Not token Owner cant transfer\");\r\n        require(balanceOf(tokenId) >= liquidity,\"Not enough liquidity to remove\");\r\n        transferburn(liquidity);\r\n    }\r\n\r\n    function getReserves() public view returns (uint112 _reserve0, uint112 _reserve1, uint32 _blockTimestampLast) {\r\n        _reserve0 = reserve0;\r\n        _reserve1 = reserve1;\r\n        _blockTimestampLast = blockTimestampLast;\r\n    }\r\n\r\n    function _safeTransfer(address token, address to, uint value) private {\r\n        (bool success, bytes memory data) = token.call(abi.encodeWithSelector(SELECTOR, to, value));\r\n        require(success && (data.length == 0 || abi.decode(data, (bool))), 'XKey: TRANSFER_FAILED');\r\n    }\r\n\r\n    event Mint(address indexed sender, uint amount0, uint amount1);\r\n    event Burn(address indexed sender, uint amount0, uint amount1, address indexed to);\r\n    event Swap(\r\n        address indexed sender,\r\n        uint amount0In,\r\n        uint amount1In,\r\n        uint amount0Out,\r\n        uint amount1Out,\r\n        address indexed to\r\n    );\r\n    event Sync(uint112 reserve0, uint112 reserve1);\r\n\r\n    constructor() public {\r\n        factory = msg.sender;\r\n    }\r\n\r\n    // called once by the factory at time of deployment\r\n    function initialize(address _token0, address _token1, address _nft, address _router) external {\r\n        require(msg.sender == factory, 'XKey: FORBIDDEN'); // sufficient check\r\n        token0 = _token0;\r\n        token1 = _token1;\r\n        nft = _nft;\r\n        router = _router;\r\n    }\r\n\r\n    // update reserves and, on the first call per block, price accumulators\r\n    function _update(uint balance0, uint balance1, uint112 _reserve0, uint112 _reserve1) private {\r\n        require(balance0 <= uint112(-1) && balance1 <= uint112(-1), 'XKey: OVERFLOW');\r\n        uint32 blockTimestamp = uint32(block.timestamp % 2**32);\r\n        uint32 timeElapsed = blockTimestamp - blockTimestampLast; // overflow is desired\r\n        if (timeElapsed > 0 && _reserve0 != 0 && _reserve1 != 0) {\r\n            // * never overflows, and + overflow is desired\r\n            price0CumulativeLast += uint(UQ112x112.encode(_reserve1).uqdiv(_reserve0)) * timeElapsed;\r\n            price1CumulativeLast += uint(UQ112x112.encode(_reserve0).uqdiv(_reserve1)) * timeElapsed;\r\n        }\r\n        reserve0 = uint112(balance0);\r\n        reserve1 = uint112(balance1);\r\n        blockTimestampLast = blockTimestamp;\r\n        emit Sync(reserve0, reserve1);\r\n    }\r\n\r\n    // this low-level function should be called from a contract which performs important safety checks\r\n    function mint(uint256 tokenId) external lock returns (uint liquidity) {\r\n        (uint112 _reserve0, uint112 _reserve1,) = getReserves(); // gas savings\r\n        require(tokenId != 0,\"XKey : mint token id is wrong\");\r\n        uint balance0 = IERC20(token0).balanceOf(address(this));\r\n        uint balance1 = IERC20(token1).balanceOf(address(this));\r\n        uint amount0 = balance0.sub(_reserve0);\r\n        uint amount1 = balance1.sub(_reserve1);\r\n\r\n        uint _totalSupply = totalSupply; // gas savings, must be defined here since totalSupply can update in _mintFee\r\n        if (_totalSupply == 0) {\r\n            liquidity = Math.sqrt(amount0.mul(amount1)).sub(MINIMUM_LIQUIDITY);\r\n            _add_min_liquid(MINIMUM_LIQUIDITY);\r\n           //mint(address(0), MINIMUM_LIQUIDITY); // permanently lock the first MINIMUM_LIQUIDITY tokens\r\n        } else {\r\n            liquidity = Math.min(amount0.mul(_totalSupply) / _reserve0, amount1.mul(_totalSupply) / _reserve1);\r\n        }\r\n        require(liquidity > 0, 'XKey: INSUFFICIENT_LIQUIDITY_MINTED');\r\n        address tokenowner = ISwapLPNFT(nft).ownerOf(tokenId);\r\n        address pair = ISwapLPNFT(nft).getPair(tokenId);\r\n        require(pair == address(this),\"this token cant addliquid in this pair\");\r\n        require(tokenowner != address(0),\"token must have a owner\");\r\n        _mint(tokenId, liquidity);\r\n        _update(balance0, balance1, _reserve0, _reserve1);\r\n        emit Mint(msg.sender, amount0, amount1);\r\n    }\r\n\r\n    // this low-level function should be called from a contract which performs important safety checks\r\n    function burn(address to,uint256 tokenId) external lock returns (uint amount0, uint amount1) {\r\n        (uint112 _reserve0, uint112 _reserve1,) = getReserves(); // gas savings\r\n        address _token0 = token0;                                // gas savings\r\n        address _token1 = token1;                                // gas savings\r\n        uint balance0 = IERC20(_token0).balanceOf(address(this));\r\n        uint balance1 = IERC20(_token1).balanceOf(address(this));\r\n        uint liquidity = balanceOf(0);\r\n\r\n        uint _totalSupply = totalSupply; // gas savings, must be defined here since totalSupply can update in _mintFee\r\n        amount0 = liquidity.mul(balance0) / _totalSupply; // using balances ensures pro-rata distribution\r\n        amount1 = liquidity.mul(balance1) / _totalSupply; // using balances ensures pro-rata distribution\r\n        require(amount0 > 0 && amount1 > 0, 'XKey: INSUFFICIENT_LIQUIDITY_BURNED');\r\n        _burn(tokenId, liquidity);\r\n        _safeTransfer(_token0, to, amount0);\r\n        _safeTransfer(_token1, to, amount1);\r\n        balance0 = IERC20(_token0).balanceOf(address(this));\r\n        balance1 = IERC20(_token1).balanceOf(address(this));\r\n\r\n        _update(balance0, balance1, _reserve0, _reserve1);\r\n        emit Burn(msg.sender, amount0, amount1, to);\r\n    }\r\n\r\n    // this low-level function should be called from a contract which performs important safety checks\r\n    function swap(uint amount0Out, uint amount1Out, address to, bytes calldata data) external lock {\r\n        require(amount0Out > 0 || amount1Out > 0, 'XKey: INSUFFICIENT_OUTPUT_AMOUNT');\r\n        (uint112 _reserve0, uint112 _reserve1,) = getReserves(); // gas savings\r\n        require(amount0Out < _reserve0 && amount1Out < _reserve1, 'XKey: INSUFFICIENT_LIQUIDITY');\r\n\r\n        uint balance0;\r\n        uint balance1;\r\n        { // scope for _token{0,1}, avoids stack too deep errors\r\n        address _token0 = token0;\r\n        address _token1 = token1;\r\n        require(to != _token0 && to != _token1, 'XKey: INVALID_TO');\r\n        if (amount0Out > 0) _safeTransfer(_token0, to, amount0Out); // optimistically transfer tokens\r\n        if (amount1Out > 0) _safeTransfer(_token1, to, amount1Out); // optimistically transfer tokens\r\n        if (data.length > 0) IXKeyCallee(to).xkeyCall(msg.sender, amount0Out, amount1Out, data);\r\n        balance0 = IERC20(_token0).balanceOf(address(this));\r\n        balance1 = IERC20(_token1).balanceOf(address(this));\r\n        }\r\n        uint amount0In = balance0 > _reserve0 - amount0Out ? balance0 - (_reserve0 - amount0Out) : 0;\r\n        uint amount1In = balance1 > _reserve1 - amount1Out ? balance1 - (_reserve1 - amount1Out) : 0;\r\n        require(amount0In > 0 || amount1In > 0, 'XKey: INSUFFICIENT_INPUT_AMOUNT');\r\n        { // scope for reserve{0,1}Adjusted, avoids stack too deep errors\r\n        uint balance0Adjusted = balance0.mul(1000).sub(amount0In.mul(3));\r\n        uint balance1Adjusted = balance1.mul(1000).sub(amount1In.mul(3));\r\n        require(balance0Adjusted.mul(balance1Adjusted) >= uint(_reserve0).mul(_reserve1).mul(1000**2), 'XKey: K');\r\n        }\r\n\r\n        _update(balance0, balance1, _reserve0, _reserve1);\r\n        emit Swap(msg.sender, amount0In, amount1In, amount0Out, amount1Out, to);\r\n    }\r\n\r\n    // force balances to match reserves\r\n    function skim(address to) external lock {\r\n        address _token0 = token0; // gas savings\r\n        address _token1 = token1; // gas savings\r\n        _safeTransfer(_token0, to, IERC20(_token0).balanceOf(address(this)).sub(reserve0));\r\n        _safeTransfer(_token1, to, IERC20(_token1).balanceOf(address(this)).sub(reserve1));\r\n    }\r\n\r\n    // force reserves to match balances\r\n    function sync() external lock {\r\n        _update(IERC20(token0).balanceOf(address(this)), IERC20(token1).balanceOf(address(this)), reserve0, reserve1);\r\n    }\r\n}\r\n",
  "sourcePath": "E:/codingproject/xkey/contracts/XKeyPair.sol",
  "compiler": {
    "name": "solc",
    "version": "0.5.16+commit.9c3226ce.Emscripten.clang"
  },
  "schemaVersion": "3.4.0",
  "updatedAt": "2021-06-09T09:08:20.626Z",
  "devdoc": {
    "methods": {
      "balanceOf(uint256)": {
        "details": "See {IERC20-balanceOf}."
      }
    }
  },
  "userdoc": {
    "methods": {}
  }
}