{
  "contractName": "XKeyNFT721StakingNew",
  "abi": [
    {
      "inputs": [
        {
          "internalType": "address",
          "name": "_erc721_mintaddr",
          "type": "address"
        }
      ],
      "payable": false,
      "stateMutability": "nonpayable",
      "type": "constructor"
    },
    {
      "anonymous": false,
      "inputs": [
        {
          "indexed": false,
          "internalType": "bool",
          "name": "",
          "type": "bool"
        },
        {
          "indexed": false,
          "internalType": "uint256",
          "name": "",
          "type": "uint256"
        },
        {
          "indexed": false,
          "internalType": "uint256",
          "name": "",
          "type": "uint256"
        }
      ],
      "name": "PoolCreated",
      "type": "event"
    },
    {
      "constant": true,
      "inputs": [],
      "name": "erc721_mintaddr",
      "outputs": [
        {
          "internalType": "address",
          "name": "",
          "type": "address"
        }
      ],
      "payable": false,
      "stateMutability": "view",
      "type": "function"
    },
    {
      "constant": true,
      "inputs": [],
      "name": "owner",
      "outputs": [
        {
          "internalType": "address",
          "name": "",
          "type": "address"
        }
      ],
      "payable": false,
      "stateMutability": "view",
      "type": "function"
    },
    {
      "constant": true,
      "inputs": [
        {
          "internalType": "address",
          "name": "",
          "type": "address"
        }
      ],
      "name": "supportNFTContracts",
      "outputs": [
        {
          "internalType": "bool",
          "name": "",
          "type": "bool"
        }
      ],
      "payable": false,
      "stateMutability": "view",
      "type": "function"
    },
    {
      "constant": true,
      "inputs": [],
      "name": "swaptoken_had_mint",
      "outputs": [
        {
          "internalType": "uint256",
          "name": "",
          "type": "uint256"
        }
      ],
      "payable": false,
      "stateMutability": "view",
      "type": "function"
    },
    {
      "constant": false,
      "inputs": [
        {
          "internalType": "address[]",
          "name": "_nftContracts",
          "type": "address[]"
        }
      ],
      "name": "initSupportNFT",
      "outputs": [],
      "payable": false,
      "stateMutability": "nonpayable",
      "type": "function"
    },
    {
      "constant": false,
      "inputs": [
        {
          "internalType": "address",
          "name": "_erc721_mintaddr",
          "type": "address"
        }
      ],
      "name": "changeMintErcAddr",
      "outputs": [],
      "payable": false,
      "stateMutability": "nonpayable",
      "type": "function"
    },
    {
      "constant": false,
      "inputs": [
        {
          "internalType": "uint256",
          "name": "poolid",
          "type": "uint256"
        }
      ],
      "name": "closePool",
      "outputs": [],
      "payable": false,
      "stateMutability": "nonpayable",
      "type": "function"
    },
    {
      "constant": false,
      "inputs": [
        {
          "internalType": "uint256",
          "name": "poolid",
          "type": "uint256"
        }
      ],
      "name": "openPool",
      "outputs": [],
      "payable": false,
      "stateMutability": "nonpayable",
      "type": "function"
    },
    {
      "constant": false,
      "inputs": [
        {
          "internalType": "address",
          "name": "_swaptoken_addr",
          "type": "address"
        },
        {
          "internalType": "uint256",
          "name": "_swaptoken_tokenid",
          "type": "uint256"
        },
        {
          "internalType": "uint256",
          "name": "poolid",
          "type": "uint256"
        }
      ],
      "name": "addNFT721",
      "outputs": [],
      "payable": false,
      "stateMutability": "nonpayable",
      "type": "function"
    },
    {
      "constant": false,
      "inputs": [
        {
          "internalType": "address",
          "name": "_swaptoken_addr",
          "type": "address"
        },
        {
          "internalType": "uint256",
          "name": "_swaptoken_tokenid",
          "type": "uint256"
        },
        {
          "internalType": "uint256",
          "name": "poolid",
          "type": "uint256"
        }
      ],
      "name": "removeNFT721",
      "outputs": [],
      "payable": false,
      "stateMutability": "nonpayable",
      "type": "function"
    },
    {
      "constant": true,
      "inputs": [
        {
          "internalType": "uint256",
          "name": "poolid",
          "type": "uint256"
        }
      ],
      "name": "getPoolStatus",
      "outputs": [
        {
          "internalType": "bool",
          "name": "",
          "type": "bool"
        }
      ],
      "payable": false,
      "stateMutability": "view",
      "type": "function"
    },
    {
      "constant": true,
      "inputs": [
        {
          "internalType": "uint256",
          "name": "poolid",
          "type": "uint256"
        }
      ],
      "name": "getPoolStart",
      "outputs": [
        {
          "internalType": "uint256",
          "name": "",
          "type": "uint256"
        }
      ],
      "payable": false,
      "stateMutability": "view",
      "type": "function"
    },
    {
      "constant": true,
      "inputs": [
        {
          "internalType": "uint256",
          "name": "poolid",
          "type": "uint256"
        }
      ],
      "name": "getPoolCloseat",
      "outputs": [
        {
          "internalType": "uint256",
          "name": "",
          "type": "uint256"
        }
      ],
      "payable": false,
      "stateMutability": "view",
      "type": "function"
    },
    {
      "constant": true,
      "inputs": [
        {
          "internalType": "address",
          "name": "useraddr",
          "type": "address"
        },
        {
          "internalType": "uint256",
          "name": "poolid",
          "type": "uint256"
        }
      ],
      "name": "getUserIfInpool",
      "outputs": [
        {
          "internalType": "bool",
          "name": "",
          "type": "bool"
        }
      ],
      "payable": false,
      "stateMutability": "view",
      "type": "function"
    },
    {
      "constant": true,
      "inputs": [],
      "name": "getOwner",
      "outputs": [
        {
          "internalType": "address",
          "name": "",
          "type": "address"
        }
      ],
      "payable": false,
      "stateMutability": "view",
      "type": "function"
    }
  ],
  "bytecode": "0x60806040523480156200001157600080fd5b506040516200262438038062002624833981810160405260208110156200003757600080fd5b8101908080519060200190929190505050336000806101000a81548173ffffffffffffffffffffffffffffffffffffffff021916908373ffffffffffffffffffffffffffffffffffffffff16021790555080600160006101000a81548173ffffffffffffffffffffffffffffffffffffffff021916908373ffffffffffffffffffffffffffffffffffffffff1602179055506001600960006001815260200190815260200160002060006101000a81548160ff02191690831515021790555042600b600060018152602001908152602001600020819055506200012c6213c68042620003fd60201b62001fee1790919060201c565b600a600060018152602001908152602001600020819055507fd97aa36d6a18e8c4c4d585bf56dc621a77e42dccb2814c0dcda647dc028e7ba1600960006001815260200190815260200160002060009054906101000a900460ff16600b60006001815260200190815260200160002054600a600060018152602001908152602001600020546040518084151515158152602001838152602001828152602001935050505060405180910390a16001600960006002815260200190815260200160002060006101000a81548160ff02191690831515021790555042600b600060028152602001908152602001600020819055506200023b6213c68042620003fd60201b62001fee1790919060201c565b600a600060028152602001908152602001600020819055507fd97aa36d6a18e8c4c4d585bf56dc621a77e42dccb2814c0dcda647dc028e7ba1600960006002815260200190815260200160002060009054906101000a900460ff16600b60006002815260200190815260200160002054600a600060028152602001908152602001600020546040518084151515158152602001838152602001828152602001935050505060405180910390a16001600960006003815260200190815260200160002060006101000a81548160ff02191690831515021790555042600b600060038152602001908152602001600020819055506200034a6213c68042620003fd60201b62001fee1790919060201c565b600a600060038152602001908152602001600020819055507fd97aa36d6a18e8c4c4d585bf56dc621a77e42dccb2814c0dcda647dc028e7ba1600960006003815260200190815260200160002060009054906101000a900460ff16600b60006003815260200190815260200160002054600a600060038152602001908152602001600020546040518084151515158152602001838152602001828152602001935050505060405180910390a15062000486565b6000808284019050838110156200047c576040517f08c379a000000000000000000000000000000000000000000000000000000000815260040180806020018281038252601b8152602001807f536166654d6174683a206164646974696f6e206f766572666c6f77000000000081525060200191505060405180910390fd5b8091505092915050565b61218e80620004966000396000f3fe608060405234801561001057600080fd5b50600436106100f55760003560e01c80638da5cb5b11610097578063d290ca9611610066578063d290ca9614610439578063ddac4d0114610483578063ee3316be146104b1578063f9c2041b14610509576100f5565b80638da5cb5b146102d457806395411f091461031e57806397f693251461037a578063b34a5f72146103f3576100f5565b80636e880070116100d35780636e8800701461019e57806386b607be146102045780638860210c14610246578063893d20e81461028a576100f5565b80630860ec29146100fa57806337de615f1461011857806358618aaf14610146575b600080fd5b61010261054b565b6040518082815260200191505060405180910390f35b6101446004803603602081101561012e57600080fd5b8101908080359060200190929190505050610551565b005b61019c6004803603606081101561015c57600080fd5b81019080803573ffffffffffffffffffffffffffffffffffffffff1690602001909291908035906020019092919080359060200190929190505050610667565b005b6101ea600480360360408110156101b457600080fd5b81019080803573ffffffffffffffffffffffffffffffffffffffff16906020019092919080359060200190929190505050610f32565b604051808215151515815260200191505060405180910390f35b6102306004803603602081101561021a57600080fd5b8101908080359060200190929190505050611028565b6040518082815260200191505060405180910390f35b6102886004803603602081101561025c57600080fd5b81019080803573ffffffffffffffffffffffffffffffffffffffff1690602001909291905050506110d3565b005b610292611170565b604051808273ffffffffffffffffffffffffffffffffffffffff1673ffffffffffffffffffffffffffffffffffffffff16815260200191505060405180910390f35b6102dc611199565b604051808273ffffffffffffffffffffffffffffffffffffffff1673ffffffffffffffffffffffffffffffffffffffff16815260200191505060405180910390f35b6103606004803603602081101561033457600080fd5b81019080803573ffffffffffffffffffffffffffffffffffffffff1690602001909291905050506111be565b604051808215151515815260200191505060405180910390f35b6103f16004803603602081101561039057600080fd5b81019080803590602001906401000000008111156103ad57600080fd5b8201836020820111156103bf57600080fd5b803590602001918460208302840111640100000000831117156103e157600080fd5b90919293919293905050506111de565b005b61041f6004803603602081101561040957600080fd5b8101908080359060200190929190505050611336565b604051808215151515815260200191505060405180910390f35b6104416113ee565b604051808273ffffffffffffffffffffffffffffffffffffffff1673ffffffffffffffffffffffffffffffffffffffff16815260200191505060405180910390f35b6104af6004803603602081101561049957600080fd5b8101908080359060200190929190505050611414565b005b610507600480360360608110156104c757600080fd5b81019080803573ffffffffffffffffffffffffffffffffffffffff169060200190929190803590602001909291908035906020019092919050505061156f565b005b6105356004803603602081101561051f57600080fd5b8101908080359060200190929190505050611ef9565b6040518082815260200191505060405180910390f35b60025481565b8060018114806105615750600281145b8061056c5750600381145b6105de576040517f08c379a00000000000000000000000000000000000000000000000000000000081526004018080602001828103825260118152602001807f706f6f6c6964206e6f742065786973742e00000000000000000000000000000081525060200191505060405180910390fd5b6000809054906101000a900473ffffffffffffffffffffffffffffffffffffffff1673ffffffffffffffffffffffffffffffffffffffff163373ffffffffffffffffffffffffffffffffffffffff161461063757600080fd5b60006009600084815260200190815260200160002060006101000a81548160ff0219169083151502179055505050565b8260011515600660008373ffffffffffffffffffffffffffffffffffffffff1673ffffffffffffffffffffffffffffffffffffffff16815260200190815260200160002060009054906101000a900460ff1615151461072e576040517f08c379a00000000000000000000000000000000000000000000000000000000081526004018080602001828103825260108152602001807f6e6674206e6f7420737570706f72742e0000000000000000000000000000000081525060200191505060405180910390fd5b81600181148061073e5750600281145b806107495750600381145b6107bb576040517f08c379a00000000000000000000000000000000000000000000000000000000081526004018080602001828103825260118152602001807f706f6f6c6964206e6f742065786973742e00000000000000000000000000000081525060200191505060405180910390fd5b60011515600360003373ffffffffffffffffffffffffffffffffffffffff1673ffffffffffffffffffffffffffffffffffffffff16815260200190815260200160002060008773ffffffffffffffffffffffffffffffffffffffff1673ffffffffffffffffffffffffffffffffffffffff168152602001908152602001600020600086815260200190815260200160002060009054906101000a900460ff161515146108cf576040517f08c379a000000000000000000000000000000000000000000000000000000000815260040180806020018281038252600f8152602001807f446f6e74206861766520746f6b656e000000000000000000000000000000000081525060200191505060405180910390fd5b60011515600460003373ffffffffffffffffffffffffffffffffffffffff1673ffffffffffffffffffffffffffffffffffffffff168152602001908152602001600020600085815260200190815260200160002060009054906101000a900460ff161515146109a6576040517f08c379a00000000000000000000000000000000000000000000000000000000081526004018080602001828103825260208152602001807f54686973207573657220686173206e6f74206a6f696e207468697320706f6f6c81525060200191505060405180910390fd5b6000600360003373ffffffffffffffffffffffffffffffffffffffff1673ffffffffffffffffffffffffffffffffffffffff16815260200190815260200160002060008773ffffffffffffffffffffffffffffffffffffffff1673ffffffffffffffffffffffffffffffffffffffff168152602001908152602001600020600086815260200190815260200160002060006101000a81548160ff0219169083151502179055506000600460003373ffffffffffffffffffffffffffffffffffffffff1673ffffffffffffffffffffffffffffffffffffffff168152602001908152602001600020600085815260200190815260200160002060006101000a81548160ff021916908315150217905550600183148015610b29575062093a80610b27600560003373ffffffffffffffffffffffffffffffffffffffff1673ffffffffffffffffffffffffffffffffffffffff16815260200190815260200160002060008681526020019081526020016000205442611fa490919063ffffffff16565b115b15610bec57600160009054906101000a900473ffffffffffffffffffffffffffffffffffffffff1673ffffffffffffffffffffffffffffffffffffffff16631fb33b06336040518263ffffffff1660e01b8152600401808273ffffffffffffffffffffffffffffffffffffffff1673ffffffffffffffffffffffffffffffffffffffff168152602001915050600060405180830381600087803b158015610bcf57600080fd5b505af1158015610be3573d6000803e3d6000fd5b50505050610e58565b600283148015610c60575062054600610c5e600560003373ffffffffffffffffffffffffffffffffffffffff1673ffffffffffffffffffffffffffffffffffffffff16815260200190815260200160002060008681526020019081526020016000205442611fa490919063ffffffff16565b115b15610d2357600160009054906101000a900473ffffffffffffffffffffffffffffffffffffffff1673ffffffffffffffffffffffffffffffffffffffff16632ecda339336040518263ffffffff1660e01b8152600401808273ffffffffffffffffffffffffffffffffffffffff1673ffffffffffffffffffffffffffffffffffffffff168152602001915050600060405180830381600087803b158015610d0657600080fd5b505af1158015610d1a573d6000803e3d6000fd5b50505050610e57565b600383148015610d9757506202a300610d95600560003373ffffffffffffffffffffffffffffffffffffffff1673ffffffffffffffffffffffffffffffffffffffff16815260200190815260200160002060008681526020019081526020016000205442611fa490919063ffffffff16565b115b15610e5657600160009054906101000a900473ffffffffffffffffffffffffffffffffffffffff1673ffffffffffffffffffffffffffffffffffffffff1663f477957b336040518263ffffffff1660e01b8152600401808273ffffffffffffffffffffffffffffffffffffffff1673ffffffffffffffffffffffffffffffffffffffff168152602001915050600060405180830381600087803b158015610e3d57600080fd5b505af1158015610e51573d6000803e3d6000fd5b505050505b5b5b8473ffffffffffffffffffffffffffffffffffffffff166323b872dd3033876040518463ffffffff1660e01b8152600401808473ffffffffffffffffffffffffffffffffffffffff1673ffffffffffffffffffffffffffffffffffffffff1681526020018373ffffffffffffffffffffffffffffffffffffffff1673ffffffffffffffffffffffffffffffffffffffff1681526020018281526020019350505050600060405180830381600087803b158015610f1357600080fd5b505af1158015610f27573d6000803e3d6000fd5b505050505050505050565b6000816001811480610f445750600281145b80610f4f5750600381145b610fc1576040517f08c379a00000000000000000000000000000000000000000000000000000000081526004018080602001828103825260118152602001807f706f6f6c6964206e6f742065786973742e00000000000000000000000000000081525060200191505060405180910390fd5b600460008573ffffffffffffffffffffffffffffffffffffffff1673ffffffffffffffffffffffffffffffffffffffff168152602001908152602001600020600084815260200190815260200160002060009054906101000a900460ff1691505092915050565b600081600181148061103a5750600281145b806110455750600381145b6110b7576040517f08c379a00000000000000000000000000000000000000000000000000000000081526004018080602001828103825260118152602001807f706f6f6c6964206e6f742065786973742e00000000000000000000000000000081525060200191505060405180910390fd5b600a600084815260200190815260200160002054915050919050565b6000809054906101000a900473ffffffffffffffffffffffffffffffffffffffff1673ffffffffffffffffffffffffffffffffffffffff163373ffffffffffffffffffffffffffffffffffffffff161461112c57600080fd5b80600160006101000a81548173ffffffffffffffffffffffffffffffffffffffff021916908373ffffffffffffffffffffffffffffffffffffffff16021790555050565b60008060009054906101000a900473ffffffffffffffffffffffffffffffffffffffff16905090565b6000809054906101000a900473ffffffffffffffffffffffffffffffffffffffff1681565b60066020528060005260406000206000915054906101000a900460ff1681565b6000809054906101000a900473ffffffffffffffffffffffffffffffffffffffff1673ffffffffffffffffffffffffffffffffffffffff163373ffffffffffffffffffffffffffffffffffffffff161461123757600080fd5b60008282905011611293576040517f08c379a00000000000000000000000000000000000000000000000000000000081526004018080602001828103825260238152602001806121376023913960400191505060405180910390fd5b60008090505b82829050811015611331576001600660008585858181106112b657fe5b9050602002013573ffffffffffffffffffffffffffffffffffffffff1673ffffffffffffffffffffffffffffffffffffffff1673ffffffffffffffffffffffffffffffffffffffff16815260200190815260200160002060006101000a81548160ff0219169083151502179055508080600101915050611299565b505050565b60008160018114806113485750600281145b806113535750600381145b6113c5576040517f08c379a00000000000000000000000000000000000000000000000000000000081526004018080602001828103825260118152602001807f706f6f6c6964206e6f742065786973742e00000000000000000000000000000081525060200191505060405180910390fd5b6009600084815260200190815260200160002060009054906101000a900460ff16915050919050565b600160009054906101000a900473ffffffffffffffffffffffffffffffffffffffff1681565b8060018114806114245750600281145b8061142f5750600381145b6114a1576040517f08c379a00000000000000000000000000000000000000000000000000000000081526004018080602001828103825260118152602001807f706f6f6c6964206e6f742065786973742e00000000000000000000000000000081525060200191505060405180910390fd5b6000809054906101000a900473ffffffffffffffffffffffffffffffffffffffff1673ffffffffffffffffffffffffffffffffffffffff163373ffffffffffffffffffffffffffffffffffffffff16146114fa57600080fd5b60016009600084815260200190815260200160002060006101000a81548160ff02191690831515021790555042600b6000848152602001908152602001600020819055506115546213c68042611fee90919063ffffffff16565b600a6000848152602001908152602001600020819055505050565b8260011515600660008373ffffffffffffffffffffffffffffffffffffffff1673ffffffffffffffffffffffffffffffffffffffff16815260200190815260200160002060009054906101000a900460ff16151514611636576040517f08c379a00000000000000000000000000000000000000000000000000000000081526004018080602001828103825260108152602001807f6e6674206e6f7420737570706f72742e0000000000000000000000000000000081525060200191505060405180910390fd5b8160018114806116465750600281145b806116515750600381145b6116c3576040517f08c379a00000000000000000000000000000000000000000000000000000000081526004018080602001828103825260118152602001807f706f6f6c6964206e6f742065786973742e00000000000000000000000000000081525060200191505060405180910390fd5b60001515600160009054906101000a900473ffffffffffffffffffffffffffffffffffffffff1673ffffffffffffffffffffffffffffffffffffffff1663c095b2376040518163ffffffff1660e01b815260040160206040518083038186803b15801561172f57600080fd5b505afa158015611743573d6000803e3d6000fd5b505050506040513d602081101561175957600080fd5b81019080805190602001909291905050501515146117df576040517f08c379a00000000000000000000000000000000000000000000000000000000081526004018080602001828103825260178152602001807f416c6c20746f6b656e20686173206265656e206d696e7400000000000000000081525060200191505060405180910390fd5b600115156009600085815260200190815260200160002060009054906101000a900460ff16151514611879576040517f08c379a000000000000000000000000000000000000000000000000000000000815260040180806020018281038252600e8152602001807f506f6f6c20697320636c6f73656400000000000000000000000000000000000081525060200191505060405180910390fd5b42600b6000858152602001908152602001600020541115611902576040517f08c379a00000000000000000000000000000000000000000000000000000000081526004018080602001828103825260138152602001807f506f6f6c2068617665206e6f742073746172740000000000000000000000000081525060200191505060405180910390fd5b42600a600085815260200190815260200160002054101561198b576040517f08c379a000000000000000000000000000000000000000000000000000000000815260040180806020018281038252601f8152602001807f506f6f6c207374617274696d65206d6f7265207468616e20313520646179730081525060200191505060405180910390fd5b60001515600460003373ffffffffffffffffffffffffffffffffffffffff1673ffffffffffffffffffffffffffffffffffffffff168152602001908152602001600020600085815260200190815260200160002060009054906101000a900460ff16151514611a62576040517f08c379a000000000000000000000000000000000000000000000000000000000815260040180806020018281038252601c8152602001807f54686973207573657220686173206a6f696e207468697320706f6f6c0000000081525060200191505060405180910390fd5b6001600460003373ffffffffffffffffffffffffffffffffffffffff1673ffffffffffffffffffffffffffffffffffffffff168152602001908152602001600020600085815260200190815260200160002060006101000a81548160ff02191690831515021790555042600560003373ffffffffffffffffffffffffffffffffffffffff1673ffffffffffffffffffffffffffffffffffffffff1681526020019081526020016000206000858152602001908152602001600020819055506001600360003373ffffffffffffffffffffffffffffffffffffffff1673ffffffffffffffffffffffffffffffffffffffff16815260200190815260200160002060008773ffffffffffffffffffffffffffffffffffffffff1673ffffffffffffffffffffffffffffffffffffffff168152602001908152602001600020600086815260200190815260200160002060006101000a81548160ff0219169083151502179055503073ffffffffffffffffffffffffffffffffffffffff168573ffffffffffffffffffffffffffffffffffffffff16636352211e866040518263ffffffff1660e01b81526004018082815260200191505060206040518083038186803b158015611c2e57600080fd5b505afa158015611c42573d6000803e3d6000fd5b505050506040513d6020811015611c5857600080fd5b810190808051906020019092919050505073ffffffffffffffffffffffffffffffffffffffff161415611cf3576040517f08c379a000000000000000000000000000000000000000000000000000000000815260040180806020018281038252601f8152602001807f7468697320746f6b656e696420686173207472616e7366657220746f206d650081525060200191505060405180910390fd5b8473ffffffffffffffffffffffffffffffffffffffff166323b872dd3330876040518463ffffffff1660e01b8152600401808473ffffffffffffffffffffffffffffffffffffffff1673ffffffffffffffffffffffffffffffffffffffff1681526020018373ffffffffffffffffffffffffffffffffffffffff1673ffffffffffffffffffffffffffffffffffffffff1681526020018281526020019350505050600060405180830381600087803b158015611dae57600080fd5b505af1158015611dc2573d6000803e3d6000fd5b505050503073ffffffffffffffffffffffffffffffffffffffff168573ffffffffffffffffffffffffffffffffffffffff16636352211e866040518263ffffffff1660e01b81526004018082815260200191505060206040518083038186803b158015611e2e57600080fd5b505afa158015611e42573d6000803e3d6000fd5b505050506040513d6020811015611e5857600080fd5b810190808051906020019092919050505073ffffffffffffffffffffffffffffffffffffffff1614611ef2576040517f08c379a000000000000000000000000000000000000000000000000000000000815260040180806020018281038252601f8152602001807f7468697320746f6b656e696420686173207472616e7366657220746f206d650081525060200191505060405180910390fd5b5050505050565b6000816001811480611f0b5750600281145b80611f165750600381145b611f88576040517f08c379a00000000000000000000000000000000000000000000000000000000081526004018080602001828103825260118152602001807f706f6f6c6964206e6f742065786973742e00000000000000000000000000000081525060200191505060405180910390fd5b600b600084815260200190815260200160002054915050919050565b6000611fe683836040518060400160405280601e81526020017f536166654d6174683a207375627472616374696f6e206f766572666c6f770000815250612076565b905092915050565b60008082840190508381101561206c576040517f08c379a000000000000000000000000000000000000000000000000000000000815260040180806020018281038252601b8152602001807f536166654d6174683a206164646974696f6e206f766572666c6f77000000000081525060200191505060405180910390fd5b8091505092915050565b6000838311158290612123576040517f08c379a00000000000000000000000000000000000000000000000000000000081526004018080602001828103825283818151815260200191508051906020019080838360005b838110156120e85780820151818401526020810190506120cd565b50505050905090810190601f1680156121155780820380516001836020036101000a031916815260200191505b509250505060405180910390fd5b506000838503905080915050939250505056fe737570706f727420636f6e7472616374732063616e206e6f7420626520656d7074792ea265627a7a72315820a3f0b9f04465842c8bb7d67e990299002bc132526eacf92845c64b7b65e9cb6b64736f6c63430005100032",
  "source": "pragma solidity=0.5.16;\r\n\r\nimport './libraries/SafeMath.sol';\r\nimport './libraries/SignedSafeMath.sol';\r\nimport \"./interfaces/IERCMint721.sol\";\r\nimport './interfaces/IERC721.sol';\r\n\r\ncontract XKeyNFT721StakingNew {\r\n    using SafeMath  for uint;\r\n    using SignedSafeMath for int256;\r\n\r\n    address public owner;\r\n    address public erc721_mintaddr;\r\n    uint256 public swaptoken_had_mint;\r\n//    uint256 public swaptoken_totalMint;\r\n    // user=>nft=>tokenid=>bool\r\n    mapping(address=>mapping(address=>mapping(uint=>bool))) userNFTTokenid;\r\n    // user=>poolid=>bool\r\n    mapping(address=>mapping(uint=>bool)) userNFTInPool;\r\n    // user=>poolid=>uint\r\n    mapping(address=>mapping(uint=>uint)) userJoinPoolTime;\r\n\r\n    mapping(address=>bool) public supportNFTContracts;\r\n    //pool=>duration,1:gold,2:silver,3:copper\r\n    //totalmint\r\n    uint poolTotalmint;\r\n    //totalhadmint\r\n    uint poolTotalhadmint;\r\n    //pool=>exist\r\n    mapping(uint=>bool) poolExist;\r\n    //pool=>closeat\r\n    mapping(uint=>uint) poolCloseat;\r\n    //pool=>start\r\n    mapping(uint=>uint) poolStart;\r\n\r\n    // user=>poolid=>starttime\r\n    mapping(address=>mapping(uint=>bool)) userStakingStartTime;\r\n    event PoolCreated(bool,uint,uint);\r\n\r\n    constructor(\r\n        address _erc721_mintaddr) public {\r\n        owner = msg.sender;\r\n        erc721_mintaddr =  _erc721_mintaddr;\r\n//        swaptoken_totalMint = _swaptoken_totalMint;\r\n\r\n        poolExist[1] = true;\r\n        poolStart[1] = now;\r\n        poolCloseat[1] = now.add(15 days);\r\n        emit PoolCreated(poolExist[1],poolStart[1],poolCloseat[1]);\r\n\r\n        poolExist[2] = true;\r\n        poolStart[2] = now;\r\n        poolCloseat[2] = now.add(15 days);\r\n        emit PoolCreated(poolExist[2],poolStart[2],poolCloseat[2]);\r\n\r\n        poolExist[3] = true;\r\n        poolStart[3] = now;\r\n        poolCloseat[3] = now.add(15 days);\r\n        emit PoolCreated(poolExist[3],poolStart[3],poolCloseat[3]);\r\n    }\r\n\r\n    modifier onlyOwner {\r\n        require(msg.sender == owner);\r\n        _;\r\n    }\r\n\r\n    modifier onlySupportContracts(address _nftcontract) {\r\n        require(supportNFTContracts[_nftcontract] == true,\"nft not support.\");\r\n        _;\r\n    }\r\n\r\n    modifier poolIfExist(uint  _poolid) {\r\n        require(_poolid==1 || _poolid==2 || _poolid==3,\"poolid not exist.\");\r\n        _;\r\n    }\r\n\r\n    function initSupportNFT(address[] calldata _nftContracts) onlyOwner external {\r\n        require(_nftContracts.length > 0,\"support contracts can not be empty.\");\r\n        for(uint i = 0; i < _nftContracts.length; i++) {\r\n            supportNFTContracts[_nftContracts[i]] = true;\r\n        }\r\n    }\r\n\r\n    function changeMintErcAddr(address _erc721_mintaddr) external onlyOwner {\r\n        erc721_mintaddr = _erc721_mintaddr;\r\n    }\r\n\r\n//    function ChangePoolStart(uint poolid,address user) external onlyOwner {\r\n//        userJoinPoolTime[user][poolid] = (userJoinPoolTime[user][poolid]).sub(8 days);\r\n//    }\r\n\r\n    function closePool(uint poolid) poolIfExist(poolid) external onlyOwner {\r\n        poolExist[poolid] = false;\r\n    }\r\n\r\n    function openPool(uint poolid)  poolIfExist(poolid) external onlyOwner {\r\n        poolExist[poolid] = true;\r\n        poolStart[poolid] = now;\r\n        poolCloseat[poolid] = now.add(15 days);\r\n\r\n    }\r\n\r\n    function addNFT721(address _swaptoken_addr,uint _swaptoken_tokenid,uint poolid) onlySupportContracts(_swaptoken_addr) poolIfExist(poolid) external{\r\n        require(IERCMint721(erc721_mintaddr).ifMintEnd() == false,\"All token has been mint\");\r\n        require(poolExist[poolid] == true,\"Pool is closed\");\r\n        require(poolStart[poolid] <= now,\"Pool have not start\");\r\n        require(poolCloseat[poolid] >= now,\"Pool startime more than 15 days\");\r\n        require(userNFTInPool[msg.sender][poolid] == false,\"This user has join this pool\");\r\n\r\n        userNFTInPool[msg.sender][poolid] = true;\r\n        userJoinPoolTime[msg.sender][poolid] = now;\r\n        userNFTTokenid[msg.sender][_swaptoken_addr][_swaptoken_tokenid] = true;\r\n        require(IERC721(_swaptoken_addr).ownerOf(_swaptoken_tokenid) != address(this),\"this tokenid has transfer to me\");\r\n        IERC721(_swaptoken_addr).transferFrom(msg.sender,address(this),_swaptoken_tokenid);\r\n        require(IERC721(_swaptoken_addr).ownerOf(_swaptoken_tokenid) == address(this),\"this tokenid has transfer to me\");\r\n    }\r\n\r\n    function removeNFT721(address _swaptoken_addr,uint _swaptoken_tokenid,uint poolid) onlySupportContracts(_swaptoken_addr) poolIfExist(poolid) external {\r\n        require(userNFTTokenid[msg.sender][_swaptoken_addr][_swaptoken_tokenid] == true,\"Dont have token\");\r\n        require(userNFTInPool[msg.sender][poolid] == true,\"This user has not join this pool\");\r\n\r\n        userNFTTokenid[msg.sender][_swaptoken_addr][_swaptoken_tokenid] = false;\r\n        userNFTInPool[msg.sender][poolid] = false;\r\n        if (poolid == 1 && now.sub(userJoinPoolTime[msg.sender][poolid]) > 7 days) {\r\n            IERCMint721(erc721_mintaddr).mintGold(msg.sender);\r\n        } else if (poolid == 2 && now.sub(userJoinPoolTime[msg.sender][poolid]) > 4 days) {\r\n            IERCMint721(erc721_mintaddr).mintSilver(msg.sender);\r\n        } else if (poolid == 3 && now.sub(userJoinPoolTime[msg.sender][poolid]) > 2 days) {\r\n            IERCMint721(erc721_mintaddr).mintCopper(msg.sender);\r\n        }\r\n        IERC721(_swaptoken_addr).transferFrom(address(this),msg.sender,_swaptoken_tokenid);\r\n    }\r\n\r\n    function getPoolStatus(uint poolid) poolIfExist(poolid) external view returns (bool) {\r\n        return poolExist[poolid];\r\n    }\r\n\r\n    function getPoolStart(uint poolid) poolIfExist(poolid) external view returns (uint) {\r\n        return poolStart[poolid];\r\n    }\r\n\r\n    function getPoolCloseat(uint poolid) poolIfExist(poolid) external view returns (uint) {\r\n        return poolCloseat[poolid];\r\n    }\r\n    function getUserIfInpool(address useraddr,uint poolid) poolIfExist(poolid) external view returns (bool) {\r\n        return userNFTInPool[useraddr][poolid];\r\n    }\r\n\r\n\r\n    function getOwner() public view returns (address){\r\n        return owner;\r\n    }\r\n}\r\n",
  "sourcePath": "E:/codingproject/xkey/contracts/XKeyNFT721StakingNew.sol",
  "compiler": {
    "name": "solc",
    "version": "0.5.16+commit.9c3226ce.Emscripten.clang"
  },
  "schemaVersion": "3.4.0",
  "updatedAt": "2021-05-28T05:15:25.457Z",
  "devdoc": {
    "methods": {}
  },
  "userdoc": {
    "methods": {}
  }
}