{
  "contractName": "XKeyNFT721Staking",
  "abi": [
    {
      "inputs": [
        {
          "internalType": "address",
          "name": "_erc_mintaddr",
          "type": "address"
        },
        {
          "internalType": "uint256",
          "name": "_perblockreward",
          "type": "uint256"
        },
        {
          "internalType": "uint256",
          "name": "_swaptoken_totalMint",
          "type": "uint256"
        }
      ],
      "payable": false,
      "stateMutability": "nonpayable",
      "type": "constructor"
    },
    {
      "anonymous": false,
      "inputs": [
        {
          "indexed": false,
          "internalType": "address",
          "name": "",
          "type": "address"
        },
        {
          "indexed": false,
          "internalType": "uint256",
          "name": "",
          "type": "uint256"
        },
        {
          "indexed": false,
          "internalType": "uint256",
          "name": "",
          "type": "uint256"
        }
      ],
      "name": "LiquidSwapTokenCreated",
      "type": "event"
    },
    {
      "constant": true,
      "inputs": [],
      "name": "all_weight",
      "outputs": [
        {
          "internalType": "uint256",
          "name": "",
          "type": "uint256"
        }
      ],
      "payable": false,
      "stateMutability": "view",
      "type": "function"
    },
    {
      "constant": true,
      "inputs": [],
      "name": "erc_mintaddr",
      "outputs": [
        {
          "internalType": "address",
          "name": "",
          "type": "address"
        }
      ],
      "payable": false,
      "stateMutability": "view",
      "type": "function"
    },
    {
      "constant": true,
      "inputs": [],
      "name": "perblockreward",
      "outputs": [
        {
          "internalType": "uint256",
          "name": "",
          "type": "uint256"
        }
      ],
      "payable": false,
      "stateMutability": "view",
      "type": "function"
    },
    {
      "constant": true,
      "inputs": [
        {
          "internalType": "address",
          "name": "",
          "type": "address"
        }
      ],
      "name": "supportNFTContracts",
      "outputs": [
        {
          "internalType": "bool",
          "name": "",
          "type": "bool"
        }
      ],
      "payable": false,
      "stateMutability": "view",
      "type": "function"
    },
    {
      "constant": true,
      "inputs": [
        {
          "internalType": "uint256",
          "name": "",
          "type": "uint256"
        }
      ],
      "name": "swaptoken_addrs",
      "outputs": [
        {
          "internalType": "address",
          "name": "",
          "type": "address"
        }
      ],
      "payable": false,
      "stateMutability": "view",
      "type": "function"
    },
    {
      "constant": true,
      "inputs": [],
      "name": "swaptoken_had_mint",
      "outputs": [
        {
          "internalType": "uint256",
          "name": "",
          "type": "uint256"
        }
      ],
      "payable": false,
      "stateMutability": "view",
      "type": "function"
    },
    {
      "constant": true,
      "inputs": [
        {
          "internalType": "address",
          "name": "",
          "type": "address"
        }
      ],
      "name": "swaptoken_last_reward_blocknum",
      "outputs": [
        {
          "internalType": "uint256",
          "name": "",
          "type": "uint256"
        }
      ],
      "payable": false,
      "stateMutability": "view",
      "type": "function"
    },
    {
      "constant": true,
      "inputs": [
        {
          "internalType": "address",
          "name": "",
          "type": "address"
        }
      ],
      "name": "swaptoken_pershare_reward",
      "outputs": [
        {
          "internalType": "uint256",
          "name": "",
          "type": "uint256"
        }
      ],
      "payable": false,
      "stateMutability": "view",
      "type": "function"
    },
    {
      "constant": true,
      "inputs": [],
      "name": "swaptoken_totalMint",
      "outputs": [
        {
          "internalType": "uint256",
          "name": "",
          "type": "uint256"
        }
      ],
      "payable": false,
      "stateMutability": "view",
      "type": "function"
    },
    {
      "constant": true,
      "inputs": [
        {
          "internalType": "address",
          "name": "",
          "type": "address"
        }
      ],
      "name": "swaptoken_weight",
      "outputs": [
        {
          "internalType": "uint256",
          "name": "",
          "type": "uint256"
        }
      ],
      "payable": false,
      "stateMutability": "view",
      "type": "function"
    },
    {
      "constant": false,
      "inputs": [
        {
          "internalType": "address",
          "name": "_liquid_swaptoken_addr",
          "type": "address"
        },
        {
          "internalType": "uint256",
          "name": "_swaptoken_weight",
          "type": "uint256"
        },
        {
          "internalType": "uint256",
          "name": "_swaptoken_start_block",
          "type": "uint256"
        }
      ],
      "name": "CreateLiquidSwap",
      "outputs": [],
      "payable": false,
      "stateMutability": "nonpayable",
      "type": "function"
    },
    {
      "constant": false,
      "inputs": [
        {
          "internalType": "address",
          "name": "swap_addr",
          "type": "address"
        }
      ],
      "name": "updateSwaptokenInfo",
      "outputs": [],
      "payable": false,
      "stateMutability": "nonpayable",
      "type": "function"
    },
    {
      "constant": false,
      "inputs": [
        {
          "internalType": "address",
          "name": "_swaptoken_addr",
          "type": "address"
        },
        {
          "internalType": "uint32",
          "name": "weight",
          "type": "uint32"
        }
      ],
      "name": "ChangeSwaptokenWeight",
      "outputs": [],
      "payable": false,
      "stateMutability": "nonpayable",
      "type": "function"
    },
    {
      "constant": true,
      "inputs": [
        {
          "internalType": "address",
          "name": "_user",
          "type": "address"
        }
      ],
      "name": "GetAddrBalanceof",
      "outputs": [
        {
          "internalType": "uint256",
          "name": "",
          "type": "uint256"
        }
      ],
      "payable": false,
      "stateMutability": "view",
      "type": "function"
    },
    {
      "constant": false,
      "inputs": [
        {
          "internalType": "address",
          "name": "_erc_mintaddr",
          "type": "address"
        }
      ],
      "name": "ChangeMintErcAddr",
      "outputs": [],
      "payable": false,
      "stateMutability": "nonpayable",
      "type": "function"
    },
    {
      "constant": false,
      "inputs": [
        {
          "internalType": "address",
          "name": "_swaptoken_addr",
          "type": "address"
        },
        {
          "internalType": "uint256",
          "name": "_swaptoken_tokenid",
          "type": "uint256"
        }
      ],
      "name": "AddSwaptokenShare",
      "outputs": [],
      "payable": false,
      "stateMutability": "nonpayable",
      "type": "function"
    },
    {
      "constant": false,
      "inputs": [
        {
          "internalType": "address",
          "name": "_swaptoken_addr",
          "type": "address"
        },
        {
          "internalType": "uint256[]",
          "name": "_swaptoken_tokenids",
          "type": "uint256[]"
        }
      ],
      "name": "RemoveSwaptokenShare",
      "outputs": [],
      "payable": false,
      "stateMutability": "nonpayable",
      "type": "function"
    },
    {
      "constant": false,
      "inputs": [
        {
          "internalType": "address",
          "name": "_swaptoken_addr",
          "type": "address"
        }
      ],
      "name": "GetSwaptokenReward",
      "outputs": [],
      "payable": false,
      "stateMutability": "nonpayable",
      "type": "function"
    },
    {
      "constant": true,
      "inputs": [
        {
          "internalType": "address",
          "name": "_swaptoken_addr",
          "type": "address"
        }
      ],
      "name": "PredReward",
      "outputs": [
        {
          "internalType": "uint256",
          "name": "",
          "type": "uint256"
        }
      ],
      "payable": false,
      "stateMutability": "view",
      "type": "function"
    },
    {
      "constant": false,
      "inputs": [
        {
          "internalType": "uint256",
          "name": "_perblockreward",
          "type": "uint256"
        }
      ],
      "name": "ChangePerBlockReward",
      "outputs": [],
      "payable": false,
      "stateMutability": "nonpayable",
      "type": "function"
    },
    {
      "constant": true,
      "inputs": [],
      "name": "GetOwner",
      "outputs": [
        {
          "internalType": "address",
          "name": "",
          "type": "address"
        }
      ],
      "payable": false,
      "stateMutability": "view",
      "type": "function"
    },
    {
      "constant": true,
      "inputs": [
        {
          "internalType": "address",
          "name": "_swaptoken_addr",
          "type": "address"
        },
        {
          "internalType": "address",
          "name": "_user",
          "type": "address"
        }
      ],
      "name": "GetUserShare",
      "outputs": [
        {
          "internalType": "uint256",
          "name": "",
          "type": "uint256"
        }
      ],
      "payable": false,
      "stateMutability": "view",
      "type": "function"
    },
    {
      "constant": true,
      "inputs": [
        {
          "internalType": "address",
          "name": "_swaptoken_addr",
          "type": "address"
        },
        {
          "internalType": "address",
          "name": "_user",
          "type": "address"
        },
        {
          "internalType": "uint256",
          "name": "_tokenId",
          "type": "uint256"
        }
      ],
      "name": "GetUserIfhaveTokenid",
      "outputs": [
        {
          "internalType": "bool",
          "name": "",
          "type": "bool"
        }
      ],
      "payable": false,
      "stateMutability": "view",
      "type": "function"
    }
  ],
  "bytecode": "0x60806040523480156200001157600080fd5b5060405162001e0638038062001e06833981810160405260608110156200003757600080fd5b508051602080830151604090930151600c8054336001600160a01b031991821617909155600980549091166001600160a01b0385161790559192919062000093908390670de0b6b3a764000090620000a2811b6200196717901c565b600855600b5550620001099050565b600082620000b35750600062000103565b82820282848281620000c157fe5b0414620001005760405162461bcd60e51b815260040180806020018281038252602181526020018062001de56021913960400191505060405180910390fd5b90505b92915050565b611ccc80620001196000396000f3fe608060405234801561001057600080fd5b506004361061018d5760003560e01c806390430fb9116100e3578063a970995a1161008c578063e68568ca11610066578063e68568ca146104a2578063ec308bbd146104aa578063f792f762146104d85761018d565b8063a970995a14610430578063bf58cc7114610456578063e0a595071461047c5761018d565b80639b56f7e6116100bd5780639b56f7e6146103c15780639dc40226146103e7578063a589feb2146104135761018d565b806390430fb91461036157806395411f091461036957806397655df01461038f5761018d565b80634d939d621161014557806368d872531161011f57806368d87253146102d457806377054ef01461031e578063806d474a146103445761018d565b80634d939d62146102245780634e85d8bc146102a65780636509d161146102ae5761018d565b80633a350ba3116101765780633a350ba3146101d0578063449ea4a6146101f657806347711fd3146101fe5761018d565b80630860ec29146101925780630ae50a39146101ac575b600080fd5b61019a61050a565b60408051918252519081900360200190f35b6101b4610510565b604080516001600160a01b039092168252519081900360200190f35b61019a600480360360208110156101e657600080fd5b50356001600160a01b031661051f565b6101b46105a2565b61019a6004803603602081101561021457600080fd5b50356001600160a01b03166105b1565b6102a46004803603604081101561023a57600080fd5b6001600160a01b03823516919081019060408101602082013564010000000081111561026557600080fd5b82018360208201111561027757600080fd5b8035906020019184602083028401116401000000008311171561029957600080fd5b50909250905061085e565b005b61019a610d81565b61019a600480360360208110156102c457600080fd5b50356001600160a01b0316610d87565b61030a600480360360608110156102ea57600080fd5b506001600160a01b03813581169160208101359091169060400135610d99565b604080519115158252519081900360200190f35b61019a6004803603602081101561033457600080fd5b50356001600160a01b0316610dcf565b6101b46004803603602081101561035a57600080fd5b5035610de1565b61019a610e08565b61030a6004803603602081101561037f57600080fd5b50356001600160a01b0316610e0e565b6102a4600480360360608110156103a557600080fd5b506001600160a01b038135169060208101359060400135610e23565b6102a4600480360360208110156103d757600080fd5b50356001600160a01b0316610fb4565b6102a4600480360360408110156103fd57600080fd5b506001600160a01b038135169060200135610ffa565b6102a46004803603602081101561042957600080fd5b50356113d0565b61019a6004803603602081101561044657600080fd5b50356001600160a01b03166113f4565b6102a46004803603602081101561046c57600080fd5b50356001600160a01b0316611406565b6102a46004803603602081101561049257600080fd5b50356001600160a01b03166115f2565b61019a6117f2565b61019a600480360360408110156104c057600080fd5b506001600160a01b03813581169160200135166117f8565b6102a4600480360360408110156104ee57600080fd5b5080356001600160a01b0316906020013563ffffffff16611825565b600a5481565b600c546001600160a01b031690565b600954604080516370a0823160e01b81526001600160a01b038481166004830152915160009392909216916370a0823191602480820192602092909190829003018186803b15801561057057600080fd5b505afa158015610584573d6000803e3d6000fd5b505050506040513d602081101561059a57600080fd5b505192915050565b6009546001600160a01b031681565b6001600160a01b03811660009081526002602052604081205482908290156105d7575060015b80610621576040805162461bcd60e51b81526020600482015260156024820152742237b7303a103430bb32903a3434b9903a37b5b2b760591b604482015290519081900360640190fd5b6001600160a01b03841660009081526004602090815260408083205460029092529091205443111561079357604080516370a0823160e01b815230600482015290516000916001600160a01b038816916370a0823191602480820192602092909190829003018186803b15801561069757600080fd5b505afa1580156106ab573d6000803e3d6000fd5b505050506040513d60208110156106c157600080fd5b505190508015610791576001600160a01b0386166000908152600260205260408120546106f590439063ffffffff61191e16565b6007546001600160a01b038916600090815260036020526040812054600854939450909261073b919061072f90869063ffffffff61196716565b9063ffffffff61196716565b8161074257fe5b04905061078c8361075e8364e8d4a5100063ffffffff61196716565b8161076557fe5b6001600160a01b038b1660009081526004602052604090205491900463ffffffff6119c016565b935050505b505b6001600160a01b038516600090815260056020908152604080832033845290915281205464e8d4a51000906107ce908463ffffffff61196716565b816107d557fe5b6001600160a01b03881660009081526006602090815260408083203384529091528120549290910492509061081a9061081590849063ffffffff611a1a16565b611a7f565b600b54600a549192508291610835908363ffffffff6119c016565b111561085357600a54600b546108509163ffffffff61191e16565b90505b979650505050505050565b6001600160a01b03831660009081526002602052604081205484919015610883575060015b806108cd576040805162461bcd60e51b81526020600482015260156024820152742237b7303a103430bb32903a3434b9903a37b5b2b760591b604482015290519081900360640190fd5b6001600160a01b038516600090815260208190526040902054859060ff161515600114610941576040805162461bcd60e51b815260206004820152601060248201527f6e6674206e6f7420737570706f72742e00000000000000000000000000000000604482015290519081900360640190fd5b6001600160a01b03861660009081526005602090815260408083203384529091529020548411156109b9576040805162461bcd60e51b815260206004820181905260248201527f446f6e74204861766520456e6f75676820746f6b656e20746f2072656d6f7665604482015290519081900360640190fd5b6109c2866115f2565b6001600160a01b0386166000908152600460209081526040808320546005835281842033855290925282205464e8d4a5100091610a05919063ffffffff61196716565b81610a0c57fe5b6001600160a01b038916600090815260066020908152604080832033845290915281205492909104925090610a4c9061081590849063ffffffff611a1a16565b600b54600a549192508291610a67908363ffffffff6119c016565b1115610a8557600a54600b54610a829163ffffffff61191e16565b90505b8015610b0d57600a54610a9e908263ffffffff6119c016565b600a5560095460408051631d9a4ef360e11b81523360048201526024810184905290516001600160a01b0390921691633b349de69160448082019260009290919082900301818387803b158015610af457600080fd5b505af1158015610b08573d6000803e3d6000fd5b505050505b60005b87811015610d75573360009081526001602090815260408083206001600160a01b038e1684529091528120908a8a84818110610b4857fe5b602090810292909201358352508101919091526040016000205460ff16610bb6576040805162461bcd60e51b815260206004820152600f60248201527f446f6e74206861766520746f6b656e0000000000000000000000000000000000604482015290519081900360640190fd5b3360009081526001602090815260408083206001600160a01b038e1684529091528120818b8b85818110610be657fe5b90506020020135815260200190815260200160002060006101000a81548160ff021916908315150217905550610c5764e8d4a51000600460008d6001600160a01b03166001600160a01b031681526020019081526020016000205481610c4857fe5b8691900463ffffffff611a1a16565b6001600160a01b038b16600081815260066020908152604080832033808552908352818420959095559282526005815282822093825292909252902054610ca590600163ffffffff61191e16565b6001600160a01b038b16600081815260056020908152604080832033808552925290912092909255906323b872dd9030908c8c86818110610ce257fe5b905060200201356040518463ffffffff1660e01b815260040180846001600160a01b03166001600160a01b03168152602001836001600160a01b03166001600160a01b031681526020018281526020019350505050600060405180830381600087803b158015610d5157600080fd5b505af1158015610d65573d6000803e3d6000fd5b505060019092019150610b109050565b50505050505050505050565b60075481565b60026020526000908152604090205481565b6001600160a01b039182166000908152600160209081526040808320959094168252938452828120918152925290205460ff1690565b60036020526000908152604090205481565b600d8181548110610dee57fe5b6000918252602090912001546001600160a01b0316905081565b600b5481565b60006020819052908152604090205460ff1681565b600c546001600160a01b03163314610e3a57600080fd5b6001600160a01b03831660009081526002602052604090205415610ea5576040805162461bcd60e51b815260206004820152600b60248201527f546f6b656e204578697374000000000000000000000000000000000000000000604482015290519081900360640190fd5b610ead611ada565b610eb74382611b1e565b6001600160a01b0384166000908152600260209081526040808320939093556003905220829055600754610ef1908363ffffffff6119c016565b60079081556001600160a01b038416600081815260208181526040808320805460ff19166001908117909155600d805491820190557fd7b6990105719101dabeb77144f2a3385c8033acd3af97e9423a695e81ad1eb501805473ffffffffffffffffffffffffffffffffffffffff19168517905560038252918290205493548251938452908301939093528181019290925290517fc712c5daa7afb3689e59ecc4eb021e9b0c7a6ba5cf97a7b6c6f3cf0165e6e4309181900360600190a1505050565b600c546001600160a01b03163314610fcb57600080fd5b6009805473ffffffffffffffffffffffffffffffffffffffff19166001600160a01b0392909216919091179055565b6001600160a01b0382166000908152600260205260408120548391901561101f575060015b80611069576040805162461bcd60e51b81526020600482015260156024820152742237b7303a103430bb32903a3434b9903a37b5b2b760591b604482015290519081900360640190fd5b6001600160a01b038416600090815260208190526040902054849060ff1615156001146110dd576040805162461bcd60e51b815260206004820152601060248201527f6e6674206e6f7420737570706f72742e00000000000000000000000000000000604482015290519081900360640190fd5b600b54600a5410611135576040805162461bcd60e51b815260206004820152601760248201527f416c6c20746f6b656e20686173206265656e206d696e74000000000000000000604482015290519081900360640190fd5b61113e856115f2565b6001600160a01b0385166000908152600460209081526040808320546005835281842033855290925282205464e8d4a5100091611181919063ffffffff61196716565b8161118857fe5b6001600160a01b0388166000908152600660209081526040808320338452909152812054929091049250906111c89061081590849063ffffffff611a1a16565b600b54600a5491925082916111e3908363ffffffff6119c016565b111561120157600a54600b546111fe9163ffffffff61191e16565b90505b801561128957600a5461121a908263ffffffff6119c016565b600a5560095460408051631d9a4ef360e11b81523360048201526024810184905290516001600160a01b0390921691633b349de69160448082019260009290919082900301818387803b15801561127057600080fd5b505af1158015611284573d6000803e3d6000fd5b505050505b3360008181526001602081815260408084206001600160a01b038e168086529083528185208d86528352818520805460ff191685179055845260058252808420948452939052919020546112e29163ffffffff6119c016565b6001600160a01b03891660008181526005602090815260408083203384528252808320949094559181526004909152205461132690849064e8d4a510009004611b35565b6001600160a01b03891660008181526006602090815260408083203380855292528083209490945583517f23b872dd0000000000000000000000000000000000000000000000000000000081526004810191909152306024820152604481018b9052925191926323b872dd926064808301939282900301818387803b1580156113ae57600080fd5b505af11580156113c2573d6000803e3d6000fd5b505050505050505050505050565b600c546001600160a01b031633146113e757600080fd5b6113ef611ada565b600855565b60046020526000908152604090205481565b6001600160a01b0381166000908152600260205260408120548291901561142b575060015b80611475576040805162461bcd60e51b81526020600482015260156024820152742237b7303a103430bb32903a3434b9903a37b5b2b760591b604482015290519081900360640190fd5b61147e836115f2565b6001600160a01b0383166000908152600460209081526040808320546005835281842033855290925282205464e8d4a51000916114c1919063ffffffff61196716565b816114c857fe5b6001600160a01b0386166000908152600660209081526040808320338452909152812054929091049250906115089061081590849063ffffffff611a1a16565b6001600160a01b03861660009081526006602090815260408083203384529091529020839055600b54600a549192508291611549908363ffffffff6119c016565b111561156757600a54600b546115649163ffffffff61191e16565b90505b80156115ea57600a54611580908263ffffffff6119c016565b600a5560095460408051631d9a4ef360e11b81523360048201526024810184905290516001600160a01b0390921691633b349de69160448082019260009290919082900301818387803b1580156115d657600080fd5b505af1158015610d75573d6000803e3d6000fd5b505050505050565b6001600160a01b03811660009081526002602052604081205482919015611617575060015b80611661576040805162461bcd60e51b81526020600482015260156024820152742237b7303a103430bb32903a3434b9903a37b5b2b760591b604482015290519081900360640190fd5b6001600160a01b0383166000908152600260205260409020544311156117ed57604080516370a0823160e01b815230600482015290516000916001600160a01b038616916370a0823191602480820192602092909190829003018186803b1580156116cb57600080fd5b505afa1580156116df573d6000803e3d6000fd5b505050506040513d60208110156116f557600080fd5b5051905080156117d0576001600160a01b03841660009081526002602052604081205461172990439063ffffffff61191e16565b6007546001600160a01b0387166000908152600360205260408120546008549394509092611763919061072f90869063ffffffff61196716565b8161176a57fe5b0490506117b4836117868364e8d4a5100063ffffffff61196716565b8161178d57fe5b6001600160a01b03891660009081526004602052604090205491900463ffffffff6119c016565b6001600160a01b03871660009081526004602052604090205550505b506001600160a01b03831660009081526002602052604090204390555b505050565b60085481565b6001600160a01b038083166000908152600560209081526040808320938516835292905220545b92915050565b6001600160a01b0382166000908152600260205260408120548391901561184a575060015b80611894576040805162461bcd60e51b81526020600482015260156024820152742237b7303a103430bb32903a3434b9903a37b5b2b760591b604482015290519081900360640190fd5b600c546001600160a01b031633146118ab57600080fd5b6118b3611ada565b6001600160a01b0384166000908152600360205260409020546007546118f49163ffffffff808716926118e892909161191e16565b9063ffffffff6119c016565b60075550506001600160a01b03909116600090815260036020526040902063ffffffff9091169055565b600061196083836040518060400160405280601e81526020017f536166654d6174683a207375627472616374696f6e206f766572666c6f770000815250611b9a565b9392505050565b6000826119765750600061181f565b8282028284828161198357fe5b04146119605760405162461bcd60e51b8152600401808060200182810382526021815260200180611c536021913960400191505060405180910390fd5b600082820183811015611960576040805162461bcd60e51b815260206004820152601b60248201527f536166654d6174683a206164646974696f6e206f766572666c6f770000000000604482015290519081900360640190fd5b6000818303818312801590611a2f5750838113155b80611a445750600083128015611a4457508381135b6119605760405162461bcd60e51b8152600401808060200182810382526024815260200180611c746024913960400191505060405180910390fd5b600080821215611ad6576040805162461bcd60e51b815260206004820152600b60248201527f496e7465676572203c2030000000000000000000000000000000000000000000604482015290519081900360640190fd5b5090565b600d5460005b81811015611b1a57611b12600d8281548110611af857fe5b6000918252602090912001546001600160a01b03166115f2565b600101611ae0565b5050565b600081831015611b2e5781611960565b5090919050565b6000828201818312801590611b4a5750838112155b80611b5f5750600083128015611b5f57508381125b6119605760405162461bcd60e51b8152600401808060200182810382526021815260200180611c326021913960400191505060405180910390fd5b60008184841115611c295760405162461bcd60e51b81526004018080602001828103825283818151815260200191508051906020019080838360005b83811015611bee578181015183820152602001611bd6565b50505050905090810190601f168015611c1b5780820380516001836020036101000a031916815260200191505b509250505060405180910390fd5b50505090039056fe5369676e6564536166654d6174683a206164646974696f6e206f766572666c6f77536166654d6174683a206d756c7469706c69636174696f6e206f766572666c6f775369676e6564536166654d6174683a207375627472616374696f6e206f766572666c6f77a265627a7a7231582011585ed793400d27de99245f24b468176a5af3036040ce322534b861d56c0e6c64736f6c63430005100032536166654d6174683a206d756c7469706c69636174696f6e206f766572666c6f77",
  "source": "pragma solidity=0.5.16;\r\nimport './libraries/SafeMath.sol';\r\nimport './libraries/SignedSafeMath.sol';\r\nimport './interfaces/IERCMint20.sol';\r\nimport './interfaces/IERC721.sol';\r\n\r\ncontract XKeyNFT721Staking {\r\n    using SafeMath  for uint;\r\n    using SignedSafeMath for int256;\r\n    // support staking NFT contract address\r\n    mapping(address=>bool) public supportNFTContracts;\r\n\r\n    // user=>nft=>tokenid=>bool\r\n    mapping(address=>mapping(address=>mapping(uint=>bool))) userNFTTokenid;\r\n\r\n    mapping(address=>uint) public swaptoken_last_reward_blocknum;\r\n    mapping(address=>uint) public swaptoken_weight;\r\n    mapping(address=>uint) public swaptoken_pershare_reward;\r\n    mapping(address=>mapping(address=>uint)) swaptoken_user_share;\r\n    mapping(address=>mapping(address=>int)) swaptoken_user_rewardDebt;\r\n\r\n    uint public all_weight;\r\n    uint public perblockreward;\r\n    address public erc_mintaddr;\r\n    uint256 private constant ACC_XKey_PRECISION = 10 ** 12;\r\n    uint256 public swaptoken_had_mint;\r\n    uint256 public swaptoken_totalMint;\r\n    address owner;\r\n    address[] public swaptoken_addrs;\r\n\r\n\r\n\r\n    event LiquidSwapTokenCreated(address,uint,uint);\r\n    constructor(\r\n        address _erc_mintaddr,\r\n        uint _perblockreward,\r\n        uint _swaptoken_totalMint) public {\r\n        owner = msg.sender;\r\n        erc_mintaddr =  _erc_mintaddr;\r\n        perblockreward = _perblockreward.mul(10**18);\r\n        swaptoken_totalMint = _swaptoken_totalMint;\r\n    }\r\n\r\n    modifier onlyOwner {\r\n        require(msg.sender == owner);\r\n        _;\r\n    }\r\n    modifier swapTokenExist(address _swaptoken_addr){\r\n        bool exist = false;\r\n        if(swaptoken_last_reward_blocknum[_swaptoken_addr] != 0){\r\n            exist = true;\r\n        }\r\n        require(exist,'Don`t have this token');\r\n        _;\r\n    }\r\n\r\n    modifier onlySupportContracts(address _nftcontract) {\r\n        require(supportNFTContracts[_nftcontract] == true,\"nft not support.\");\r\n        _;\r\n    }\r\n\r\n    function updateAllSwaptokenInfo() internal{\r\n        uint256 len = swaptoken_addrs.length;\r\n        for (uint256 i = 0; i < len; ++i) {\r\n            updateSwaptokenInfo(swaptoken_addrs[i]);\r\n        }\r\n    }\r\n\r\n    function CreateLiquidSwap(address _liquid_swaptoken_addr,uint _swaptoken_weight,uint _swaptoken_start_block) onlyOwner external {\r\n        require(swaptoken_last_reward_blocknum[_liquid_swaptoken_addr] == 0,\"Token Exist\");\r\n        updateAllSwaptokenInfo();\r\n        swaptoken_last_reward_blocknum[_liquid_swaptoken_addr] = SafeMath.max(block.number,_swaptoken_start_block);\r\n        swaptoken_weight[_liquid_swaptoken_addr] = _swaptoken_weight;\r\n        all_weight = all_weight.add( _swaptoken_weight);\r\n        supportNFTContracts[_liquid_swaptoken_addr] = true;\r\n        swaptoken_addrs.push(_liquid_swaptoken_addr);\r\n        emit LiquidSwapTokenCreated(_liquid_swaptoken_addr,swaptoken_weight[_liquid_swaptoken_addr],all_weight);\r\n    }\r\n    function updateSwaptokenInfo(address swap_addr) public swapTokenExist(swap_addr){\r\n        if(block.number > swaptoken_last_reward_blocknum[swap_addr]){\r\n            uint256 swap_token_share = IERC721(swap_addr).balanceOf(address(this));\r\n            if (swap_token_share > 0) {\r\n                uint256 blocks = block.number.sub(swaptoken_last_reward_blocknum[swap_addr]);\r\n                uint256 allReward = blocks.mul(perblockreward).mul(swaptoken_weight[swap_addr]) / all_weight;\r\n                swaptoken_pershare_reward[swap_addr] = swaptoken_pershare_reward[swap_addr].add(allReward.mul(ACC_XKey_PRECISION) / swap_token_share);\r\n            }\r\n            swaptoken_last_reward_blocknum[swap_addr] = block.number;\r\n        }\r\n    }\r\n\r\n    function ChangeSwaptokenWeight(address _swaptoken_addr ,uint32 weight) external swapTokenExist(_swaptoken_addr) onlyOwner {\r\n        updateAllSwaptokenInfo();\r\n        all_weight = all_weight.sub(swaptoken_weight[_swaptoken_addr]).add(weight);\r\n        swaptoken_weight[_swaptoken_addr] = weight;\r\n    }\r\n\r\n    function GetAddrBalanceof(address _user)external view returns (uint){\r\n        return IERCMint20(erc_mintaddr).balanceOf(_user);\r\n    }\r\n    function ChangeMintErcAddr(address _erc_mintaddr) external onlyOwner {\r\n        erc_mintaddr = _erc_mintaddr;\r\n    }\r\n    function AddSwaptokenShare(address _swaptoken_addr,uint _swaptoken_tokenid) swapTokenExist(_swaptoken_addr) onlySupportContracts(_swaptoken_addr) external{\r\n        require(swaptoken_had_mint < swaptoken_totalMint,\"All token has been mint\");\r\n        updateSwaptokenInfo(_swaptoken_addr);\r\n        int256 user_rewardDebt = int256(swaptoken_user_share[_swaptoken_addr][msg.sender].mul(swaptoken_pershare_reward[_swaptoken_addr])/ACC_XKey_PRECISION);\r\n        uint256 user_reward = user_rewardDebt.sub( swaptoken_user_rewardDebt[_swaptoken_addr][msg.sender]).toUInt256();\r\n\r\n        uint real_reward = user_reward;\r\n        if(swaptoken_had_mint.add(user_reward) > swaptoken_totalMint){\r\n            real_reward = swaptoken_totalMint.sub(swaptoken_had_mint);\r\n        }\r\n        if (real_reward != 0) {\r\n            swaptoken_had_mint = swaptoken_had_mint.add(real_reward);\r\n            IERCMint20(erc_mintaddr).minerMint(msg.sender,real_reward);\r\n        }\r\n        userNFTTokenid[msg.sender][_swaptoken_addr][_swaptoken_tokenid] = true;\r\n        swaptoken_user_share[_swaptoken_addr][msg.sender]= swaptoken_user_share[_swaptoken_addr][msg.sender].add(1);\r\n        swaptoken_user_rewardDebt[_swaptoken_addr][msg.sender] = user_rewardDebt.add(int256(swaptoken_pershare_reward[_swaptoken_addr]/ACC_XKey_PRECISION));\r\n        IERC721(_swaptoken_addr).transferFrom(msg.sender,address(this),_swaptoken_tokenid);\r\n        //IERC20(_swaptoken_addr).transferFrom(msg.sender,address(this),_swaptoken_amount);\r\n        /*\r\n                IERC721(_swaptoken_addr).transferFrom(msg.sender,address(this),_swaptoken_tokenid);\r\n                uint preshare = swaptoken_user_share[_swaptoken_addr][msg.sender];\r\n                uint start_block = swaptoken_user_payedblock[_swaptoken_addr][msg.sender];\r\n                if(start_block != 0 && start_block > swaptoken_startnum[_swaptoken_addr]){\r\n                    if(swaptoken_totalshare[_swaptoken_addr] > 0 && all_weight > 0 && preshare > 0){\r\n                        calcreward(msg.sender,_swaptoken_addr,preshare,start_block);\r\n                    }\r\n                }\r\n                userNFTTokenid[msg.sender][_swaptoken_addr][_swaptoken_tokenid] = true;\r\n                swaptoken_totalshare[_swaptoken_addr] = swaptoken_totalshare[_swaptoken_addr].add(1);\r\n                swaptoken_user_share[_swaptoken_addr][msg.sender] = swaptoken_user_share[_swaptoken_addr][msg.sender].add(1);\r\n                if(swaptoken_user_payedblock[_swaptoken_addr][msg.sender] == 0){\r\n                    swaptoken_user_payedblock[_swaptoken_addr][msg.sender] = SafeMath.max(swaptoken_startnum[_swaptoken_addr],block.number);\r\n                }\r\n                */\r\n\r\n    }\r\n    function RemoveSwaptokenShare(address _swaptoken_addr,uint[] calldata _swaptoken_tokenids) swapTokenExist(_swaptoken_addr) onlySupportContracts(_swaptoken_addr)  external{\r\n        require(swaptoken_user_share[_swaptoken_addr][msg.sender] >= _swaptoken_tokenids.length,\"Dont Have Enough token to remove\");\r\n        updateSwaptokenInfo(_swaptoken_addr);\r\n        int256 user_rewardDebt = int256(swaptoken_user_share[_swaptoken_addr][msg.sender].mul(swaptoken_pershare_reward[_swaptoken_addr])/ACC_XKey_PRECISION);\r\n        uint256 user_reward = user_rewardDebt.sub( swaptoken_user_rewardDebt[_swaptoken_addr][msg.sender]).toUInt256();\r\n\r\n        uint real_reward = user_reward;\r\n        if(swaptoken_had_mint.add(user_reward) > swaptoken_totalMint){\r\n            real_reward = swaptoken_totalMint.sub(swaptoken_had_mint);\r\n        }\r\n        if (real_reward != 0) {\r\n            swaptoken_had_mint = swaptoken_had_mint.add(real_reward);\r\n            IERCMint20(erc_mintaddr).minerMint(msg.sender,real_reward);\r\n        }\r\n        for(uint i = 0; i < _swaptoken_tokenids.length; i++) {\r\n            require(userNFTTokenid[msg.sender][_swaptoken_addr][_swaptoken_tokenids[i]],\"Dont have token\");\r\n            userNFTTokenid[msg.sender][_swaptoken_addr][_swaptoken_tokenids[i]] = false;\r\n            swaptoken_user_rewardDebt[_swaptoken_addr][msg.sender] = user_rewardDebt.sub(int256((swaptoken_pershare_reward[_swaptoken_addr])/ACC_XKey_PRECISION));\r\n            swaptoken_user_share[_swaptoken_addr][msg.sender]= swaptoken_user_share[_swaptoken_addr][msg.sender].sub(1);\r\n            IERC721(_swaptoken_addr).transferFrom(address(this),msg.sender,_swaptoken_tokenids[i]);\r\n        }\r\n\r\n        //IERC20(_swaptoken_addr).transfer(msg.sender,_swaptoken_amount);\r\n        /*\r\n                uint shares = swaptoken_user_share[_swaptoken_addr][msg.sender];\r\n                uint start_block = swaptoken_user_payedblock[_swaptoken_addr][msg.sender];\r\n                require(userNFTTokenid[msg.sender][_swaptoken_addr][_swaptoken_tokenid],\"Dont Have this tokenid to remove\");\r\n                if(swaptoken_totalshare[_swaptoken_addr] > 0 && all_weight > 0){\r\n                    calcreward(msg.sender,_swaptoken_addr,shares,start_block);\r\n                }\r\n                swaptoken_user_share[_swaptoken_addr][msg.sender] = swaptoken_user_share[_swaptoken_addr][msg.sender].sub(1);\r\n                swaptoken_totalshare[_swaptoken_addr] = swaptoken_totalshare[_swaptoken_addr].sub(1);\r\n                userNFTTokenid[msg.sender][_swaptoken_addr][_swaptoken_tokenid] = false;\r\n                IERC721(_swaptoken_addr).transferFrom(address(this),msg.sender,_swaptoken_tokenid);*/\r\n    }\r\n    /*\r\n    function calcreward(address user, address _swaptoken_addr, uint256 _user_shares,uint256 lastGetRewardBlock) internal {\r\n        uint reward = 0;\r\n        if(block.number >= lastGetRewardBlock){\r\n            uint blockcounts = block.number.sub(lastGetRewardBlock);\r\n            uint pricePerShare = perblockreward.mul(granularity)/ swaptoken_totalshare[_swaptoken_addr];\r\n            pricePerShare = pricePerShare.mul(swaptoken_weight[_swaptoken_addr])/all_weight;\r\n            reward = blockcounts.mul(_user_shares).mul(pricePerShare)/granularity;\r\n            if(swaptoken_had_mint.add(reward) > swaptoken_totalMint){\r\n                reward = swaptoken_totalMint.sub(swaptoken_had_mint);\r\n            }\r\n            swaptoken_user_payedblock[_swaptoken_addr][msg.sender] = block.number;\r\n        }\r\n        if(reward > 0){\r\n            IERCMint20(erc_mintaddr).minerMint(user,reward);\r\n            swaptoken_had_mint = swaptoken_had_mint.add(reward);\r\n        }\r\n    }*/\r\n    function GetSwaptokenReward(address _swaptoken_addr) swapTokenExist(_swaptoken_addr) external{\r\n        updateSwaptokenInfo(_swaptoken_addr);\r\n        int256 user_rewardDebt = int256(swaptoken_user_share[_swaptoken_addr][msg.sender].mul(swaptoken_pershare_reward[_swaptoken_addr])/ACC_XKey_PRECISION);\r\n        uint256 user_reward = user_rewardDebt.sub( swaptoken_user_rewardDebt[_swaptoken_addr][msg.sender]).toUInt256();\r\n        swaptoken_user_rewardDebt[_swaptoken_addr][msg.sender] = user_rewardDebt;\r\n        uint real_reward = user_reward;\r\n        if(swaptoken_had_mint.add(user_reward) > swaptoken_totalMint){\r\n            real_reward = swaptoken_totalMint.sub(swaptoken_had_mint);\r\n        }\r\n        if (real_reward != 0) {\r\n            swaptoken_had_mint = swaptoken_had_mint.add(real_reward);\r\n            IERCMint20(erc_mintaddr).minerMint(msg.sender,real_reward);\r\n        }\r\n    }\r\n\r\n    function PredReward(address _swaptoken_addr) external swapTokenExist(_swaptoken_addr) view returns (uint){\r\n        uint _swaptoken_pershare_reward = swaptoken_pershare_reward[_swaptoken_addr];\r\n        if(block.number > swaptoken_last_reward_blocknum[_swaptoken_addr]){\r\n            uint256 swap_token_share = IERC721(_swaptoken_addr).balanceOf(address(this));\r\n            if (swap_token_share > 0) {\r\n                uint256 blocks = block.number.sub(swaptoken_last_reward_blocknum[_swaptoken_addr]);\r\n                uint256 allReward = blocks.mul(perblockreward).mul(swaptoken_weight[_swaptoken_addr]) / all_weight;\r\n                _swaptoken_pershare_reward = swaptoken_pershare_reward[_swaptoken_addr].add(allReward.mul(ACC_XKey_PRECISION) / swap_token_share);\r\n            }\r\n        }\r\n        int256 user_rewardDebt = int256(swaptoken_user_share[_swaptoken_addr][msg.sender].mul(_swaptoken_pershare_reward)/ACC_XKey_PRECISION);\r\n        uint256 user_reward = user_rewardDebt.sub( swaptoken_user_rewardDebt[_swaptoken_addr][msg.sender]).toUInt256();\r\n        uint real_reward = user_reward;\r\n        if(swaptoken_had_mint.add(user_reward) > swaptoken_totalMint){\r\n            real_reward = swaptoken_totalMint.sub(swaptoken_had_mint);\r\n        }\r\n        return real_reward;\r\n    }\r\n\r\n    function ChangePerBlockReward(uint _perblockreward) external onlyOwner{\r\n        updateAllSwaptokenInfo();\r\n        perblockreward = _perblockreward;\r\n    }\r\n    function GetOwner() public view returns (address){\r\n        return owner;\r\n    }\r\n    function GetUserShare(address _swaptoken_addr,address _user)public view returns (uint){\r\n        return swaptoken_user_share[_swaptoken_addr][_user];\r\n    }\r\n\r\n    function GetUserIfhaveTokenid(address _swaptoken_addr,address _user,uint _tokenId)public view returns (bool){\r\n        return userNFTTokenid[_user][_swaptoken_addr][_tokenId];\r\n    }\r\n\r\n}\r\n",
  "sourcePath": "E:/codingproject/xkey/contracts/XKeyNFT721Staking.sol",
  "compiler": {
    "name": "solc",
    "version": "0.5.16+commit.9c3226ce.Emscripten.clang"
  },
  "schemaVersion": "3.4.0",
  "updatedAt": "2021-06-04T05:56:25.591Z",
  "devdoc": {
    "methods": {}
  },
  "userdoc": {
    "methods": {}
  }
}