{
  "contractName": "XPlanetPoker",
  "abi": [
    {
      "inputs": [
        {
          "internalType": "address",
          "name": "_xkey",
          "type": "address"
        },
        {
          "internalType": "address",
          "name": "_fund",
          "type": "address"
        }
      ],
      "payable": false,
      "stateMutability": "nonpayable",
      "type": "constructor"
    },
    {
      "anonymous": false,
      "inputs": [
        {
          "indexed": true,
          "internalType": "address",
          "name": "owner",
          "type": "address"
        },
        {
          "indexed": true,
          "internalType": "address",
          "name": "approved",
          "type": "address"
        },
        {
          "indexed": true,
          "internalType": "uint256",
          "name": "tokenId",
          "type": "uint256"
        }
      ],
      "name": "Approval",
      "type": "event"
    },
    {
      "anonymous": false,
      "inputs": [
        {
          "indexed": true,
          "internalType": "address",
          "name": "owner",
          "type": "address"
        },
        {
          "indexed": true,
          "internalType": "address",
          "name": "operator",
          "type": "address"
        },
        {
          "indexed": false,
          "internalType": "bool",
          "name": "approved",
          "type": "bool"
        }
      ],
      "name": "ApprovalForAll",
      "type": "event"
    },
    {
      "anonymous": false,
      "inputs": [
        {
          "indexed": true,
          "internalType": "address",
          "name": "previousOwner",
          "type": "address"
        },
        {
          "indexed": true,
          "internalType": "address",
          "name": "newOwner",
          "type": "address"
        }
      ],
      "name": "OwnershipTransferred",
      "type": "event"
    },
    {
      "anonymous": false,
      "inputs": [
        {
          "indexed": true,
          "internalType": "address",
          "name": "from",
          "type": "address"
        },
        {
          "indexed": true,
          "internalType": "address",
          "name": "to",
          "type": "address"
        },
        {
          "indexed": true,
          "internalType": "uint256",
          "name": "tokenId",
          "type": "uint256"
        }
      ],
      "name": "Transfer",
      "type": "event"
    },
    {
      "constant": false,
      "inputs": [
        {
          "internalType": "address",
          "name": "to",
          "type": "address"
        },
        {
          "internalType": "uint256",
          "name": "tokenId",
          "type": "uint256"
        }
      ],
      "name": "approve",
      "outputs": [],
      "payable": false,
      "stateMutability": "nonpayable",
      "type": "function"
    },
    {
      "constant": true,
      "inputs": [
        {
          "internalType": "address",
          "name": "owner",
          "type": "address"
        }
      ],
      "name": "balanceOf",
      "outputs": [
        {
          "internalType": "uint256",
          "name": "",
          "type": "uint256"
        }
      ],
      "payable": false,
      "stateMutability": "view",
      "type": "function"
    },
    {
      "constant": true,
      "inputs": [],
      "name": "baseURI",
      "outputs": [
        {
          "internalType": "string",
          "name": "",
          "type": "string"
        }
      ],
      "payable": false,
      "stateMutability": "view",
      "type": "function"
    },
    {
      "constant": true,
      "inputs": [
        {
          "internalType": "uint256",
          "name": "tokenId",
          "type": "uint256"
        }
      ],
      "name": "getApproved",
      "outputs": [
        {
          "internalType": "address",
          "name": "",
          "type": "address"
        }
      ],
      "payable": false,
      "stateMutability": "view",
      "type": "function"
    },
    {
      "constant": true,
      "inputs": [
        {
          "internalType": "address",
          "name": "owner",
          "type": "address"
        },
        {
          "internalType": "address",
          "name": "operator",
          "type": "address"
        }
      ],
      "name": "isApprovedForAll",
      "outputs": [
        {
          "internalType": "bool",
          "name": "",
          "type": "bool"
        }
      ],
      "payable": false,
      "stateMutability": "view",
      "type": "function"
    },
    {
      "constant": true,
      "inputs": [],
      "name": "isOwner",
      "outputs": [
        {
          "internalType": "bool",
          "name": "",
          "type": "bool"
        }
      ],
      "payable": false,
      "stateMutability": "view",
      "type": "function"
    },
    {
      "constant": true,
      "inputs": [],
      "name": "name",
      "outputs": [
        {
          "internalType": "string",
          "name": "",
          "type": "string"
        }
      ],
      "payable": false,
      "stateMutability": "view",
      "type": "function"
    },
    {
      "constant": true,
      "inputs": [],
      "name": "owner",
      "outputs": [
        {
          "internalType": "address",
          "name": "",
          "type": "address"
        }
      ],
      "payable": false,
      "stateMutability": "view",
      "type": "function"
    },
    {
      "constant": true,
      "inputs": [
        {
          "internalType": "uint256",
          "name": "tokenId",
          "type": "uint256"
        }
      ],
      "name": "ownerOf",
      "outputs": [
        {
          "internalType": "address",
          "name": "",
          "type": "address"
        }
      ],
      "payable": false,
      "stateMutability": "view",
      "type": "function"
    },
    {
      "constant": false,
      "inputs": [],
      "name": "renounceOwnership",
      "outputs": [],
      "payable": false,
      "stateMutability": "nonpayable",
      "type": "function"
    },
    {
      "constant": false,
      "inputs": [
        {
          "internalType": "address",
          "name": "from",
          "type": "address"
        },
        {
          "internalType": "address",
          "name": "to",
          "type": "address"
        },
        {
          "internalType": "uint256",
          "name": "tokenId",
          "type": "uint256"
        }
      ],
      "name": "safeTransferFrom",
      "outputs": [],
      "payable": false,
      "stateMutability": "nonpayable",
      "type": "function"
    },
    {
      "constant": false,
      "inputs": [
        {
          "internalType": "address",
          "name": "from",
          "type": "address"
        },
        {
          "internalType": "address",
          "name": "to",
          "type": "address"
        },
        {
          "internalType": "uint256",
          "name": "tokenId",
          "type": "uint256"
        },
        {
          "internalType": "bytes",
          "name": "_data",
          "type": "bytes"
        }
      ],
      "name": "safeTransferFrom",
      "outputs": [],
      "payable": false,
      "stateMutability": "nonpayable",
      "type": "function"
    },
    {
      "constant": false,
      "inputs": [
        {
          "internalType": "address",
          "name": "to",
          "type": "address"
        },
        {
          "internalType": "bool",
          "name": "approved",
          "type": "bool"
        }
      ],
      "name": "setApprovalForAll",
      "outputs": [],
      "payable": false,
      "stateMutability": "nonpayable",
      "type": "function"
    },
    {
      "constant": true,
      "inputs": [
        {
          "internalType": "bytes4",
          "name": "interfaceId",
          "type": "bytes4"
        }
      ],
      "name": "supportsInterface",
      "outputs": [
        {
          "internalType": "bool",
          "name": "",
          "type": "bool"
        }
      ],
      "payable": false,
      "stateMutability": "view",
      "type": "function"
    },
    {
      "constant": true,
      "inputs": [],
      "name": "symbol",
      "outputs": [
        {
          "internalType": "string",
          "name": "",
          "type": "string"
        }
      ],
      "payable": false,
      "stateMutability": "view",
      "type": "function"
    },
    {
      "constant": true,
      "inputs": [
        {
          "internalType": "uint256",
          "name": "index",
          "type": "uint256"
        }
      ],
      "name": "tokenByIndex",
      "outputs": [
        {
          "internalType": "uint256",
          "name": "",
          "type": "uint256"
        }
      ],
      "payable": false,
      "stateMutability": "view",
      "type": "function"
    },
    {
      "constant": true,
      "inputs": [
        {
          "internalType": "address",
          "name": "owner",
          "type": "address"
        },
        {
          "internalType": "uint256",
          "name": "index",
          "type": "uint256"
        }
      ],
      "name": "tokenOfOwnerByIndex",
      "outputs": [
        {
          "internalType": "uint256",
          "name": "",
          "type": "uint256"
        }
      ],
      "payable": false,
      "stateMutability": "view",
      "type": "function"
    },
    {
      "constant": false,
      "inputs": [
        {
          "internalType": "address",
          "name": "from",
          "type": "address"
        },
        {
          "internalType": "address",
          "name": "to",
          "type": "address"
        },
        {
          "internalType": "uint256",
          "name": "tokenId",
          "type": "uint256"
        }
      ],
      "name": "transferFrom",
      "outputs": [],
      "payable": false,
      "stateMutability": "nonpayable",
      "type": "function"
    },
    {
      "constant": false,
      "inputs": [
        {
          "internalType": "address",
          "name": "newOwner",
          "type": "address"
        }
      ],
      "name": "transferOwnership",
      "outputs": [],
      "payable": false,
      "stateMutability": "nonpayable",
      "type": "function"
    },
    {
      "constant": false,
      "inputs": [
        {
          "internalType": "uint256",
          "name": "_count",
          "type": "uint256"
        }
      ],
      "name": "setTotalCards",
      "outputs": [],
      "payable": false,
      "stateMutability": "nonpayable",
      "type": "function"
    },
    {
      "constant": false,
      "inputs": [
        {
          "internalType": "address",
          "name": "_to",
          "type": "address"
        }
      ],
      "name": "getRevenue",
      "outputs": [],
      "payable": false,
      "stateMutability": "nonpayable",
      "type": "function"
    },
    {
      "constant": false,
      "inputs": [
        {
          "internalType": "uint256",
          "name": "_count",
          "type": "uint256"
        }
      ],
      "name": "openLootBox",
      "outputs": [],
      "payable": false,
      "stateMutability": "nonpayable",
      "type": "function"
    },
    {
      "constant": false,
      "inputs": [
        {
          "internalType": "uint256[5]",
          "name": "pokers",
          "type": "uint256[5]"
        }
      ],
      "name": "revokePoker",
      "outputs": [],
      "payable": false,
      "stateMutability": "nonpayable",
      "type": "function"
    },
    {
      "constant": true,
      "inputs": [],
      "name": "totalSupply",
      "outputs": [
        {
          "internalType": "uint256",
          "name": "",
          "type": "uint256"
        }
      ],
      "payable": false,
      "stateMutability": "view",
      "type": "function"
    },
    {
      "constant": true,
      "inputs": [],
      "name": "maxCardNum",
      "outputs": [
        {
          "internalType": "uint256",
          "name": "",
          "type": "uint256"
        }
      ],
      "payable": false,
      "stateMutability": "view",
      "type": "function"
    },
    {
      "constant": true,
      "inputs": [],
      "name": "baseTokenURI",
      "outputs": [
        {
          "internalType": "string",
          "name": "",
          "type": "string"
        }
      ],
      "payable": false,
      "stateMutability": "pure",
      "type": "function"
    },
    {
      "constant": true,
      "inputs": [
        {
          "internalType": "uint256",
          "name": "_tokenId",
          "type": "uint256"
        }
      ],
      "name": "tokenURI",
      "outputs": [
        {
          "internalType": "string",
          "name": "",
          "type": "string"
        }
      ],
      "payable": false,
      "stateMutability": "view",
      "type": "function"
    }
  ],
  "bytecode": "0x60806040526000600e5568056bc75e2d63100000600f556128a060105560016013553480156200002e57600080fd5b5060405162002c1b38038062002c1b833981810160405260408110156200005457600080fd5b50805160209182015160408051808201825260068152652c2827a5a2a960d11b818601528151808301909252600382526258504b60e81b94820194909452919290918181620000b36301ffc9a760e01b6001600160e01b03620001c616565b620000ce6380ac58cd60e01b6001600160e01b03620001c616565b620000e963780e9d6360e01b6001600160e01b03620001c616565b8151620000fe90600990602085019062000250565b5080516200011490600a90602084019062000250565b5062000130635b5e139f60e01b6001600160e01b03620001c616565b505050506000620001466200024b60201b60201c565b600d80546001600160a01b0319166001600160a01b038316908117909155604051919250906000907f8be0079c531659141344cd1fd0a4f28419497f9722a3daafe3b4186f6b6457e0908290a350601180546001600160a01b039384166001600160a01b03199182161790915560128054929093169116179055620002f2565b6001600160e01b0319808216141562000226576040805162461bcd60e51b815260206004820152601c60248201527f4552433136353a20696e76616c696420696e7465726661636520696400000000604482015290519081900360640190fd5b6001600160e01b0319166000908152602081905260409020805460ff19166001179055565b335b90565b828054600181600116156101000203166002900490600052602060002090601f016020900481019282601f106200029357805160ff1916838001178555620002c3565b82800160010185558215620002c3579182015b82811115620002c3578251825591602001919060010190620002a6565b50620002d1929150620002d5565b5090565b6200024d91905b80821115620002d15760008155600101620002dc565b61291980620003026000396000f3fe608060405234801561001057600080fd5b50600436106101b95760003560e01c80636c0360eb116100f9578063a22cb46511610097578063cac25c3311610071578063cac25c33146105c5578063d547cfb7146105e2578063e985e9c5146105ea578063f2fde38b14610618576101b9565b8063a22cb465146104b4578063b88d4fde146104e2578063c87b56dd146105a8576101b9565b806385b67095116100d357806385b67095146104765780638da5cb5b1461049c5780638f32d59b146104a457806395d89b41146104ac576101b9565b80636c0360eb1461044057806370a0823114610448578063715018a61461046e576101b9565b806323b872dd1161016657806342842e0e1161014057806342842e0e146103b35780634f6ccce7146103e957806355a02c2d146104065780636352211e14610423576101b9565b806323b872dd146103495780632f745c591461037f5780634078b02c146103ab576101b9565b8063095ea7b311610197578063095ea7b3146102af57806318160ddd146102dd578063187f5451146102f7576101b9565b806301ffc9a7146101be57806306fdde03146101f9578063081812fc14610276575b600080fd5b6101e5600480360360208110156101d457600080fd5b50356001600160e01b03191661063e565b604080519115158252519081900360200190f35b610201610661565b6040805160208082528351818301528351919283929083019185019080838360005b8381101561023b578181015183820152602001610223565b50505050905090810190601f1680156102685780820380516001836020036101000a031916815260200191505b509250505060405180910390f35b6102936004803603602081101561028c57600080fd5b50356106f8565b604080516001600160a01b039092168252519081900360200190f35b6102db600480360360408110156102c557600080fd5b506001600160a01b03813516906020013561075a565b005b6102e5610882565b60408051918252519081900360200190f35b6102db600480360360a081101561030d57600080fd5b810190808060a0019060058060200260405190810160405280929190826005602002808284376000920191909152509194506108889350505050565b6102db6004803603606081101561035f57600080fd5b506001600160a01b03813581169160208101359091169060400135610a0a565b6102e56004803603604081101561039557600080fd5b506001600160a01b038135169060200135610a66565b6102e5610ae6565b6102db600480360360608110156103c957600080fd5b506001600160a01b03813581169160208101359091169060400135610aec565b6102e5600480360360208110156103ff57600080fd5b5035610b07565b6102db6004803603602081101561041c57600080fd5b5035610b6d565b6102936004803603602081101561043957600080fd5b50356110f2565b610201611146565b6102e56004803603602081101561045e57600080fd5b50356001600160a01b03166111a7565b6102db61120f565b6102db6004803603602081101561048c57600080fd5b50356001600160a01b03166112b2565b610293611462565b6101e5611471565b610201611497565b6102db600480360360408110156104ca57600080fd5b506001600160a01b03813516906020013515156114f8565b6102db600480360360808110156104f857600080fd5b6001600160a01b0382358116926020810135909116916040820135919081019060808101606082013564010000000081111561053357600080fd5b82018360208201111561054557600080fd5b8035906020019184600183028401116401000000008311171561056757600080fd5b91908080601f0160208091040260200160405190810160405280939291908181526020018383808284376000920191909152509295506115fd945050505050565b610201600480360360208110156105be57600080fd5b5035611655565b6102db600480360360208110156105db57600080fd5b5035611670565b61020161170e565b6101e56004803603604081101561060057600080fd5b506001600160a01b0381358116916020013516611745565b6102db6004803603602081101561062e57600080fd5b50356001600160a01b0316611773565b6001600160e01b0319811660009081526020819052604090205460ff165b919050565b60098054604080516020601f60026000196101006001881615020190951694909404938401819004810282018101909252828152606093909290918301828280156106ed5780601f106106c2576101008083540402835291602001916106ed565b820191906000526020600020905b8154815290600101906020018083116106d057829003601f168201915b505050505090505b90565b6000610703826117d8565b61073e5760405162461bcd60e51b815260040180806020018281038252602c815260200180612812602c913960400191505060405180910390fd5b506000908152600260205260409020546001600160a01b031690565b6000610765826110f2565b9050806001600160a01b0316836001600160a01b031614156107b85760405162461bcd60e51b81526004018080602001828103825260218152602001806128676021913960400191505060405180910390fd5b806001600160a01b03166107ca6117f5565b6001600160a01b031614806107eb57506107eb816107e66117f5565b611745565b6108265760405162461bcd60e51b81526004018080602001828103825260388152602001806127436038913960400191505060405180910390fd5b60008281526002602052604080822080546001600160a01b0319166001600160a01b0387811691821790925591518593918516917f8c5be1e5ebec7d5bd14f71427d1e84f3dd0314c0f7b2291e5b200ac8c7c3b92591a4505050565b600e5490565b6013546001146108df576040805162461bcd60e51b815260206004820152600e60248201527f586b6579206973206c6f636b6564000000000000000000000000000000000000604482015290519081900360640190fd5b60006013819055805b60058110156109355760008382600581106108ff57fe5b6020020151111561092d5761092633600185846005811061091c57fe5b6020020151610a0a565b8160010191505b6001016108e8565b50601154600f546001600160a01b039091169063a9059cbb9033906109869060649061097a9060149061096e908963ffffffff6117f916565b9063ffffffff6117f916565b9063ffffffff61185916565b6040518363ffffffff1660e01b815260040180836001600160a01b03166001600160a01b0316815260200182815260200192505050602060405180830381600087803b1580156109d557600080fd5b505af11580156109e9573d6000803e3d6000fd5b505050506040513d60208110156109ff57600080fd5b505060016013555050565b610a1b610a156117f5565b8261189b565b610a565760405162461bcd60e51b81526004018080602001828103825260318152602001806128886031913960400191505060405180910390fd5b610a6183838361193f565b505050565b6000610a71836111a7565b8210610aae5760405162461bcd60e51b815260040180806020018281038252602b815260200180612670602b913960400191505060405180910390fd5b6001600160a01b0383166000908152600560205260409020805483908110610ad257fe5b906000526020600020015490505b92915050565b60105490565b610a61838383604051806020016040528060008152506115fd565b6000610b11610882565b8210610b4e5760405162461bcd60e51b815260040180806020018281038252602c8152602001806128b9602c913960400191505060405180910390fd5b60078281548110610b5b57fe5b90600052602060002001549050919050565b601354600114610bc4576040805162461bcd60e51b815260206004820152600e60248201527f586b6579206973206c6f636b6564000000000000000000000000000000000000604482015290519081900360640190fd5b600060135580610c1b576040805162461bcd60e51b815260206004820152601160248201527f436f756e742073686f756c64203e20302e000000000000000000000000000000604482015290519081900360640190fd5b6005811115610c71576040805162461bcd60e51b815260206004820152601960248201527f4c696d697420746f206d6178696d756d2035206d696e74732e00000000000000604482015290519081900360640190fd5b60105481600e54011115610ccc576040805162461bcd60e51b815260206004820152600e60248201527f4e6f206d6f726520706f6b65722e000000000000000000000000000000000000604482015290519081900360640190fd5b600f54600090610ce2908363ffffffff6117f916565b601154604080516370a0823160e01b8152336004820152905192935083926001600160a01b03909216916370a0823191602480820192602092909190829003018186803b158015610d3257600080fd5b505afa158015610d46573d6000803e3d6000fd5b505050506040513d6020811015610d5c57600080fd5b50511015610db1576040805162461bcd60e51b815260206004820152601860248201527f4e6f7420656e6f75676820584b657920746f206d696e742e0000000000000000604482015290519081900360640190fd5b601154604080516323b872dd60e01b81523360048201523060248201526044810184905290516001600160a01b03909216916323b872dd916064808201926020929091908290030181600087803b158015610e0b57600080fd5b505af1158015610e1f573d6000803e3d6000fd5b505050506040513d6020811015610e3557600080fd5b5050601154604080516370a0823160e01b815230600482015290516000926001600160a01b0316916370a08231916024808301926020929190829003018186803b158015610e8257600080fd5b505afa158015610e96573d6000803e3d6000fd5b505050506040513d6020811015610eac57600080fd5b5051905081811015610f05576040805162461bcd60e51b815260206004820152601b60248201527f4e6f7420656e6f7567682062616c616e636520746f206d696e742e0000000000604482015290519081900360640190fd5b60005b83811015610f37576000610f1a61195e565b9050610f26338261197a565b610f2e61199b565b50600101610f08565b506000610f50606461097a85600563ffffffff6117f916565b9050808211610fa6576040805162461bcd60e51b815260206004820152600f60248201527f6275726e4e756d206269676765722e0000000000000000000000000000000000604482015290519081900360640190fd5b601154604080517fa9059cbb0000000000000000000000000000000000000000000000000000000081526000600482018190526024820185905291516001600160a01b039093169263a9059cbb92604480840193602093929083900390910190829087803b15801561101757600080fd5b505af115801561102b573d6000803e3d6000fd5b505050506040513d602081101561104157600080fd5b50506011546012546001600160a01b039182169163a9059cbb911661106c858563ffffffff6119a616565b6040518363ffffffff1660e01b815260040180836001600160a01b03166001600160a01b0316815260200182815260200192505050602060405180830381600087803b1580156110bb57600080fd5b505af11580156110cf573d6000803e3d6000fd5b505050506040513d60208110156110e557600080fd5b5050600160135550505050565b6000818152600160205260408120546001600160a01b031680610ae05760405162461bcd60e51b81526004018080602001828103825260298152602001806127c86029913960400191505060405180910390fd5b600b8054604080516020601f60026000196101006001881615020190951694909404938401819004810282018101909252828152606093909290918301828280156106ed5780601f106106c2576101008083540402835291602001916106ed565b60006001600160a01b0382166111ee5760405162461bcd60e51b815260040180806020018281038252602a81526020018061279e602a913960400191505060405180910390fd5b6001600160a01b0382166000908152600360205260409020610ae0906119e8565b611217611471565b611268576040805162461bcd60e51b815260206004820181905260248201527f4f776e61626c653a2063616c6c6572206973206e6f7420746865206f776e6572604482015290519081900360640190fd5b600d546040516000916001600160a01b0316907f8be0079c531659141344cd1fd0a4f28419497f9722a3daafe3b4186f6b6457e0908390a3600d80546001600160a01b0319169055565b6112ba611471565b61130b576040805162461bcd60e51b815260206004820181905260248201527f4f776e61626c653a2063616c6c6572206973206e6f7420746865206f776e6572604482015290519081900360640190fd5b601154604080516370a0823160e01b815230600482015290516000926001600160a01b0316916370a08231916024808301926020929190829003018186803b15801561135657600080fd5b505afa15801561136a573d6000803e3d6000fd5b505050506040513d602081101561138057600080fd5b50519050806113d6576040805162461bcd60e51b815260206004820152600b60248201527f4e6f20726576656e75652e000000000000000000000000000000000000000000604482015290519081900360640190fd5b601154604080516323b872dd60e01b81523060048201526001600160a01b03858116602483015260448201859052915191909216916323b872dd9160648083019260209291908290030181600087803b15801561143257600080fd5b505af1158015611446573d6000803e3d6000fd5b505050506040513d602081101561145c57600080fd5b50505050565b600d546001600160a01b031690565b600d546000906001600160a01b03166114886117f5565b6001600160a01b031614905090565b600a8054604080516020601f60026000196101006001881615020190951694909404938401819004810282018101909252828152606093909290918301828280156106ed5780601f106106c2576101008083540402835291602001916106ed565b6115006117f5565b6001600160a01b0316826001600160a01b03161415611566576040805162461bcd60e51b815260206004820152601960248201527f4552433732313a20617070726f766520746f2063616c6c657200000000000000604482015290519081900360640190fd5b80600460006115736117f5565b6001600160a01b03908116825260208083019390935260409182016000908120918716808252919093529120805460ff1916921515929092179091556115b76117f5565b60408051841515815290516001600160a01b0392909216917f17307eab39ab6107e8899845ad3d59bd9653f200f220920489ca2b5937696c319181900360200190a35050565b61160e6116086117f5565b8361189b565b6116495760405162461bcd60e51b81526004018080602001828103825260318152602001806128886031913960400191505060405180910390fd5b61145c848484846119ec565b6060610ae061166261170e565b61166b84611a3e565b611b1b565b611678611471565b6116c9576040805162461bcd60e51b815260206004820181905260248201527f4f776e61626c653a2063616c6c6572206973206e6f7420746865206f776e6572604482015290519081900360640190fd5b60105481116117095760405162461bcd60e51b815260040180806020018281038252602381526020018061277b6023913960400191505060405180910390fd5b601055565b60408051808201909152601881527f687474703a2f2f706f6b65722e78706c616e65742e696f2f0000000000000000602082015290565b6001600160a01b03918216600090815260046020908152604080832093909416825291909152205460ff1690565b61177b611471565b6117cc576040805162461bcd60e51b815260206004820181905260248201527f4f776e61626c653a2063616c6c6572206973206e6f7420746865206f776e6572604482015290519081900360640190fd5b6117d581611b57565b50565b6000908152600160205260409020546001600160a01b0316151590565b3390565b60008261180857506000610ae0565b8282028284828161181557fe5b04146118525760405162461bcd60e51b81526004018080602001828103825260218152602001806127f16021913960400191505060405180910390fd5b9392505050565b600061185283836040518060400160405280601a81526020017f536166654d6174683a206469766973696f6e206279207a65726f000000000000815250611bf8565b60006118a6826117d8565b6118e15760405162461bcd60e51b815260040180806020018281038252602c815260200180612717602c913960400191505060405180910390fd5b60006118ec836110f2565b9050806001600160a01b0316846001600160a01b031614806119275750836001600160a01b031661191c846106f8565b6001600160a01b0316145b8061193757506119378185611745565b949350505050565b61194a838383611c9a565b6119548382611dde565b610a618282611ed3565b600e5460009061197590600163ffffffff611f1116565b905090565b6119848282611f6b565b61198e8282611ed3565b6119978161209c565b5050565b600e80546001019055565b600061185283836040518060400160405280601e81526020017f536166654d6174683a207375627472616374696f6e206f766572666c6f7700008152506120e0565b5490565b6119f784848461193f565b611a038484848461213a565b61145c5760405162461bcd60e51b815260040180806020018281038252603281526020018061269b6032913960400191505060405180910390fd5b606081611a7f575060408051808201909152600181527f3000000000000000000000000000000000000000000000000000000000000000602082015261065c565b8160005b8115611a9757600101600a82049150611a83565b6060816040519080825280601f01601f191660200182016040528015611ac4576020820181803883390190505b50905060001982015b8515611b1257600a860660300160f81b82828060019003935081518110611af057fe5b60200101906001600160f81b031916908160001a905350600a86049550611acd565b50949350505050565b6060611852838360405180602001604052806000815250604051806020016040528060008152506040518060200160405280600081525061238a565b6001600160a01b038116611b9c5760405162461bcd60e51b81526004018080602001828103825260268152602001806126cd6026913960400191505060405180910390fd5b600d546040516001600160a01b038084169216907f8be0079c531659141344cd1fd0a4f28419497f9722a3daafe3b4186f6b6457e090600090a3600d80546001600160a01b0319166001600160a01b0392909216919091179055565b60008183611c845760405162461bcd60e51b81526004018080602001828103825283818151815260200191508051906020019080838360005b83811015611c49578181015183820152602001611c31565b50505050905090810190601f168015611c765780820380516001836020036101000a031916815260200191505b509250505060405180910390fd5b506000838581611c9057fe5b0495945050505050565b826001600160a01b0316611cad826110f2565b6001600160a01b031614611cf25760405162461bcd60e51b815260040180806020018281038252602981526020018061283e6029913960400191505060405180910390fd5b6001600160a01b038216611d375760405162461bcd60e51b81526004018080602001828103825260248152602001806126f36024913960400191505060405180910390fd5b611d408161259e565b6001600160a01b0383166000908152600360205260409020611d61906125d9565b6001600160a01b0382166000908152600360205260409020611d82906125f0565b60008181526001602052604080822080546001600160a01b0319166001600160a01b0386811691821790925591518493918716917fddf252ad1be2c89b69c2b068fc378daa952ba7f163c4a11628f55a4df523b3ef91a4505050565b6001600160a01b038216600090815260056020526040812054611e0890600163ffffffff6119a616565b600083815260066020526040902054909150808214611ea3576001600160a01b0384166000908152600560205260408120805484908110611e4557fe5b906000526020600020015490508060056000876001600160a01b03166001600160a01b031681526020019081526020016000208381548110611e8357fe5b600091825260208083209091019290925591825260069052604090208190555b6001600160a01b0384166000908152600560205260409020805490611ecc906000198301612632565b5050505050565b6001600160a01b0390911660009081526005602081815260408084208054868652600684529185208290559282526001810183559183529091200155565b600082820183811015611852576040805162461bcd60e51b815260206004820152601b60248201527f536166654d6174683a206164646974696f6e206f766572666c6f770000000000604482015290519081900360640190fd5b6001600160a01b038216611fc6576040805162461bcd60e51b815260206004820181905260248201527f4552433732313a206d696e7420746f20746865207a65726f2061646472657373604482015290519081900360640190fd5b611fcf816117d8565b15612021576040805162461bcd60e51b815260206004820152601c60248201527f4552433732313a20746f6b656e20616c7265616479206d696e74656400000000604482015290519081900360640190fd5b600081815260016020908152604080832080546001600160a01b0319166001600160a01b038716908117909155835260039091529020612060906125f0565b60405181906001600160a01b038416906000907fddf252ad1be2c89b69c2b068fc378daa952ba7f163c4a11628f55a4df523b3ef908290a45050565b600780546000838152600860205260408120829055600182018355919091527fa66cc928b5edb82af9bd49922954155ab7b0942694bea4ce44661d9a8736c6880155565b600081848411156121325760405162461bcd60e51b8152602060048201818152835160248401528351909283926044909101919085019080838360008315611c49578181015183820152602001611c31565b505050900390565b600061214e846001600160a01b03166125f9565b61215a57506001611937565b600060606001600160a01b038616630a85bd0160e11b6121786117f5565b89888860405160240180856001600160a01b03166001600160a01b03168152602001846001600160a01b03166001600160a01b0316815260200183815260200180602001828103825283818151815260200191508051906020019080838360005b838110156121f15781810151838201526020016121d9565b50505050905090810190601f16801561221e5780820380516001836020036101000a031916815260200191505b5060408051601f198184030181529181526020820180517bffffffffffffffffffffffffffffffffffffffffffffffffffffffff166001600160e01b0319909a16999099178952518151919890975087965094509250829150849050835b6020831061229b5780518252601f19909201916020918201910161227c565b6001836020036101000a0380198251168184511680821785525050505050509050019150506000604051808303816000865af19150503d80600081146122fd576040519150601f19603f3d011682016040523d82523d6000602084013e612302565b606091505b5091509150816123535780511561231c5780518082602001fd5b60405162461bcd60e51b815260040180806020018281038252603281526020018061269b6032913960400191505060405180910390fd5b600081806020019051602081101561236a57600080fd5b50516001600160e01b031916630a85bd0160e11b14935061193792505050565b6060808690506060869050606086905060608690506060869050606081518351855187518951010101016040519080825280601f01601f1916602001820160405280156123de576020820181803883390190505b509050806000805b8851811015612437578881815181106123fb57fe5b602001015160f81c60f81b83838060010194508151811061241857fe5b60200101906001600160f81b031916908160001a9053506001016123e6565b5060005b875181101561248c5787818151811061245057fe5b602001015160f81c60f81b83838060010194508151811061246d57fe5b60200101906001600160f81b031916908160001a90535060010161243b565b5060005b86518110156124e1578681815181106124a557fe5b602001015160f81c60f81b8383806001019450815181106124c257fe5b60200101906001600160f81b031916908160001a905350600101612490565b5060005b8551811015612536578581815181106124fa57fe5b602001015160f81c60f81b83838060010194508151811061251757fe5b60200101906001600160f81b031916908160001a9053506001016124e5565b5060005b845181101561258b5784818151811061254f57fe5b602001015160f81c60f81b83838060010194508151811061256c57fe5b60200101906001600160f81b031916908160001a90535060010161253a565b50909d9c50505050505050505050505050565b6000818152600260205260409020546001600160a01b0316156117d557600090815260026020526040902080546001600160a01b0319169055565b80546125ec90600163ffffffff6119a616565b9055565b80546001019055565b6000813f7fc5d2460186f7233c927e7db2dcc703c0e500b653ca82273b7bfad8045d85a470818114801590611937575050151592915050565b815481835581811115610a6157600083815260209020610a619181019083016106f591905b8082111561266b5760008155600101612657565b509056fe455243373231456e756d657261626c653a206f776e657220696e646578206f7574206f6620626f756e64734552433732313a207472616e7366657220746f206e6f6e20455243373231526563656976657220696d706c656d656e7465724f776e61626c653a206e6577206f776e657220697320746865207a65726f20616464726573734552433732313a207472616e7366657220746f20746865207a65726f20616464726573734552433732313a206f70657261746f7220717565727920666f72206e6f6e6578697374656e7420746f6b656e4552433732313a20617070726f76652063616c6c6572206973206e6f74206f776e6572206e6f7220617070726f76656420666f7220616c6c4e6f74207072656d697474656420746f2073657420736d616c6c657220636f756e742e4552433732313a2062616c616e636520717565727920666f7220746865207a65726f20616464726573734552433732313a206f776e657220717565727920666f72206e6f6e6578697374656e7420746f6b656e536166654d6174683a206d756c7469706c69636174696f6e206f766572666c6f774552433732313a20617070726f76656420717565727920666f72206e6f6e6578697374656e7420746f6b656e4552433732313a207472616e73666572206f6620746f6b656e2074686174206973206e6f74206f776e4552433732313a20617070726f76616c20746f2063757272656e74206f776e65724552433732313a207472616e736665722063616c6c6572206973206e6f74206f776e6572206e6f7220617070726f766564455243373231456e756d657261626c653a20676c6f62616c20696e646578206f7574206f6620626f756e6473a265627a7a72315820445bef641edcefa505de7f31dc204307916a4790a50691db25c6f69d4bee7c3c64736f6c63430005100032",
  "source": "pragma solidity ^0.5.0;\r\n\r\nimport \"openzeppelin-solidity/contracts/token/ERC721/ERC721Full.sol\";\r\nimport \"openzeppelin-solidity/contracts/ownership/Ownable.sol\";\r\nimport \"./Strings.sol\";\r\nimport \"./interfaces/IERC20.sol\";\r\n\r\ncontract XPlanetPoker is ERC721Full, Ownable {\r\n    using Strings for string;\r\n    uint256 private _currentTokenId = 0;\r\n    uint256 private _price = 100 * (10 ** 18);\r\n    uint private _maxCardNum = 52 * 200;\r\n    address private _xkeyAddr;\r\n    address private _fundAddr;\r\n    uint private unlocked = 1;\r\n\r\n    modifier lock() {\r\n        require(unlocked == 1, 'Xkey is locked');\r\n        unlocked = 0;\r\n        _;\r\n        unlocked = 1;\r\n    }\r\n\r\n    constructor(\r\n        address _xkey,\r\n        address _fund\r\n    ) public ERC721Full(\"XPOKER\", \"XPK\") {\r\n        _xkeyAddr = _xkey;\r\n        _fundAddr = _fund;\r\n    }\r\n\r\n    function setTotalCards(uint _count) public onlyOwner {\r\n        require(_count>_maxCardNum, \"Not premitted to set smaller count.\");\r\n        _maxCardNum = _count;\r\n    }\r\n\r\n    function getRevenue(address _to) public onlyOwner {\r\n        uint256 revenue = IERC20(_xkeyAddr).balanceOf(address(this));\r\n        require(revenue>0, \"No revenue.\");\r\n        IERC20(_xkeyAddr).transferFrom(address(this), _to, revenue);\r\n    }\r\n\r\n    function openLootBox(uint _count) lock public {\r\n        require(_count > 0, \"Count should > 0.\");\r\n        require(_count <= 5, \"Limit to maximum 5 mints.\");\r\n        require(_currentTokenId+_count<=_maxCardNum, \"No more poker.\");\r\n        uint256 pay = _price.mul(_count);\r\n        require(IERC20(_xkeyAddr).balanceOf(msg.sender) >= pay, \"Not enough XKey to mint.\");\r\n        IERC20(_xkeyAddr).transferFrom(msg.sender, address(this), pay);\r\n        uint256 thisBalance = IERC20(_xkeyAddr).balanceOf(address(this));\r\n        require(thisBalance>=pay, \"Not enough balance to mint.\");\r\n        for (uint i=0; i<_count; i++) {\r\n            uint256 newTokenId = _getNextTokenId();\r\n            _mint(msg.sender, newTokenId);\r\n            _incrementTokenId();\r\n        }\r\n        uint256 burnNum = pay.mul(5).div(100);\r\n        require(thisBalance > burnNum, \"burnNum bigger.\");\r\n        IERC20(_xkeyAddr).transfer(address(0), burnNum);\r\n        IERC20(_xkeyAddr).transfer(_fundAddr, thisBalance.sub(burnNum));\r\n    }\r\n\r\n    function revokePoker(uint256[5] memory pokers) lock public {\r\n        uint revokeNum = 0;\r\n        for (uint i=0; i<5; i++) {\r\n            if (pokers[i] > 0) {\r\n                transferFrom(msg.sender, address(1), pokers[i]);\r\n                revokeNum = revokeNum + 1;\r\n            }\r\n        }\r\n        IERC20(_xkeyAddr).transfer(msg.sender, _price.mul(revokeNum).mul(20).div(100));\r\n    }\r\n\r\n    function _getNextTokenId() private view returns (uint256) {\r\n        return _currentTokenId.add(1);\r\n    }\r\n\r\n    function totalSupply() public view returns (uint256) {\r\n        return _currentTokenId;\r\n    }\r\n\r\n    function maxCardNum() public view returns (uint256) {\r\n        return _maxCardNum;\r\n    }\r\n\r\n    function _incrementTokenId() private {\r\n        _currentTokenId++;\r\n    }\r\n\r\n    function baseTokenURI() public pure returns (string memory) {\r\n        return \"http://poker.xplanet.io/\";\r\n    }\r\n\r\n    function tokenURI(uint256 _tokenId) external view returns (string memory) {\r\n        return Strings.strConcat(baseTokenURI(), Strings.uint2str(_tokenId));\r\n    }\r\n\r\n}\r\n",
  "sourcePath": "E:/codingproject/xkey/contracts/XPlanetPoker.sol",
  "compiler": {
    "name": "solc",
    "version": "0.5.16+commit.9c3226ce.Emscripten.clang"
  },
  "schemaVersion": "3.4.0",
  "updatedAt": "2021-06-09T09:07:09.128Z",
  "devdoc": {
    "methods": {
      "approve(address,uint256)": {
        "details": "Approves another address to transfer the given token ID The zero address indicates there is no approved address. There can only be one approved address per token at a given time. Can only be called by the token owner or an approved operator.",
        "params": {
          "to": "address to be approved for the given token ID",
          "tokenId": "uint256 ID of the token to be approved"
        }
      },
      "balanceOf(address)": {
        "details": "Gets the balance of the specified address.",
        "params": {
          "owner": "address to query the balance of"
        },
        "return": "uint256 representing the amount owned by the passed address"
      },
      "baseURI()": {
        "details": "Returns the base URI set via {_setBaseURI}. This will be automatically added as a preffix in {tokenURI} to each token's URI, when they are non-empty.    * _Available since v2.5.0._"
      },
      "getApproved(uint256)": {
        "details": "Gets the approved address for a token ID, or zero if no address set Reverts if the token ID does not exist.",
        "params": {
          "tokenId": "uint256 ID of the token to query the approval of"
        },
        "return": "address currently approved for the given token ID"
      },
      "isApprovedForAll(address,address)": {
        "details": "Tells whether an operator is approved by a given owner.",
        "params": {
          "operator": "operator address which you want to query the approval of",
          "owner": "owner address which you want to query the approval of"
        },
        "return": "bool whether the given operator is approved by the given owner"
      },
      "isOwner()": {
        "details": "Returns true if the caller is the current owner."
      },
      "name()": {
        "details": "Gets the token name.",
        "return": "string representing the token name"
      },
      "owner()": {
        "details": "Returns the address of the current owner."
      },
      "ownerOf(uint256)": {
        "details": "Gets the owner of the specified token ID.",
        "params": {
          "tokenId": "uint256 ID of the token to query the owner of"
        },
        "return": "address currently marked as the owner of the given token ID"
      },
      "renounceOwnership()": {
        "details": "Leaves the contract without owner. It will not be possible to call `onlyOwner` functions anymore. Can only be called by the current owner.     * NOTE: Renouncing ownership will leave the contract without an owner, thereby removing any functionality that is only available to the owner."
      },
      "safeTransferFrom(address,address,uint256)": {
        "details": "Safely transfers the ownership of a given token ID to another address If the target address is a contract, it must implement {IERC721Receiver-onERC721Received}, which is called upon a safe transfer, and return the magic value `bytes4(keccak256(\"onERC721Received(address,address,uint256,bytes)\"))`; otherwise, the transfer is reverted. Requires the msg.sender to be the owner, approved, or operator",
        "params": {
          "from": "current owner of the token",
          "to": "address to receive the ownership of the given token ID",
          "tokenId": "uint256 ID of the token to be transferred"
        }
      },
      "safeTransferFrom(address,address,uint256,bytes)": {
        "details": "Safely transfers the ownership of a given token ID to another address If the target address is a contract, it must implement {IERC721Receiver-onERC721Received}, which is called upon a safe transfer, and return the magic value `bytes4(keccak256(\"onERC721Received(address,address,uint256,bytes)\"))`; otherwise, the transfer is reverted. Requires the _msgSender() to be the owner, approved, or operator",
        "params": {
          "_data": "bytes data to send along with a safe transfer check",
          "from": "current owner of the token",
          "to": "address to receive the ownership of the given token ID",
          "tokenId": "uint256 ID of the token to be transferred"
        }
      },
      "setApprovalForAll(address,bool)": {
        "details": "Sets or unsets the approval of a given operator An operator is allowed to transfer all tokens of the sender on their behalf.",
        "params": {
          "approved": "representing the status of the approval to be set",
          "to": "operator address to set the approval"
        }
      },
      "supportsInterface(bytes4)": {
        "details": "See {IERC165-supportsInterface}.     * Time complexity O(1), guaranteed to always use less than 30 000 gas."
      },
      "symbol()": {
        "details": "Gets the token symbol.",
        "return": "string representing the token symbol"
      },
      "tokenByIndex(uint256)": {
        "details": "Gets the token ID at a given index of all the tokens in this contract Reverts if the index is greater or equal to the total number of tokens.",
        "params": {
          "index": "uint256 representing the index to be accessed of the tokens list"
        },
        "return": "uint256 token ID at the given index of the tokens list"
      },
      "tokenOfOwnerByIndex(address,uint256)": {
        "details": "Gets the token ID at a given index of the tokens list of the requested owner.",
        "params": {
          "index": "uint256 representing the index to be accessed of the requested tokens list",
          "owner": "address owning the tokens list to be accessed"
        },
        "return": "uint256 token ID at the given index of the tokens list owned by the requested address"
      },
      "transferFrom(address,address,uint256)": {
        "details": "Transfers the ownership of a given token ID to another address. Usage of this method is discouraged, use {safeTransferFrom} whenever possible. Requires the msg.sender to be the owner, approved, or operator.",
        "params": {
          "from": "current owner of the token",
          "to": "address to receive the ownership of the given token ID",
          "tokenId": "uint256 ID of the token to be transferred"
        }
      },
      "transferOwnership(address)": {
        "details": "Transfers ownership of the contract to a new account (`newOwner`). Can only be called by the current owner."
      }
    }
  },
  "userdoc": {
    "methods": {}
  }
}