{
  "contractName": "XPokerPower",
  "abi": [
    {
      "inputs": [
        {
          "internalType": "contract ISwapLPNFT",
          "name": "_xpoker",
          "type": "address"
        }
      ],
      "payable": false,
      "stateMutability": "nonpayable",
      "type": "constructor"
    },
    {
      "anonymous": false,
      "inputs": [
        {
          "indexed": true,
          "internalType": "address",
          "name": "previousOwner",
          "type": "address"
        },
        {
          "indexed": true,
          "internalType": "address",
          "name": "newOwner",
          "type": "address"
        }
      ],
      "name": "OwnershipTransferred",
      "type": "event"
    },
    {
      "constant": true,
      "inputs": [
        {
          "internalType": "address",
          "name": "",
          "type": "address"
        }
      ],
      "name": "compositeLength",
      "outputs": [
        {
          "internalType": "uint256",
          "name": "",
          "type": "uint256"
        }
      ],
      "payable": false,
      "stateMutability": "view",
      "type": "function"
    },
    {
      "constant": true,
      "inputs": [
        {
          "internalType": "address",
          "name": "",
          "type": "address"
        },
        {
          "internalType": "uint256",
          "name": "",
          "type": "uint256"
        }
      ],
      "name": "compositePokers",
      "outputs": [
        {
          "internalType": "uint256",
          "name": "power",
          "type": "uint256"
        }
      ],
      "payable": false,
      "stateMutability": "view",
      "type": "function"
    },
    {
      "constant": true,
      "inputs": [],
      "name": "isOwner",
      "outputs": [
        {
          "internalType": "bool",
          "name": "",
          "type": "bool"
        }
      ],
      "payable": false,
      "stateMutability": "view",
      "type": "function"
    },
    {
      "constant": true,
      "inputs": [],
      "name": "owner",
      "outputs": [
        {
          "internalType": "address",
          "name": "",
          "type": "address"
        }
      ],
      "payable": false,
      "stateMutability": "view",
      "type": "function"
    },
    {
      "constant": false,
      "inputs": [],
      "name": "renounceOwnership",
      "outputs": [],
      "payable": false,
      "stateMutability": "nonpayable",
      "type": "function"
    },
    {
      "constant": true,
      "inputs": [
        {
          "internalType": "address",
          "name": "",
          "type": "address"
        }
      ],
      "name": "singleLength",
      "outputs": [
        {
          "internalType": "uint256",
          "name": "",
          "type": "uint256"
        }
      ],
      "payable": false,
      "stateMutability": "view",
      "type": "function"
    },
    {
      "constant": true,
      "inputs": [
        {
          "internalType": "address",
          "name": "",
          "type": "address"
        },
        {
          "internalType": "uint256",
          "name": "",
          "type": "uint256"
        }
      ],
      "name": "singlePokerPower",
      "outputs": [
        {
          "internalType": "uint256",
          "name": "tokenId",
          "type": "uint256"
        },
        {
          "internalType": "uint256",
          "name": "power",
          "type": "uint256"
        }
      ],
      "payable": false,
      "stateMutability": "view",
      "type": "function"
    },
    {
      "constant": true,
      "inputs": [
        {
          "internalType": "address",
          "name": "",
          "type": "address"
        }
      ],
      "name": "swapTokenAllLiquid",
      "outputs": [
        {
          "internalType": "uint256",
          "name": "",
          "type": "uint256"
        }
      ],
      "payable": false,
      "stateMutability": "view",
      "type": "function"
    },
    {
      "constant": true,
      "inputs": [
        {
          "internalType": "address",
          "name": "",
          "type": "address"
        }
      ],
      "name": "swapTokenCompositeLength",
      "outputs": [
        {
          "internalType": "uint256",
          "name": "",
          "type": "uint256"
        }
      ],
      "payable": false,
      "stateMutability": "view",
      "type": "function"
    },
    {
      "constant": true,
      "inputs": [
        {
          "internalType": "address",
          "name": "",
          "type": "address"
        }
      ],
      "name": "swapTokenSingleLength",
      "outputs": [
        {
          "internalType": "uint256",
          "name": "",
          "type": "uint256"
        }
      ],
      "payable": false,
      "stateMutability": "view",
      "type": "function"
    },
    {
      "constant": false,
      "inputs": [
        {
          "internalType": "address",
          "name": "newOwner",
          "type": "address"
        }
      ],
      "name": "transferOwnership",
      "outputs": [],
      "payable": false,
      "stateMutability": "nonpayable",
      "type": "function"
    },
    {
      "constant": false,
      "inputs": [
        {
          "internalType": "address",
          "name": "user",
          "type": "address"
        },
        {
          "internalType": "contract IPairERC20",
          "name": "pair",
          "type": "address"
        },
        {
          "internalType": "uint256",
          "name": "tokenId",
          "type": "uint256"
        }
      ],
      "name": "stake",
      "outputs": [
        {
          "internalType": "uint256",
          "name": "",
          "type": "uint256"
        }
      ],
      "payable": false,
      "stateMutability": "nonpayable",
      "type": "function"
    },
    {
      "constant": false,
      "inputs": [
        {
          "internalType": "address",
          "name": "user",
          "type": "address"
        },
        {
          "internalType": "contract IPairERC20",
          "name": "pair",
          "type": "address"
        },
        {
          "internalType": "uint256[5]",
          "name": "tokenIds",
          "type": "uint256[5]"
        }
      ],
      "name": "stakeComposite",
      "outputs": [
        {
          "internalType": "uint256",
          "name": "",
          "type": "uint256"
        }
      ],
      "payable": false,
      "stateMutability": "nonpayable",
      "type": "function"
    },
    {
      "constant": true,
      "inputs": [
        {
          "internalType": "address",
          "name": "user",
          "type": "address"
        },
        {
          "internalType": "uint256",
          "name": "index",
          "type": "uint256"
        }
      ],
      "name": "getTokenIdsByIndex",
      "outputs": [
        {
          "internalType": "uint256[5]",
          "name": "",
          "type": "uint256[5]"
        }
      ],
      "payable": false,
      "stateMutability": "view",
      "type": "function"
    },
    {
      "constant": true,
      "inputs": [
        {
          "internalType": "address",
          "name": "user",
          "type": "address"
        },
        {
          "internalType": "uint256",
          "name": "index",
          "type": "uint256"
        }
      ],
      "name": "getTokenIdByIndex",
      "outputs": [
        {
          "internalType": "uint256",
          "name": "",
          "type": "uint256"
        }
      ],
      "payable": false,
      "stateMutability": "view",
      "type": "function"
    },
    {
      "constant": true,
      "inputs": [
        {
          "internalType": "address",
          "name": "user",
          "type": "address"
        },
        {
          "internalType": "uint256",
          "name": "index",
          "type": "uint256"
        }
      ],
      "name": "getSinglePowerdByIndex",
      "outputs": [
        {
          "internalType": "uint256",
          "name": "",
          "type": "uint256"
        }
      ],
      "payable": false,
      "stateMutability": "view",
      "type": "function"
    },
    {
      "constant": true,
      "inputs": [
        {
          "internalType": "address",
          "name": "user",
          "type": "address"
        },
        {
          "internalType": "uint256",
          "name": "index",
          "type": "uint256"
        }
      ],
      "name": "getCompositePowerdByIndex",
      "outputs": [
        {
          "internalType": "uint256",
          "name": "",
          "type": "uint256"
        }
      ],
      "payable": false,
      "stateMutability": "view",
      "type": "function"
    },
    {
      "constant": false,
      "inputs": [
        {
          "internalType": "address",
          "name": "user",
          "type": "address"
        },
        {
          "internalType": "uint256",
          "name": "tokenId",
          "type": "uint256"
        }
      ],
      "name": "unstake",
      "outputs": [
        {
          "internalType": "uint256",
          "name": "",
          "type": "uint256"
        }
      ],
      "payable": false,
      "stateMutability": "nonpayable",
      "type": "function"
    },
    {
      "constant": false,
      "inputs": [
        {
          "internalType": "address",
          "name": "user",
          "type": "address"
        },
        {
          "internalType": "uint256",
          "name": "index",
          "type": "uint256"
        }
      ],
      "name": "unstakeComposite",
      "outputs": [
        {
          "internalType": "uint256",
          "name": "",
          "type": "uint256"
        }
      ],
      "payable": false,
      "stateMutability": "nonpayable",
      "type": "function"
    }
  ],
  "bytecode": "0x608060405234801561001057600080fd5b50604051611f9a380380611f9a8339818101604052602081101561003357600080fd5b505160006100486001600160e01b036100b716565b600080546001600160a01b0319166001600160a01b0383169081178255604051929350917f8be0079c531659141344cd1fd0a4f28419497f9722a3daafe3b4186f6b6457e0908290a350600180546001600160a01b0319166001600160a01b03929092169190911790556100bb565b3390565b611ed0806100ca6000396000f3fe608060405234801561001057600080fd5b50600436106101515760003560e01c80638da5cb5b116100cd578063c2a672e011610081578063deecf75c11610066578063deecf75c14610434578063ebb741a814610460578063f2fde38b1461048c57610151565b8063c2a672e0146103d3578063d973a2ae146103ff57610151565b8063a6ba2583116100b2578063a6ba25831461034b578063b7a3310814610371578063bf6eac2f1461039d57610151565b80638da5cb5b1461030b5780638f32d59b1461032f57610151565b80633ffd050811610124578063715018a611610109578063715018a6146102775780637a110ca1146102815780638cb64f8e146102e557610151565b80633ffd0508146102255780635a6d16af1461025157610151565b80630812abf7146101565780630c1f0e271461019b5780631bdff5a2146101d357806320341d01146101ff575b600080fd5b6101826004803603604081101561016c57600080fd5b506001600160a01b0381351690602001356104b2565b6040805192835260208301919091528051918290030190f35b6101c1600480360360208110156101b157600080fd5b50356001600160a01b03166104eb565b60408051918252519081900360200190f35b6101c1600480360360408110156101e957600080fd5b506001600160a01b0381351690602001356104fd565b6101c16004803603602081101561021557600080fd5b50356001600160a01b0316610594565b6101c16004803603604081101561023b57600080fd5b506001600160a01b0381351690602001356105a6565b6101c16004803603602081101561026757600080fd5b50356001600160a01b03166105da565b61027f6105ec565b005b6102ad6004803603604081101561029757600080fd5b506001600160a01b03813516906020013561069c565b604051808260a080838360005b838110156102d25781810151838201526020016102ba565b5050505090500191505060405180910390f35b6101c1600480360360208110156102fb57600080fd5b50356001600160a01b0316610764565b610313610776565b604080516001600160a01b039092168252519081900360200190f35b610337610786565b604080519115158252519081900360200190f35b6101c16004803603602081101561036157600080fd5b50356001600160a01b03166107aa565b6101c16004803603604081101561038757600080fd5b506001600160a01b0381351690602001356107bc565b6101c1600480360360608110156103b357600080fd5b506001600160a01b03813581169160208101359091169060400135610852565b6101c1600480360360408110156103e957600080fd5b506001600160a01b038135169060200135610b2a565b6101c1600480360360e081101561041557600080fd5b506001600160a01b038135811691602081013590911690604001610ede565b6101c16004803603604081101561044a57600080fd5b506001600160a01b0381351690602001356115f5565b6101c16004803603604081101561047657600080fd5b506001600160a01b03813516906020013561195f565b61027f600480360360208110156104a257600080fd5b50356001600160a01b03166119f5565b600260205281600052604060002081815481106104cb57fe5b600091825260209091206002909102018054600190910154909250905082565b60086020526000908152604090205481565b6001600160a01b0382166000908152600460205260408120548083106105545760405162461bcd60e51b8152600401808060200182810382526021815260200180611e7b6021913960400191505060405180910390fd5b6001600160a01b038416600090815260026020526040902080548490811061057857fe5b9060005260206000209060020201600001549150505b92915050565b60056020526000908152604090205481565b600360205281600052604060002081815481106105bf57fe5b60009182526020909120600560069092020101549150829050565b60046020526000908152604090205481565b6105f4610786565b610645576040805162461bcd60e51b815260206004820181905260248201527f4f776e61626c653a2063616c6c6572206973206e6f7420746865206f776e6572604482015290519081900360640190fd5b600080546040516001600160a01b03909116907f8be0079c531659141344cd1fd0a4f28419497f9722a3daafe3b4186f6b6457e0908390a36000805473ffffffffffffffffffffffffffffffffffffffff19169055565b6106a4611c9e565b6001600160a01b0383166000908152600560205260409020548083106106fb5760405162461bcd60e51b8152600401808060200182810382526022815260200180611d7c6022913960400191505060405180910390fd5b6001600160a01b038416600090815260036020526040902080548490811061071f57fe5b600091825260209091206040805160a0810191829052926006029091019060059082845b81548152602001906001019080831161074357505050505091505092915050565b60066020526000908152604090205481565b6000546001600160a01b03165b90565b600080546001600160a01b031661079b611a5a565b6001600160a01b031614905090565b60076020526000908152604090205481565b6001600160a01b0382166000908152600460205260408120548083106108135760405162461bcd60e51b8152600401808060200182810382526026815260200180611e0e6026913960400191505060405180910390fd5b6001600160a01b038416600090815260026020526040902080548490811061083757fe5b90600052602060002090600202016001015491505092915050565b600061085c610786565b6108ad576040805162461bcd60e51b815260206004820181905260248201527f4f776e61626c653a2063616c6c6572206973206e6f7420746865206f776e6572604482015290519081900360640190fd5b6108b5611cbc565b600154604080517f14600ef700000000000000000000000000000000000000000000000000000000815260048101869052815160009384936001600160a01b03909116926314600ef79260248083019392829003018186803b15801561091a57600080fd5b505afa15801561092e573d6000803e3d6000fd5b505050506040513d604081101561094457600080fd5b508051602091820151604080517f9cc7f708000000000000000000000000000000000000000000000000000000008152600481018a9052905192955090935060009283926001600160a01b038b1692639cc7f708926024808301939192829003018186803b1580156109b557600080fd5b505afa1580156109c9573d6000803e3d6000fd5b505050506040513d60208110156109df57600080fd5b50516001600160a01b038916600090815260086020526040902054909150610a0d908263ffffffff611a5e16565b6001600160a01b038916600090815260086020526040902055610a36838263ffffffff611abf16565b915060008211610a8d576040805162461bcd60e51b815260206004820152601260248201527f7374616b653a207a65726f20706f7765722e0000000000000000000000000000604482015290519081900360640190fd5b86855260208086018381526001600160a01b03808c166000818152600280865260408083208054600181810183559185528885208e519190940290930192835595519186019190915591815260048552818120805485019055918c16825260069093529190912054610b049163ffffffff611a5e16565b6001600160a01b0389166000908152600660205260409020555093505050509392505050565b6000610b34610786565b610b85576040805162461bcd60e51b815260206004820181905260248201527f4f776e61626c653a2063616c6c6572206973206e6f7420746865206f776e6572604482015290519081900360640190fd5b6001600160a01b0383166000908152600260209081526040808320805482518185028101850190935280835260609492939192909184015b82821015610c0357838290600052602060002090600202016040518060400160405290816000820154815260200160018201548152505081526020019060010190610bbd565b5050506001600160a01b038087166000908152600460208181526040808420546001548251632f7ce47360e21b81529485018c90529151979850969395508594169263bdf391cc926024808201939291829003018186803b158015610c6757600080fd5b505afa158015610c7b573d6000803e3d6000fd5b505050506040513d6020811015610c9157600080fd5b5051905060005b83811015610dcc5786858281518110610cad57fe5b6020026020010151600001511415610dc457848181518110610ccb57fe5b602002602001015160200151925060026000896001600160a01b03166001600160a01b031681526020019081526020016000206001850381548110610d0c57fe5b9060005260206000209060020201600260008a6001600160a01b03166001600160a01b031681526020019081526020016000208281548110610d4a57fe5b600091825260208083208454600290930201918255600193840154918401919091556001600160a01b03808c168352600482526040808420805460001901905590861683526006909152902054610da69163ffffffff611b1816565b6001600160a01b038316600090815260066020526040902055610dcc565b600101610c98565b5060008211610e22576040805162461bcd60e51b815260206004820152601760248201527f756e7374616b653a20696e76616c696420706f7765722e000000000000000000604482015290519081900360640190fd5b610eba816001600160a01b0316639cc7f708886040518263ffffffff1660e01b81526004018082815260200191505060206040518083038186803b158015610e6957600080fd5b505afa158015610e7d573d6000803e3d6000fd5b505050506040513d6020811015610e9357600080fd5b50516001600160a01b0383166000908152600860205260409020549063ffffffff611b1816565b6001600160a01b039091166000908152600860205260409020559250505092915050565b6000610ee8610786565b610f39576040805162461bcd60e51b815260206004820181905260248201527f4f776e61626c653a2063616c6c6572206973206e6f7420746865206f776e6572604482015290519081900360640190fd5b600080610f44611cd6565b6001806000805b60058110156112e0576000898260058110610f6257fe5b602002013511610fa35760405162461bcd60e51b8152600401808060200182810382526021815260200180611ded6021913960400191505060405180910390fd5b6001546001600160a01b03166314600ef78a8360058110610fc057fe5b60200201356040518263ffffffff1660e01b815260040180828152602001915050604080518083038186803b158015610ff857600080fd5b505afa15801561100c573d6000803e3d6000fd5b505050506040513d604081101561102257600080fd5b50805160209091015186836005811061103757fe5b602002015187846005811061104857fe5b6020908102919091015101919091525284816005811061106457fe5b6020020151602001518701965060008a6001600160a01b0316639cc7f7088b846005811061108e57fe5b60200201356040518263ffffffff1660e01b81526004018082815260200191505060206040518083038186803b1580156110c757600080fd5b505afa1580156110db573d6000803e3d6000fd5b505050506040513d60208110156110f157600080fd5b5051968701969050811580159061112d575085600183036005811061111257fe5b60200201515186836005811061112457fe5b60200201515114155b80156111365750845b1561114057600094505b815b80156112d65786600182036005811061115757fe5b60200201516020015187826005811061116c57fe5b602002015160200151116112cd5786600182036005811061118957fe5b60200201516020015187826005811061119e57fe5b6020020151602001511415611212578681600581106111b957fe5b602002015151876000198301600581106111cf57fe5b60200201515114156112125760405162461bcd60e51b8152600401808060200182810382526026815260200180611e556026913960400191505060405180910390fd5b600087600183036005811061122357fe5b602002015160200151905087826005811061123a57fe5b60200201516020015188600184036005811061125257fe5b602002015160200181815250508088836005811061126c57fe5b6020020151602001818152505087600183036005811061128857fe5b602002015151905087826005811061129c57fe5b602002015151886000198401600581106112b257fe5b602002015152808883600581106112c557fe5b602002015152505b60001901611142565b5050600101610f4b565b5060015b60058110156113e8578460018203600581106112fc57fe5b60200201516020015185826005811061131157fe5b60200201516020015114156113865760009250816113325760019150611381565b81600114156113445760039150611381565b81600214156113565760059150611381565b81600314156113685760079150611381565b81600514806113775750816004145b1561138157600691505b6113e0565b84600182036005811061139557fe5b6020020151602001516001018582600581106113ad57fe5b602002015160200151146113c057600092505b81600114156113d257600291506113e0565b81600314156113e057600491505b6001016112e4565b50821561142f57811561142057835160200151600a14156114115784866103e80102955061141b565b84866101c7010295505b61142a565b8486610113010295505b6114d1565b806007141561144657848661018b010295506114d1565b80600114806114555750806002145b156114675784866037010295506114d1565b80600314806114765750806004145b1561148857848660a5010295506114d1565b806005141561149e578486606e010295506114d1565b80600614156114b557848661014f010295506114d1565b81156114c857848660d7010295506114d1565b8486600f010295505b6114d9611d03565b6040805160e08101825290819081018b6005828260a0808284376000920182905250928452505060209182018a90526001600160a01b038e168152600382526040812080546001810180835591835292909120835193945090928492600602909101906115499082906005611d23565b506020918201516005918201556001600160a01b03808f166000908152918352604080832080546001908101909155918f16835260079093529190205461159792509063ffffffff611a5e16565b6001600160a01b038b166000908152600760209081526040808320939093556008905220546115cc908763ffffffff611a5e16565b6001600160a01b038b166000908152600860205260409020555094955050505050509392505050565b60006115ff610786565b611650576040805162461bcd60e51b815260206004820181905260248201527f4f776e61626c653a2063616c6c6572206973206e6f7420746865206f776e6572604482015290519081900360640190fd5b6001600160a01b0383166000908152600560205260409020548083106116bd576040805162461bcd60e51b815260206004820181905260248201527f756e7374616b65436f6d706f736974653a20696e76616c696420696e6465782e604482015290519081900360640190fd5b6001600160a01b03841660009081526003602052604081208054859081106116e157fe5b906000526020600020906006020190506116f9611d03565b6001600160a01b03861660009081526003602052604090208054600019850190811061172157fe5b600091825260209091206040805160e081018083529093600602909201918391820190839060059082845b81548152602001906001019080831161174c57505050918352505060059182015460209182015290840154845460015460408051632f7ce47360e21b8152600481018490529051959650929491936000936001600160a01b039092169263bdf391cc926024808201939291829003018186803b1580156117cb57600080fd5b505afa1580156117df573d6000803e3d6000fd5b505050506040513d60208110156117f557600080fd5b505190506000805b60058110156118a25760006001600160a01b038416639cc7f70889846005811061182357fe5b01546040518263ffffffff1660e01b81526004018082815260200191505060206040518083038186803b15801561185957600080fd5b505afa15801561186d573d6000803e3d6000fd5b505050506040513d602081101561188357600080fd5b50519050611897838263ffffffff611a5e16565b9250506001016117fd565b5084516118b29087906005611d23565b506020808601516005808901919091556001600160a01b03808d166000908152918352604080832080546000190190559085168252600890925220546118fe908263ffffffff611b1816565b6001600160a01b03831660009081526008602090815260408083209390935560079052205461193490600163ffffffff611b1816565b6001600160a01b03909216600090815260076020526040902091909155509094505050505092915050565b6001600160a01b0382166000908152600560205260408120548083106119b65760405162461bcd60e51b8152600401808060200182810382526029815260200180611dc46029913960400191505060405180910390fd5b6001600160a01b03841660009081526003602052604090208054849081106119da57fe5b90600052602060002090600602016005015491505092915050565b6119fd610786565b611a4e576040805162461bcd60e51b815260206004820181905260248201527f4f776e61626c653a2063616c6c6572206973206e6f7420746865206f776e6572604482015290519081900360640190fd5b611a5781611b5a565b50565b3390565b600082820183811015611ab8576040805162461bcd60e51b815260206004820152601b60248201527f536166654d6174683a206164646974696f6e206f766572666c6f770000000000604482015290519081900360640190fd5b9392505050565b600082611ace5750600061058e565b82820282848281611adb57fe5b0414611ab85760405162461bcd60e51b8152600401808060200182810382526021815260200180611e346021913960400191505060405180910390fd5b6000611ab883836040518060400160405280601e81526020017f536166654d6174683a207375627472616374696f6e206f766572666c6f770000815250611c07565b6001600160a01b038116611b9f5760405162461bcd60e51b8152600401808060200182810382526026815260200180611d9e6026913960400191505060405180910390fd5b600080546040516001600160a01b03808516939216917f8be0079c531659141344cd1fd0a4f28419497f9722a3daafe3b4186f6b6457e091a36000805473ffffffffffffffffffffffffffffffffffffffff19166001600160a01b0392909216919091179055565b60008184841115611c965760405162461bcd60e51b81526004018080602001828103825283818151815260200191508051906020019080838360005b83811015611c5b578181015183820152602001611c43565b50505050905090810190601f168015611c885780820380516001836020036101000a031916815260200191505b509250505060405180910390fd5b505050900390565b6040518060a001604052806005906020820280388339509192915050565b604051806040016040528060008152602001600081525090565b6040518060a001604052806005905b611ced611cbc565b815260200190600190039081611ce55790505090565b6040518060400160405280611d16611c9e565b8152602001600081525090565b8260058101928215611d51579160200282015b82811115611d51578251825591602001919060010190611d36565b50611d5d929150611d61565b5090565b61078391905b80821115611d5d5760008155600101611d6756fe676574546f6b656e4964734279496e6465783a20696e76616c696420696e6465782e4f776e61626c653a206e6577206f776e657220697320746865207a65726f2061646472657373676574436f6d706f73697465506f776572644279496e6465783a20696e76616c696420696e6465782e7374616b65436f6d706f736974653a20496e76616c696420746f6b656e2069642e67657453696e676c65506f776572644279496e6465783a20696e76616c696420696e6465782e536166654d6174683a206d756c7469706c69636174696f6e206f766572666c6f777374616b65436f6d706f736974653a2043616e6e6f74206164642073616d6520706f6b65722e676574546f6b656e49644279496e6465783a20696e76616c696420696e6465782ea265627a7a723158203c0c50dcbabcd0ff47b97b0b46cbe18788cc5bf623113818908a0329fa64a2a964736f6c63430005100032",
  "source": "pragma solidity ^0.5.0;\r\n\r\nimport \"openzeppelin-solidity/contracts/token/ERC721/IERC721.sol\";\r\nimport \"openzeppelin-solidity/contracts/ownership/Ownable.sol\";\r\nimport './libraries/SafeMath.sol';\r\nimport './libraries/SignedSafeMath.sol';\r\nimport './interfaces/ISwapLPNFT.sol';\r\nimport './interfaces/IPairERC20.sol';\r\nimport './interfaces/IXkeyPokerPower.sol';\r\n\r\ncontract XPokerPower is IXkeyPokerPower, Ownable {\r\n    using SafeMath for uint;\r\n    using SignedSafeMath for int256;\r\n\r\n    struct SinglePokerPower {\r\n        uint256 tokenId;\r\n        uint256 power;\r\n    }\r\n\r\n    struct CompositePokerPower {\r\n        uint256[5] tokenIds;\r\n        uint256 power;\r\n    }\r\n\r\n    struct Poker {\r\n        uint256 suit;\r\n        uint256 rank;\r\n    }\r\n\r\n    ISwapLPNFT XPOKER;\r\n    mapping(address => SinglePokerPower[]) public singlePokerPower;\r\n    mapping(address => CompositePokerPower[]) public compositePokers;\r\n    mapping(address => uint) public singleLength;\r\n    mapping(address => uint) public compositeLength;\r\n    mapping(address => uint) public swapTokenSingleLength;\r\n    mapping(address => uint) public swapTokenCompositeLength;\r\n    mapping(address => uint) public swapTokenAllLiquid;\r\n    constructor(ISwapLPNFT _xpoker) public {\r\n        XPOKER = _xpoker;\r\n    }\r\n\r\n    function stake(address user, IPairERC20 pair, uint256 tokenId) external onlyOwner returns (uint256) {\r\n        SinglePokerPower memory p;\r\n        uint suit;\r\n        uint rank;\r\n        (suit, rank) = XPOKER.getPokerProperty(tokenId);\r\n        uint256 power = 0;\r\n        uint256 liquid = pair.balanceOf(tokenId);\r\n        swapTokenAllLiquid[address(pair)] = swapTokenAllLiquid[address(pair)].add(liquid);\r\n        power = rank.mul(liquid);\r\n        require(power>0, \"stake: zero power.\");\r\n        p.tokenId = tokenId;\r\n        p.power = power;\r\n        singlePokerPower[user].push(p);\r\n        singleLength[user] = singleLength[user] + 1;\r\n        swapTokenSingleLength[address(pair)] = swapTokenSingleLength[address(pair)].add(1);\r\n        return power;\r\n    }\r\n\r\n    function stakeComposite(address user, IPairERC20 pair, uint256[5] calldata tokenIds) external onlyOwner returns(uint256) {\r\n        uint totalNumber = 0;\r\n        uint totalLp = 0;\r\n        Poker[5] memory poker;\r\n        bool isFlush = true;\r\n        bool isStraight = true;\r\n        uint state = 0;  // 0 - High Card, 1 - One Pair, 2 - One Pair End, 3 - Three, 4 - Three End, 5 - Tow Pair, 6 - Full House, 7 - Four\r\n        for (uint i=0; i<5; i++) {\r\n            require(tokenIds[i] > 0, \"stakeComposite: Invalid token id.\");\r\n            (poker[i].suit, poker[i].rank) = XPOKER.getPokerProperty(tokenIds[i]);\r\n            totalNumber = totalNumber + poker[i].rank;\r\n            uint256 lp = pair.balanceOf(tokenIds[i]);\r\n            totalLp = totalLp + lp;\r\n            if(i>0 && poker[i].suit != poker[i-1].suit && isFlush) {\r\n                isFlush = false;\r\n            }\r\n            for (uint j=i; j>0; j--) {\r\n                if (poker[j].rank <= poker[j-1].rank) {\r\n                    if (poker[j].rank == poker[j-1].rank) {\r\n                        require(poker[j-1].suit!=poker[j].suit, \"stakeComposite: Cannot add same poker.\");\r\n                    }\r\n                    uint tmp = poker[j-1].rank;\r\n                    poker[j-1].rank = poker[j].rank;\r\n                    poker[j].rank = tmp;\r\n                    tmp = poker[j-1].suit;\r\n                    poker[j-1].suit = poker[j].suit;\r\n                    poker[j].suit = tmp;\r\n                }\r\n            }\r\n        }\r\n        for (uint x=1; x<5; x++) {\r\n            if (poker[x].rank == poker[x-1].rank) {\r\n                isStraight = false;\r\n                if (state == 0) {\r\n                    state = 1;\r\n                } else if (state == 1) {\r\n                    state = 3;\r\n                } else if (state == 2) {\r\n                    state = 5;\r\n                } else if (state == 3) {\r\n                    state = 7;\r\n                } else if (state == 5 || state == 4) {\r\n                    state = 6;\r\n                }\r\n            } else {\r\n                if (poker[x].rank != (poker[x-1].rank + 1)) {\r\n                    isStraight = false;\r\n                }\r\n                if (state == 1) {\r\n                    state = 2;\r\n                } else if (state == 3) {\r\n                    state = 4;\r\n                }\r\n            }\r\n        }\r\n        if (isFlush) {\r\n            if (isStraight) {\r\n                if (poker[0].rank == 10) {\r\n                    totalNumber = (totalNumber + 1000) * totalLp;\r\n                } else {\r\n                    totalNumber = (totalNumber + 455) * totalLp;\r\n                }\r\n            } else {\r\n                totalNumber = (totalNumber + 275) * totalLp;\r\n            }\r\n        } else {\r\n            if (state == 7) {\r\n                totalNumber = (totalNumber + 395) * totalLp;\r\n            } else if (state == 1 || state == 2) {\r\n                totalNumber = (totalNumber + 55) * totalLp;\r\n            } else if (state == 3 || state == 4) {\r\n                totalNumber = (totalNumber + 165) * totalLp;\r\n            } else if (state == 5) {\r\n                totalNumber = (totalNumber + 110) * totalLp;\r\n            } else if (state == 6) {\r\n                totalNumber = (totalNumber + 335) * totalLp;\r\n            } else {\r\n                if (isStraight) {\r\n                    totalNumber = (totalNumber + 215) * totalLp;\r\n                } else {\r\n                    totalNumber = (totalNumber + 15) * totalLp;\r\n                }\r\n            }\r\n        }\r\n        CompositePokerPower memory cPokers = CompositePokerPower(tokenIds, totalNumber);\r\n        compositePokers[user].push(cPokers);\r\n        compositeLength[user] = compositeLength[user] + 1;\r\n        swapTokenCompositeLength[address(pair)] = swapTokenCompositeLength[address(pair)].add(1);\r\n        swapTokenAllLiquid[address(pair)] = swapTokenAllLiquid[address(pair)].add(totalLp);\r\n        return totalNumber;\r\n    }\r\n\r\n    function getTokenIdsByIndex(address user, uint256 index) external view returns(uint256[5] memory) {\r\n        uint256 length = compositeLength[user];\r\n        require(index<length, \"getTokenIdsByIndex: invalid index.\");\r\n        return compositePokers[user][index].tokenIds;\r\n    }\r\n\r\n    function getTokenIdByIndex(address user, uint256 index) external view returns(uint256) {\r\n        uint256 length = singleLength[user];\r\n        require(index<length, \"getTokenIdByIndex: invalid index.\");\r\n        return singlePokerPower[user][index].tokenId;\r\n    }\r\n\r\n    function getSinglePowerdByIndex(address user, uint256 index) external view returns(uint256) {\r\n        uint256 length = singleLength[user];\r\n        require(index<length, \"getSinglePowerdByIndex: invalid index.\");\r\n        return singlePokerPower[user][index].power;\r\n    }\r\n\r\n    function getCompositePowerdByIndex(address user, uint256 index) external view returns(uint256) {\r\n        uint256 length = compositeLength[user];\r\n        require(index<length, \"getCompositePowerdByIndex: invalid index.\");\r\n        return compositePokers[user][index].power;\r\n    }\r\n\r\n    function unstake(address user, uint256 tokenId) external onlyOwner returns (uint256) {\r\n        SinglePokerPower[] memory tokens = singlePokerPower[user];\r\n        uint256 length = singleLength[user];\r\n        uint256 power = 0;\r\n        address pair = XPOKER.getPair(tokenId);\r\n        for (uint i=0; i<length; i++) {\r\n            if (tokens[i].tokenId == tokenId) {\r\n                power = tokens[i].power;\r\n                singlePokerPower[user][i] = singlePokerPower[user][length-1];\r\n                singleLength[user] = singleLength[user] - 1;\r\n                swapTokenSingleLength[pair] = swapTokenSingleLength[pair].sub(1);\r\n                break;\r\n            }\r\n        }\r\n        require(power>0, \"unstake: invalid power.\");\r\n        swapTokenAllLiquid[address(pair)] = swapTokenAllLiquid[address(pair)].sub(IPairERC20(pair).balanceOf(tokenId));\r\n        return power;\r\n    }\r\n\r\n    function unstakeComposite(address user, uint256 index) external onlyOwner returns (uint256) {\r\n        uint256 length = compositeLength[user];\r\n        require(index<length, \"unstakeComposite: invalid index.\");\r\n        CompositePokerPower storage cpp = compositePokers[user][index];\r\n        CompositePokerPower memory cpe = compositePokers[user][length-1];\r\n        uint256 power = cpp.power;\r\n        uint256 tokenId = cpp.tokenIds[0];\r\n        address pair = XPOKER.getPair(tokenId);\r\n        uint totallp = 0;\r\n        for (uint i=0; i<cpp.tokenIds.length; i++) {\r\n            uint256 lp = IPairERC20(pair).balanceOf(cpp.tokenIds[i]);\r\n            totallp = totallp.add(lp);\r\n        }\r\n        cpp.tokenIds = cpe.tokenIds;\r\n        cpp.power = cpe.power;\r\n        compositeLength[user] = compositeLength[user] - 1;\r\n        swapTokenAllLiquid[address(pair)] = swapTokenAllLiquid[address(pair)].sub(totallp);\r\n        swapTokenCompositeLength[pair] = swapTokenCompositeLength[pair].sub(1);\r\n        return power;\r\n    }\r\n\r\n}\r\n\r\n",
  "sourcePath": "E:/codingproject/xkey/contracts/XPokerPower.sol",
  "compiler": {
    "name": "solc",
    "version": "0.5.16+commit.9c3226ce.Emscripten.clang"
  },
  "schemaVersion": "3.4.0",
  "updatedAt": "2021-06-04T05:56:25.644Z",
  "devdoc": {
    "methods": {
      "isOwner()": {
        "details": "Returns true if the caller is the current owner."
      },
      "owner()": {
        "details": "Returns the address of the current owner."
      },
      "renounceOwnership()": {
        "details": "Leaves the contract without owner. It will not be possible to call `onlyOwner` functions anymore. Can only be called by the current owner.     * NOTE: Renouncing ownership will leave the contract without an owner, thereby removing any functionality that is only available to the owner."
      },
      "transferOwnership(address)": {
        "details": "Transfers ownership of the contract to a new account (`newOwner`). Can only be called by the current owner."
      }
    }
  },
  "userdoc": {
    "methods": {}
  }
}