{
  "contractName": "xPokerSpecial",
  "abi": [
    {
      "inputs": [
        {
          "internalType": "address",
          "name": "_minter",
          "type": "address"
        }
      ],
      "payable": false,
      "stateMutability": "nonpayable",
      "type": "constructor"
    },
    {
      "anonymous": false,
      "inputs": [
        {
          "indexed": true,
          "internalType": "address",
          "name": "owner",
          "type": "address"
        },
        {
          "indexed": true,
          "internalType": "address",
          "name": "approved",
          "type": "address"
        },
        {
          "indexed": true,
          "internalType": "uint256",
          "name": "tokenId",
          "type": "uint256"
        }
      ],
      "name": "Approval",
      "type": "event"
    },
    {
      "anonymous": false,
      "inputs": [
        {
          "indexed": true,
          "internalType": "address",
          "name": "owner",
          "type": "address"
        },
        {
          "indexed": true,
          "internalType": "address",
          "name": "operator",
          "type": "address"
        },
        {
          "indexed": false,
          "internalType": "bool",
          "name": "approved",
          "type": "bool"
        }
      ],
      "name": "ApprovalForAll",
      "type": "event"
    },
    {
      "anonymous": false,
      "inputs": [
        {
          "indexed": true,
          "internalType": "address",
          "name": "previousOwner",
          "type": "address"
        },
        {
          "indexed": true,
          "internalType": "address",
          "name": "newOwner",
          "type": "address"
        }
      ],
      "name": "OwnershipTransferred",
      "type": "event"
    },
    {
      "anonymous": false,
      "inputs": [
        {
          "indexed": true,
          "internalType": "address",
          "name": "from",
          "type": "address"
        },
        {
          "indexed": true,
          "internalType": "address",
          "name": "to",
          "type": "address"
        },
        {
          "indexed": true,
          "internalType": "uint256",
          "name": "tokenId",
          "type": "uint256"
        }
      ],
      "name": "Transfer",
      "type": "event"
    },
    {
      "constant": false,
      "inputs": [
        {
          "internalType": "address",
          "name": "to",
          "type": "address"
        },
        {
          "internalType": "uint256",
          "name": "tokenId",
          "type": "uint256"
        }
      ],
      "name": "approve",
      "outputs": [],
      "payable": false,
      "stateMutability": "nonpayable",
      "type": "function"
    },
    {
      "constant": true,
      "inputs": [
        {
          "internalType": "address",
          "name": "owner",
          "type": "address"
        }
      ],
      "name": "balanceOf",
      "outputs": [
        {
          "internalType": "uint256",
          "name": "",
          "type": "uint256"
        }
      ],
      "payable": false,
      "stateMutability": "view",
      "type": "function"
    },
    {
      "constant": true,
      "inputs": [],
      "name": "baseURI",
      "outputs": [
        {
          "internalType": "string",
          "name": "",
          "type": "string"
        }
      ],
      "payable": false,
      "stateMutability": "view",
      "type": "function"
    },
    {
      "constant": true,
      "inputs": [
        {
          "internalType": "uint256",
          "name": "tokenId",
          "type": "uint256"
        }
      ],
      "name": "getApproved",
      "outputs": [
        {
          "internalType": "address",
          "name": "",
          "type": "address"
        }
      ],
      "payable": false,
      "stateMutability": "view",
      "type": "function"
    },
    {
      "constant": true,
      "inputs": [
        {
          "internalType": "address",
          "name": "owner",
          "type": "address"
        },
        {
          "internalType": "address",
          "name": "operator",
          "type": "address"
        }
      ],
      "name": "isApprovedForAll",
      "outputs": [
        {
          "internalType": "bool",
          "name": "",
          "type": "bool"
        }
      ],
      "payable": false,
      "stateMutability": "view",
      "type": "function"
    },
    {
      "constant": true,
      "inputs": [],
      "name": "isOwner",
      "outputs": [
        {
          "internalType": "bool",
          "name": "",
          "type": "bool"
        }
      ],
      "payable": false,
      "stateMutability": "view",
      "type": "function"
    },
    {
      "constant": true,
      "inputs": [],
      "name": "maxCardNum",
      "outputs": [
        {
          "internalType": "uint256",
          "name": "",
          "type": "uint256"
        }
      ],
      "payable": false,
      "stateMutability": "view",
      "type": "function"
    },
    {
      "constant": true,
      "inputs": [],
      "name": "minter",
      "outputs": [
        {
          "internalType": "address",
          "name": "",
          "type": "address"
        }
      ],
      "payable": false,
      "stateMutability": "view",
      "type": "function"
    },
    {
      "constant": true,
      "inputs": [],
      "name": "name",
      "outputs": [
        {
          "internalType": "string",
          "name": "",
          "type": "string"
        }
      ],
      "payable": false,
      "stateMutability": "view",
      "type": "function"
    },
    {
      "constant": true,
      "inputs": [],
      "name": "owner",
      "outputs": [
        {
          "internalType": "address",
          "name": "",
          "type": "address"
        }
      ],
      "payable": false,
      "stateMutability": "view",
      "type": "function"
    },
    {
      "constant": true,
      "inputs": [
        {
          "internalType": "uint256",
          "name": "tokenId",
          "type": "uint256"
        }
      ],
      "name": "ownerOf",
      "outputs": [
        {
          "internalType": "address",
          "name": "",
          "type": "address"
        }
      ],
      "payable": false,
      "stateMutability": "view",
      "type": "function"
    },
    {
      "constant": false,
      "inputs": [],
      "name": "renounceOwnership",
      "outputs": [],
      "payable": false,
      "stateMutability": "nonpayable",
      "type": "function"
    },
    {
      "constant": false,
      "inputs": [
        {
          "internalType": "address",
          "name": "from",
          "type": "address"
        },
        {
          "internalType": "address",
          "name": "to",
          "type": "address"
        },
        {
          "internalType": "uint256",
          "name": "tokenId",
          "type": "uint256"
        }
      ],
      "name": "safeTransferFrom",
      "outputs": [],
      "payable": false,
      "stateMutability": "nonpayable",
      "type": "function"
    },
    {
      "constant": false,
      "inputs": [
        {
          "internalType": "address",
          "name": "from",
          "type": "address"
        },
        {
          "internalType": "address",
          "name": "to",
          "type": "address"
        },
        {
          "internalType": "uint256",
          "name": "tokenId",
          "type": "uint256"
        },
        {
          "internalType": "bytes",
          "name": "_data",
          "type": "bytes"
        }
      ],
      "name": "safeTransferFrom",
      "outputs": [],
      "payable": false,
      "stateMutability": "nonpayable",
      "type": "function"
    },
    {
      "constant": false,
      "inputs": [
        {
          "internalType": "address",
          "name": "to",
          "type": "address"
        },
        {
          "internalType": "bool",
          "name": "approved",
          "type": "bool"
        }
      ],
      "name": "setApprovalForAll",
      "outputs": [],
      "payable": false,
      "stateMutability": "nonpayable",
      "type": "function"
    },
    {
      "constant": true,
      "inputs": [
        {
          "internalType": "bytes4",
          "name": "interfaceId",
          "type": "bytes4"
        }
      ],
      "name": "supportsInterface",
      "outputs": [
        {
          "internalType": "bool",
          "name": "",
          "type": "bool"
        }
      ],
      "payable": false,
      "stateMutability": "view",
      "type": "function"
    },
    {
      "constant": true,
      "inputs": [],
      "name": "symbol",
      "outputs": [
        {
          "internalType": "string",
          "name": "",
          "type": "string"
        }
      ],
      "payable": false,
      "stateMutability": "view",
      "type": "function"
    },
    {
      "constant": true,
      "inputs": [
        {
          "internalType": "uint256",
          "name": "index",
          "type": "uint256"
        }
      ],
      "name": "tokenByIndex",
      "outputs": [
        {
          "internalType": "uint256",
          "name": "",
          "type": "uint256"
        }
      ],
      "payable": false,
      "stateMutability": "view",
      "type": "function"
    },
    {
      "constant": true,
      "inputs": [
        {
          "internalType": "address",
          "name": "owner",
          "type": "address"
        },
        {
          "internalType": "uint256",
          "name": "index",
          "type": "uint256"
        }
      ],
      "name": "tokenOfOwnerByIndex",
      "outputs": [
        {
          "internalType": "uint256",
          "name": "",
          "type": "uint256"
        }
      ],
      "payable": false,
      "stateMutability": "view",
      "type": "function"
    },
    {
      "constant": true,
      "inputs": [],
      "name": "totalSupply",
      "outputs": [
        {
          "internalType": "uint256",
          "name": "",
          "type": "uint256"
        }
      ],
      "payable": false,
      "stateMutability": "view",
      "type": "function"
    },
    {
      "constant": false,
      "inputs": [
        {
          "internalType": "address",
          "name": "from",
          "type": "address"
        },
        {
          "internalType": "address",
          "name": "to",
          "type": "address"
        },
        {
          "internalType": "uint256",
          "name": "tokenId",
          "type": "uint256"
        }
      ],
      "name": "transferFrom",
      "outputs": [],
      "payable": false,
      "stateMutability": "nonpayable",
      "type": "function"
    },
    {
      "constant": false,
      "inputs": [
        {
          "internalType": "address",
          "name": "newOwner",
          "type": "address"
        }
      ],
      "name": "transferOwnership",
      "outputs": [],
      "payable": false,
      "stateMutability": "nonpayable",
      "type": "function"
    },
    {
      "constant": false,
      "inputs": [
        {
          "internalType": "uint256",
          "name": "_count",
          "type": "uint256"
        }
      ],
      "name": "setTotalCards",
      "outputs": [],
      "payable": false,
      "stateMutability": "nonpayable",
      "type": "function"
    },
    {
      "constant": false,
      "inputs": [
        {
          "internalType": "address",
          "name": "_minter",
          "type": "address"
        }
      ],
      "name": "setMinter",
      "outputs": [],
      "payable": false,
      "stateMutability": "nonpayable",
      "type": "function"
    },
    {
      "constant": false,
      "inputs": [
        {
          "internalType": "address",
          "name": "_to",
          "type": "address"
        }
      ],
      "name": "mintGold",
      "outputs": [],
      "payable": false,
      "stateMutability": "nonpayable",
      "type": "function"
    },
    {
      "constant": false,
      "inputs": [
        {
          "internalType": "address",
          "name": "_to",
          "type": "address"
        }
      ],
      "name": "mintSilver",
      "outputs": [],
      "payable": false,
      "stateMutability": "nonpayable",
      "type": "function"
    },
    {
      "constant": false,
      "inputs": [
        {
          "internalType": "address",
          "name": "_to",
          "type": "address"
        }
      ],
      "name": "mintCopper",
      "outputs": [],
      "payable": false,
      "stateMutability": "nonpayable",
      "type": "function"
    },
    {
      "constant": true,
      "inputs": [],
      "name": "baseTokenURI",
      "outputs": [
        {
          "internalType": "string",
          "name": "",
          "type": "string"
        }
      ],
      "payable": false,
      "stateMutability": "pure",
      "type": "function"
    },
    {
      "constant": true,
      "inputs": [
        {
          "internalType": "uint256",
          "name": "_tokenId",
          "type": "uint256"
        }
      ],
      "name": "tokenURI",
      "outputs": [
        {
          "internalType": "string",
          "name": "",
          "type": "string"
        }
      ],
      "payable": false,
      "stateMutability": "view",
      "type": "function"
    },
    {
      "constant": true,
      "inputs": [],
      "name": "ifMintEnd",
      "outputs": [
        {
          "internalType": "bool",
          "name": "",
          "type": "bool"
        }
      ],
      "payable": false,
      "stateMutability": "view",
      "type": "function"
    }
  ],
  "bytecode": "0x60806040526000600e55620186a0600f5562030d406010556107d06011553480156200002a57600080fd5b506040516200251738038062002517833981810160405260208110156200005057600080fd5b5051604080518082018252600d81526c161413d2d15494d41150d25053609a1b6020828101919091528251808401909352600383526258505360e81b90830152908181620000ae6301ffc9a760e01b6001600160e01b03620001b516565b620000c96380ac58cd60e01b6001600160e01b03620001b516565b620000e463780e9d6360e01b6001600160e01b03620001b516565b8151620000f99060099060208501906200023f565b5080516200010f90600a9060208401906200023f565b506200012b635b5e139f60e01b6001600160e01b03620001b516565b505050506000620001416200023a60201b60201c565b600d80546001600160a01b0319166001600160a01b038316908117909155604051919250906000907f8be0079c531659141344cd1fd0a4f28419497f9722a3daafe3b4186f6b6457e0908290a350601280546001600160a01b0319166001600160a01b0392909216919091179055620002e1565b6001600160e01b0319808216141562000215576040805162461bcd60e51b815260206004820152601c60248201527f4552433136353a20696e76616c696420696e7465726661636520696400000000604482015290519081900360640190fd5b6001600160e01b0319166000908152602081905260409020805460ff19166001179055565b335b90565b828054600181600116156101000203166002900490600052602060002090601f016020900481019282601f106200028257805160ff1916838001178555620002b2565b82800160010185558215620002b2579182015b82811115620002b257825182559160200191906001019062000295565b50620002c0929150620002c4565b5090565b6200023c91905b80821115620002c05760008155600101620002cb565b61222680620002f16000396000f3fe608060405234801561001057600080fd5b50600436106101da5760003560e01c806370a0823111610104578063c095b237116100a2578063e985e9c511610071578063e985e9c5146105d2578063f2fde38b14610600578063f477957b14610626578063fca3b5aa1461064c576101da565b8063c095b23714610588578063c87b56dd14610590578063cac25c33146105ad578063d547cfb7146105ca576101da565b80638f32d59b116100de5780638f32d59b1461048457806395d89b411461048c578063a22cb46514610494578063b88d4fde146104c2576101da565b806370a082311461044e578063715018a6146104745780638da5cb5b1461047c576101da565b806323b872dd1161017c57806342842e0e1161014b57806342842e0e146103d65780634f6ccce71461040c5780636352211e146104295780636c0360eb14610446576101da565b806323b872dd146103465780632ecda3391461037c5780632f745c59146103a25780634078b02c146103ce576101da565b8063081812fc116101b8578063081812fc146102bb578063095ea7b3146102d857806318160ddd146103065780631fb33b0614610320576101da565b806301ffc9a7146101df57806306fdde031461021a5780630754617214610297575b600080fd5b610206600480360360208110156101f557600080fd5b50356001600160e01b031916610672565b604080519115158252519081900360200190f35b610222610695565b6040805160208082528351818301528351919283929083019185019080838360005b8381101561025c578181015183820152602001610244565b50505050905090810190601f1680156102895780820380516001836020036101000a031916815260200191505b509250505060405180910390f35b61029f61072c565b604080516001600160a01b039092168252519081900360200190f35b61029f600480360360208110156102d157600080fd5b503561073b565b610304600480360360408110156102ee57600080fd5b506001600160a01b03813516906020013561079d565b005b61030e6108c5565b60408051918252519081900360200190f35b6103046004803603602081101561033657600080fd5b50356001600160a01b03166108cb565b6103046004803603606081101561035c57600080fd5b506001600160a01b038135811691602081013590911690604001356109a7565b6103046004803603602081101561039257600080fd5b50356001600160a01b0316610a03565b61030e600480360360408110156103b857600080fd5b506001600160a01b038135169060200135610ad3565b61030e610b52565b610304600480360360608110156103ec57600080fd5b506001600160a01b03813581169160208101359091169060400135610b58565b61030e6004803603602081101561042257600080fd5b5035610b73565b61029f6004803603602081101561043f57600080fd5b5035610bd9565b610222610c33565b61030e6004803603602081101561046457600080fd5b50356001600160a01b0316610c94565b610304610cfc565b61029f610d8d565b610206610d9c565b610222610dc2565b610304600480360360408110156104aa57600080fd5b506001600160a01b0381351690602001351515610e23565b610304600480360360808110156104d857600080fd5b6001600160a01b0382358116926020810135909116916040820135919081019060808101606082013564010000000081111561051357600080fd5b82018360208201111561052557600080fd5b8035906020019184600183028401116401000000008311171561054757600080fd5b91908080601f016020809104026020016040519081016040528093929190818152602001838380828437600092019190915250929550610f28945050505050565b610206610f86565b610222600480360360208110156105a657600080fd5b5035610fa6565b610304600480360360208110156105c357600080fd5b5035610fc1565b61022261104d565b610206600480360360408110156105e857600080fd5b506001600160a01b0381358116916020013516611084565b6103046004803603602081101561061657600080fd5b50356001600160a01b03166110b2565b6103046004803603602081101561063c57600080fd5b50356001600160a01b0316611105565b6103046004803603602081101561066257600080fd5b50356001600160a01b03166111d5565b6001600160e01b0319811660009081526020819052604090205460ff165b919050565b60098054604080516020601f60026000196101006001881615020190951694909404938401819004810282018101909252828152606093909290918301828280156107215780601f106106f657610100808354040283529160200191610721565b820191906000526020600020905b81548152906001019060200180831161070457829003601f168201915b505050505090505b90565b6012546001600160a01b031681565b60006107468261123e565b6107815760405162461bcd60e51b815260040180806020018281038252602c8152602001806120ff602c913960400191505060405180910390fd5b506000908152600260205260409020546001600160a01b031690565b60006107a882610bd9565b9050806001600160a01b0316836001600160a01b031614156107fb5760405162461bcd60e51b81526004018080602001828103825260218152602001806121746021913960400191505060405180910390fd5b806001600160a01b031661080d61125b565b6001600160a01b0316148061082e575061082e8161082961125b565b611084565b6108695760405162461bcd60e51b81526004018080602001828103825260388152602001806120516038913960400191505060405180910390fd5b60008281526002602052604080822080546001600160a01b0319166001600160a01b0387811691821790925591518593918516917f8c5be1e5ebec7d5bd14f71427d1e84f3dd0314c0f7b2291e5b200ac8c7c3b92591a4505050565b60075490565b6012546001600160a01b03163314610917576040805162461bcd60e51b815260206004820152600a6024820152693737ba1036b4b73a32b960b11b604482015290519081900360640190fd5b60115461093360016109276108c5565b9063ffffffff61125f16565b1115610977576040805162461bcd60e51b815260206004820152600e60248201526d27379036b7b932903837b5b2b91760911b604482015290519081900360640190fd5b600e5460009061098e90600163ffffffff61125f16565b905061099a82826112c0565b5050600e80546001019055565b6109b86109b261125b565b826112e1565b6109f35760405162461bcd60e51b81526004018080602001828103825260318152602001806121956031913960400191505060405180910390fd5b6109fe838383611385565b505050565b6012546001600160a01b03163314610a4f576040805162461bcd60e51b815260206004820152600a6024820152693737ba1036b4b73a32b960b11b604482015290519081900360640190fd5b601154610a5f60016109276108c5565b1115610aa3576040805162461bcd60e51b815260206004820152600e60248201526d27379036b7b932903837b5b2b91760911b604482015290519081900360640190fd5b600f54600090610aba90600163ffffffff61125f16565b9050610ac682826112c0565b5050600f80546001019055565b6000610ade83610c94565b8210610b1b5760405162461bcd60e51b815260040180806020018281038252602b815260200180611f7e602b913960400191505060405180910390fd5b6001600160a01b0383166000908152600560205260409020805483908110610b3f57fe5b9060005260206000200154905092915050565b60115481565b6109fe83838360405180602001604052806000815250610f28565b6000610b7d6108c5565b8210610bba5760405162461bcd60e51b815260040180806020018281038252602c8152602001806121c6602c913960400191505060405180910390fd5b60078281548110610bc757fe5b90600052602060002001549050919050565b6000818152600160205260408120546001600160a01b031680610c2d5760405162461bcd60e51b81526004018080602001828103825260298152602001806120d66029913960400191505060405180910390fd5b92915050565b600b8054604080516020601f60026000196101006001881615020190951694909404938401819004810282018101909252828152606093909290918301828280156107215780601f106106f657610100808354040283529160200191610721565b60006001600160a01b038216610cdb5760405162461bcd60e51b815260040180806020018281038252602a8152602001806120ac602a913960400191505060405180910390fd5b6001600160a01b0382166000908152600360205260409020610c2d906113a4565b610d04610d9c565b610d43576040805162461bcd60e51b8152602060048201819052602482015260008051602061212b833981519152604482015290519081900360640190fd5b600d546040516000916001600160a01b0316907f8be0079c531659141344cd1fd0a4f28419497f9722a3daafe3b4186f6b6457e0908390a3600d80546001600160a01b0319169055565b600d546001600160a01b031690565b600d546000906001600160a01b0316610db361125b565b6001600160a01b031614905090565b600a8054604080516020601f60026000196101006001881615020190951694909404938401819004810282018101909252828152606093909290918301828280156107215780601f106106f657610100808354040283529160200191610721565b610e2b61125b565b6001600160a01b0316826001600160a01b03161415610e91576040805162461bcd60e51b815260206004820152601960248201527f4552433732313a20617070726f766520746f2063616c6c657200000000000000604482015290519081900360640190fd5b8060046000610e9e61125b565b6001600160a01b03908116825260208083019390935260409182016000908120918716808252919093529120805460ff191692151592909217909155610ee261125b565b60408051841515815290516001600160a01b0392909216917f17307eab39ab6107e8899845ad3d59bd9653f200f220920489ca2b5937696c319181900360200190a35050565b610f39610f3361125b565b836112e1565b610f745760405162461bcd60e51b81526004018080602001828103825260318152602001806121956031913960400191505060405180910390fd5b610f80848484846113a8565b50505050565b6000601154610f936108c5565b10610fa057506001610729565b50600090565b6060610c2d610fb361104d565b610fbc846113fa565b6114bb565b610fc9610d9c565b611008576040805162461bcd60e51b8152602060048201819052602482015260008051602061212b833981519152604482015290519081900360640190fd5b60115481116110485760405162461bcd60e51b81526004018080602001828103825260238152602001806120896023913960400191505060405180910390fd5b601155565b60408051808201909152601f81527f687474703a2f2f7370656369616c706f6b65722e78706c616e65742e696f2f00602082015290565b6001600160a01b03918216600090815260046020908152604080832093909416825291909152205460ff1690565b6110ba610d9c565b6110f9576040805162461bcd60e51b8152602060048201819052602482015260008051602061212b833981519152604482015290519081900360640190fd5b611102816114f7565b50565b6012546001600160a01b03163314611151576040805162461bcd60e51b815260206004820152600a6024820152693737ba1036b4b73a32b960b11b604482015290519081900360640190fd5b60115461116160016109276108c5565b11156111a5576040805162461bcd60e51b815260206004820152600e60248201526d27379036b7b932903837b5b2b91760911b604482015290519081900360640190fd5b6010546000906111bc90600163ffffffff61125f16565b90506111c882826112c0565b5050601080546001019055565b6111dd610d9c565b61121c576040805162461bcd60e51b8152602060048201819052602482015260008051602061212b833981519152604482015290519081900360640190fd5b601280546001600160a01b0319166001600160a01b0392909216919091179055565b6000908152600160205260409020546001600160a01b0316151590565b3390565b6000828201838110156112b9576040805162461bcd60e51b815260206004820152601b60248201527f536166654d6174683a206164646974696f6e206f766572666c6f770000000000604482015290519081900360640190fd5b9392505050565b6112ca8282611598565b6112d482826116c9565b6112dd81611707565b5050565b60006112ec8261123e565b6113275760405162461bcd60e51b815260040180806020018281038252602c815260200180612025602c913960400191505060405180910390fd5b600061133283610bd9565b9050806001600160a01b0316846001600160a01b0316148061136d5750836001600160a01b03166113628461073b565b6001600160a01b0316145b8061137d575061137d8185611084565b949350505050565b61139083838361174b565b61139a838261188f565b6109fe82826116c9565b5490565b6113b3848484611385565b6113bf84848484611984565b610f805760405162461bcd60e51b8152600401808060200182810382526032815260200180611fa96032913960400191505060405180910390fd5b60608161141f57506040805180820190915260018152600360fc1b6020820152610690565b8160005b811561143757600101600a82049150611423565b6060816040519080825280601f01601f191660200182016040528015611464576020820181803883390190505b50905060001982015b85156114b257600a860660300160f81b8282806001900393508151811061149057fe5b60200101906001600160f81b031916908160001a905350600a8604955061146d565b50949350505050565b60606112b98383604051806020016040528060008152506040518060200160405280600081525060405180602001604052806000815250611bbf565b6001600160a01b03811661153c5760405162461bcd60e51b8152600401808060200182810382526026815260200180611fdb6026913960400191505060405180910390fd5b600d546040516001600160a01b038084169216907f8be0079c531659141344cd1fd0a4f28419497f9722a3daafe3b4186f6b6457e090600090a3600d80546001600160a01b0319166001600160a01b0392909216919091179055565b6001600160a01b0382166115f3576040805162461bcd60e51b815260206004820181905260248201527f4552433732313a206d696e7420746f20746865207a65726f2061646472657373604482015290519081900360640190fd5b6115fc8161123e565b1561164e576040805162461bcd60e51b815260206004820152601c60248201527f4552433732313a20746f6b656e20616c7265616479206d696e74656400000000604482015290519081900360640190fd5b600081815260016020908152604080832080546001600160a01b0319166001600160a01b03871690811790915583526003909152902061168d90611dd3565b60405181906001600160a01b038416906000907fddf252ad1be2c89b69c2b068fc378daa952ba7f163c4a11628f55a4df523b3ef908290a45050565b6001600160a01b0390911660009081526005602081815260408084208054868652600684529185208290559282526001810183559183529091200155565b600780546000838152600860205260408120829055600182018355919091527fa66cc928b5edb82af9bd49922954155ab7b0942694bea4ce44661d9a8736c6880155565b826001600160a01b031661175e82610bd9565b6001600160a01b0316146117a35760405162461bcd60e51b815260040180806020018281038252602981526020018061214b6029913960400191505060405180910390fd5b6001600160a01b0382166117e85760405162461bcd60e51b81526004018080602001828103825260248152602001806120016024913960400191505060405180910390fd5b6117f181611ddc565b6001600160a01b038316600090815260036020526040902061181290611e17565b6001600160a01b038216600090815260036020526040902061183390611dd3565b60008181526001602052604080822080546001600160a01b0319166001600160a01b0386811691821790925591518493918716917fddf252ad1be2c89b69c2b068fc378daa952ba7f163c4a11628f55a4df523b3ef91a4505050565b6001600160a01b0382166000908152600560205260408120546118b990600163ffffffff611e2e16565b600083815260066020526040902054909150808214611954576001600160a01b03841660009081526005602052604081208054849081106118f657fe5b906000526020600020015490508060056000876001600160a01b03166001600160a01b03168152602001908152602001600020838154811061193457fe5b600091825260208083209091019290925591825260069052604090208190555b6001600160a01b038416600090815260056020526040902080549061197d906000198301611f40565b5050505050565b6000611998846001600160a01b0316611e70565b6119a45750600161137d565b600060606001600160a01b038616630a85bd0160e11b6119c261125b565b89888860405160240180856001600160a01b03166001600160a01b03168152602001846001600160a01b03166001600160a01b0316815260200183815260200180602001828103825283818151815260200191508051906020019080838360005b83811015611a3b578181015183820152602001611a23565b50505050905090810190601f168015611a685780820380516001836020036101000a031916815260200191505b5060408051601f198184030181529181526020820180516001600160e01b03166001600160e01b0319909a16999099178952518151919890975087965094509250829150849050835b60208310611ad05780518252601f199092019160209182019101611ab1565b6001836020036101000a0380198251168184511680821785525050505050509050019150506000604051808303816000865af19150503d8060008114611b32576040519150601f19603f3d011682016040523d82523d6000602084013e611b37565b606091505b509150915081611b8857805115611b515780518082602001fd5b60405162461bcd60e51b8152600401808060200182810382526032815260200180611fa96032913960400191505060405180910390fd5b6000818060200190516020811015611b9f57600080fd5b50516001600160e01b031916630a85bd0160e11b14935061137d92505050565b6060808690506060869050606086905060608690506060869050606081518351855187518951010101016040519080825280601f01601f191660200182016040528015611c13576020820181803883390190505b509050806000805b8851811015611c6c57888181518110611c3057fe5b602001015160f81c60f81b838380600101945081518110611c4d57fe5b60200101906001600160f81b031916908160001a905350600101611c1b565b5060005b8751811015611cc157878181518110611c8557fe5b602001015160f81c60f81b838380600101945081518110611ca257fe5b60200101906001600160f81b031916908160001a905350600101611c70565b5060005b8651811015611d1657868181518110611cda57fe5b602001015160f81c60f81b838380600101945081518110611cf757fe5b60200101906001600160f81b031916908160001a905350600101611cc5565b5060005b8551811015611d6b57858181518110611d2f57fe5b602001015160f81c60f81b838380600101945081518110611d4c57fe5b60200101906001600160f81b031916908160001a905350600101611d1a565b5060005b8451811015611dc057848181518110611d8457fe5b602001015160f81c60f81b838380600101945081518110611da157fe5b60200101906001600160f81b031916908160001a905350600101611d6f565b50909d9c50505050505050505050505050565b80546001019055565b6000818152600260205260409020546001600160a01b03161561110257600090815260026020526040902080546001600160a01b0319169055565b8054611e2a90600163ffffffff611e2e16565b9055565b60006112b983836040518060400160405280601e81526020017f536166654d6174683a207375627472616374696f6e206f766572666c6f770000815250611ea9565b6000813f7fc5d2460186f7233c927e7db2dcc703c0e500b653ca82273b7bfad8045d85a47081811480159061137d575050151592915050565b60008184841115611f385760405162461bcd60e51b81526004018080602001828103825283818151815260200191508051906020019080838360005b83811015611efd578181015183820152602001611ee5565b50505050905090810190601f168015611f2a5780820380516001836020036101000a031916815260200191505b509250505060405180910390fd5b505050900390565b8154818355818111156109fe576000838152602090206109fe91810190830161072991905b80821115611f795760008155600101611f65565b509056fe455243373231456e756d657261626c653a206f776e657220696e646578206f7574206f6620626f756e64734552433732313a207472616e7366657220746f206e6f6e20455243373231526563656976657220696d706c656d656e7465724f776e61626c653a206e6577206f776e657220697320746865207a65726f20616464726573734552433732313a207472616e7366657220746f20746865207a65726f20616464726573734552433732313a206f70657261746f7220717565727920666f72206e6f6e6578697374656e7420746f6b656e4552433732313a20617070726f76652063616c6c6572206973206e6f74206f776e6572206e6f7220617070726f76656420666f7220616c6c4e6f74207072656d697474656420746f2073657420736d616c6c657220636f756e742e4552433732313a2062616c616e636520717565727920666f7220746865207a65726f20616464726573734552433732313a206f776e657220717565727920666f72206e6f6e6578697374656e7420746f6b656e4552433732313a20617070726f76656420717565727920666f72206e6f6e6578697374656e7420746f6b656e4f776e61626c653a2063616c6c6572206973206e6f7420746865206f776e65724552433732313a207472616e73666572206f6620746f6b656e2074686174206973206e6f74206f776e4552433732313a20617070726f76616c20746f2063757272656e74206f776e65724552433732313a207472616e736665722063616c6c6572206973206e6f74206f776e6572206e6f7220617070726f766564455243373231456e756d657261626c653a20676c6f62616c20696e646578206f7574206f6620626f756e6473a265627a7a723158207c31b11403b732aeab47afc5a1290b02f6e293ee1cd52a674a07266acdfe86e564736f6c63430005100032",
  "source": "pragma solidity ^0.5.0;\r\n\r\nimport \"openzeppelin-solidity/contracts/token/ERC721/ERC721Full.sol\";\r\nimport \"openzeppelin-solidity/contracts/ownership/Ownable.sol\";\r\nimport \"./Strings.sol\";\r\nimport \"./interfaces/IERC20.sol\";\r\nimport \"./interfaces/IERCMint721.sol\";\r\n\r\ncontract xPokerSpecial is ERC721Full, Ownable, IERCMint721 {\r\n    using Strings for string;\r\n    uint256 private _currentGoldId = 0;\r\n    uint256 private _currentSilverId = 100000;\r\n    uint256 private _currentCopperId = 200000;\r\n    uint public maxCardNum = 2000;\r\n    address public minter;\r\n\r\n    modifier onlyMinter {\r\n        require(msg.sender == minter,\"not minter\");\r\n        _;\r\n    }\r\n\r\n    constructor(\r\n        address _minter\r\n    ) public ERC721Full(\"XPOKERSPECIAL\", \"XPS\") {\r\n        minter = _minter;\r\n    }\r\n\r\n    function setTotalCards(uint _count) public onlyOwner {\r\n        require(_count>maxCardNum, \"Not premitted to set smaller count.\");\r\n        maxCardNum = _count;\r\n    }\r\n\r\n    function setMinter(address _minter) public onlyOwner {\r\n        minter = _minter;\r\n    }\r\n\r\n    function mintGold(address _to) onlyMinter public {\r\n        require(totalSupply().add(1)<=maxCardNum, \"No more poker.\");\r\n        uint256 newTokenId = _currentGoldId.add(1);\r\n        _mint(_to, newTokenId);\r\n        _currentGoldId++;\r\n    }\r\n\r\n    function mintSilver(address _to) onlyMinter public {\r\n        require(totalSupply().add(1)<=maxCardNum, \"No more poker.\");\r\n        uint256 newTokenId = _currentSilverId.add(1);\r\n        _mint(_to, newTokenId);\r\n        _currentSilverId++;\r\n    }\r\n\r\n    function mintCopper(address _to) onlyMinter public {\r\n        require(totalSupply().add(1)<=maxCardNum, \"No more poker.\");\r\n        uint256 newTokenId = _currentCopperId.add(1);\r\n        _mint(_to, newTokenId);\r\n        _currentCopperId++;\r\n    }\r\n\r\n    function baseTokenURI() public pure returns (string memory) {\r\n        return \"http://specialpoker.xplanet.io/\";\r\n    }\r\n\r\n    function tokenURI(uint256 _tokenId) external view returns (string memory) {\r\n        return Strings.strConcat(baseTokenURI(), Strings.uint2str(_tokenId));\r\n    }\r\n\r\n    function ifMintEnd() external view returns (bool){\r\n        if (totalSupply() >= maxCardNum) {\r\n            return true;\r\n        }\r\n        return false;\r\n    }\r\n\r\n}\r\n\r\n",
  "sourcePath": "E:/codingproject/xkey/contracts/xPokerSpecial.sol",
  "compiler": {
    "name": "solc",
    "version": "0.5.16+commit.9c3226ce.Emscripten.clang"
  },
  "schemaVersion": "3.4.0",
  "updatedAt": "2021-06-15T09:25:31.387Z",
  "devdoc": {
    "methods": {
      "approve(address,uint256)": {
        "details": "Approves another address to transfer the given token ID The zero address indicates there is no approved address. There can only be one approved address per token at a given time. Can only be called by the token owner or an approved operator.",
        "params": {
          "to": "address to be approved for the given token ID",
          "tokenId": "uint256 ID of the token to be approved"
        }
      },
      "balanceOf(address)": {
        "details": "Gets the balance of the specified address.",
        "params": {
          "owner": "address to query the balance of"
        },
        "return": "uint256 representing the amount owned by the passed address"
      },
      "baseURI()": {
        "details": "Returns the base URI set via {_setBaseURI}. This will be automatically added as a preffix in {tokenURI} to each token's URI, when they are non-empty.    * _Available since v2.5.0._"
      },
      "getApproved(uint256)": {
        "details": "Gets the approved address for a token ID, or zero if no address set Reverts if the token ID does not exist.",
        "params": {
          "tokenId": "uint256 ID of the token to query the approval of"
        },
        "return": "address currently approved for the given token ID"
      },
      "isApprovedForAll(address,address)": {
        "details": "Tells whether an operator is approved by a given owner.",
        "params": {
          "operator": "operator address which you want to query the approval of",
          "owner": "owner address which you want to query the approval of"
        },
        "return": "bool whether the given operator is approved by the given owner"
      },
      "isOwner()": {
        "details": "Returns true if the caller is the current owner."
      },
      "name()": {
        "details": "Gets the token name.",
        "return": "string representing the token name"
      },
      "owner()": {
        "details": "Returns the address of the current owner."
      },
      "ownerOf(uint256)": {
        "details": "Gets the owner of the specified token ID.",
        "params": {
          "tokenId": "uint256 ID of the token to query the owner of"
        },
        "return": "address currently marked as the owner of the given token ID"
      },
      "renounceOwnership()": {
        "details": "Leaves the contract without owner. It will not be possible to call `onlyOwner` functions anymore. Can only be called by the current owner.     * NOTE: Renouncing ownership will leave the contract without an owner, thereby removing any functionality that is only available to the owner."
      },
      "safeTransferFrom(address,address,uint256)": {
        "details": "Safely transfers the ownership of a given token ID to another address If the target address is a contract, it must implement {IERC721Receiver-onERC721Received}, which is called upon a safe transfer, and return the magic value `bytes4(keccak256(\"onERC721Received(address,address,uint256,bytes)\"))`; otherwise, the transfer is reverted. Requires the msg.sender to be the owner, approved, or operator",
        "params": {
          "from": "current owner of the token",
          "to": "address to receive the ownership of the given token ID",
          "tokenId": "uint256 ID of the token to be transferred"
        }
      },
      "safeTransferFrom(address,address,uint256,bytes)": {
        "details": "Safely transfers the ownership of a given token ID to another address If the target address is a contract, it must implement {IERC721Receiver-onERC721Received}, which is called upon a safe transfer, and return the magic value `bytes4(keccak256(\"onERC721Received(address,address,uint256,bytes)\"))`; otherwise, the transfer is reverted. Requires the _msgSender() to be the owner, approved, or operator",
        "params": {
          "_data": "bytes data to send along with a safe transfer check",
          "from": "current owner of the token",
          "to": "address to receive the ownership of the given token ID",
          "tokenId": "uint256 ID of the token to be transferred"
        }
      },
      "setApprovalForAll(address,bool)": {
        "details": "Sets or unsets the approval of a given operator An operator is allowed to transfer all tokens of the sender on their behalf.",
        "params": {
          "approved": "representing the status of the approval to be set",
          "to": "operator address to set the approval"
        }
      },
      "supportsInterface(bytes4)": {
        "details": "See {IERC165-supportsInterface}.     * Time complexity O(1), guaranteed to always use less than 30 000 gas."
      },
      "symbol()": {
        "details": "Gets the token symbol.",
        "return": "string representing the token symbol"
      },
      "tokenByIndex(uint256)": {
        "details": "Gets the token ID at a given index of all the tokens in this contract Reverts if the index is greater or equal to the total number of tokens.",
        "params": {
          "index": "uint256 representing the index to be accessed of the tokens list"
        },
        "return": "uint256 token ID at the given index of the tokens list"
      },
      "tokenOfOwnerByIndex(address,uint256)": {
        "details": "Gets the token ID at a given index of the tokens list of the requested owner.",
        "params": {
          "index": "uint256 representing the index to be accessed of the requested tokens list",
          "owner": "address owning the tokens list to be accessed"
        },
        "return": "uint256 token ID at the given index of the tokens list owned by the requested address"
      },
      "totalSupply()": {
        "details": "Gets the total amount of tokens stored by the contract.",
        "return": "uint256 representing the total amount of tokens"
      },
      "transferFrom(address,address,uint256)": {
        "details": "Transfers the ownership of a given token ID to another address. Usage of this method is discouraged, use {safeTransferFrom} whenever possible. Requires the msg.sender to be the owner, approved, or operator.",
        "params": {
          "from": "current owner of the token",
          "to": "address to receive the ownership of the given token ID",
          "tokenId": "uint256 ID of the token to be transferred"
        }
      },
      "transferOwnership(address)": {
        "details": "Transfers ownership of the contract to a new account (`newOwner`). Can only be called by the current owner."
      }
    }
  },
  "userdoc": {
    "methods": {}
  }
}