{
  "contractName": "XPokerPower",
  "abi": [
    {
      "inputs": [
        {
          "internalType": "contract ISwapLPNFT",
          "name": "_xpoker",
          "type": "address"
        }
      ],
      "payable": false,
      "stateMutability": "nonpayable",
      "type": "constructor"
    },
    {
      "anonymous": false,
      "inputs": [
        {
          "indexed": true,
          "internalType": "address",
          "name": "previousOwner",
          "type": "address"
        },
        {
          "indexed": true,
          "internalType": "address",
          "name": "newOwner",
          "type": "address"
        }
      ],
      "name": "OwnershipTransferred",
      "type": "event"
    },
    {
      "constant": true,
      "inputs": [
        {
          "internalType": "address",
          "name": "",
          "type": "address"
        }
      ],
      "name": "compositeLength",
      "outputs": [
        {
          "internalType": "uint256",
          "name": "",
          "type": "uint256"
        }
      ],
      "payable": false,
      "stateMutability": "view",
      "type": "function"
    },
    {
      "constant": true,
      "inputs": [
        {
          "internalType": "address",
          "name": "",
          "type": "address"
        },
        {
          "internalType": "uint256",
          "name": "",
          "type": "uint256"
        }
      ],
      "name": "compositePokers",
      "outputs": [
        {
          "internalType": "uint256",
          "name": "power",
          "type": "uint256"
        }
      ],
      "payable": false,
      "stateMutability": "view",
      "type": "function"
    },
    {
      "constant": true,
      "inputs": [],
      "name": "isOwner",
      "outputs": [
        {
          "internalType": "bool",
          "name": "",
          "type": "bool"
        }
      ],
      "payable": false,
      "stateMutability": "view",
      "type": "function"
    },
    {
      "constant": true,
      "inputs": [],
      "name": "owner",
      "outputs": [
        {
          "internalType": "address",
          "name": "",
          "type": "address"
        }
      ],
      "payable": false,
      "stateMutability": "view",
      "type": "function"
    },
    {
      "constant": false,
      "inputs": [],
      "name": "renounceOwnership",
      "outputs": [],
      "payable": false,
      "stateMutability": "nonpayable",
      "type": "function"
    },
    {
      "constant": true,
      "inputs": [
        {
          "internalType": "address",
          "name": "",
          "type": "address"
        }
      ],
      "name": "singleLength",
      "outputs": [
        {
          "internalType": "uint256",
          "name": "",
          "type": "uint256"
        }
      ],
      "payable": false,
      "stateMutability": "view",
      "type": "function"
    },
    {
      "constant": true,
      "inputs": [
        {
          "internalType": "address",
          "name": "",
          "type": "address"
        },
        {
          "internalType": "uint256",
          "name": "",
          "type": "uint256"
        }
      ],
      "name": "singlePokerPower",
      "outputs": [
        {
          "internalType": "uint256",
          "name": "tokenId",
          "type": "uint256"
        },
        {
          "internalType": "uint256",
          "name": "power",
          "type": "uint256"
        }
      ],
      "payable": false,
      "stateMutability": "view",
      "type": "function"
    },
    {
      "constant": true,
      "inputs": [
        {
          "internalType": "address",
          "name": "",
          "type": "address"
        }
      ],
      "name": "swapTokenAllLiquid",
      "outputs": [
        {
          "internalType": "uint256",
          "name": "",
          "type": "uint256"
        }
      ],
      "payable": false,
      "stateMutability": "view",
      "type": "function"
    },
    {
      "constant": true,
      "inputs": [
        {
          "internalType": "address",
          "name": "",
          "type": "address"
        }
      ],
      "name": "swapTokenCompositeLength",
      "outputs": [
        {
          "internalType": "uint256",
          "name": "",
          "type": "uint256"
        }
      ],
      "payable": false,
      "stateMutability": "view",
      "type": "function"
    },
    {
      "constant": true,
      "inputs": [
        {
          "internalType": "address",
          "name": "",
          "type": "address"
        }
      ],
      "name": "swapTokenSingleLength",
      "outputs": [
        {
          "internalType": "uint256",
          "name": "",
          "type": "uint256"
        }
      ],
      "payable": false,
      "stateMutability": "view",
      "type": "function"
    },
    {
      "constant": false,
      "inputs": [
        {
          "internalType": "address",
          "name": "newOwner",
          "type": "address"
        }
      ],
      "name": "transferOwnership",
      "outputs": [],
      "payable": false,
      "stateMutability": "nonpayable",
      "type": "function"
    },
    {
      "constant": false,
      "inputs": [
        {
          "internalType": "address",
          "name": "user",
          "type": "address"
        },
        {
          "internalType": "contract IPairERC20",
          "name": "pair",
          "type": "address"
        },
        {
          "internalType": "uint256",
          "name": "tokenId",
          "type": "uint256"
        }
      ],
      "name": "stake",
      "outputs": [
        {
          "internalType": "uint256",
          "name": "",
          "type": "uint256"
        }
      ],
      "payable": false,
      "stateMutability": "nonpayable",
      "type": "function"
    },
    {
      "constant": false,
      "inputs": [
        {
          "internalType": "address",
          "name": "user",
          "type": "address"
        },
        {
          "internalType": "contract IPairERC20",
          "name": "pair",
          "type": "address"
        },
        {
          "internalType": "uint256[5]",
          "name": "tokenIds",
          "type": "uint256[5]"
        }
      ],
      "name": "stakeComposite",
      "outputs": [
        {
          "internalType": "uint256",
          "name": "",
          "type": "uint256"
        }
      ],
      "payable": false,
      "stateMutability": "nonpayable",
      "type": "function"
    },
    {
      "constant": true,
      "inputs": [
        {
          "internalType": "address",
          "name": "user",
          "type": "address"
        },
        {
          "internalType": "uint256",
          "name": "index",
          "type": "uint256"
        }
      ],
      "name": "getTokenIdsByIndex",
      "outputs": [
        {
          "internalType": "uint256[5]",
          "name": "",
          "type": "uint256[5]"
        }
      ],
      "payable": false,
      "stateMutability": "view",
      "type": "function"
    },
    {
      "constant": true,
      "inputs": [
        {
          "internalType": "address",
          "name": "user",
          "type": "address"
        },
        {
          "internalType": "uint256",
          "name": "index",
          "type": "uint256"
        }
      ],
      "name": "getTokenIdByIndex",
      "outputs": [
        {
          "internalType": "uint256",
          "name": "",
          "type": "uint256"
        }
      ],
      "payable": false,
      "stateMutability": "view",
      "type": "function"
    },
    {
      "constant": true,
      "inputs": [
        {
          "internalType": "address",
          "name": "user",
          "type": "address"
        },
        {
          "internalType": "uint256",
          "name": "index",
          "type": "uint256"
        }
      ],
      "name": "getSinglePowerdByIndex",
      "outputs": [
        {
          "internalType": "uint256",
          "name": "",
          "type": "uint256"
        }
      ],
      "payable": false,
      "stateMutability": "view",
      "type": "function"
    },
    {
      "constant": true,
      "inputs": [
        {
          "internalType": "address",
          "name": "user",
          "type": "address"
        },
        {
          "internalType": "uint256",
          "name": "index",
          "type": "uint256"
        }
      ],
      "name": "getCompositePowerdByIndex",
      "outputs": [
        {
          "internalType": "uint256",
          "name": "",
          "type": "uint256"
        }
      ],
      "payable": false,
      "stateMutability": "view",
      "type": "function"
    },
    {
      "constant": false,
      "inputs": [
        {
          "internalType": "address",
          "name": "user",
          "type": "address"
        },
        {
          "internalType": "uint256",
          "name": "tokenId",
          "type": "uint256"
        }
      ],
      "name": "unstake",
      "outputs": [
        {
          "internalType": "uint256",
          "name": "",
          "type": "uint256"
        }
      ],
      "payable": false,
      "stateMutability": "nonpayable",
      "type": "function"
    },
    {
      "constant": false,
      "inputs": [
        {
          "internalType": "address",
          "name": "user",
          "type": "address"
        },
        {
          "internalType": "uint256",
          "name": "index",
          "type": "uint256"
        }
      ],
      "name": "unstakeComposite",
      "outputs": [
        {
          "internalType": "uint256",
          "name": "",
          "type": "uint256"
        }
      ],
      "payable": false,
      "stateMutability": "nonpayable",
      "type": "function"
    }
  ],
  "bytecode": "0x608060405234801561001057600080fd5b506040516121ee3803806121ee8339818101604052602081101561003357600080fd5b505160006100486001600160e01b036100b716565b600080546001600160a01b0319166001600160a01b0383169081178255604051929350917f8be0079c531659141344cd1fd0a4f28419497f9722a3daafe3b4186f6b6457e0908290a350600180546001600160a01b0319166001600160a01b03929092169190911790556100bb565b3390565b612124806100ca6000396000f3fe608060405234801561001057600080fd5b50600436106101515760003560e01c80638da5cb5b116100cd578063c2a672e011610081578063deecf75c11610066578063deecf75c14610434578063ebb741a814610460578063f2fde38b1461048c57610151565b8063c2a672e0146103d3578063d973a2ae146103ff57610151565b8063a6ba2583116100b2578063a6ba25831461034b578063b7a3310814610371578063bf6eac2f1461039d57610151565b80638da5cb5b1461030b5780638f32d59b1461032f57610151565b80633ffd050811610124578063715018a611610109578063715018a6146102775780637a110ca1146102815780638cb64f8e146102e557610151565b80633ffd0508146102255780635a6d16af1461025157610151565b80630812abf7146101565780630c1f0e271461019b5780631bdff5a2146101d357806320341d01146101ff575b600080fd5b6101826004803603604081101561016c57600080fd5b506001600160a01b0381351690602001356104b2565b6040805192835260208301919091528051918290030190f35b6101c1600480360360208110156101b157600080fd5b50356001600160a01b03166104eb565b60408051918252519081900360200190f35b6101c1600480360360408110156101e957600080fd5b506001600160a01b0381351690602001356104fd565b6101c16004803603602081101561021557600080fd5b50356001600160a01b0316610594565b6101c16004803603604081101561023b57600080fd5b506001600160a01b0381351690602001356105a6565b6101c16004803603602081101561026757600080fd5b50356001600160a01b03166105da565b61027f6105ec565b005b6102ad6004803603604081101561029757600080fd5b506001600160a01b03813516906020013561069c565b604051808260a080838360005b838110156102d25781810151838201526020016102ba565b5050505090500191505060405180910390f35b6101c1600480360360208110156102fb57600080fd5b50356001600160a01b0316610764565b610313610776565b604080516001600160a01b039092168252519081900360200190f35b610337610786565b604080519115158252519081900360200190f35b6101c16004803603602081101561036157600080fd5b50356001600160a01b03166107aa565b6101c16004803603604081101561038757600080fd5b506001600160a01b0381351690602001356107bc565b6101c1600480360360608110156103b357600080fd5b506001600160a01b03813581169160208101359091169060400135610852565b6101c1600480360360408110156103e957600080fd5b506001600160a01b038135169060200135610bea565b6101c1600480360360e081101561041557600080fd5b506001600160a01b038135811691602081013590911690604001610fd6565b6101c16004803603604081101561044a57600080fd5b506001600160a01b0381351690602001356117b6565b6101c16004803603604081101561047657600080fd5b506001600160a01b038135169060200135611b62565b61027f600480360360208110156104a257600080fd5b50356001600160a01b0316611bf8565b600260205281600052604060002081815481106104cb57fe5b600091825260209091206002909102018054600190910154909250905082565b60086020526000908152604090205481565b6001600160a01b0382166000908152600460205260408120548083106105545760405162461bcd60e51b81526004018080602001828103825260218152602001806120cf6021913960400191505060405180910390fd5b6001600160a01b038416600090815260026020526040902080548490811061057857fe5b9060005260206000209060020201600001549150505b92915050565b60056020526000908152604090205481565b600360205281600052604060002081815481106105bf57fe5b60009182526020909120600560069092020101549150829050565b60046020526000908152604090205481565b6105f4610786565b610645576040805162461bcd60e51b815260206004820181905260248201527f4f776e61626c653a2063616c6c6572206973206e6f7420746865206f776e6572604482015290519081900360640190fd5b600080546040516001600160a01b03909116907f8be0079c531659141344cd1fd0a4f28419497f9722a3daafe3b4186f6b6457e0908390a36000805473ffffffffffffffffffffffffffffffffffffffff19169055565b6106a4611ea1565b6001600160a01b0383166000908152600560205260409020548083106106fb5760405162461bcd60e51b8152600401808060200182810382526022815260200180611fd06022913960400191505060405180910390fd5b6001600160a01b038416600090815260036020526040902080548490811061071f57fe5b600091825260209091206040805160a0810191829052926006029091019060059082845b81548152602001906001019080831161074357505050505091505092915050565b60066020526000908152604090205481565b6000546001600160a01b03165b90565b600080546001600160a01b031661079b611c5d565b6001600160a01b031614905090565b60076020526000908152604090205481565b6001600160a01b0382166000908152600460205260408120548083106108135760405162461bcd60e51b81526004018080602001828103825260268152602001806120626026913960400191505060405180910390fd5b6001600160a01b038416600090815260026020526040902080548490811061083757fe5b90600052602060002090600202016001015491505092915050565b600061085c610786565b6108ad576040805162461bcd60e51b815260206004820181905260248201527f4f776e61626c653a2063616c6c6572206973206e6f7420746865206f776e6572604482015290519081900360640190fd5b600154604080517f14600ef700000000000000000000000000000000000000000000000000000000815260048101859052815160009384936001600160a01b03909116926314600ef79260248083019392829003018186803b15801561091257600080fd5b505afa158015610926573d6000803e3d6000fd5b505050506040513d604081101561093c57600080fd5b508051602091820151604080517f9cc7f70800000000000000000000000000000000000000000000000000000000815260048101899052905192955090935060009283926001600160a01b038a1692639cc7f708926024808301939192829003018186803b1580156109ad57600080fd5b505afa1580156109c1573d6000803e3d6000fd5b505050506040513d60208110156109d757600080fd5b50516001600160a01b038816600090815260086020526040902054909150610a05908263ffffffff611c6116565b6001600160a01b038816600090815260086020526040902055610a2e838263ffffffff611cc216565b915060008211610a85576040805162461bcd60e51b815260206004820152601260248201527f7374616b653a207a65726f20706f7765722e0000000000000000000000000000604482015290519081900360640190fd5b6001600160a01b0388166000908152600260209081526040808320546004909252909120541015610b39576001600160a01b03881660009081526002602090815260408083206004909252909120548154889291908110610ae257fe5b60009182526020808320600292830201939093556001600160a01b038b1682528252604080822060049093529020548154849291908110610b1f57fe5b906000526020600020906002020160010181905550610b83565b610b41611ebf565b86815260208082018481526001600160a01b038b1660009081526002808452604082208054600181810183559184529490922094519302909301918255519101555b6001600160a01b03808916600090815260046020908152604080832080546001908101909155938b1683526006909152902054610bc59163ffffffff611c6116565b6001600160a01b03881660009081526006602052604090205550925050509392505050565b6000610bf4610786565b610c45576040805162461bcd60e51b815260206004820181905260248201527f4f776e61626c653a2063616c6c6572206973206e6f7420746865206f776e6572604482015290519081900360640190fd5b6001600160a01b0383166000908152600260209081526040808320805482518185028101850190935280835260609492939192909184015b82821015610cc357838290600052602060002090600202016040518060400160405290816000820154815260200160018201548152505081526020019060010190610c7d565b5050506001600160a01b038087166000908152600460208181526040808420546001548251632f7ce47360e21b81529485018c90529151979850969395508594169263bdf391cc926024808201939291829003018186803b158015610d2757600080fd5b505afa158015610d3b573d6000803e3d6000fd5b505050506040513d6020811015610d5157600080fd5b5051905060005b83811015610ec45786858281518110610d6d57fe5b6020026020010151600001511415610ebc57848181518110610d8b57fe5b602002602001015160200151925060026000896001600160a01b03166001600160a01b031681526020019081526020016000206001850381548110610dcc57fe5b9060005260206000209060020201600260008a6001600160a01b03166001600160a01b031681526020019081526020016000208281548110610e0a57fe5b600091825260208083208454600290930201918255600193840154918401919091556001600160a01b03808c168352600482526040808420805460001901905590861683526006909152902054610e669163ffffffff611d1b16565b6001600160a01b03808416600090815260066020908152604080832094909455918b16815260029091522080546000198601908110610ea157fe5b60009182526020822060029091020181815560010155610ec4565b600101610d58565b5060008211610f1a576040805162461bcd60e51b815260206004820152601760248201527f756e7374616b653a20696e76616c696420706f7765722e000000000000000000604482015290519081900360640190fd5b610fb2816001600160a01b0316639cc7f708886040518263ffffffff1660e01b81526004018082815260200191505060206040518083038186803b158015610f6157600080fd5b505afa158015610f75573d6000803e3d6000fd5b505050506040513d6020811015610f8b57600080fd5b50516001600160a01b0383166000908152600860205260409020549063ffffffff611d1b16565b6001600160a01b039091166000908152600860205260409020559250505092915050565b6000610fe0610786565b611031576040805162461bcd60e51b815260206004820181905260248201527f4f776e61626c653a2063616c6c6572206973206e6f7420746865206f776e6572604482015290519081900360640190fd5b60008061103c611ed9565b6001806000805b60058110156113d857600089826005811061105a57fe5b60200201351161109b5760405162461bcd60e51b81526004018080602001828103825260218152602001806120416021913960400191505060405180910390fd5b6001546001600160a01b03166314600ef78a83600581106110b857fe5b60200201356040518263ffffffff1660e01b815260040180828152602001915050604080518083038186803b1580156110f057600080fd5b505afa158015611104573d6000803e3d6000fd5b505050506040513d604081101561111a57600080fd5b50805160209091015186836005811061112f57fe5b602002015187846005811061114057fe5b6020908102919091015101919091525284816005811061115c57fe5b6020020151602001518701965060008a6001600160a01b0316639cc7f7088b846005811061118657fe5b60200201356040518263ffffffff1660e01b81526004018082815260200191505060206040518083038186803b1580156111bf57600080fd5b505afa1580156111d3573d6000803e3d6000fd5b505050506040513d60208110156111e957600080fd5b50519687019690508115801590611225575085600183036005811061120a57fe5b60200201515186836005811061121c57fe5b60200201515114155b801561122e5750845b1561123857600094505b815b80156113ce5786600182036005811061124f57fe5b60200201516020015187826005811061126457fe5b602002015160200151116113c55786600182036005811061128157fe5b60200201516020015187826005811061129657fe5b602002015160200151141561130a578681600581106112b157fe5b602002015151876000198301600581106112c757fe5b602002015151141561130a5760405162461bcd60e51b81526004018080602001828103825260268152602001806120a96026913960400191505060405180910390fd5b600087600183036005811061131b57fe5b602002015160200151905087826005811061133257fe5b60200201516020015188600184036005811061134a57fe5b602002015160200181815250508088836005811061136457fe5b6020020151602001818152505087600183036005811061138057fe5b602002015151905087826005811061139457fe5b602002015151886000198401600581106113aa57fe5b602002015152808883600581106113bd57fe5b602002015152505b6000190161123a565b5050600101611043565b5060015b60058110156114e0578460018203600581106113f457fe5b60200201516020015185826005811061140957fe5b602002015160200151141561147e57600092508161142a5760019150611479565b816001141561143c5760039150611479565b816002141561144e5760059150611479565b81600314156114605760079150611479565b816005148061146f5750816004145b1561147957600691505b6114d8565b84600182036005811061148d57fe5b6020020151602001516001018582600581106114a557fe5b602002015160200151146114b857600092505b81600114156114ca57600291506114d8565b81600314156114d857600491505b6001016113dc565b50821561152757811561151857835160200151600a14156115095784866103e801029550611513565b84866101c7010295505b611522565b8486610113010295505b6115c9565b806007141561153e57848661018b010295506115c9565b806001148061154d5750806002145b1561155f5784866037010295506115c9565b806003148061156e5750806004145b1561158057848660a5010295506115c9565b8060051415611596578486606e010295506115c9565b80600614156115ad57848661014f010295506115c9565b81156115c057848660d7010295506115c9565b8486600f010295505b6001600160a01b038a16600090815260036020908152604080832054600590925290912054101561168f576001600160a01b038a16600090815260036020908152604080832060059092529091205481548a929190811061162657fe5b6000918252602090912061164292600690920201906005611f06565b506001600160a01b038a166000908152600360209081526040808320600590925290912054815488929190811061167557fe5b906000526020600020906006020160050181905550611717565b611697611f44565b6040805160e08101825290819081018b6005828260a0808284376000920182905250928452505060209182018a90526001600160a01b038e168152600382526040812080546001810180835591835292909120835193945090928492600602909101906117079082906005611f64565b5060208201518160050155505050505b6001600160a01b03808b16600090815260056020908152604080832080546001908101909155938d16835260079091529020546117599163ffffffff611c6116565b6001600160a01b038a1660009081526007602090815260408083209390935560089052205461178e908663ffffffff611c6116565b6001600160a01b038a1660009081526008602052604090205550939450505050509392505050565b60006117c0610786565b611811576040805162461bcd60e51b815260206004820181905260248201527f4f776e61626c653a2063616c6c6572206973206e6f7420746865206f776e6572604482015290519081900360640190fd5b6001600160a01b03831660009081526005602052604090205480831061187e576040805162461bcd60e51b815260206004820181905260248201527f756e7374616b65436f6d706f736974653a20696e76616c696420696e6465782e604482015290519081900360640190fd5b6001600160a01b03841660009081526003602052604081208054859081106118a257fe5b906000526020600020906006020190506118ba611f44565b6001600160a01b0386166000908152600360205260409020805460001985019081106118e257fe5b600091825260209091206040805160e081018083529093600602909201918391820190839060059082845b81548152602001906001019080831161190d57505050918352505060059182015460209182015290840154845460015460408051632f7ce47360e21b8152600481018490529051959650929491936000936001600160a01b039092169263bdf391cc926024808201939291829003018186803b15801561198c57600080fd5b505afa1580156119a0573d6000803e3d6000fd5b505050506040513d60208110156119b657600080fd5b505190506000805b6005811015611a635760006001600160a01b038416639cc7f7088984600581106119e457fe5b01546040518263ffffffff1660e01b81526004018082815260200191505060206040518083038186803b158015611a1a57600080fd5b505afa158015611a2e573d6000803e3d6000fd5b505050506040513d6020811015611a4457600080fd5b50519050611a58838263ffffffff611c6116565b9250506001016119be565b508451611a739087906005611f64565b506020808601516005808901919091556001600160a01b03808d16600090815291835260408083208054600019019055908516825260089092522054611abf908263ffffffff611d1b16565b6001600160a01b038316600090815260086020908152604080832093909355600790522054611af590600163ffffffff611d1b16565b6001600160a01b03808416600090815260076020908152604080832094909455918d16815260039091522080546000198901908110611b3057fe5b60009182526020822060069091020190611b4a8282611f92565b50600060059190910155509198975050505050505050565b6001600160a01b038216600090815260056020526040812054808310611bb95760405162461bcd60e51b81526004018080602001828103825260298152602001806120186029913960400191505060405180910390fd5b6001600160a01b0384166000908152600360205260409020805484908110611bdd57fe5b90600052602060002090600602016005015491505092915050565b611c00610786565b611c51576040805162461bcd60e51b815260206004820181905260248201527f4f776e61626c653a2063616c6c6572206973206e6f7420746865206f776e6572604482015290519081900360640190fd5b611c5a81611d5d565b50565b3390565b600082820183811015611cbb576040805162461bcd60e51b815260206004820152601b60248201527f536166654d6174683a206164646974696f6e206f766572666c6f770000000000604482015290519081900360640190fd5b9392505050565b600082611cd15750600061058e565b82820282848281611cde57fe5b0414611cbb5760405162461bcd60e51b81526004018080602001828103825260218152602001806120886021913960400191505060405180910390fd5b6000611cbb83836040518060400160405280601e81526020017f536166654d6174683a207375627472616374696f6e206f766572666c6f770000815250611e0a565b6001600160a01b038116611da25760405162461bcd60e51b8152600401808060200182810382526026815260200180611ff26026913960400191505060405180910390fd5b600080546040516001600160a01b03808516939216917f8be0079c531659141344cd1fd0a4f28419497f9722a3daafe3b4186f6b6457e091a36000805473ffffffffffffffffffffffffffffffffffffffff19166001600160a01b0392909216919091179055565b60008184841115611e995760405162461bcd60e51b81526004018080602001828103825283818151815260200191508051906020019080838360005b83811015611e5e578181015183820152602001611e46565b50505050905090810190601f168015611e8b5780820380516001836020036101000a031916815260200191505b509250505060405180910390fd5b505050900390565b6040518060a001604052806005906020820280388339509192915050565b604051806040016040528060008152602001600081525090565b6040518060a001604052806005905b611ef0611ebf565b815260200190600190039081611ee85790505090565b8260058101928215611f34579160200282015b82811115611f34578235825591602001919060010190611f19565b50611f40929150611fb5565b5090565b6040518060400160405280611f57611ea1565b8152602001600081525090565b8260058101928215611f34579160200282015b82811115611f34578251825591602001919060010190611f77565b506000815560010160008155600101600081556001016000815560010160009055565b61078391905b80821115611f405760008155600101611fbb56fe676574546f6b656e4964734279496e6465783a20696e76616c696420696e6465782e4f776e61626c653a206e6577206f776e657220697320746865207a65726f2061646472657373676574436f6d706f73697465506f776572644279496e6465783a20696e76616c696420696e6465782e7374616b65436f6d706f736974653a20496e76616c696420746f6b656e2069642e67657453696e676c65506f776572644279496e6465783a20696e76616c696420696e6465782e536166654d6174683a206d756c7469706c69636174696f6e206f766572666c6f777374616b65436f6d706f736974653a2043616e6e6f74206164642073616d6520706f6b65722e676574546f6b656e49644279496e6465783a20696e76616c696420696e6465782ea265627a7a723158206dd1a774daeb1725ca6fb598915ff5eab035b770c22da37d18d933d3bb9691f664736f6c63430005100032",
  "source": "pragma solidity ^0.5.0;\r\n\r\nimport \"openzeppelin-solidity/contracts/token/ERC721/IERC721.sol\";\r\nimport \"openzeppelin-solidity/contracts/ownership/Ownable.sol\";\r\nimport './libraries/SafeMath.sol';\r\nimport './libraries/SignedSafeMath.sol';\r\nimport './interfaces/ISwapLPNFT.sol';\r\nimport './interfaces/IPairERC20.sol';\r\nimport './interfaces/IXkeyPokerPower.sol';\r\n\r\ncontract XPokerPower is IXkeyPokerPower, Ownable {\r\n    using SafeMath for uint;\r\n    using SignedSafeMath for int256;\r\n\r\n    struct SinglePokerPower {\r\n        uint256 tokenId;\r\n        uint256 power;\r\n    }\r\n\r\n    struct CompositePokerPower {\r\n        uint256[5] tokenIds;\r\n        uint256 power;\r\n    }\r\n\r\n    struct Poker {\r\n        uint256 suit;\r\n        uint256 rank;\r\n    }\r\n\r\n    ISwapLPNFT XPOKER;\r\n    mapping(address => SinglePokerPower[]) public singlePokerPower;\r\n    mapping(address => CompositePokerPower[]) public compositePokers;\r\n    mapping(address => uint) public singleLength;\r\n    mapping(address => uint) public compositeLength;\r\n    mapping(address => uint) public swapTokenSingleLength;\r\n    mapping(address => uint) public swapTokenCompositeLength;\r\n    mapping(address => uint) public swapTokenAllLiquid;\r\n    constructor(ISwapLPNFT _xpoker) public {\r\n        XPOKER = _xpoker;\r\n    }\r\n\r\n    function stake(address user, IPairERC20 pair, uint256 tokenId) external onlyOwner returns (uint256) {\r\n\r\n        uint suit;\r\n        uint rank;\r\n        (suit, rank) = XPOKER.getPokerProperty(tokenId);\r\n        uint256 power = 0;\r\n        uint256 liquid = pair.balanceOf(tokenId);\r\n        swapTokenAllLiquid[address(pair)] = swapTokenAllLiquid[address(pair)].add(liquid);\r\n        power = rank.mul(liquid);\r\n        require(power>0, \"stake: zero power.\");\r\n        if(singleLength[user] < singlePokerPower[user].length){\r\n            singlePokerPower[user][singleLength[user]].tokenId = tokenId;\r\n            singlePokerPower[user][singleLength[user]].power = power;\r\n        }\r\n        else{\r\n            SinglePokerPower memory p;\r\n            p.tokenId = tokenId;\r\n            p.power = power;\r\n            singlePokerPower[user].push(p);\r\n        }\r\n\r\n        singleLength[user] = singleLength[user] + 1;\r\n        swapTokenSingleLength[address(pair)] = swapTokenSingleLength[address(pair)].add(1);\r\n        return power;\r\n    }\r\n\r\n    function stakeComposite(address user, IPairERC20 pair, uint256[5] calldata tokenIds) external onlyOwner returns(uint256) {\r\n        uint totalNumber = 0;\r\n        uint totalLp = 0;\r\n        Poker[5] memory poker;\r\n        bool isFlush = true;\r\n        bool isStraight = true;\r\n        uint state = 0;  // 0 - High Card, 1 - One Pair, 2 - One Pair End, 3 - Three, 4 - Three End, 5 - Tow Pair, 6 - Full House, 7 - Four\r\n        for (uint i=0; i<5; i++) {\r\n            require(tokenIds[i] > 0, \"stakeComposite: Invalid token id.\");\r\n            (poker[i].suit, poker[i].rank) = XPOKER.getPokerProperty(tokenIds[i]);\r\n            totalNumber = totalNumber + poker[i].rank;\r\n            uint256 lp = pair.balanceOf(tokenIds[i]);\r\n            totalLp = totalLp + lp;\r\n            if(i>0 && poker[i].suit != poker[i-1].suit && isFlush) {\r\n                isFlush = false;\r\n            }\r\n            for (uint j=i; j>0; j--) {\r\n                if (poker[j].rank <= poker[j-1].rank) {\r\n                    if (poker[j].rank == poker[j-1].rank) {\r\n                        require(poker[j-1].suit!=poker[j].suit, \"stakeComposite: Cannot add same poker.\");\r\n                    }\r\n                    uint tmp = poker[j-1].rank;\r\n                    poker[j-1].rank = poker[j].rank;\r\n                    poker[j].rank = tmp;\r\n                    tmp = poker[j-1].suit;\r\n                    poker[j-1].suit = poker[j].suit;\r\n                    poker[j].suit = tmp;\r\n                }\r\n            }\r\n        }\r\n        for (uint x=1; x<5; x++) {\r\n            if (poker[x].rank == poker[x-1].rank) {\r\n                isStraight = false;\r\n                if (state == 0) {\r\n                    state = 1;\r\n                } else if (state == 1) {\r\n                    state = 3;\r\n                } else if (state == 2) {\r\n                    state = 5;\r\n                } else if (state == 3) {\r\n                    state = 7;\r\n                } else if (state == 5 || state == 4) {\r\n                    state = 6;\r\n                }\r\n            } else {\r\n                if (poker[x].rank != (poker[x-1].rank + 1)) {\r\n                    isStraight = false;\r\n                }\r\n                if (state == 1) {\r\n                    state = 2;\r\n                } else if (state == 3) {\r\n                    state = 4;\r\n                }\r\n            }\r\n        }\r\n        if (isFlush) {\r\n            if (isStraight) {\r\n                if (poker[0].rank == 10) {\r\n                    totalNumber = (totalNumber + 1000) * totalLp;\r\n                } else {\r\n                    totalNumber = (totalNumber + 455) * totalLp;\r\n                }\r\n            } else {\r\n                totalNumber = (totalNumber + 275) * totalLp;\r\n            }\r\n        } else {\r\n            if (state == 7) {\r\n                totalNumber = (totalNumber + 395) * totalLp;\r\n            } else if (state == 1 || state == 2) {\r\n                totalNumber = (totalNumber + 55) * totalLp;\r\n            } else if (state == 3 || state == 4) {\r\n                totalNumber = (totalNumber + 165) * totalLp;\r\n            } else if (state == 5) {\r\n                totalNumber = (totalNumber + 110) * totalLp;\r\n            } else if (state == 6) {\r\n                totalNumber = (totalNumber + 335) * totalLp;\r\n            } else {\r\n                if (isStraight) {\r\n                    totalNumber = (totalNumber + 215) * totalLp;\r\n                } else {\r\n                    totalNumber = (totalNumber + 15) * totalLp;\r\n                }\r\n            }\r\n        }\r\n\r\n        if(compositeLength[user] < compositePokers[user].length){\r\n            compositePokers[user][compositeLength[user]].tokenIds = tokenIds;\r\n            compositePokers[user][compositeLength[user]].power = totalNumber;\r\n        }\r\n        else{\r\n            CompositePokerPower memory cPokers = CompositePokerPower(tokenIds, totalNumber);\r\n            compositePokers[user].push(cPokers);\r\n        }\r\n        compositeLength[user] = compositeLength[user] + 1;\r\n        swapTokenCompositeLength[address(pair)] = swapTokenCompositeLength[address(pair)].add(1);\r\n        swapTokenAllLiquid[address(pair)] = swapTokenAllLiquid[address(pair)].add(totalLp);\r\n        return totalNumber;\r\n    }\r\n\r\n    function getTokenIdsByIndex(address user, uint256 index) external view returns(uint256[5] memory) {\r\n        uint256 length = compositeLength[user];\r\n        require(index<length, \"getTokenIdsByIndex: invalid index.\");\r\n        return compositePokers[user][index].tokenIds;\r\n    }\r\n\r\n    function getTokenIdByIndex(address user, uint256 index) external view returns(uint256) {\r\n        uint256 length = singleLength[user];\r\n        require(index<length, \"getTokenIdByIndex: invalid index.\");\r\n        return singlePokerPower[user][index].tokenId;\r\n    }\r\n\r\n    function getSinglePowerdByIndex(address user, uint256 index) external view returns(uint256) {\r\n        uint256 length = singleLength[user];\r\n        require(index<length, \"getSinglePowerdByIndex: invalid index.\");\r\n        return singlePokerPower[user][index].power;\r\n    }\r\n\r\n    function getCompositePowerdByIndex(address user, uint256 index) external view returns(uint256) {\r\n        uint256 length = compositeLength[user];\r\n        require(index<length, \"getCompositePowerdByIndex: invalid index.\");\r\n        return compositePokers[user][index].power;\r\n    }\r\n\r\n    function unstake(address user, uint256 tokenId) external onlyOwner returns (uint256) {\r\n        SinglePokerPower[] memory tokens = singlePokerPower[user];\r\n        uint256 length = singleLength[user];\r\n        uint256 power = 0;\r\n        address pair = XPOKER.getPair(tokenId);\r\n        for (uint i=0; i<length; i++) {\r\n            if (tokens[i].tokenId == tokenId) {\r\n                power = tokens[i].power;\r\n                singlePokerPower[user][i] = singlePokerPower[user][length-1];\r\n                singleLength[user] = singleLength[user] - 1;\r\n                swapTokenSingleLength[pair] = swapTokenSingleLength[pair].sub(1);\r\n                delete singlePokerPower[user][length-1];\r\n                break;\r\n            }\r\n        }\r\n        require(power>0, \"unstake: invalid power.\");\r\n        swapTokenAllLiquid[address(pair)] = swapTokenAllLiquid[address(pair)].sub(IPairERC20(pair).balanceOf(tokenId));\r\n        return power;\r\n    }\r\n\r\n    function unstakeComposite(address user, uint256 index) external onlyOwner returns (uint256) {\r\n        uint256 length = compositeLength[user];\r\n        require(index<length, \"unstakeComposite: invalid index.\");\r\n        CompositePokerPower storage cpp = compositePokers[user][index];\r\n        CompositePokerPower memory cpe = compositePokers[user][length-1];\r\n        uint256 power = cpp.power;\r\n        uint256 tokenId = cpp.tokenIds[0];\r\n        address pair = XPOKER.getPair(tokenId);\r\n        uint totallp = 0;\r\n        for (uint i=0; i<cpp.tokenIds.length; i++) {\r\n            uint256 lp = IPairERC20(pair).balanceOf(cpp.tokenIds[i]);\r\n            totallp = totallp.add(lp);\r\n        }\r\n        cpp.tokenIds = cpe.tokenIds;\r\n        cpp.power = cpe.power;\r\n        compositeLength[user] = compositeLength[user] - 1;\r\n        swapTokenAllLiquid[address(pair)] = swapTokenAllLiquid[address(pair)].sub(totallp);\r\n        swapTokenCompositeLength[pair] = swapTokenCompositeLength[pair].sub(1);\r\n        delete compositePokers[user][length-1];\r\n        return power;\r\n    }\r\n\r\n}\r\n\r\n",
  "sourcePath": "E:/codingproject/xkey/contracts/XPokerPower.sol",
  "compiler": {
    "name": "solc",
    "version": "0.5.16+commit.9c3226ce.Emscripten.clang"
  },
  "schemaVersion": "3.4.0",
  "updatedAt": "2021-06-09T09:07:09.134Z",
  "devdoc": {
    "methods": {
      "isOwner()": {
        "details": "Returns true if the caller is the current owner."
      },
      "owner()": {
        "details": "Returns the address of the current owner."
      },
      "renounceOwnership()": {
        "details": "Leaves the contract without owner. It will not be possible to call `onlyOwner` functions anymore. Can only be called by the current owner.     * NOTE: Renouncing ownership will leave the contract without an owner, thereby removing any functionality that is only available to the owner."
      },
      "transferOwnership(address)": {
        "details": "Transfers ownership of the contract to a new account (`newOwner`). Can only be called by the current owner."
      }
    }
  },
  "userdoc": {
    "methods": {}
  }
}