{
  "contractName": "XSwapLPNFT",
  "abi": [
    {
      "inputs": [],
      "payable": false,
      "stateMutability": "nonpayable",
      "type": "constructor"
    },
    {
      "anonymous": false,
      "inputs": [
        {
          "indexed": true,
          "internalType": "address",
          "name": "owner",
          "type": "address"
        },
        {
          "indexed": true,
          "internalType": "address",
          "name": "approved",
          "type": "address"
        },
        {
          "indexed": true,
          "internalType": "uint256",
          "name": "tokenId",
          "type": "uint256"
        }
      ],
      "name": "Approval",
      "type": "event"
    },
    {
      "anonymous": false,
      "inputs": [
        {
          "indexed": true,
          "internalType": "address",
          "name": "owner",
          "type": "address"
        },
        {
          "indexed": true,
          "internalType": "address",
          "name": "operator",
          "type": "address"
        },
        {
          "indexed": false,
          "internalType": "bool",
          "name": "approved",
          "type": "bool"
        }
      ],
      "name": "ApprovalForAll",
      "type": "event"
    },
    {
      "anonymous": false,
      "inputs": [
        {
          "indexed": true,
          "internalType": "address",
          "name": "previousOwner",
          "type": "address"
        },
        {
          "indexed": true,
          "internalType": "address",
          "name": "newOwner",
          "type": "address"
        }
      ],
      "name": "OwnershipTransferred",
      "type": "event"
    },
    {
      "anonymous": false,
      "inputs": [
        {
          "indexed": true,
          "internalType": "address",
          "name": "from",
          "type": "address"
        },
        {
          "indexed": true,
          "internalType": "address",
          "name": "to",
          "type": "address"
        },
        {
          "indexed": true,
          "internalType": "uint256",
          "name": "tokenId",
          "type": "uint256"
        }
      ],
      "name": "Transfer",
      "type": "event"
    },
    {
      "constant": false,
      "inputs": [
        {
          "internalType": "address",
          "name": "to",
          "type": "address"
        },
        {
          "internalType": "uint256",
          "name": "tokenId",
          "type": "uint256"
        }
      ],
      "name": "approve",
      "outputs": [],
      "payable": false,
      "stateMutability": "nonpayable",
      "type": "function"
    },
    {
      "constant": true,
      "inputs": [
        {
          "internalType": "address",
          "name": "owner",
          "type": "address"
        }
      ],
      "name": "balanceOf",
      "outputs": [
        {
          "internalType": "uint256",
          "name": "",
          "type": "uint256"
        }
      ],
      "payable": false,
      "stateMutability": "view",
      "type": "function"
    },
    {
      "constant": true,
      "inputs": [],
      "name": "baseURI",
      "outputs": [
        {
          "internalType": "string",
          "name": "",
          "type": "string"
        }
      ],
      "payable": false,
      "stateMutability": "view",
      "type": "function"
    },
    {
      "constant": true,
      "inputs": [
        {
          "internalType": "uint256",
          "name": "tokenId",
          "type": "uint256"
        }
      ],
      "name": "getApproved",
      "outputs": [
        {
          "internalType": "address",
          "name": "",
          "type": "address"
        }
      ],
      "payable": false,
      "stateMutability": "view",
      "type": "function"
    },
    {
      "constant": true,
      "inputs": [
        {
          "internalType": "address",
          "name": "owner",
          "type": "address"
        },
        {
          "internalType": "address",
          "name": "operator",
          "type": "address"
        }
      ],
      "name": "isApprovedForAll",
      "outputs": [
        {
          "internalType": "bool",
          "name": "",
          "type": "bool"
        }
      ],
      "payable": false,
      "stateMutability": "view",
      "type": "function"
    },
    {
      "constant": true,
      "inputs": [],
      "name": "isOwner",
      "outputs": [
        {
          "internalType": "bool",
          "name": "",
          "type": "bool"
        }
      ],
      "payable": false,
      "stateMutability": "view",
      "type": "function"
    },
    {
      "constant": true,
      "inputs": [],
      "name": "minter",
      "outputs": [
        {
          "internalType": "address",
          "name": "",
          "type": "address"
        }
      ],
      "payable": false,
      "stateMutability": "view",
      "type": "function"
    },
    {
      "constant": true,
      "inputs": [],
      "name": "name",
      "outputs": [
        {
          "internalType": "string",
          "name": "",
          "type": "string"
        }
      ],
      "payable": false,
      "stateMutability": "view",
      "type": "function"
    },
    {
      "constant": true,
      "inputs": [],
      "name": "owner",
      "outputs": [
        {
          "internalType": "address",
          "name": "",
          "type": "address"
        }
      ],
      "payable": false,
      "stateMutability": "view",
      "type": "function"
    },
    {
      "constant": true,
      "inputs": [
        {
          "internalType": "uint256",
          "name": "tokenId",
          "type": "uint256"
        }
      ],
      "name": "ownerOf",
      "outputs": [
        {
          "internalType": "address",
          "name": "",
          "type": "address"
        }
      ],
      "payable": false,
      "stateMutability": "view",
      "type": "function"
    },
    {
      "constant": false,
      "inputs": [],
      "name": "renounceOwnership",
      "outputs": [],
      "payable": false,
      "stateMutability": "nonpayable",
      "type": "function"
    },
    {
      "constant": false,
      "inputs": [
        {
          "internalType": "address",
          "name": "from",
          "type": "address"
        },
        {
          "internalType": "address",
          "name": "to",
          "type": "address"
        },
        {
          "internalType": "uint256",
          "name": "tokenId",
          "type": "uint256"
        }
      ],
      "name": "safeTransferFrom",
      "outputs": [],
      "payable": false,
      "stateMutability": "nonpayable",
      "type": "function"
    },
    {
      "constant": false,
      "inputs": [
        {
          "internalType": "address",
          "name": "from",
          "type": "address"
        },
        {
          "internalType": "address",
          "name": "to",
          "type": "address"
        },
        {
          "internalType": "uint256",
          "name": "tokenId",
          "type": "uint256"
        },
        {
          "internalType": "bytes",
          "name": "_data",
          "type": "bytes"
        }
      ],
      "name": "safeTransferFrom",
      "outputs": [],
      "payable": false,
      "stateMutability": "nonpayable",
      "type": "function"
    },
    {
      "constant": false,
      "inputs": [
        {
          "internalType": "address",
          "name": "to",
          "type": "address"
        },
        {
          "internalType": "bool",
          "name": "approved",
          "type": "bool"
        }
      ],
      "name": "setApprovalForAll",
      "outputs": [],
      "payable": false,
      "stateMutability": "nonpayable",
      "type": "function"
    },
    {
      "constant": true,
      "inputs": [
        {
          "internalType": "bytes4",
          "name": "interfaceId",
          "type": "bytes4"
        }
      ],
      "name": "supportsInterface",
      "outputs": [
        {
          "internalType": "bool",
          "name": "",
          "type": "bool"
        }
      ],
      "payable": false,
      "stateMutability": "view",
      "type": "function"
    },
    {
      "constant": true,
      "inputs": [],
      "name": "symbol",
      "outputs": [
        {
          "internalType": "string",
          "name": "",
          "type": "string"
        }
      ],
      "payable": false,
      "stateMutability": "view",
      "type": "function"
    },
    {
      "constant": true,
      "inputs": [
        {
          "internalType": "uint256",
          "name": "index",
          "type": "uint256"
        }
      ],
      "name": "tokenByIndex",
      "outputs": [
        {
          "internalType": "uint256",
          "name": "",
          "type": "uint256"
        }
      ],
      "payable": false,
      "stateMutability": "view",
      "type": "function"
    },
    {
      "constant": true,
      "inputs": [
        {
          "internalType": "address",
          "name": "owner",
          "type": "address"
        },
        {
          "internalType": "uint256",
          "name": "index",
          "type": "uint256"
        }
      ],
      "name": "tokenOfOwnerByIndex",
      "outputs": [
        {
          "internalType": "uint256",
          "name": "",
          "type": "uint256"
        }
      ],
      "payable": false,
      "stateMutability": "view",
      "type": "function"
    },
    {
      "constant": true,
      "inputs": [],
      "name": "totalSupply",
      "outputs": [
        {
          "internalType": "uint256",
          "name": "",
          "type": "uint256"
        }
      ],
      "payable": false,
      "stateMutability": "view",
      "type": "function"
    },
    {
      "constant": false,
      "inputs": [
        {
          "internalType": "address",
          "name": "from",
          "type": "address"
        },
        {
          "internalType": "address",
          "name": "to",
          "type": "address"
        },
        {
          "internalType": "uint256",
          "name": "tokenId",
          "type": "uint256"
        }
      ],
      "name": "transferFrom",
      "outputs": [],
      "payable": false,
      "stateMutability": "nonpayable",
      "type": "function"
    },
    {
      "constant": false,
      "inputs": [
        {
          "internalType": "address",
          "name": "newOwner",
          "type": "address"
        }
      ],
      "name": "transferOwnership",
      "outputs": [],
      "payable": false,
      "stateMutability": "nonpayable",
      "type": "function"
    },
    {
      "constant": false,
      "inputs": [
        {
          "internalType": "address",
          "name": "_minter",
          "type": "address"
        }
      ],
      "name": "setMinter",
      "outputs": [],
      "payable": false,
      "stateMutability": "nonpayable",
      "type": "function"
    },
    {
      "constant": false,
      "inputs": [
        {
          "internalType": "address",
          "name": "_pair",
          "type": "address"
        },
        {
          "internalType": "address",
          "name": "_to",
          "type": "address"
        }
      ],
      "name": "mintUniqueTokenTo",
      "outputs": [
        {
          "internalType": "uint256",
          "name": "",
          "type": "uint256"
        }
      ],
      "payable": false,
      "stateMutability": "nonpayable",
      "type": "function"
    },
    {
      "constant": false,
      "inputs": [
        {
          "internalType": "address",
          "name": "_pair",
          "type": "address"
        },
        {
          "internalType": "address",
          "name": "_to",
          "type": "address"
        },
        {
          "internalType": "uint256",
          "name": "_suit",
          "type": "uint256"
        },
        {
          "internalType": "uint256",
          "name": "_rank",
          "type": "uint256"
        }
      ],
      "name": "testMint",
      "outputs": [
        {
          "internalType": "uint256",
          "name": "",
          "type": "uint256"
        }
      ],
      "payable": false,
      "stateMutability": "nonpayable",
      "type": "function"
    },
    {
      "constant": true,
      "inputs": [
        {
          "internalType": "uint256",
          "name": "_tokenId",
          "type": "uint256"
        }
      ],
      "name": "getPokerProperty",
      "outputs": [
        {
          "internalType": "uint256",
          "name": "suit",
          "type": "uint256"
        },
        {
          "internalType": "uint256",
          "name": "rank",
          "type": "uint256"
        }
      ],
      "payable": false,
      "stateMutability": "view",
      "type": "function"
    },
    {
      "constant": false,
      "inputs": [
        {
          "internalType": "uint256",
          "name": "_tokenId",
          "type": "uint256"
        }
      ],
      "name": "openLootBox",
      "outputs": [],
      "payable": false,
      "stateMutability": "nonpayable",
      "type": "function"
    },
    {
      "constant": true,
      "inputs": [],
      "name": "baseTokenURI",
      "outputs": [
        {
          "internalType": "string",
          "name": "",
          "type": "string"
        }
      ],
      "payable": false,
      "stateMutability": "pure",
      "type": "function"
    },
    {
      "constant": true,
      "inputs": [
        {
          "internalType": "uint256",
          "name": "_tokenId",
          "type": "uint256"
        }
      ],
      "name": "tokenURI",
      "outputs": [
        {
          "internalType": "string",
          "name": "",
          "type": "string"
        }
      ],
      "payable": false,
      "stateMutability": "view",
      "type": "function"
    },
    {
      "constant": true,
      "inputs": [
        {
          "internalType": "uint256",
          "name": "_tokenId",
          "type": "uint256"
        }
      ],
      "name": "getPair",
      "outputs": [
        {
          "internalType": "address",
          "name": "",
          "type": "address"
        }
      ],
      "payable": false,
      "stateMutability": "view",
      "type": "function"
    }
  ],
  "bytecode": "0x60806040526000600e553480156200001657600080fd5b50604080518082018252600e81526d3c283630b732ba103c2837b5b2b960911b602080830191909152825180840190935260068352653c2837b5b2b960d11b90830152908181620000776301ffc9a760e01b6001600160e01b036200015e16565b620000926380ac58cd60e01b6001600160e01b036200015e16565b620000ad63780e9d6360e01b6001600160e01b036200015e16565b8151620000c2906009906020850190620001e8565b508051620000d890600a906020840190620001e8565b50620000f4635b5e139f60e01b6001600160e01b036200015e16565b5050505060006200010a620001e360201b60201c565b600d80546001600160a01b0319166001600160a01b038316908117909155604051919250906000907f8be0079c531659141344cd1fd0a4f28419497f9722a3daafe3b4186f6b6457e0908290a3506200028a565b6001600160e01b03198082161415620001be576040805162461bcd60e51b815260206004820152601c60248201527f4552433136353a20696e76616c696420696e7465726661636520696400000000604482015290519081900360640190fd5b6001600160e01b0319166000908152602081905260409020805460ff19166001179055565b335b90565b828054600181600116156101000203166002900490600052602060002090601f016020900481019282601f106200022b57805160ff19168380011785556200025b565b828001600101855582156200025b579182015b828111156200025b5782518255916020019190600101906200023e565b50620002699291506200026d565b5090565b620001e591905b8082111562000269576000815560010162000274565b6123e9806200029a6000396000f3fe608060405234801561001057600080fd5b50600436106101cf5760003560e01c80636352211e11610104578063a22cb465116100a2578063d547cfb711610071578063d547cfb714610620578063e985e9c514610628578063f2fde38b14610656578063fca3b5aa1461067c576101cf565b8063a22cb465146104f2578063b88d4fde14610520578063bdf391cc146105e6578063c87b56dd14610603576101cf565b8063715018a6116100de578063715018a6146104d25780638da5cb5b146104da5780638f32d59b146104e257806395d89b41146104ea576101cf565b80636352211e146104875780636c0360eb146104a457806370a08231146104ac576101cf565b806318d95029116101715780632f745c591161014b5780632f745c59146103eb57806342842e0e146104175780634f6ccce71461044d57806355a02c2d1461046a576101cf565b806318d950291461034b5780631b977c511461037957806323b872dd146103b5576101cf565b8063081812fc116101ad578063081812fc146102b0578063095ea7b3146102cd57806314600ef7146102fb57806318160ddd14610331576101cf565b806301ffc9a7146101d457806306fdde031461020f578063075461721461028c575b600080fd5b6101fb600480360360208110156101ea57600080fd5b50356001600160e01b0319166106a2565b604080519115158252519081900360200190f35b6102176106c5565b6040805160208082528351818301528351919283929083019185019080838360005b83811015610251578181015183820152602001610239565b50505050905090810190601f16801561027e5780820380516001836020036101000a031916815260200191505b509250505060405180910390f35b61029461075c565b604080516001600160a01b039092168252519081900360200190f35b610294600480360360208110156102c657600080fd5b503561076b565b6102f9600480360360408110156102e357600080fd5b506001600160a01b0381351690602001356107cd565b005b6103186004803603602081101561031157600080fd5b50356108f5565b6040805192835260208301919091528051918290030190f35b610339610955565b60408051918252519081900360200190f35b6103396004803603604081101561036157600080fd5b506001600160a01b038135811691602001351661095b565b6103396004803603608081101561038f57600080fd5b506001600160a01b03813581169160208101359091169060408101359060600135610a6f565b6102f9600480360360608110156103cb57600080fd5b506001600160a01b03813581169160208101359091169060400135610b48565b6103396004803603604081101561040157600080fd5b506001600160a01b038135169060200135610ba4565b6102f96004803603606081101561042d57600080fd5b506001600160a01b03813581169160208101359091169060400135610c23565b6103396004803603602081101561046357600080fd5b5035610c3e565b6102f96004803603602081101561048057600080fd5b5035610ca4565b6102946004803603602081101561049d57600080fd5b5035610de7565b610217610e41565b610339600480360360208110156104c257600080fd5b50356001600160a01b0316610ea2565b6102f9610f0a565b610294610fad565b6101fb610fbc565b610217610fe2565b6102f96004803603604081101561050857600080fd5b506001600160a01b0381351690602001351515611043565b6102f96004803603608081101561053657600080fd5b6001600160a01b0382358116926020810135909116916040820135919081019060808101606082013564010000000081111561057157600080fd5b82018360208201111561058357600080fd5b803590602001918460018302840111640100000000831117156105a557600080fd5b91908080601f016020809104026020016040519081016040528093929190818152602001838380828437600092019190915250929550611148945050505050565b610294600480360360208110156105fc57600080fd5b50356111a6565b6102176004803603602081101561061957600080fd5b503561121e565b610217611290565b6101fb6004803603604081101561063e57600080fd5b506001600160a01b03813581169160200135166112c7565b6102f96004803603602081101561066c57600080fd5b50356001600160a01b03166112f5565b6102f96004803603602081101561069257600080fd5b50356001600160a01b031661135a565b6001600160e01b0319811660009081526020819052604090205460ff165b919050565b60098054604080516020601f60026000196101006001881615020190951694909404938401819004810282018101909252828152606093909290918301828280156107515780601f1061072657610100808354040283529160200191610751565b820191906000526020600020905b81548152906001019060200180831161073457829003601f168201915b505050505090505b90565b600f546001600160a01b031681565b6000610776826113d5565b6107b15760405162461bcd60e51b815260040180806020018281038252602c8152602001806122e2602c913960400191505060405180910390fd5b506000908152600260205260409020546001600160a01b031690565b60006107d882610de7565b9050806001600160a01b0316836001600160a01b0316141561082b5760405162461bcd60e51b81526004018080602001828103825260218152602001806123376021913960400191505060405180910390fd5b806001600160a01b031661083d6113f2565b6001600160a01b0316148061085e575061085e816108596113f2565b6112c7565b6108995760405162461bcd60e51b81526004018080602001828103825260388152602001806122576038913960400191505060405180910390fd5b60008281526002602052604080822080546001600160a01b0319166001600160a01b0387811691821790925591518593918516917f8c5be1e5ebec7d5bd14f71427d1e84f3dd0314c0f7b2291e5b200ac8c7c3b92591a4505050565b600080600e548311156109395760405162461bcd60e51b81526004018080602001828103825260238152602001806122346023913960400191505060405180910390fd5b5050600090815260106020526040902080546001909101549091565b60075490565b600f546000906001600160a01b031633146109bd576040805162461bcd60e51b815260206004820152601660248201527f6f6e6c794d696e7465723a206e6f74206d696e74657200000000000000000000604482015290519081900360640190fd5b600e546000906109d490600163ffffffff6113f616565b90506109e08382611457565b60008181526010602090815260409182902043600a810160028301558351808401869052904081850152835180820385018152606090910190935282519290910191909120600d81066002016001830155600481600191900681018355600390920180546001600160a01b0388166001600160a01b031990911617905550600e80549091019055905092915050565b600f546000906001600160a01b03163314610ad1576040805162461bcd60e51b815260206004820152601660248201527f6f6e6c794d696e7465723a206e6f74206d696e74657200000000000000000000604482015290519081900360640190fd5b600e54600090610ae890600163ffffffff6113f616565b9050610af48582611457565b600081815260106020526040902043600a0160028201558481556001808201859055600390910180546001600160a01b0319166001600160a01b038916179055600e8054909101905590505b949350505050565b610b59610b536113f2565b82611478565b610b945760405162461bcd60e51b81526004018080602001828103825260318152602001806123586031913960400191505060405180910390fd5b610b9f838383611514565b505050565b6000610baf83610ea2565b8210610bec5760405162461bcd60e51b815260040180806020018281038252602b81526020018061213e602b913960400191505060405180910390fd5b6001600160a01b0383166000908152600560205260409020805483908110610c1057fe5b9060005260206000200154905092915050565b610b9f83838360405180602001604052806000815250611148565b6000610c48610955565b8210610c855760405162461bcd60e51b815260040180806020018281038252602c815260200180612389602c913960400191505060405180910390fd5b60078281548110610c9257fe5b90600052602060002001549050919050565b60008111610cf9576040805162461bcd60e51b815260206004820152600e60248201527f7a65726f20746f6b656e2069642e000000000000000000000000000000000000604482015290519081900360640190fd5b600e54811115610d50576040805162461bcd60e51b815260206004820152601660248201527f6e6f742061737369676e656420746f6b656e2069642e00000000000000000000604482015290519081900360640190fd5b600081815260106020526040902060028101544311610da05760405162461bcd60e51b81526004018080602001828103825260238152602001806121e56023913960400191505060405180910390fd5b600281015460408051602080820186905292408183015281518082038301815260609091019091528051910120600d81066002016001830155600481066001019091555050565b6000818152600160205260408120546001600160a01b031680610e3b5760405162461bcd60e51b81526004018080602001828103825260298152602001806122b96029913960400191505060405180910390fd5b92915050565b600b8054604080516020601f60026000196101006001881615020190951694909404938401819004810282018101909252828152606093909290918301828280156107515780601f1061072657610100808354040283529160200191610751565b60006001600160a01b038216610ee95760405162461bcd60e51b815260040180806020018281038252602a81526020018061228f602a913960400191505060405180910390fd5b6001600160a01b0382166000908152600360205260409020610e3b90611533565b610f12610fbc565b610f63576040805162461bcd60e51b815260206004820181905260248201527f4f776e61626c653a2063616c6c6572206973206e6f7420746865206f776e6572604482015290519081900360640190fd5b600d546040516000916001600160a01b0316907f8be0079c531659141344cd1fd0a4f28419497f9722a3daafe3b4186f6b6457e0908390a3600d80546001600160a01b0319169055565b600d546001600160a01b031690565b600d546000906001600160a01b0316610fd36113f2565b6001600160a01b031614905090565b600a8054604080516020601f60026000196101006001881615020190951694909404938401819004810282018101909252828152606093909290918301828280156107515780601f1061072657610100808354040283529160200191610751565b61104b6113f2565b6001600160a01b0316826001600160a01b031614156110b1576040805162461bcd60e51b815260206004820152601960248201527f4552433732313a20617070726f766520746f2063616c6c657200000000000000604482015290519081900360640190fd5b80600460006110be6113f2565b6001600160a01b03908116825260208083019390935260409182016000908120918716808252919093529120805460ff1916921515929092179091556111026113f2565b60408051841515815290516001600160a01b0392909216917f17307eab39ab6107e8899845ad3d59bd9653f200f220920489ca2b5937696c319181900360200190a35050565b6111596111536113f2565b83611478565b6111945760405162461bcd60e51b81526004018080602001828103825260318152602001806123586031913960400191505060405180910390fd5b6111a084848484611537565b50505050565b6000600e548211156111ff576040805162461bcd60e51b815260206004820152601a60248201527f676574506169723a20496e76616c696420746f6b656e2069642e000000000000604482015290519081900360640190fd5b506000908152601060205260409020600301546001600160a01b031690565b6060600e54821115611277576040805162461bcd60e51b815260206004820152601b60248201527f746f6b656e5552493a20496e76616c696420746f6b656e2069642e0000000000604482015290519081900360640190fd5b610e3b611282611290565b61128b84611589565b611666565b60408051808201909152601f81527f687474703a2f2f7370656369616c706f6b65722e78706c616e65742e696f2f00602082015290565b6001600160a01b03918216600090815260046020908152604080832093909416825291909152205460ff1690565b6112fd610fbc565b61134e576040805162461bcd60e51b815260206004820181905260248201527f4f776e61626c653a2063616c6c6572206973206e6f7420746865206f776e6572604482015290519081900360640190fd5b611357816116a2565b50565b611362610fbc565b6113b3576040805162461bcd60e51b815260206004820181905260248201527f4f776e61626c653a2063616c6c6572206973206e6f7420746865206f776e6572604482015290519081900360640190fd5b600f80546001600160a01b0319166001600160a01b0392909216919091179055565b6000908152600160205260409020546001600160a01b0316151590565b3390565b600082820183811015611450576040805162461bcd60e51b815260206004820152601b60248201527f536166654d6174683a206164646974696f6e206f766572666c6f770000000000604482015290519081900360640190fd5b9392505050565b6114618282611743565b61146b8282611874565b611474816118b2565b5050565b6000611483826113d5565b6114be5760405162461bcd60e51b815260040180806020018281038252602c815260200180612208602c913960400191505060405180910390fd5b60006114c983610de7565b9050806001600160a01b0316846001600160a01b031614806115045750836001600160a01b03166114f98461076b565b6001600160a01b0316145b80610b405750610b4081856112c7565b61151f8383836118f6565b6115298382611a3a565b610b9f8282611874565b5490565b611542848484611514565b61154e84848484611b2f565b6111a05760405162461bcd60e51b81526004018080602001828103825260328152602001806121696032913960400191505060405180910390fd5b6060816115ca575060408051808201909152600181527f300000000000000000000000000000000000000000000000000000000000000060208201526106c0565b8160005b81156115e257600101600a820491506115ce565b6060816040519080825280601f01601f19166020018201604052801561160f576020820181803883390190505b50905060001982015b851561165d57600a860660300160f81b8282806001900393508151811061163b57fe5b60200101906001600160f81b031916908160001a905350600a86049550611618565b50949350505050565b60606114508383604051806020016040528060008152506040518060200160405280600081525060405180602001604052806000815250611d7f565b6001600160a01b0381166116e75760405162461bcd60e51b815260040180806020018281038252602681526020018061219b6026913960400191505060405180910390fd5b600d546040516001600160a01b038084169216907f8be0079c531659141344cd1fd0a4f28419497f9722a3daafe3b4186f6b6457e090600090a3600d80546001600160a01b0319166001600160a01b0392909216919091179055565b6001600160a01b03821661179e576040805162461bcd60e51b815260206004820181905260248201527f4552433732313a206d696e7420746f20746865207a65726f2061646472657373604482015290519081900360640190fd5b6117a7816113d5565b156117f9576040805162461bcd60e51b815260206004820152601c60248201527f4552433732313a20746f6b656e20616c7265616479206d696e74656400000000604482015290519081900360640190fd5b600081815260016020908152604080832080546001600160a01b0319166001600160a01b03871690811790915583526003909152902061183890611f93565b60405181906001600160a01b038416906000907fddf252ad1be2c89b69c2b068fc378daa952ba7f163c4a11628f55a4df523b3ef908290a45050565b6001600160a01b0390911660009081526005602081815260408084208054868652600684529185208290559282526001810183559183529091200155565b600780546000838152600860205260408120829055600182018355919091527fa66cc928b5edb82af9bd49922954155ab7b0942694bea4ce44661d9a8736c6880155565b826001600160a01b031661190982610de7565b6001600160a01b03161461194e5760405162461bcd60e51b815260040180806020018281038252602981526020018061230e6029913960400191505060405180910390fd5b6001600160a01b0382166119935760405162461bcd60e51b81526004018080602001828103825260248152602001806121c16024913960400191505060405180910390fd5b61199c81611f9c565b6001600160a01b03831660009081526003602052604090206119bd90611fd7565b6001600160a01b03821660009081526003602052604090206119de90611f93565b60008181526001602052604080822080546001600160a01b0319166001600160a01b0386811691821790925591518493918716917fddf252ad1be2c89b69c2b068fc378daa952ba7f163c4a11628f55a4df523b3ef91a4505050565b6001600160a01b038216600090815260056020526040812054611a6490600163ffffffff611fee16565b600083815260066020526040902054909150808214611aff576001600160a01b0384166000908152600560205260408120805484908110611aa157fe5b906000526020600020015490508060056000876001600160a01b03166001600160a01b031681526020019081526020016000208381548110611adf57fe5b600091825260208083209091019290925591825260069052604090208190555b6001600160a01b0384166000908152600560205260409020805490611b28906000198301612100565b5050505050565b6000611b43846001600160a01b0316612030565b611b4f57506001610b40565b600060606001600160a01b038616630a85bd0160e11b611b6d6113f2565b89888860405160240180856001600160a01b03166001600160a01b03168152602001846001600160a01b03166001600160a01b0316815260200183815260200180602001828103825283818151815260200191508051906020019080838360005b83811015611be6578181015183820152602001611bce565b50505050905090810190601f168015611c135780820380516001836020036101000a031916815260200191505b5060408051601f198184030181529181526020820180517bffffffffffffffffffffffffffffffffffffffffffffffffffffffff166001600160e01b0319909a16999099178952518151919890975087965094509250829150849050835b60208310611c905780518252601f199092019160209182019101611c71565b6001836020036101000a0380198251168184511680821785525050505050509050019150506000604051808303816000865af19150503d8060008114611cf2576040519150601f19603f3d011682016040523d82523d6000602084013e611cf7565b606091505b509150915081611d4857805115611d115780518082602001fd5b60405162461bcd60e51b81526004018080602001828103825260328152602001806121696032913960400191505060405180910390fd5b6000818060200190516020811015611d5f57600080fd5b50516001600160e01b031916630a85bd0160e11b149350610b4092505050565b6060808690506060869050606086905060608690506060869050606081518351855187518951010101016040519080825280601f01601f191660200182016040528015611dd3576020820181803883390190505b509050806000805b8851811015611e2c57888181518110611df057fe5b602001015160f81c60f81b838380600101945081518110611e0d57fe5b60200101906001600160f81b031916908160001a905350600101611ddb565b5060005b8751811015611e8157878181518110611e4557fe5b602001015160f81c60f81b838380600101945081518110611e6257fe5b60200101906001600160f81b031916908160001a905350600101611e30565b5060005b8651811015611ed657868181518110611e9a57fe5b602001015160f81c60f81b838380600101945081518110611eb757fe5b60200101906001600160f81b031916908160001a905350600101611e85565b5060005b8551811015611f2b57858181518110611eef57fe5b602001015160f81c60f81b838380600101945081518110611f0c57fe5b60200101906001600160f81b031916908160001a905350600101611eda565b5060005b8451811015611f8057848181518110611f4457fe5b602001015160f81c60f81b838380600101945081518110611f6157fe5b60200101906001600160f81b031916908160001a905350600101611f2f565b50909d9c50505050505050505050505050565b80546001019055565b6000818152600260205260409020546001600160a01b03161561135757600090815260026020526040902080546001600160a01b0319169055565b8054611fea90600163ffffffff611fee16565b9055565b600061145083836040518060400160405280601e81526020017f536166654d6174683a207375627472616374696f6e206f766572666c6f770000815250612069565b6000813f7fc5d2460186f7233c927e7db2dcc703c0e500b653ca82273b7bfad8045d85a470818114801590610b40575050151592915050565b600081848411156120f85760405162461bcd60e51b81526004018080602001828103825283818151815260200191508051906020019080838360005b838110156120bd5781810151838201526020016120a5565b50505050905090810190601f1680156120ea5780820380516001836020036101000a031916815260200191505b509250505060405180910390fd5b505050900390565b815481835581811115610b9f57600083815260209020610b9f91810190830161075991905b808211156121395760008155600101612125565b509056fe455243373231456e756d657261626c653a206f776e657220696e646578206f7574206f6620626f756e64734552433732313a207472616e7366657220746f206e6f6e20455243373231526563656976657220696d706c656d656e7465724f776e61626c653a206e6577206f776e657220697320746865207a65726f20616464726573734552433732313a207472616e7366657220746f20746865207a65726f20616464726573736f70656e4c6f6f74426f783a204e6f74206f70656e20626c6f636b206e756d6265722e4552433732313a206f70657261746f7220717565727920666f72206e6f6e6578697374656e7420746f6b656e676574506f6b657250726f70657274793a20496e76616c696420746f6b656e2069642e4552433732313a20617070726f76652063616c6c6572206973206e6f74206f776e6572206e6f7220617070726f76656420666f7220616c6c4552433732313a2062616c616e636520717565727920666f7220746865207a65726f20616464726573734552433732313a206f776e657220717565727920666f72206e6f6e6578697374656e7420746f6b656e4552433732313a20617070726f76656420717565727920666f72206e6f6e6578697374656e7420746f6b656e4552433732313a207472616e73666572206f6620746f6b656e2074686174206973206e6f74206f776e4552433732313a20617070726f76616c20746f2063757272656e74206f776e65724552433732313a207472616e736665722063616c6c6572206973206e6f74206f776e6572206e6f7220617070726f766564455243373231456e756d657261626c653a20676c6f62616c20696e646578206f7574206f6620626f756e6473a265627a7a723158200750a28f2120c979d5a5fe7a2def1f8e6f165959d357b4c0d84ebf9b7c14f5ca64736f6c63430005100032",
  "source": "pragma solidity ^0.5.0;\r\n\r\nimport \"openzeppelin-solidity/contracts/token/ERC721/ERC721Full.sol\";\r\nimport \"openzeppelin-solidity/contracts/ownership/Ownable.sol\";\r\nimport \"./Strings.sol\";\r\nimport \"./interfaces/IERC20.sol\";\r\nimport \"./interfaces/IERCMint721.sol\";\r\n\r\ncontract XSwapLPNFT is ERC721Full, Ownable {\r\n    using Strings for string;\r\n\r\n    struct PokerData {\r\n        uint suit;\r\n        uint rank;\r\n        uint256 openBlock;\r\n        address pair;\r\n    }\r\n\r\n    uint256 private _currentId = 0;\r\n    address public minter;\r\n    mapping (uint256 => PokerData) private _tokenData;\r\n\r\n    modifier onlyMinter {\r\n        require(msg.sender == minter, \"onlyMinter: not minter\");\r\n        _;\r\n    }\r\n\r\n    constructor() public ERC721Full(\"xPlanet xPoker\", \"xPoker\") {\r\n    }\r\n\r\n    function setMinter(address _minter) public onlyOwner {\r\n        minter = _minter;\r\n    }\r\n\r\n    function mintUniqueTokenTo(address _pair, address _to) public onlyMinter returns(uint256){\r\n        uint256 newTokenId = _currentId.add(1);\r\n        _mint(_to, newTokenId);\r\n        PokerData storage newToken = _tokenData[newTokenId];\r\n        newToken.openBlock = block.number + 10;\r\n        bytes32 h = keccak256(abi.encodePacked(newTokenId, blockhash(block.number)));\r\n        newToken.rank = uint256(h) % 13 + 2;\r\n        newToken.suit = uint256(h) % 4 + 1;\r\n        newToken.pair = _pair;\r\n        _currentId++;\r\n        return newTokenId;\r\n    }\r\n\r\n    function testMint(address _pair, address _to, uint _suit, uint _rank) public onlyMinter returns(uint256) {\r\n        uint256 newTokenId = _currentId.add(1);\r\n        _mint(_to, newTokenId);\r\n        PokerData storage newToken = _tokenData[newTokenId];\r\n        newToken.openBlock = block.number + 10;\r\n        newToken.suit = _suit;\r\n        newToken.rank = _rank;\r\n        newToken.pair = _pair;\r\n        _currentId++;\r\n        return newTokenId;\r\n    }\r\n\r\n    function getPokerProperty(uint256 _tokenId) external view returns (uint suit, uint rank) {\r\n        require(_tokenId<=_currentId, \"getPokerProperty: Invalid token id.\");\r\n        return (_tokenData[_tokenId].suit, _tokenData[_tokenId].rank);\r\n    }\r\n\r\n    function openLootBox(uint256 _tokenId) external {\r\n        require(_tokenId>0, \"zero token id.\");\r\n        require(_tokenId<=_currentId, \"not assigned token id.\");\r\n        PokerData storage data = _tokenData[_tokenId];\r\n        require(block.number>data.openBlock, \"openLootBox: Not open block number.\");\r\n        bytes32 h = keccak256(abi.encodePacked(_tokenId, blockhash(data.openBlock)));\r\n        data.rank = uint256(h) % 13 + 2;\r\n        data.suit = uint256(h) % 4 + 1;\r\n    }\r\n\r\n    function baseTokenURI() public pure returns (string memory) {\r\n        return \"http://specialpoker.xplanet.io/\";\r\n    }\r\n\r\n    function tokenURI(uint256 _tokenId) external view returns (string memory) {\r\n        require(_tokenId<=_currentId, \"tokenURI: Invalid token id.\");\r\n        return Strings.strConcat(baseTokenURI(), Strings.uint2str(_tokenId));\r\n    }\r\n\r\n    function getPair(uint256 _tokenId) public view returns(address) {\r\n        require(_tokenId<=_currentId, \"getPair: Invalid token id.\");\r\n        return _tokenData[_tokenId].pair;\r\n    }\r\n}\r\n\r\n",
  "sourcePath": "E:/codingproject/xkey/contracts/XSwapLPNFT.sol",
  "compiler": {
    "name": "solc",
    "version": "0.5.16+commit.9c3226ce.Emscripten.clang"
  },
  "schemaVersion": "3.4.0",
  "updatedAt": "2021-06-04T05:56:25.657Z",
  "devdoc": {
    "methods": {
      "approve(address,uint256)": {
        "details": "Approves another address to transfer the given token ID The zero address indicates there is no approved address. There can only be one approved address per token at a given time. Can only be called by the token owner or an approved operator.",
        "params": {
          "to": "address to be approved for the given token ID",
          "tokenId": "uint256 ID of the token to be approved"
        }
      },
      "balanceOf(address)": {
        "details": "Gets the balance of the specified address.",
        "params": {
          "owner": "address to query the balance of"
        },
        "return": "uint256 representing the amount owned by the passed address"
      },
      "baseURI()": {
        "details": "Returns the base URI set via {_setBaseURI}. This will be automatically added as a preffix in {tokenURI} to each token's URI, when they are non-empty.    * _Available since v2.5.0._"
      },
      "getApproved(uint256)": {
        "details": "Gets the approved address for a token ID, or zero if no address set Reverts if the token ID does not exist.",
        "params": {
          "tokenId": "uint256 ID of the token to query the approval of"
        },
        "return": "address currently approved for the given token ID"
      },
      "isApprovedForAll(address,address)": {
        "details": "Tells whether an operator is approved by a given owner.",
        "params": {
          "operator": "operator address which you want to query the approval of",
          "owner": "owner address which you want to query the approval of"
        },
        "return": "bool whether the given operator is approved by the given owner"
      },
      "isOwner()": {
        "details": "Returns true if the caller is the current owner."
      },
      "name()": {
        "details": "Gets the token name.",
        "return": "string representing the token name"
      },
      "owner()": {
        "details": "Returns the address of the current owner."
      },
      "ownerOf(uint256)": {
        "details": "Gets the owner of the specified token ID.",
        "params": {
          "tokenId": "uint256 ID of the token to query the owner of"
        },
        "return": "address currently marked as the owner of the given token ID"
      },
      "renounceOwnership()": {
        "details": "Leaves the contract without owner. It will not be possible to call `onlyOwner` functions anymore. Can only be called by the current owner.     * NOTE: Renouncing ownership will leave the contract without an owner, thereby removing any functionality that is only available to the owner."
      },
      "safeTransferFrom(address,address,uint256)": {
        "details": "Safely transfers the ownership of a given token ID to another address If the target address is a contract, it must implement {IERC721Receiver-onERC721Received}, which is called upon a safe transfer, and return the magic value `bytes4(keccak256(\"onERC721Received(address,address,uint256,bytes)\"))`; otherwise, the transfer is reverted. Requires the msg.sender to be the owner, approved, or operator",
        "params": {
          "from": "current owner of the token",
          "to": "address to receive the ownership of the given token ID",
          "tokenId": "uint256 ID of the token to be transferred"
        }
      },
      "safeTransferFrom(address,address,uint256,bytes)": {
        "details": "Safely transfers the ownership of a given token ID to another address If the target address is a contract, it must implement {IERC721Receiver-onERC721Received}, which is called upon a safe transfer, and return the magic value `bytes4(keccak256(\"onERC721Received(address,address,uint256,bytes)\"))`; otherwise, the transfer is reverted. Requires the _msgSender() to be the owner, approved, or operator",
        "params": {
          "_data": "bytes data to send along with a safe transfer check",
          "from": "current owner of the token",
          "to": "address to receive the ownership of the given token ID",
          "tokenId": "uint256 ID of the token to be transferred"
        }
      },
      "setApprovalForAll(address,bool)": {
        "details": "Sets or unsets the approval of a given operator An operator is allowed to transfer all tokens of the sender on their behalf.",
        "params": {
          "approved": "representing the status of the approval to be set",
          "to": "operator address to set the approval"
        }
      },
      "supportsInterface(bytes4)": {
        "details": "See {IERC165-supportsInterface}.     * Time complexity O(1), guaranteed to always use less than 30 000 gas."
      },
      "symbol()": {
        "details": "Gets the token symbol.",
        "return": "string representing the token symbol"
      },
      "tokenByIndex(uint256)": {
        "details": "Gets the token ID at a given index of all the tokens in this contract Reverts if the index is greater or equal to the total number of tokens.",
        "params": {
          "index": "uint256 representing the index to be accessed of the tokens list"
        },
        "return": "uint256 token ID at the given index of the tokens list"
      },
      "tokenOfOwnerByIndex(address,uint256)": {
        "details": "Gets the token ID at a given index of the tokens list of the requested owner.",
        "params": {
          "index": "uint256 representing the index to be accessed of the requested tokens list",
          "owner": "address owning the tokens list to be accessed"
        },
        "return": "uint256 token ID at the given index of the tokens list owned by the requested address"
      },
      "totalSupply()": {
        "details": "Gets the total amount of tokens stored by the contract.",
        "return": "uint256 representing the total amount of tokens"
      },
      "transferFrom(address,address,uint256)": {
        "details": "Transfers the ownership of a given token ID to another address. Usage of this method is discouraged, use {safeTransferFrom} whenever possible. Requires the msg.sender to be the owner, approved, or operator.",
        "params": {
          "from": "current owner of the token",
          "to": "address to receive the ownership of the given token ID",
          "tokenId": "uint256 ID of the token to be transferred"
        }
      },
      "transferOwnership(address)": {
        "details": "Transfers ownership of the contract to a new account (`newOwner`). Can only be called by the current owner."
      }
    }
  },
  "userdoc": {
    "methods": {}
  }
}